{
	"contracts/13_Errors.sol": {
		"Error_Triage_Exercise": {
			"abi": [
				{
					"inputs": [
						{
							"internalType": "uint256",
							"name": "_num",
							"type": "uint256"
						}
					],
					"name": "addToArr",
					"outputs": [],
					"stateMutability": "nonpayable",
					"type": "function"
				},
				{
					"inputs": [
						{
							"internalType": "uint256",
							"name": "_base",
							"type": "uint256"
						},
						{
							"internalType": "int256",
							"name": "_modifier",
							"type": "int256"
						}
					],
					"name": "applyModifier",
					"outputs": [
						{
							"internalType": "uint256",
							"name": "returnValue",
							"type": "uint256"
						}
					],
					"stateMutability": "pure",
					"type": "function"
				},
				{
					"inputs": [
						{
							"internalType": "uint256",
							"name": "_a",
							"type": "uint256"
						},
						{
							"internalType": "uint256",
							"name": "_b",
							"type": "uint256"
						},
						{
							"internalType": "uint256",
							"name": "_c",
							"type": "uint256"
						},
						{
							"internalType": "uint256",
							"name": "_d",
							"type": "uint256"
						}
					],
					"name": "diffWithNeighbor",
					"outputs": [
						{
							"internalType": "uint256[]",
							"name": "",
							"type": "uint256[]"
						}
					],
					"stateMutability": "pure",
					"type": "function"
				},
				{
					"inputs": [],
					"name": "getArr",
					"outputs": [
						{
							"internalType": "uint256[]",
							"name": "",
							"type": "uint256[]"
						}
					],
					"stateMutability": "view",
					"type": "function"
				},
				{
					"inputs": [],
					"name": "popWithReturn",
					"outputs": [
						{
							"internalType": "uint256",
							"name": "returnNum",
							"type": "uint256"
						}
					],
					"stateMutability": "nonpayable",
					"type": "function"
				},
				{
					"inputs": [],
					"name": "resetArr",
					"outputs": [],
					"stateMutability": "nonpayable",
					"type": "function"
				}
			],
			"devdoc": {
				"kind": "dev",
				"methods": {
					"applyModifier(uint256,int256)": {
						"details": "Changes the base by the value of the modifier. Base is always >= 1000. Modifiers can be between positive and negative 100. ",
						"params": {
							"_base": "The base value to be modified.",
							"_modifier": "The value by which the base should be modified. "
						},
						"returns": {
							"returnValue": "The modified value of the base."
						}
					},
					"diffWithNeighbor(uint256,uint256,uint256,uint256)": {
						"details": "Finds the difference between each uint with its neighbor (a to b, b to c, etc.) and returns a uint array with the absolute integer difference of each pairing. ",
						"params": {
							"_a": "The first unsigned integer.",
							"_b": "The second unsigned integer.",
							"_c": "The third unsigned integer.",
							"_d": "The fourth unsigned integer. "
						},
						"returns": {
							"_0": "results An array containing the absolute differences between each pair of integers."
						}
					}
				},
				"version": 1
			},
			"evm": {
				"assembly": "    /* \"contracts/13_Errors.sol\":63:2394  contract Error_Triage_Exercise {... */\n  mstore(0x40, 0x80)\n  callvalue\n  dup1\n  iszero\n  tag_1\n  jumpi\n  0x00\n  dup1\n  revert\ntag_1:\n  pop\n  dataSize(sub_0)\n  dup1\n  dataOffset(sub_0)\n  0x00\n  codecopy\n  0x00\n  return\nstop\n\nsub_0: assembly {\n        /* \"contracts/13_Errors.sol\":63:2394  contract Error_Triage_Exercise {... */\n      mstore(0x40, 0x80)\n      callvalue\n      dup1\n      iszero\n      tag_1\n      jumpi\n      0x00\n      dup1\n      revert\n    tag_1:\n      pop\n      jumpi(tag_2, lt(calldatasize, 0x04))\n      shr(0xe0, calldataload(0x00))\n      dup1\n      0x1abe2ac2\n      eq\n      tag_3\n      jumpi\n      dup1\n      0x29432314\n      eq\n      tag_4\n      jumpi\n      dup1\n      0x64529db5\n      eq\n      tag_5\n      jumpi\n      dup1\n      0xe1819ff9\n      eq\n      tag_6\n      jumpi\n      dup1\n      0xf74e51ea\n      eq\n      tag_7\n      jumpi\n      dup1\n      0xfb8cbced\n      eq\n      tag_8\n      jumpi\n    tag_2:\n      0x00\n      dup1\n      revert\n        /* \"contracts/13_Errors.sol\":1893:2099  function popWithReturn() public returns (uint returnNum) {... */\n    tag_3:\n      tag_9\n      tag_10\n      jump\t// in\n    tag_9:\n      mload(0x40)\n      tag_11\n      swap2\n      swap1\n      tag_12\n      jump\t// in\n    tag_11:\n      mload(0x40)\n      dup1\n      swap2\n      sub\n      swap1\n      return\n        /* \"contracts/13_Errors.sol\":603:1193  function diffWithNeighbor(... */\n    tag_4:\n      tag_13\n      0x04\n      dup1\n      calldatasize\n      sub\n      dup2\n      add\n      swap1\n      tag_14\n      swap2\n      swap1\n      tag_15\n      jump\t// in\n    tag_14:\n      tag_16\n      jump\t// in\n    tag_13:\n      mload(0x40)\n      tag_17\n      swap2\n      swap1\n      tag_18\n      jump\t// in\n    tag_17:\n      mload(0x40)\n      dup1\n      swap2\n      sub\n      swap1\n      return\n        /* \"contracts/13_Errors.sol\":2335:2391  function resetArr() public {... */\n    tag_5:\n      tag_19\n      tag_20\n      jump\t// in\n    tag_19:\n      stop\n        /* \"contracts/13_Errors.sol\":2167:2236  function addToArr(uint _num) public {... */\n    tag_6:\n      tag_21\n      0x04\n      dup1\n      calldatasize\n      sub\n      dup2\n      add\n      swap1\n      tag_22\n      swap2\n      swap1\n      tag_23\n      jump\t// in\n    tag_22:\n      tag_24\n      jump\t// in\n    tag_21:\n      stop\n        /* \"contracts/13_Errors.sol\":1566:1864  function applyModifier(... */\n    tag_7:\n      tag_25\n      0x04\n      dup1\n      calldatasize\n      sub\n      dup2\n      add\n      swap1\n      tag_26\n      swap2\n      swap1\n      tag_27\n      jump\t// in\n    tag_26:\n      tag_28\n      jump\t// in\n    tag_25:\n      mload(0x40)\n      tag_29\n      swap2\n      swap1\n      tag_12\n      jump\t// in\n    tag_29:\n      mload(0x40)\n      dup1\n      swap2\n      sub\n      swap1\n      return\n        /* \"contracts/13_Errors.sol\":2244:2327  function getArr() public view returns (uint[] memory) {... */\n    tag_8:\n      tag_30\n      tag_31\n      jump\t// in\n    tag_30:\n      mload(0x40)\n      tag_32\n      swap2\n      swap1\n      tag_18\n      jump\t// in\n    tag_32:\n      mload(0x40)\n      dup1\n      swap2\n      sub\n      swap1\n      return\n        /* \"contracts/13_Errors.sol\":1893:2099  function popWithReturn() public returns (uint returnNum) {... */\n    tag_10:\n        /* \"contracts/13_Errors.sol\":1934:1948  uint returnNum */\n      0x00\n        /* \"contracts/13_Errors.sol\":1977:1978  0 */\n      dup1\n        /* \"contracts/13_Errors.sol\":1964:1967  arr */\n      0x00\n        /* \"contracts/13_Errors.sol\":1964:1974  arr.length */\n      dup1\n      sload\n      swap1\n      pop\n        /* \"contracts/13_Errors.sol\":1964:1978  arr.length > 0 */\n      gt\n        /* \"contracts/13_Errors.sol\":1961:2092  if(arr.length > 0) {... */\n      iszero\n      tag_34\n      jumpi\n        /* \"contracts/13_Errors.sol\":1995:2006  uint result */\n      0x00\n        /* \"contracts/13_Errors.sol\":2009:2012  arr */\n      dup1\n        /* \"contracts/13_Errors.sol\":2026:2027  1 */\n      0x01\n        /* \"contracts/13_Errors.sol\":2013:2016  arr */\n      0x00\n        /* \"contracts/13_Errors.sol\":2013:2023  arr.length */\n      dup1\n      sload\n      swap1\n      pop\n        /* \"contracts/13_Errors.sol\":2013:2027  arr.length - 1 */\n      tag_35\n      swap2\n      swap1\n      tag_36\n      jump\t// in\n    tag_35:\n        /* \"contracts/13_Errors.sol\":2009:2028  arr[arr.length - 1] */\n      dup2\n      sload\n      dup2\n      lt\n      tag_37\n      jumpi\n      tag_38\n      tag_39\n      jump\t// in\n    tag_38:\n    tag_37:\n      swap1\n      0x00\n      mstore\n      keccak256(0x00, 0x20)\n      add\n      sload\n        /* \"contracts/13_Errors.sol\":1995:2028  uint result = arr[arr.length - 1] */\n      swap1\n      pop\n        /* \"contracts/13_Errors.sol\":2043:2046  arr */\n      0x00\n        /* \"contracts/13_Errors.sol\":2043:2052  arr.pop() */\n      dup1\n      sload\n      dup1\n      tag_41\n      jumpi\n      tag_42\n      tag_43\n      jump\t// in\n    tag_42:\n    tag_41:\n      0x01\n      swap1\n      sub\n      dup2\n      dup2\n      swap1\n      0x00\n      mstore\n      keccak256(0x00, 0x20)\n      add\n      0x00\n      swap1\n      sstore\n      swap1\n      sstore\n        /* \"contracts/13_Errors.sol\":2074:2080  result */\n      dup1\n        /* \"contracts/13_Errors.sol\":2067:2080  return result */\n      swap2\n      pop\n      pop\n      jump(tag_33)\n        /* \"contracts/13_Errors.sol\":1961:2092  if(arr.length > 0) {... */\n    tag_34:\n        /* \"contracts/13_Errors.sol\":1893:2099  function popWithReturn() public returns (uint returnNum) {... */\n    tag_33:\n      swap1\n      jump\t// out\n        /* \"contracts/13_Errors.sol\":603:1193  function diffWithNeighbor(... */\n    tag_16:\n        /* \"contracts/13_Errors.sol\":729:742  uint[] memory */\n      0x60\n        /* \"contracts/13_Errors.sol\":812:833  uint[] memory results */\n      0x00\n        /* \"contracts/13_Errors.sol\":847:848  3 */\n      0x03\n        /* \"contracts/13_Errors.sol\":836:849  new uint[](3) */\n      0xffffffffffffffff\n      dup2\n      gt\n      iszero\n      tag_46\n      jumpi\n      tag_47\n      tag_48\n      jump\t// in\n    tag_47:\n    tag_46:\n      mload(0x40)\n      swap1\n      dup1\n      dup3\n      mstore\n      dup1\n      0x20\n      mul\n      0x20\n      add\n      dup3\n      add\n      0x40\n      mstore\n      dup1\n      iszero\n      tag_49\n      jumpi\n      dup2\n      0x20\n      add\n      0x20\n      dup3\n      mul\n      dup1\n      calldatasize\n      dup4\n      calldatacopy\n      dup1\n      dup3\n      add\n      swap2\n      pop\n      pop\n      swap1\n      pop\n    tag_49:\n      pop\n        /* \"contracts/13_Errors.sol\":812:849  uint[] memory results = new uint[](3) */\n      swap1\n      pop\n        /* \"contracts/13_Errors.sol\":990:992  _b */\n      dup5\n        /* \"contracts/13_Errors.sol\":985:987  _a */\n      dup7\n        /* \"contracts/13_Errors.sol\":985:992  _a > _b */\n      gt\n        /* \"contracts/13_Errors.sol\":985:1012  _a > _b ? _a - _b : _b - _a */\n      tag_50\n      jumpi\n        /* \"contracts/13_Errors.sol\":1010:1012  _a */\n      dup6\n        /* \"contracts/13_Errors.sol\":1005:1007  _b */\n      dup6\n        /* \"contracts/13_Errors.sol\":1005:1012  _b - _a */\n      tag_51\n      swap2\n      swap1\n      tag_36\n      jump\t// in\n    tag_51:\n        /* \"contracts/13_Errors.sol\":985:1012  _a > _b ? _a - _b : _b - _a */\n      jump(tag_52)\n    tag_50:\n        /* \"contracts/13_Errors.sol\":1000:1002  _b */\n      dup5\n        /* \"contracts/13_Errors.sol\":995:997  _a */\n      dup7\n        /* \"contracts/13_Errors.sol\":995:1002  _a - _b */\n      tag_53\n      swap2\n      swap1\n      tag_36\n      jump\t// in\n    tag_53:\n        /* \"contracts/13_Errors.sol\":985:1012  _a > _b ? _a - _b : _b - _a */\n    tag_52:\n        /* \"contracts/13_Errors.sol\":972:979  results */\n      dup2\n        /* \"contracts/13_Errors.sol\":980:981  0 */\n      0x00\n        /* \"contracts/13_Errors.sol\":972:982  results[0] */\n      dup2\n      mload\n      dup2\n      lt\n      tag_54\n      jumpi\n      tag_55\n      tag_39\n      jump\t// in\n    tag_55:\n    tag_54:\n      0x20\n      mul\n      0x20\n      add\n      add\n        /* \"contracts/13_Errors.sol\":972:1012  results[0] = _a > _b ? _a - _b : _b - _a */\n      dup2\n      dup2\n      mstore\n      pop\n      pop\n        /* \"contracts/13_Errors.sol\":1041:1043  _c */\n      dup4\n        /* \"contracts/13_Errors.sol\":1036:1038  _b */\n      dup6\n        /* \"contracts/13_Errors.sol\":1036:1043  _b > _c */\n      gt\n        /* \"contracts/13_Errors.sol\":1036:1063  _b > _c ? _b - _c : _c - _b */\n      tag_56\n      jumpi\n        /* \"contracts/13_Errors.sol\":1061:1063  _b */\n      dup5\n        /* \"contracts/13_Errors.sol\":1056:1058  _c */\n      dup5\n        /* \"contracts/13_Errors.sol\":1056:1063  _c - _b */\n      tag_57\n      swap2\n      swap1\n      tag_36\n      jump\t// in\n    tag_57:\n        /* \"contracts/13_Errors.sol\":1036:1063  _b > _c ? _b - _c : _c - _b */\n      jump(tag_58)\n    tag_56:\n        /* \"contracts/13_Errors.sol\":1051:1053  _c */\n      dup4\n        /* \"contracts/13_Errors.sol\":1046:1048  _b */\n      dup6\n        /* \"contracts/13_Errors.sol\":1046:1053  _b - _c */\n      tag_59\n      swap2\n      swap1\n      tag_36\n      jump\t// in\n    tag_59:\n        /* \"contracts/13_Errors.sol\":1036:1063  _b > _c ? _b - _c : _c - _b */\n    tag_58:\n        /* \"contracts/13_Errors.sol\":1023:1030  results */\n      dup2\n        /* \"contracts/13_Errors.sol\":1031:1032  1 */\n      0x01\n        /* \"contracts/13_Errors.sol\":1023:1033  results[1] */\n      dup2\n      mload\n      dup2\n      lt\n      tag_60\n      jumpi\n      tag_61\n      tag_39\n      jump\t// in\n    tag_61:\n    tag_60:\n      0x20\n      mul\n      0x20\n      add\n      add\n        /* \"contracts/13_Errors.sol\":1023:1063  results[1] = _b > _c ? _b - _c : _c - _b */\n      dup2\n      dup2\n      mstore\n      pop\n      pop\n        /* \"contracts/13_Errors.sol\":1092:1094  _d */\n      dup3\n        /* \"contracts/13_Errors.sol\":1087:1089  _c */\n      dup5\n        /* \"contracts/13_Errors.sol\":1087:1094  _c > _d */\n      gt\n        /* \"contracts/13_Errors.sol\":1087:1114  _c > _d ? _c - _d : _d - _c */\n      tag_62\n      jumpi\n        /* \"contracts/13_Errors.sol\":1112:1114  _c */\n      dup4\n        /* \"contracts/13_Errors.sol\":1107:1109  _d */\n      dup4\n        /* \"contracts/13_Errors.sol\":1107:1114  _d - _c */\n      tag_63\n      swap2\n      swap1\n      tag_36\n      jump\t// in\n    tag_63:\n        /* \"contracts/13_Errors.sol\":1087:1114  _c > _d ? _c - _d : _d - _c */\n      jump(tag_64)\n    tag_62:\n        /* \"contracts/13_Errors.sol\":1102:1104  _d */\n      dup3\n        /* \"contracts/13_Errors.sol\":1097:1099  _c */\n      dup5\n        /* \"contracts/13_Errors.sol\":1097:1104  _c - _d */\n      tag_65\n      swap2\n      swap1\n      tag_36\n      jump\t// in\n    tag_65:\n        /* \"contracts/13_Errors.sol\":1087:1114  _c > _d ? _c - _d : _d - _c */\n    tag_64:\n        /* \"contracts/13_Errors.sol\":1074:1081  results */\n      dup2\n        /* \"contracts/13_Errors.sol\":1082:1083  2 */\n      0x02\n        /* \"contracts/13_Errors.sol\":1074:1084  results[2] */\n      dup2\n      mload\n      dup2\n      lt\n      tag_66\n      jumpi\n      tag_67\n      tag_39\n      jump\t// in\n    tag_67:\n    tag_66:\n      0x20\n      mul\n      0x20\n      add\n      add\n        /* \"contracts/13_Errors.sol\":1074:1114  results[2] = _c > _d ? _c - _d : _d - _c */\n      dup2\n      dup2\n      mstore\n      pop\n      pop\n        /* \"contracts/13_Errors.sol\":1178:1185  results */\n      dup1\n        /* \"contracts/13_Errors.sol\":1171:1185  return results */\n      swap2\n      pop\n      pop\n        /* \"contracts/13_Errors.sol\":603:1193  function diffWithNeighbor(... */\n      swap5\n      swap4\n      pop\n      pop\n      pop\n      pop\n      jump\t// out\n        /* \"contracts/13_Errors.sol\":2335:2391  function resetArr() public {... */\n    tag_20:\n        /* \"contracts/13_Errors.sol\":2380:2383  arr */\n      0x00\n      dup1\n        /* \"contracts/13_Errors.sol\":2373:2383  delete arr */\n      tag_69\n      swap2\n      swap1\n      tag_70\n      jump\t// in\n    tag_69:\n        /* \"contracts/13_Errors.sol\":2335:2391  function resetArr() public {... */\n      jump\t// out\n        /* \"contracts/13_Errors.sol\":2167:2236  function addToArr(uint _num) public {... */\n    tag_24:\n        /* \"contracts/13_Errors.sol\":2214:2217  arr */\n      0x00\n        /* \"contracts/13_Errors.sol\":2223:2227  _num */\n      dup2\n        /* \"contracts/13_Errors.sol\":2214:2228  arr.push(_num) */\n      swap1\n      dup1\n      0x01\n      dup2\n      sload\n      add\n      dup1\n      dup3\n      sstore\n      dup1\n      swap2\n      pop\n      pop\n      0x01\n      swap1\n      sub\n      swap1\n      0x00\n      mstore\n      keccak256(0x00, 0x20)\n      add\n      0x00\n      swap1\n      swap2\n      swap1\n      swap2\n      swap1\n      swap2\n      pop\n      sstore\n        /* \"contracts/13_Errors.sol\":2167:2236  function addToArr(uint _num) public {... */\n      pop\n      jump\t// out\n        /* \"contracts/13_Errors.sol\":1566:1864  function applyModifier(... */\n    tag_28:\n        /* \"contracts/13_Errors.sol\":1662:1678  uint returnValue */\n      0x00\n        /* \"contracts/13_Errors.sol\":1755:1756  0 */\n      dup1\n        /* \"contracts/13_Errors.sol\":1743:1752  _modifier */\n      dup3\n        /* \"contracts/13_Errors.sol\":1743:1756  _modifier > 0 */\n      sgt\n        /* \"contracts/13_Errors.sol\":1740:1815  if(_modifier > 0) {... */\n      iszero\n      tag_74\n      jumpi\n        /* \"contracts/13_Errors.sol\":1793:1802  _modifier */\n      dup2\n        /* \"contracts/13_Errors.sol\":1780:1785  _base */\n      dup4\n        /* \"contracts/13_Errors.sol\":1780:1803  _base + uint(_modifier) */\n      tag_75\n      swap2\n      swap1\n      tag_76\n      jump\t// in\n    tag_75:\n        /* \"contracts/13_Errors.sol\":1773:1803  return _base + uint(_modifier) */\n      swap1\n      pop\n      jump(tag_73)\n        /* \"contracts/13_Errors.sol\":1740:1815  if(_modifier > 0) {... */\n    tag_74:\n        /* \"contracts/13_Errors.sol\":1846:1855  _modifier */\n      dup2\n        /* \"contracts/13_Errors.sol\":1845:1855  -_modifier */\n      tag_77\n      swap1\n      tag_78\n      jump\t// in\n    tag_77:\n        /* \"contracts/13_Errors.sol\":1832:1837  _base */\n      dup4\n        /* \"contracts/13_Errors.sol\":1832:1856  _base - uint(-_modifier) */\n      tag_79\n      swap2\n      swap1\n      tag_36\n      jump\t// in\n    tag_79:\n        /* \"contracts/13_Errors.sol\":1825:1856  return _base - uint(-_modifier) */\n      swap1\n      pop\n        /* \"contracts/13_Errors.sol\":1566:1864  function applyModifier(... */\n    tag_73:\n      swap3\n      swap2\n      pop\n      pop\n      jump\t// out\n        /* \"contracts/13_Errors.sol\":2244:2327  function getArr() public view returns (uint[] memory) {... */\n    tag_31:\n        /* \"contracts/13_Errors.sol\":2283:2296  uint[] memory */\n      0x60\n        /* \"contracts/13_Errors.sol\":2316:2319  arr */\n      0x00\n        /* \"contracts/13_Errors.sol\":2309:2319  return arr */\n      dup1\n      sload\n      dup1\n      0x20\n      mul\n      0x20\n      add\n      mload(0x40)\n      swap1\n      dup2\n      add\n      0x40\n      mstore\n      dup1\n      swap3\n      swap2\n      swap1\n      dup2\n      dup2\n      mstore\n      0x20\n      add\n      dup3\n      dup1\n      sload\n      dup1\n      iszero\n      tag_81\n      jumpi\n      0x20\n      mul\n      dup3\n      add\n      swap2\n      swap1\n      0x00\n      mstore\n      keccak256(0x00, 0x20)\n      swap1\n    tag_82:\n      dup2\n      sload\n      dup2\n      mstore\n      0x20\n      add\n      swap1\n      0x01\n      add\n      swap1\n      dup1\n      dup4\n      gt\n      tag_82\n      jumpi\n    tag_81:\n      pop\n      pop\n      pop\n      pop\n      pop\n      swap1\n      pop\n        /* \"contracts/13_Errors.sol\":2244:2327  function getArr() public view returns (uint[] memory) {... */\n      swap1\n      jump\t// out\n    tag_70:\n      pop\n      dup1\n      sload\n      0x00\n      dup3\n      sstore\n      swap1\n      0x00\n      mstore\n      keccak256(0x00, 0x20)\n      swap1\n      dup2\n      add\n      swap1\n      tag_84\n      swap2\n      swap1\n      tag_85\n      jump\t// in\n    tag_84:\n      pop\n      jump\t// out\n    tag_85:\n    tag_86:\n      dup1\n      dup3\n      gt\n      iszero\n      tag_87\n      jumpi\n      0x00\n      dup2\n      0x00\n      swap1\n      sstore\n      pop\n      0x01\n      add\n      jump(tag_86)\n    tag_87:\n      pop\n      swap1\n      jump\t// out\n        /* \"#utility.yul\":7:84   */\n    tag_88:\n        /* \"#utility.yul\":44:51   */\n      0x00\n        /* \"#utility.yul\":73:78   */\n      dup2\n        /* \"#utility.yul\":62:78   */\n      swap1\n      pop\n        /* \"#utility.yul\":7:84   */\n      swap2\n      swap1\n      pop\n      jump\t// out\n        /* \"#utility.yul\":90:208   */\n    tag_89:\n        /* \"#utility.yul\":177:201   */\n      tag_109\n        /* \"#utility.yul\":195:200   */\n      dup2\n        /* \"#utility.yul\":177:201   */\n      tag_88\n      jump\t// in\n    tag_109:\n        /* \"#utility.yul\":172:175   */\n      dup3\n        /* \"#utility.yul\":165:202   */\n      mstore\n        /* \"#utility.yul\":90:208   */\n      pop\n      pop\n      jump\t// out\n        /* \"#utility.yul\":214:436   */\n    tag_12:\n        /* \"#utility.yul\":307:311   */\n      0x00\n        /* \"#utility.yul\":345:347   */\n      0x20\n        /* \"#utility.yul\":334:343   */\n      dup3\n        /* \"#utility.yul\":330:348   */\n      add\n        /* \"#utility.yul\":322:348   */\n      swap1\n      pop\n        /* \"#utility.yul\":358:429   */\n      tag_111\n        /* \"#utility.yul\":426:427   */\n      0x00\n        /* \"#utility.yul\":415:424   */\n      dup4\n        /* \"#utility.yul\":411:428   */\n      add\n        /* \"#utility.yul\":402:408   */\n      dup5\n        /* \"#utility.yul\":358:429   */\n      tag_89\n      jump\t// in\n    tag_111:\n        /* \"#utility.yul\":214:436   */\n      swap3\n      swap2\n      pop\n      pop\n      jump\t// out\n        /* \"#utility.yul\":523:640   */\n    tag_91:\n        /* \"#utility.yul\":632:633   */\n      0x00\n        /* \"#utility.yul\":629:630   */\n      dup1\n        /* \"#utility.yul\":622:634   */\n      revert\n        /* \"#utility.yul\":769:891   */\n    tag_93:\n        /* \"#utility.yul\":842:866   */\n      tag_116\n        /* \"#utility.yul\":860:865   */\n      dup2\n        /* \"#utility.yul\":842:866   */\n      tag_88\n      jump\t// in\n    tag_116:\n        /* \"#utility.yul\":835:840   */\n      dup2\n        /* \"#utility.yul\":832:867   */\n      eq\n        /* \"#utility.yul\":822:885   */\n      tag_117\n      jumpi\n        /* \"#utility.yul\":881:882   */\n      0x00\n        /* \"#utility.yul\":878:879   */\n      dup1\n        /* \"#utility.yul\":871:883   */\n      revert\n        /* \"#utility.yul\":822:885   */\n    tag_117:\n        /* \"#utility.yul\":769:891   */\n      pop\n      jump\t// out\n        /* \"#utility.yul\":897:1036   */\n    tag_94:\n        /* \"#utility.yul\":943:948   */\n      0x00\n        /* \"#utility.yul\":981:987   */\n      dup2\n        /* \"#utility.yul\":968:988   */\n      calldataload\n        /* \"#utility.yul\":959:988   */\n      swap1\n      pop\n        /* \"#utility.yul\":997:1030   */\n      tag_119\n        /* \"#utility.yul\":1024:1029   */\n      dup2\n        /* \"#utility.yul\":997:1030   */\n      tag_93\n      jump\t// in\n    tag_119:\n        /* \"#utility.yul\":897:1036   */\n      swap3\n      swap2\n      pop\n      pop\n      jump\t// out\n        /* \"#utility.yul\":1042:1807   */\n    tag_15:\n        /* \"#utility.yul\":1128:1134   */\n      0x00\n        /* \"#utility.yul\":1136:1142   */\n      dup1\n        /* \"#utility.yul\":1144:1150   */\n      0x00\n        /* \"#utility.yul\":1152:1158   */\n      dup1\n        /* \"#utility.yul\":1201:1204   */\n      0x80\n        /* \"#utility.yul\":1189:1198   */\n      dup6\n        /* \"#utility.yul\":1180:1187   */\n      dup8\n        /* \"#utility.yul\":1176:1199   */\n      sub\n        /* \"#utility.yul\":1172:1205   */\n      slt\n        /* \"#utility.yul\":1169:1289   */\n      iszero\n      tag_121\n      jumpi\n        /* \"#utility.yul\":1208:1287   */\n      tag_122\n      tag_91\n      jump\t// in\n    tag_122:\n        /* \"#utility.yul\":1169:1289   */\n    tag_121:\n        /* \"#utility.yul\":1328:1329   */\n      0x00\n        /* \"#utility.yul\":1353:1406   */\n      tag_123\n        /* \"#utility.yul\":1398:1405   */\n      dup8\n        /* \"#utility.yul\":1389:1395   */\n      dup3\n        /* \"#utility.yul\":1378:1387   */\n      dup9\n        /* \"#utility.yul\":1374:1396   */\n      add\n        /* \"#utility.yul\":1353:1406   */\n      tag_94\n      jump\t// in\n    tag_123:\n        /* \"#utility.yul\":1343:1406   */\n      swap5\n      pop\n        /* \"#utility.yul\":1299:1416   */\n      pop\n        /* \"#utility.yul\":1455:1457   */\n      0x20\n        /* \"#utility.yul\":1481:1534   */\n      tag_124\n        /* \"#utility.yul\":1526:1533   */\n      dup8\n        /* \"#utility.yul\":1517:1523   */\n      dup3\n        /* \"#utility.yul\":1506:1515   */\n      dup9\n        /* \"#utility.yul\":1502:1524   */\n      add\n        /* \"#utility.yul\":1481:1534   */\n      tag_94\n      jump\t// in\n    tag_124:\n        /* \"#utility.yul\":1471:1534   */\n      swap4\n      pop\n        /* \"#utility.yul\":1426:1544   */\n      pop\n        /* \"#utility.yul\":1583:1585   */\n      0x40\n        /* \"#utility.yul\":1609:1662   */\n      tag_125\n        /* \"#utility.yul\":1654:1661   */\n      dup8\n        /* \"#utility.yul\":1645:1651   */\n      dup3\n        /* \"#utility.yul\":1634:1643   */\n      dup9\n        /* \"#utility.yul\":1630:1652   */\n      add\n        /* \"#utility.yul\":1609:1662   */\n      tag_94\n      jump\t// in\n    tag_125:\n        /* \"#utility.yul\":1599:1662   */\n      swap3\n      pop\n        /* \"#utility.yul\":1554:1672   */\n      pop\n        /* \"#utility.yul\":1711:1713   */\n      0x60\n        /* \"#utility.yul\":1737:1790   */\n      tag_126\n        /* \"#utility.yul\":1782:1789   */\n      dup8\n        /* \"#utility.yul\":1773:1779   */\n      dup3\n        /* \"#utility.yul\":1762:1771   */\n      dup9\n        /* \"#utility.yul\":1758:1780   */\n      add\n        /* \"#utility.yul\":1737:1790   */\n      tag_94\n      jump\t// in\n    tag_126:\n        /* \"#utility.yul\":1727:1790   */\n      swap2\n      pop\n        /* \"#utility.yul\":1682:1800   */\n      pop\n        /* \"#utility.yul\":1042:1807   */\n      swap3\n      swap6\n      swap2\n      swap5\n      pop\n      swap3\n      pop\n      jump\t// out\n        /* \"#utility.yul\":1813:1927   */\n    tag_95:\n        /* \"#utility.yul\":1880:1886   */\n      0x00\n        /* \"#utility.yul\":1914:1919   */\n      dup2\n        /* \"#utility.yul\":1908:1920   */\n      mload\n        /* \"#utility.yul\":1898:1920   */\n      swap1\n      pop\n        /* \"#utility.yul\":1813:1927   */\n      swap2\n      swap1\n      pop\n      jump\t// out\n        /* \"#utility.yul\":1933:2117   */\n    tag_96:\n        /* \"#utility.yul\":2032:2043   */\n      0x00\n        /* \"#utility.yul\":2066:2072   */\n      dup3\n        /* \"#utility.yul\":2061:2064   */\n      dup3\n        /* \"#utility.yul\":2054:2073   */\n      mstore\n        /* \"#utility.yul\":2106:2110   */\n      0x20\n        /* \"#utility.yul\":2101:2104   */\n      dup3\n        /* \"#utility.yul\":2097:2111   */\n      add\n        /* \"#utility.yul\":2082:2111   */\n      swap1\n      pop\n        /* \"#utility.yul\":1933:2117   */\n      swap3\n      swap2\n      pop\n      pop\n      jump\t// out\n        /* \"#utility.yul\":2123:2255   */\n    tag_97:\n        /* \"#utility.yul\":2190:2194   */\n      0x00\n        /* \"#utility.yul\":2213:2216   */\n      dup2\n        /* \"#utility.yul\":2205:2216   */\n      swap1\n      pop\n        /* \"#utility.yul\":2243:2247   */\n      0x20\n        /* \"#utility.yul\":2238:2241   */\n      dup3\n        /* \"#utility.yul\":2234:2248   */\n      add\n        /* \"#utility.yul\":2226:2248   */\n      swap1\n      pop\n        /* \"#utility.yul\":2123:2255   */\n      swap2\n      swap1\n      pop\n      jump\t// out\n        /* \"#utility.yul\":2261:2369   */\n    tag_98:\n        /* \"#utility.yul\":2338:2362   */\n      tag_131\n        /* \"#utility.yul\":2356:2361   */\n      dup2\n        /* \"#utility.yul\":2338:2362   */\n      tag_88\n      jump\t// in\n    tag_131:\n        /* \"#utility.yul\":2333:2336   */\n      dup3\n        /* \"#utility.yul\":2326:2363   */\n      mstore\n        /* \"#utility.yul\":2261:2369   */\n      pop\n      pop\n      jump\t// out\n        /* \"#utility.yul\":2375:2554   */\n    tag_99:\n        /* \"#utility.yul\":2444:2454   */\n      0x00\n        /* \"#utility.yul\":2465:2511   */\n      tag_133\n        /* \"#utility.yul\":2507:2510   */\n      dup4\n        /* \"#utility.yul\":2499:2505   */\n      dup4\n        /* \"#utility.yul\":2465:2511   */\n      tag_98\n      jump\t// in\n    tag_133:\n        /* \"#utility.yul\":2543:2547   */\n      0x20\n        /* \"#utility.yul\":2538:2541   */\n      dup4\n        /* \"#utility.yul\":2534:2548   */\n      add\n        /* \"#utility.yul\":2520:2548   */\n      swap1\n      pop\n        /* \"#utility.yul\":2375:2554   */\n      swap3\n      swap2\n      pop\n      pop\n      jump\t// out\n        /* \"#utility.yul\":2560:2673   */\n    tag_100:\n        /* \"#utility.yul\":2630:2634   */\n      0x00\n        /* \"#utility.yul\":2662:2666   */\n      0x20\n        /* \"#utility.yul\":2657:2660   */\n      dup3\n        /* \"#utility.yul\":2653:2667   */\n      add\n        /* \"#utility.yul\":2645:2667   */\n      swap1\n      pop\n        /* \"#utility.yul\":2560:2673   */\n      swap2\n      swap1\n      pop\n      jump\t// out\n        /* \"#utility.yul\":2709:3441   */\n    tag_101:\n        /* \"#utility.yul\":2828:2831   */\n      0x00\n        /* \"#utility.yul\":2857:2911   */\n      tag_136\n        /* \"#utility.yul\":2905:2910   */\n      dup3\n        /* \"#utility.yul\":2857:2911   */\n      tag_95\n      jump\t// in\n    tag_136:\n        /* \"#utility.yul\":2927:3013   */\n      tag_137\n        /* \"#utility.yul\":3006:3012   */\n      dup2\n        /* \"#utility.yul\":3001:3004   */\n      dup6\n        /* \"#utility.yul\":2927:3013   */\n      tag_96\n      jump\t// in\n    tag_137:\n        /* \"#utility.yul\":2920:3013   */\n      swap4\n      pop\n        /* \"#utility.yul\":3037:3093   */\n      tag_138\n        /* \"#utility.yul\":3087:3092   */\n      dup4\n        /* \"#utility.yul\":3037:3093   */\n      tag_97\n      jump\t// in\n    tag_138:\n        /* \"#utility.yul\":3116:3123   */\n      dup1\n        /* \"#utility.yul\":3147:3148   */\n      0x00\n        /* \"#utility.yul\":3132:3416   */\n    tag_139:\n        /* \"#utility.yul\":3157:3163   */\n      dup4\n        /* \"#utility.yul\":3154:3155   */\n      dup2\n        /* \"#utility.yul\":3151:3164   */\n      lt\n        /* \"#utility.yul\":3132:3416   */\n      iszero\n      tag_141\n      jumpi\n        /* \"#utility.yul\":3233:3239   */\n      dup2\n        /* \"#utility.yul\":3227:3240   */\n      mload\n        /* \"#utility.yul\":3260:3323   */\n      tag_142\n        /* \"#utility.yul\":3319:3322   */\n      dup9\n        /* \"#utility.yul\":3304:3317   */\n      dup3\n        /* \"#utility.yul\":3260:3323   */\n      tag_99\n      jump\t// in\n    tag_142:\n        /* \"#utility.yul\":3253:3323   */\n      swap8\n      pop\n        /* \"#utility.yul\":3346:3406   */\n      tag_143\n        /* \"#utility.yul\":3399:3405   */\n      dup4\n        /* \"#utility.yul\":3346:3406   */\n      tag_100\n      jump\t// in\n    tag_143:\n        /* \"#utility.yul\":3336:3406   */\n      swap3\n      pop\n        /* \"#utility.yul\":3192:3416   */\n      pop\n        /* \"#utility.yul\":3179:3180   */\n      0x01\n        /* \"#utility.yul\":3176:3177   */\n      dup2\n        /* \"#utility.yul\":3172:3181   */\n      add\n        /* \"#utility.yul\":3167:3181   */\n      swap1\n      pop\n        /* \"#utility.yul\":3132:3416   */\n      jump(tag_139)\n    tag_141:\n        /* \"#utility.yul\":3136:3150   */\n      pop\n        /* \"#utility.yul\":3432:3435   */\n      dup6\n        /* \"#utility.yul\":3425:3435   */\n      swap4\n      pop\n        /* \"#utility.yul\":2833:3441   */\n      pop\n      pop\n      pop\n        /* \"#utility.yul\":2709:3441   */\n      swap3\n      swap2\n      pop\n      pop\n      jump\t// out\n        /* \"#utility.yul\":3447:3820   */\n    tag_18:\n        /* \"#utility.yul\":3590:3594   */\n      0x00\n        /* \"#utility.yul\":3628:3630   */\n      0x20\n        /* \"#utility.yul\":3617:3626   */\n      dup3\n        /* \"#utility.yul\":3613:3631   */\n      add\n        /* \"#utility.yul\":3605:3631   */\n      swap1\n      pop\n        /* \"#utility.yul\":3677:3686   */\n      dup2\n        /* \"#utility.yul\":3671:3675   */\n      dup2\n        /* \"#utility.yul\":3667:3687   */\n      sub\n        /* \"#utility.yul\":3663:3664   */\n      0x00\n        /* \"#utility.yul\":3652:3661   */\n      dup4\n        /* \"#utility.yul\":3648:3665   */\n      add\n        /* \"#utility.yul\":3641:3688   */\n      mstore\n        /* \"#utility.yul\":3705:3813   */\n      tag_145\n        /* \"#utility.yul\":3808:3812   */\n      dup2\n        /* \"#utility.yul\":3799:3805   */\n      dup5\n        /* \"#utility.yul\":3705:3813   */\n      tag_101\n      jump\t// in\n    tag_145:\n        /* \"#utility.yul\":3697:3813   */\n      swap1\n      pop\n        /* \"#utility.yul\":3447:3820   */\n      swap3\n      swap2\n      pop\n      pop\n      jump\t// out\n        /* \"#utility.yul\":3826:4155   */\n    tag_23:\n        /* \"#utility.yul\":3885:3891   */\n      0x00\n        /* \"#utility.yul\":3934:3936   */\n      0x20\n        /* \"#utility.yul\":3922:3931   */\n      dup3\n        /* \"#utility.yul\":3913:3920   */\n      dup5\n        /* \"#utility.yul\":3909:3932   */\n      sub\n        /* \"#utility.yul\":3905:3937   */\n      slt\n        /* \"#utility.yul\":3902:4021   */\n      iszero\n      tag_147\n      jumpi\n        /* \"#utility.yul\":3940:4019   */\n      tag_148\n      tag_91\n      jump\t// in\n    tag_148:\n        /* \"#utility.yul\":3902:4021   */\n    tag_147:\n        /* \"#utility.yul\":4060:4061   */\n      0x00\n        /* \"#utility.yul\":4085:4138   */\n      tag_149\n        /* \"#utility.yul\":4130:4137   */\n      dup5\n        /* \"#utility.yul\":4121:4127   */\n      dup3\n        /* \"#utility.yul\":4110:4119   */\n      dup6\n        /* \"#utility.yul\":4106:4128   */\n      add\n        /* \"#utility.yul\":4085:4138   */\n      tag_94\n      jump\t// in\n    tag_149:\n        /* \"#utility.yul\":4075:4138   */\n      swap2\n      pop\n        /* \"#utility.yul\":4031:4148   */\n      pop\n        /* \"#utility.yul\":3826:4155   */\n      swap3\n      swap2\n      pop\n      pop\n      jump\t// out\n        /* \"#utility.yul\":4161:4237   */\n    tag_102:\n        /* \"#utility.yul\":4197:4204   */\n      0x00\n        /* \"#utility.yul\":4226:4231   */\n      dup2\n        /* \"#utility.yul\":4215:4231   */\n      swap1\n      pop\n        /* \"#utility.yul\":4161:4237   */\n      swap2\n      swap1\n      pop\n      jump\t// out\n        /* \"#utility.yul\":4243:4363   */\n    tag_103:\n        /* \"#utility.yul\":4315:4338   */\n      tag_152\n        /* \"#utility.yul\":4332:4337   */\n      dup2\n        /* \"#utility.yul\":4315:4338   */\n      tag_102\n      jump\t// in\n    tag_152:\n        /* \"#utility.yul\":4308:4313   */\n      dup2\n        /* \"#utility.yul\":4305:4339   */\n      eq\n        /* \"#utility.yul\":4295:4357   */\n      tag_153\n      jumpi\n        /* \"#utility.yul\":4353:4354   */\n      0x00\n        /* \"#utility.yul\":4350:4351   */\n      dup1\n        /* \"#utility.yul\":4343:4355   */\n      revert\n        /* \"#utility.yul\":4295:4357   */\n    tag_153:\n        /* \"#utility.yul\":4243:4363   */\n      pop\n      jump\t// out\n        /* \"#utility.yul\":4369:4506   */\n    tag_104:\n        /* \"#utility.yul\":4414:4419   */\n      0x00\n        /* \"#utility.yul\":4452:4458   */\n      dup2\n        /* \"#utility.yul\":4439:4459   */\n      calldataload\n        /* \"#utility.yul\":4430:4459   */\n      swap1\n      pop\n        /* \"#utility.yul\":4468:4500   */\n      tag_155\n        /* \"#utility.yul\":4494:4499   */\n      dup2\n        /* \"#utility.yul\":4468:4500   */\n      tag_103\n      jump\t// in\n    tag_155:\n        /* \"#utility.yul\":4369:4506   */\n      swap3\n      swap2\n      pop\n      pop\n      jump\t// out\n        /* \"#utility.yul\":4512:4984   */\n    tag_27:\n        /* \"#utility.yul\":4579:4585   */\n      0x00\n        /* \"#utility.yul\":4587:4593   */\n      dup1\n        /* \"#utility.yul\":4636:4638   */\n      0x40\n        /* \"#utility.yul\":4624:4633   */\n      dup4\n        /* \"#utility.yul\":4615:4622   */\n      dup6\n        /* \"#utility.yul\":4611:4634   */\n      sub\n        /* \"#utility.yul\":4607:4639   */\n      slt\n        /* \"#utility.yul\":4604:4723   */\n      iszero\n      tag_157\n      jumpi\n        /* \"#utility.yul\":4642:4721   */\n      tag_158\n      tag_91\n      jump\t// in\n    tag_158:\n        /* \"#utility.yul\":4604:4723   */\n    tag_157:\n        /* \"#utility.yul\":4762:4763   */\n      0x00\n        /* \"#utility.yul\":4787:4840   */\n      tag_159\n        /* \"#utility.yul\":4832:4839   */\n      dup6\n        /* \"#utility.yul\":4823:4829   */\n      dup3\n        /* \"#utility.yul\":4812:4821   */\n      dup7\n        /* \"#utility.yul\":4808:4830   */\n      add\n        /* \"#utility.yul\":4787:4840   */\n      tag_94\n      jump\t// in\n    tag_159:\n        /* \"#utility.yul\":4777:4840   */\n      swap3\n      pop\n        /* \"#utility.yul\":4733:4850   */\n      pop\n        /* \"#utility.yul\":4889:4891   */\n      0x20\n        /* \"#utility.yul\":4915:4967   */\n      tag_160\n        /* \"#utility.yul\":4959:4966   */\n      dup6\n        /* \"#utility.yul\":4950:4956   */\n      dup3\n        /* \"#utility.yul\":4939:4948   */\n      dup7\n        /* \"#utility.yul\":4935:4957   */\n      add\n        /* \"#utility.yul\":4915:4967   */\n      tag_104\n      jump\t// in\n    tag_160:\n        /* \"#utility.yul\":4905:4967   */\n      swap2\n      pop\n        /* \"#utility.yul\":4860:4977   */\n      pop\n        /* \"#utility.yul\":4512:4984   */\n      swap3\n      pop\n      swap3\n      swap1\n      pop\n      jump\t// out\n        /* \"#utility.yul\":4990:5170   */\n    tag_105:\n        /* \"#utility.yul\":5038:5115   */\n      0x4e487b7100000000000000000000000000000000000000000000000000000000\n        /* \"#utility.yul\":5035:5036   */\n      0x00\n        /* \"#utility.yul\":5028:5116   */\n      mstore\n        /* \"#utility.yul\":5135:5139   */\n      0x11\n        /* \"#utility.yul\":5132:5133   */\n      0x04\n        /* \"#utility.yul\":5125:5140   */\n      mstore\n        /* \"#utility.yul\":5159:5163   */\n      0x24\n        /* \"#utility.yul\":5156:5157   */\n      0x00\n        /* \"#utility.yul\":5149:5164   */\n      revert\n        /* \"#utility.yul\":5176:5370   */\n    tag_36:\n        /* \"#utility.yul\":5216:5220   */\n      0x00\n        /* \"#utility.yul\":5236:5256   */\n      tag_163\n        /* \"#utility.yul\":5254:5255   */\n      dup3\n        /* \"#utility.yul\":5236:5256   */\n      tag_88\n      jump\t// in\n    tag_163:\n        /* \"#utility.yul\":5231:5256   */\n      swap2\n      pop\n        /* \"#utility.yul\":5270:5290   */\n      tag_164\n        /* \"#utility.yul\":5288:5289   */\n      dup4\n        /* \"#utility.yul\":5270:5290   */\n      tag_88\n      jump\t// in\n    tag_164:\n        /* \"#utility.yul\":5265:5290   */\n      swap3\n      pop\n        /* \"#utility.yul\":5314:5315   */\n      dup3\n        /* \"#utility.yul\":5311:5312   */\n      dup3\n        /* \"#utility.yul\":5307:5316   */\n      sub\n        /* \"#utility.yul\":5299:5316   */\n      swap1\n      pop\n        /* \"#utility.yul\":5338:5339   */\n      dup2\n        /* \"#utility.yul\":5332:5336   */\n      dup2\n        /* \"#utility.yul\":5329:5340   */\n      gt\n        /* \"#utility.yul\":5326:5363   */\n      iszero\n      tag_165\n      jumpi\n        /* \"#utility.yul\":5343:5361   */\n      tag_166\n      tag_105\n      jump\t// in\n    tag_166:\n        /* \"#utility.yul\":5326:5363   */\n    tag_165:\n        /* \"#utility.yul\":5176:5370   */\n      swap3\n      swap2\n      pop\n      pop\n      jump\t// out\n        /* \"#utility.yul\":5376:5556   */\n    tag_39:\n        /* \"#utility.yul\":5424:5501   */\n      0x4e487b7100000000000000000000000000000000000000000000000000000000\n        /* \"#utility.yul\":5421:5422   */\n      0x00\n        /* \"#utility.yul\":5414:5502   */\n      mstore\n        /* \"#utility.yul\":5521:5525   */\n      0x32\n        /* \"#utility.yul\":5518:5519   */\n      0x04\n        /* \"#utility.yul\":5511:5526   */\n      mstore\n        /* \"#utility.yul\":5545:5549   */\n      0x24\n        /* \"#utility.yul\":5542:5543   */\n      0x00\n        /* \"#utility.yul\":5535:5550   */\n      revert\n        /* \"#utility.yul\":5562:5742   */\n    tag_43:\n        /* \"#utility.yul\":5610:5687   */\n      0x4e487b7100000000000000000000000000000000000000000000000000000000\n        /* \"#utility.yul\":5607:5608   */\n      0x00\n        /* \"#utility.yul\":5600:5688   */\n      mstore\n        /* \"#utility.yul\":5707:5711   */\n      0x31\n        /* \"#utility.yul\":5704:5705   */\n      0x04\n        /* \"#utility.yul\":5697:5712   */\n      mstore\n        /* \"#utility.yul\":5731:5735   */\n      0x24\n        /* \"#utility.yul\":5728:5729   */\n      0x00\n        /* \"#utility.yul\":5721:5736   */\n      revert\n        /* \"#utility.yul\":5748:5928   */\n    tag_48:\n        /* \"#utility.yul\":5796:5873   */\n      0x4e487b7100000000000000000000000000000000000000000000000000000000\n        /* \"#utility.yul\":5793:5794   */\n      0x00\n        /* \"#utility.yul\":5786:5874   */\n      mstore\n        /* \"#utility.yul\":5893:5897   */\n      0x41\n        /* \"#utility.yul\":5890:5891   */\n      0x04\n        /* \"#utility.yul\":5883:5898   */\n      mstore\n        /* \"#utility.yul\":5917:5921   */\n      0x24\n        /* \"#utility.yul\":5914:5915   */\n      0x00\n        /* \"#utility.yul\":5907:5922   */\n      revert\n        /* \"#utility.yul\":5934:6125   */\n    tag_76:\n        /* \"#utility.yul\":5974:5977   */\n      0x00\n        /* \"#utility.yul\":5993:6013   */\n      tag_171\n        /* \"#utility.yul\":6011:6012   */\n      dup3\n        /* \"#utility.yul\":5993:6013   */\n      tag_88\n      jump\t// in\n    tag_171:\n        /* \"#utility.yul\":5988:6013   */\n      swap2\n      pop\n        /* \"#utility.yul\":6027:6047   */\n      tag_172\n        /* \"#utility.yul\":6045:6046   */\n      dup4\n        /* \"#utility.yul\":6027:6047   */\n      tag_88\n      jump\t// in\n    tag_172:\n        /* \"#utility.yul\":6022:6047   */\n      swap3\n      pop\n        /* \"#utility.yul\":6070:6071   */\n      dup3\n        /* \"#utility.yul\":6067:6068   */\n      dup3\n        /* \"#utility.yul\":6063:6072   */\n      add\n        /* \"#utility.yul\":6056:6072   */\n      swap1\n      pop\n        /* \"#utility.yul\":6091:6094   */\n      dup1\n        /* \"#utility.yul\":6088:6089   */\n      dup3\n        /* \"#utility.yul\":6085:6095   */\n      gt\n        /* \"#utility.yul\":6082:6118   */\n      iszero\n      tag_173\n      jumpi\n        /* \"#utility.yul\":6098:6116   */\n      tag_174\n      tag_105\n      jump\t// in\n    tag_174:\n        /* \"#utility.yul\":6082:6118   */\n    tag_173:\n        /* \"#utility.yul\":5934:6125   */\n      swap3\n      swap2\n      pop\n      pop\n      jump\t// out\n        /* \"#utility.yul\":6131:6359   */\n    tag_78:\n        /* \"#utility.yul\":6166:6169   */\n      0x00\n        /* \"#utility.yul\":6189:6212   */\n      tag_176\n        /* \"#utility.yul\":6206:6211   */\n      dup3\n        /* \"#utility.yul\":6189:6212   */\n      tag_102\n      jump\t// in\n    tag_176:\n        /* \"#utility.yul\":6180:6212   */\n      swap2\n      pop\n        /* \"#utility.yul\":6234:6300   */\n      0x8000000000000000000000000000000000000000000000000000000000000000\n        /* \"#utility.yul\":6227:6232   */\n      dup3\n        /* \"#utility.yul\":6224:6301   */\n      sub\n        /* \"#utility.yul\":6221:6324   */\n      tag_177\n      jumpi\n        /* \"#utility.yul\":6304:6322   */\n      tag_178\n      tag_105\n      jump\t// in\n    tag_178:\n        /* \"#utility.yul\":6221:6324   */\n    tag_177:\n        /* \"#utility.yul\":6347:6352   */\n      dup2\n        /* \"#utility.yul\":6344:6345   */\n      0x00\n        /* \"#utility.yul\":6340:6353   */\n      sub\n        /* \"#utility.yul\":6333:6353   */\n      swap1\n      pop\n        /* \"#utility.yul\":6131:6359   */\n      swap2\n      swap1\n      pop\n      jump\t// out\n\n    auxdata: 0xa2646970667358221220a0b393ceb1d0c87964c00c6599db79e6323c6528c45c798821704360fc5907b664736f6c63430008110033\n}\n",
				"bytecode": {
					"linkReferences": {},
					"object": "608060405234801561001057600080fd5b506107c8806100206000396000f3fe608060405234801561001057600080fd5b50600436106100625760003560e01c80631abe2ac214610067578063294323141461008557806364529db5146100b5578063e1819ff9146100bf578063f74e51ea146100db578063fb8cbced1461010b575b600080fd5b61006f610129565b60405161007c91906103f0565b60405180910390f35b61009f600480360381019061009a919061043c565b6101a0565b6040516100ac9190610561565b60405180910390f35b6100bd6102cb565b005b6100d960048036038101906100d49190610583565b6102da565b005b6100f560048036038101906100f091906105e6565b610306565b60405161010291906103f0565b60405180910390f35b610113610341565b6040516101209190610561565b60405180910390f35b600080600080549050111561019c57600080600160008054905061014d9190610655565b8154811061015e5761015d610689565b5b90600052602060002001549050600080548061017d5761017c6106b8565b5b600190038181906000526020600020016000905590558091505061019d565b5b90565b60606000600367ffffffffffffffff8111156101bf576101be6106e7565b5b6040519080825280602002602001820160405280156101ed5781602001602082028036833780820191505090505b5090508486116102085785856102039190610655565b610215565b84866102149190610655565b5b8160008151811061022957610228610689565b5b60200260200101818152505083851161024d5784846102489190610655565b61025a565b83856102599190610655565b5b8160018151811061026e5761026d610689565b5b60200260200101818152505082841161029257838361028d9190610655565b61029f565b828461029e9190610655565b5b816002815181106102b3576102b2610689565b5b60200260200101818152505080915050949350505050565b6000806102d89190610399565b565b600081908060018154018082558091505060019003906000526020600020016000909190919091505550565b60008082131561032357818361031c9190610716565b905061033b565b8161032d9061074a565b836103389190610655565b90505b92915050565b6060600080548060200260200160405190810160405280929190818152602001828054801561038f57602002820191906000526020600020905b81548152602001906001019080831161037b575b5050505050905090565b50805460008255906000526020600020908101906103b791906103ba565b50565b5b808211156103d35760008160009055506001016103bb565b5090565b6000819050919050565b6103ea816103d7565b82525050565b600060208201905061040560008301846103e1565b92915050565b600080fd5b610419816103d7565b811461042457600080fd5b50565b60008135905061043681610410565b92915050565b600080600080608085870312156104565761045561040b565b5b600061046487828801610427565b945050602061047587828801610427565b935050604061048687828801610427565b925050606061049787828801610427565b91505092959194509250565b600081519050919050565b600082825260208201905092915050565b6000819050602082019050919050565b6104d8816103d7565b82525050565b60006104ea83836104cf565b60208301905092915050565b6000602082019050919050565b600061050e826104a3565b61051881856104ae565b9350610523836104bf565b8060005b8381101561055457815161053b88826104de565b9750610546836104f6565b925050600181019050610527565b5085935050505092915050565b6000602082019050818103600083015261057b8184610503565b905092915050565b6000602082840312156105995761059861040b565b5b60006105a784828501610427565b91505092915050565b6000819050919050565b6105c3816105b0565b81146105ce57600080fd5b50565b6000813590506105e0816105ba565b92915050565b600080604083850312156105fd576105fc61040b565b5b600061060b85828601610427565b925050602061061c858286016105d1565b9150509250929050565b7f4e487b7100000000000000000000000000000000000000000000000000000000600052601160045260246000fd5b6000610660826103d7565b915061066b836103d7565b925082820390508181111561068357610682610626565b5b92915050565b7f4e487b7100000000000000000000000000000000000000000000000000000000600052603260045260246000fd5b7f4e487b7100000000000000000000000000000000000000000000000000000000600052603160045260246000fd5b7f4e487b7100000000000000000000000000000000000000000000000000000000600052604160045260246000fd5b6000610721826103d7565b915061072c836103d7565b925082820190508082111561074457610743610626565b5b92915050565b6000610755826105b0565b91507f8000000000000000000000000000000000000000000000000000000000000000820361078757610786610626565b5b81600003905091905056fea2646970667358221220a0b393ceb1d0c87964c00c6599db79e6323c6528c45c798821704360fc5907b664736f6c63430008110033",
					"opcodes": "PUSH1 0x80 PUSH1 0x40 MSTORE CALLVALUE DUP1 ISZERO PUSH2 0x10 JUMPI PUSH1 0x0 DUP1 REVERT JUMPDEST POP PUSH2 0x7C8 DUP1 PUSH2 0x20 PUSH1 0x0 CODECOPY PUSH1 0x0 RETURN INVALID PUSH1 0x80 PUSH1 0x40 MSTORE CALLVALUE DUP1 ISZERO PUSH2 0x10 JUMPI PUSH1 0x0 DUP1 REVERT JUMPDEST POP PUSH1 0x4 CALLDATASIZE LT PUSH2 0x62 JUMPI PUSH1 0x0 CALLDATALOAD PUSH1 0xE0 SHR DUP1 PUSH4 0x1ABE2AC2 EQ PUSH2 0x67 JUMPI DUP1 PUSH4 0x29432314 EQ PUSH2 0x85 JUMPI DUP1 PUSH4 0x64529DB5 EQ PUSH2 0xB5 JUMPI DUP1 PUSH4 0xE1819FF9 EQ PUSH2 0xBF JUMPI DUP1 PUSH4 0xF74E51EA EQ PUSH2 0xDB JUMPI DUP1 PUSH4 0xFB8CBCED EQ PUSH2 0x10B JUMPI JUMPDEST PUSH1 0x0 DUP1 REVERT JUMPDEST PUSH2 0x6F PUSH2 0x129 JUMP JUMPDEST PUSH1 0x40 MLOAD PUSH2 0x7C SWAP2 SWAP1 PUSH2 0x3F0 JUMP JUMPDEST PUSH1 0x40 MLOAD DUP1 SWAP2 SUB SWAP1 RETURN JUMPDEST PUSH2 0x9F PUSH1 0x4 DUP1 CALLDATASIZE SUB DUP2 ADD SWAP1 PUSH2 0x9A SWAP2 SWAP1 PUSH2 0x43C JUMP JUMPDEST PUSH2 0x1A0 JUMP JUMPDEST PUSH1 0x40 MLOAD PUSH2 0xAC SWAP2 SWAP1 PUSH2 0x561 JUMP JUMPDEST PUSH1 0x40 MLOAD DUP1 SWAP2 SUB SWAP1 RETURN JUMPDEST PUSH2 0xBD PUSH2 0x2CB JUMP JUMPDEST STOP JUMPDEST PUSH2 0xD9 PUSH1 0x4 DUP1 CALLDATASIZE SUB DUP2 ADD SWAP1 PUSH2 0xD4 SWAP2 SWAP1 PUSH2 0x583 JUMP JUMPDEST PUSH2 0x2DA JUMP JUMPDEST STOP JUMPDEST PUSH2 0xF5 PUSH1 0x4 DUP1 CALLDATASIZE SUB DUP2 ADD SWAP1 PUSH2 0xF0 SWAP2 SWAP1 PUSH2 0x5E6 JUMP JUMPDEST PUSH2 0x306 JUMP JUMPDEST PUSH1 0x40 MLOAD PUSH2 0x102 SWAP2 SWAP1 PUSH2 0x3F0 JUMP JUMPDEST PUSH1 0x40 MLOAD DUP1 SWAP2 SUB SWAP1 RETURN JUMPDEST PUSH2 0x113 PUSH2 0x341 JUMP JUMPDEST PUSH1 0x40 MLOAD PUSH2 0x120 SWAP2 SWAP1 PUSH2 0x561 JUMP JUMPDEST PUSH1 0x40 MLOAD DUP1 SWAP2 SUB SWAP1 RETURN JUMPDEST PUSH1 0x0 DUP1 PUSH1 0x0 DUP1 SLOAD SWAP1 POP GT ISZERO PUSH2 0x19C JUMPI PUSH1 0x0 DUP1 PUSH1 0x1 PUSH1 0x0 DUP1 SLOAD SWAP1 POP PUSH2 0x14D SWAP2 SWAP1 PUSH2 0x655 JUMP JUMPDEST DUP2 SLOAD DUP2 LT PUSH2 0x15E JUMPI PUSH2 0x15D PUSH2 0x689 JUMP JUMPDEST JUMPDEST SWAP1 PUSH1 0x0 MSTORE PUSH1 0x20 PUSH1 0x0 KECCAK256 ADD SLOAD SWAP1 POP PUSH1 0x0 DUP1 SLOAD DUP1 PUSH2 0x17D JUMPI PUSH2 0x17C PUSH2 0x6B8 JUMP JUMPDEST JUMPDEST PUSH1 0x1 SWAP1 SUB DUP2 DUP2 SWAP1 PUSH1 0x0 MSTORE PUSH1 0x20 PUSH1 0x0 KECCAK256 ADD PUSH1 0x0 SWAP1 SSTORE SWAP1 SSTORE DUP1 SWAP2 POP POP PUSH2 0x19D JUMP JUMPDEST JUMPDEST SWAP1 JUMP JUMPDEST PUSH1 0x60 PUSH1 0x0 PUSH1 0x3 PUSH8 0xFFFFFFFFFFFFFFFF DUP2 GT ISZERO PUSH2 0x1BF JUMPI PUSH2 0x1BE PUSH2 0x6E7 JUMP JUMPDEST JUMPDEST PUSH1 0x40 MLOAD SWAP1 DUP1 DUP3 MSTORE DUP1 PUSH1 0x20 MUL PUSH1 0x20 ADD DUP3 ADD PUSH1 0x40 MSTORE DUP1 ISZERO PUSH2 0x1ED JUMPI DUP2 PUSH1 0x20 ADD PUSH1 0x20 DUP3 MUL DUP1 CALLDATASIZE DUP4 CALLDATACOPY DUP1 DUP3 ADD SWAP2 POP POP SWAP1 POP JUMPDEST POP SWAP1 POP DUP5 DUP7 GT PUSH2 0x208 JUMPI DUP6 DUP6 PUSH2 0x203 SWAP2 SWAP1 PUSH2 0x655 JUMP JUMPDEST PUSH2 0x215 JUMP JUMPDEST DUP5 DUP7 PUSH2 0x214 SWAP2 SWAP1 PUSH2 0x655 JUMP JUMPDEST JUMPDEST DUP2 PUSH1 0x0 DUP2 MLOAD DUP2 LT PUSH2 0x229 JUMPI PUSH2 0x228 PUSH2 0x689 JUMP JUMPDEST JUMPDEST PUSH1 0x20 MUL PUSH1 0x20 ADD ADD DUP2 DUP2 MSTORE POP POP DUP4 DUP6 GT PUSH2 0x24D JUMPI DUP5 DUP5 PUSH2 0x248 SWAP2 SWAP1 PUSH2 0x655 JUMP JUMPDEST PUSH2 0x25A JUMP JUMPDEST DUP4 DUP6 PUSH2 0x259 SWAP2 SWAP1 PUSH2 0x655 JUMP JUMPDEST JUMPDEST DUP2 PUSH1 0x1 DUP2 MLOAD DUP2 LT PUSH2 0x26E JUMPI PUSH2 0x26D PUSH2 0x689 JUMP JUMPDEST JUMPDEST PUSH1 0x20 MUL PUSH1 0x20 ADD ADD DUP2 DUP2 MSTORE POP POP DUP3 DUP5 GT PUSH2 0x292 JUMPI DUP4 DUP4 PUSH2 0x28D SWAP2 SWAP1 PUSH2 0x655 JUMP JUMPDEST PUSH2 0x29F JUMP JUMPDEST DUP3 DUP5 PUSH2 0x29E SWAP2 SWAP1 PUSH2 0x655 JUMP JUMPDEST JUMPDEST DUP2 PUSH1 0x2 DUP2 MLOAD DUP2 LT PUSH2 0x2B3 JUMPI PUSH2 0x2B2 PUSH2 0x689 JUMP JUMPDEST JUMPDEST PUSH1 0x20 MUL PUSH1 0x20 ADD ADD DUP2 DUP2 MSTORE POP POP DUP1 SWAP2 POP POP SWAP5 SWAP4 POP POP POP POP JUMP JUMPDEST PUSH1 0x0 DUP1 PUSH2 0x2D8 SWAP2 SWAP1 PUSH2 0x399 JUMP JUMPDEST JUMP JUMPDEST PUSH1 0x0 DUP2 SWAP1 DUP1 PUSH1 0x1 DUP2 SLOAD ADD DUP1 DUP3 SSTORE DUP1 SWAP2 POP POP PUSH1 0x1 SWAP1 SUB SWAP1 PUSH1 0x0 MSTORE PUSH1 0x20 PUSH1 0x0 KECCAK256 ADD PUSH1 0x0 SWAP1 SWAP2 SWAP1 SWAP2 SWAP1 SWAP2 POP SSTORE POP JUMP JUMPDEST PUSH1 0x0 DUP1 DUP3 SGT ISZERO PUSH2 0x323 JUMPI DUP2 DUP4 PUSH2 0x31C SWAP2 SWAP1 PUSH2 0x716 JUMP JUMPDEST SWAP1 POP PUSH2 0x33B JUMP JUMPDEST DUP2 PUSH2 0x32D SWAP1 PUSH2 0x74A JUMP JUMPDEST DUP4 PUSH2 0x338 SWAP2 SWAP1 PUSH2 0x655 JUMP JUMPDEST SWAP1 POP JUMPDEST SWAP3 SWAP2 POP POP JUMP JUMPDEST PUSH1 0x60 PUSH1 0x0 DUP1 SLOAD DUP1 PUSH1 0x20 MUL PUSH1 0x20 ADD PUSH1 0x40 MLOAD SWAP1 DUP2 ADD PUSH1 0x40 MSTORE DUP1 SWAP3 SWAP2 SWAP1 DUP2 DUP2 MSTORE PUSH1 0x20 ADD DUP3 DUP1 SLOAD DUP1 ISZERO PUSH2 0x38F JUMPI PUSH1 0x20 MUL DUP3 ADD SWAP2 SWAP1 PUSH1 0x0 MSTORE PUSH1 0x20 PUSH1 0x0 KECCAK256 SWAP1 JUMPDEST DUP2 SLOAD DUP2 MSTORE PUSH1 0x20 ADD SWAP1 PUSH1 0x1 ADD SWAP1 DUP1 DUP4 GT PUSH2 0x37B JUMPI JUMPDEST POP POP POP POP POP SWAP1 POP SWAP1 JUMP JUMPDEST POP DUP1 SLOAD PUSH1 0x0 DUP3 SSTORE SWAP1 PUSH1 0x0 MSTORE PUSH1 0x20 PUSH1 0x0 KECCAK256 SWAP1 DUP2 ADD SWAP1 PUSH2 0x3B7 SWAP2 SWAP1 PUSH2 0x3BA JUMP JUMPDEST POP JUMP JUMPDEST JUMPDEST DUP1 DUP3 GT ISZERO PUSH2 0x3D3 JUMPI PUSH1 0x0 DUP2 PUSH1 0x0 SWAP1 SSTORE POP PUSH1 0x1 ADD PUSH2 0x3BB JUMP JUMPDEST POP SWAP1 JUMP JUMPDEST PUSH1 0x0 DUP2 SWAP1 POP SWAP2 SWAP1 POP JUMP JUMPDEST PUSH2 0x3EA DUP2 PUSH2 0x3D7 JUMP JUMPDEST DUP3 MSTORE POP POP JUMP JUMPDEST PUSH1 0x0 PUSH1 0x20 DUP3 ADD SWAP1 POP PUSH2 0x405 PUSH1 0x0 DUP4 ADD DUP5 PUSH2 0x3E1 JUMP JUMPDEST SWAP3 SWAP2 POP POP JUMP JUMPDEST PUSH1 0x0 DUP1 REVERT JUMPDEST PUSH2 0x419 DUP2 PUSH2 0x3D7 JUMP JUMPDEST DUP2 EQ PUSH2 0x424 JUMPI PUSH1 0x0 DUP1 REVERT JUMPDEST POP JUMP JUMPDEST PUSH1 0x0 DUP2 CALLDATALOAD SWAP1 POP PUSH2 0x436 DUP2 PUSH2 0x410 JUMP JUMPDEST SWAP3 SWAP2 POP POP JUMP JUMPDEST PUSH1 0x0 DUP1 PUSH1 0x0 DUP1 PUSH1 0x80 DUP6 DUP8 SUB SLT ISZERO PUSH2 0x456 JUMPI PUSH2 0x455 PUSH2 0x40B JUMP JUMPDEST JUMPDEST PUSH1 0x0 PUSH2 0x464 DUP8 DUP3 DUP9 ADD PUSH2 0x427 JUMP JUMPDEST SWAP5 POP POP PUSH1 0x20 PUSH2 0x475 DUP8 DUP3 DUP9 ADD PUSH2 0x427 JUMP JUMPDEST SWAP4 POP POP PUSH1 0x40 PUSH2 0x486 DUP8 DUP3 DUP9 ADD PUSH2 0x427 JUMP JUMPDEST SWAP3 POP POP PUSH1 0x60 PUSH2 0x497 DUP8 DUP3 DUP9 ADD PUSH2 0x427 JUMP JUMPDEST SWAP2 POP POP SWAP3 SWAP6 SWAP2 SWAP5 POP SWAP3 POP JUMP JUMPDEST PUSH1 0x0 DUP2 MLOAD SWAP1 POP SWAP2 SWAP1 POP JUMP JUMPDEST PUSH1 0x0 DUP3 DUP3 MSTORE PUSH1 0x20 DUP3 ADD SWAP1 POP SWAP3 SWAP2 POP POP JUMP JUMPDEST PUSH1 0x0 DUP2 SWAP1 POP PUSH1 0x20 DUP3 ADD SWAP1 POP SWAP2 SWAP1 POP JUMP JUMPDEST PUSH2 0x4D8 DUP2 PUSH2 0x3D7 JUMP JUMPDEST DUP3 MSTORE POP POP JUMP JUMPDEST PUSH1 0x0 PUSH2 0x4EA DUP4 DUP4 PUSH2 0x4CF JUMP JUMPDEST PUSH1 0x20 DUP4 ADD SWAP1 POP SWAP3 SWAP2 POP POP JUMP JUMPDEST PUSH1 0x0 PUSH1 0x20 DUP3 ADD SWAP1 POP SWAP2 SWAP1 POP JUMP JUMPDEST PUSH1 0x0 PUSH2 0x50E DUP3 PUSH2 0x4A3 JUMP JUMPDEST PUSH2 0x518 DUP2 DUP6 PUSH2 0x4AE JUMP JUMPDEST SWAP4 POP PUSH2 0x523 DUP4 PUSH2 0x4BF JUMP JUMPDEST DUP1 PUSH1 0x0 JUMPDEST DUP4 DUP2 LT ISZERO PUSH2 0x554 JUMPI DUP2 MLOAD PUSH2 0x53B DUP9 DUP3 PUSH2 0x4DE JUMP JUMPDEST SWAP8 POP PUSH2 0x546 DUP4 PUSH2 0x4F6 JUMP JUMPDEST SWAP3 POP POP PUSH1 0x1 DUP2 ADD SWAP1 POP PUSH2 0x527 JUMP JUMPDEST POP DUP6 SWAP4 POP POP POP POP SWAP3 SWAP2 POP POP JUMP JUMPDEST PUSH1 0x0 PUSH1 0x20 DUP3 ADD SWAP1 POP DUP2 DUP2 SUB PUSH1 0x0 DUP4 ADD MSTORE PUSH2 0x57B DUP2 DUP5 PUSH2 0x503 JUMP JUMPDEST SWAP1 POP SWAP3 SWAP2 POP POP JUMP JUMPDEST PUSH1 0x0 PUSH1 0x20 DUP3 DUP5 SUB SLT ISZERO PUSH2 0x599 JUMPI PUSH2 0x598 PUSH2 0x40B JUMP JUMPDEST JUMPDEST PUSH1 0x0 PUSH2 0x5A7 DUP5 DUP3 DUP6 ADD PUSH2 0x427 JUMP JUMPDEST SWAP2 POP POP SWAP3 SWAP2 POP POP JUMP JUMPDEST PUSH1 0x0 DUP2 SWAP1 POP SWAP2 SWAP1 POP JUMP JUMPDEST PUSH2 0x5C3 DUP2 PUSH2 0x5B0 JUMP JUMPDEST DUP2 EQ PUSH2 0x5CE JUMPI PUSH1 0x0 DUP1 REVERT JUMPDEST POP JUMP JUMPDEST PUSH1 0x0 DUP2 CALLDATALOAD SWAP1 POP PUSH2 0x5E0 DUP2 PUSH2 0x5BA JUMP JUMPDEST SWAP3 SWAP2 POP POP JUMP JUMPDEST PUSH1 0x0 DUP1 PUSH1 0x40 DUP4 DUP6 SUB SLT ISZERO PUSH2 0x5FD JUMPI PUSH2 0x5FC PUSH2 0x40B JUMP JUMPDEST JUMPDEST PUSH1 0x0 PUSH2 0x60B DUP6 DUP3 DUP7 ADD PUSH2 0x427 JUMP JUMPDEST SWAP3 POP POP PUSH1 0x20 PUSH2 0x61C DUP6 DUP3 DUP7 ADD PUSH2 0x5D1 JUMP JUMPDEST SWAP2 POP POP SWAP3 POP SWAP3 SWAP1 POP JUMP JUMPDEST PUSH32 0x4E487B7100000000000000000000000000000000000000000000000000000000 PUSH1 0x0 MSTORE PUSH1 0x11 PUSH1 0x4 MSTORE PUSH1 0x24 PUSH1 0x0 REVERT JUMPDEST PUSH1 0x0 PUSH2 0x660 DUP3 PUSH2 0x3D7 JUMP JUMPDEST SWAP2 POP PUSH2 0x66B DUP4 PUSH2 0x3D7 JUMP JUMPDEST SWAP3 POP DUP3 DUP3 SUB SWAP1 POP DUP2 DUP2 GT ISZERO PUSH2 0x683 JUMPI PUSH2 0x682 PUSH2 0x626 JUMP JUMPDEST JUMPDEST SWAP3 SWAP2 POP POP JUMP JUMPDEST PUSH32 0x4E487B7100000000000000000000000000000000000000000000000000000000 PUSH1 0x0 MSTORE PUSH1 0x32 PUSH1 0x4 MSTORE PUSH1 0x24 PUSH1 0x0 REVERT JUMPDEST PUSH32 0x4E487B7100000000000000000000000000000000000000000000000000000000 PUSH1 0x0 MSTORE PUSH1 0x31 PUSH1 0x4 MSTORE PUSH1 0x24 PUSH1 0x0 REVERT JUMPDEST PUSH32 0x4E487B7100000000000000000000000000000000000000000000000000000000 PUSH1 0x0 MSTORE PUSH1 0x41 PUSH1 0x4 MSTORE PUSH1 0x24 PUSH1 0x0 REVERT JUMPDEST PUSH1 0x0 PUSH2 0x721 DUP3 PUSH2 0x3D7 JUMP JUMPDEST SWAP2 POP PUSH2 0x72C DUP4 PUSH2 0x3D7 JUMP JUMPDEST SWAP3 POP DUP3 DUP3 ADD SWAP1 POP DUP1 DUP3 GT ISZERO PUSH2 0x744 JUMPI PUSH2 0x743 PUSH2 0x626 JUMP JUMPDEST JUMPDEST SWAP3 SWAP2 POP POP JUMP JUMPDEST PUSH1 0x0 PUSH2 0x755 DUP3 PUSH2 0x5B0 JUMP JUMPDEST SWAP2 POP PUSH32 0x8000000000000000000000000000000000000000000000000000000000000000 DUP3 SUB PUSH2 0x787 JUMPI PUSH2 0x786 PUSH2 0x626 JUMP JUMPDEST JUMPDEST DUP2 PUSH1 0x0 SUB SWAP1 POP SWAP2 SWAP1 POP JUMP INVALID LOG2 PUSH5 0x6970667358 0x22 SLT KECCAK256 LOG0 0xB3 SWAP4 0xCE 0xB1 0xD0 0xC8 PUSH26 0x64C00C6599DB79E6323C6528C45C798821704360FC5907B66473 PUSH16 0x6C634300081100330000000000000000 "
				},
				"gasEstimates": {
					"creation": {
						"codeDepositCost": "398400",
						"executionCost": "436",
						"totalCost": "398836"
					},
					"external": {
						"addToArr(uint256)": "46873",
						"applyModifier(uint256,int256)": "infinite",
						"diffWithNeighbor(uint256,uint256,uint256,uint256)": "infinite",
						"getArr()": "infinite",
						"popWithReturn()": "infinite",
						"resetArr()": "infinite"
					}
				},
				"methodIdentifiers": {
					"addToArr(uint256)": "e1819ff9",
					"applyModifier(uint256,int256)": "f74e51ea",
					"diffWithNeighbor(uint256,uint256,uint256,uint256)": "29432314",
					"getArr()": "fb8cbced",
					"popWithReturn()": "1abe2ac2",
					"resetArr()": "64529db5"
				}
			},
			"storageLayout": {
				"storage": [
					{
						"astId": 109,
						"contract": "contracts/13_Errors.sol:Error_Triage_Exercise",
						"label": "arr",
						"offset": 0,
						"slot": "0",
						"type": "t_array(t_uint256)dyn_storage"
					}
				],
				"types": {
					"t_array(t_uint256)dyn_storage": {
						"base": "t_uint256",
						"encoding": "dynamic_array",
						"label": "uint256[]",
						"numberOfBytes": "32"
					},
					"t_uint256": {
						"encoding": "inplace",
						"label": "uint256",
						"numberOfBytes": "32"
					}
				}
			},
			"userdoc": {
				"kind": "user",
				"methods": {},
				"version": 1
			}
		}
	}
}