{
	"contracts/9_Structs.sol": {
		"Garage_Manager": {
			"abi": [
				{
					"inputs": [
						{
							"internalType": "uint256",
							"name": "index",
							"type": "uint256"
						}
					],
					"name": "BadCarIndex",
					"type": "error"
				},
				{
					"inputs": [
						{
							"internalType": "string",
							"name": "_make",
							"type": "string"
						},
						{
							"internalType": "string",
							"name": "_model",
							"type": "string"
						},
						{
							"internalType": "string",
							"name": "_color",
							"type": "string"
						},
						{
							"internalType": "uint256",
							"name": "_numberOfDoors",
							"type": "uint256"
						}
					],
					"name": "addCar",
					"outputs": [],
					"stateMutability": "nonpayable",
					"type": "function"
				},
				{
					"inputs": [],
					"name": "getMyCars",
					"outputs": [
						{
							"components": [
								{
									"internalType": "string",
									"name": "make",
									"type": "string"
								},
								{
									"internalType": "string",
									"name": "model",
									"type": "string"
								},
								{
									"internalType": "string",
									"name": "color",
									"type": "string"
								},
								{
									"internalType": "uint256",
									"name": "numberOfDoors",
									"type": "uint256"
								}
							],
							"internalType": "struct Garage_Manager.Car[]",
							"name": "",
							"type": "tuple[]"
						}
					],
					"stateMutability": "view",
					"type": "function"
				},
				{
					"inputs": [
						{
							"internalType": "address",
							"name": "_user",
							"type": "address"
						}
					],
					"name": "getUserCars",
					"outputs": [
						{
							"components": [
								{
									"internalType": "string",
									"name": "make",
									"type": "string"
								},
								{
									"internalType": "string",
									"name": "model",
									"type": "string"
								},
								{
									"internalType": "string",
									"name": "color",
									"type": "string"
								},
								{
									"internalType": "uint256",
									"name": "numberOfDoors",
									"type": "uint256"
								}
							],
							"internalType": "struct Garage_Manager.Car[]",
							"name": "",
							"type": "tuple[]"
						}
					],
					"stateMutability": "view",
					"type": "function"
				},
				{
					"inputs": [],
					"name": "resetMyGarage",
					"outputs": [],
					"stateMutability": "nonpayable",
					"type": "function"
				},
				{
					"inputs": [
						{
							"internalType": "uint256",
							"name": "_index",
							"type": "uint256"
						},
						{
							"internalType": "string",
							"name": "_make",
							"type": "string"
						},
						{
							"internalType": "string",
							"name": "_model",
							"type": "string"
						},
						{
							"internalType": "string",
							"name": "_color",
							"type": "string"
						},
						{
							"internalType": "uint256",
							"name": "_numberOfDoors",
							"type": "uint256"
						}
					],
					"name": "updateCar",
					"outputs": [],
					"stateMutability": "nonpayable",
					"type": "function"
				}
			],
			"devdoc": {
				"details": "Contract to manage a garage of cars for each user",
				"kind": "dev",
				"methods": {
					"addCar(string,string,string,uint256)": {
						"details": "Adds a new car to the caller's garage",
						"params": {
							"_color": "The color of the car",
							"_make": "The make of the car",
							"_model": "The model of the car",
							"_numberOfDoors": "The number of doors of the car"
						}
					},
					"getMyCars()": {
						"details": "Retrieves the caller's array of cars",
						"returns": {
							"_0": "An array of `Car` structs"
						}
					},
					"getUserCars(address)": {
						"details": "Retrieves a specific user's array of cars",
						"params": {
							"_user": "The address of the user"
						},
						"returns": {
							"_0": "An array of `Car` structs"
						}
					},
					"resetMyGarage()": {
						"details": "Deletes all cars in the caller's garage"
					},
					"updateCar(uint256,string,string,string,uint256)": {
						"details": "Updates a specific car in the caller's garage",
						"params": {
							"_color": "The new color of the car",
							"_index": "The index of the car in the garage array",
							"_make": "The new make of the car",
							"_model": "The new model of the car",
							"_numberOfDoors": "The new number of doors of the car"
						}
					}
				},
				"title": "GarageManager",
				"version": 1
			},
			"evm": {
				"assembly": "    /* \"contracts/9_Structs.sol\":155:2881  contract Garage_Manager {... */\n  mstore(0x40, 0x80)\n  callvalue\n  dup1\n  iszero\n  tag_1\n  jumpi\n  0x00\n  dup1\n  revert\ntag_1:\n  pop\n  dataSize(sub_0)\n  dup1\n  dataOffset(sub_0)\n  0x00\n  codecopy\n  0x00\n  return\nstop\n\nsub_0: assembly {\n        /* \"contracts/9_Structs.sol\":155:2881  contract Garage_Manager {... */\n      mstore(0x40, 0x80)\n      callvalue\n      dup1\n      iszero\n      tag_1\n      jumpi\n      0x00\n      dup1\n      revert\n    tag_1:\n      pop\n      jumpi(tag_2, lt(calldatasize, 0x04))\n      shr(0xe0, calldataload(0x00))\n      dup1\n      0x2698286c\n      eq\n      tag_3\n      jumpi\n      dup1\n      0x341fa05d\n      eq\n      tag_4\n      jumpi\n      dup1\n      0x4cd1ed3d\n      eq\n      tag_5\n      jumpi\n      dup1\n      0x6dcb7896\n      eq\n      tag_6\n      jumpi\n      dup1\n      0xd2d50bd8\n      eq\n      tag_7\n      jumpi\n    tag_2:\n      0x00\n      dup1\n      revert\n        /* \"contracts/9_Structs.sol\":1628:1821  function getUserCars(address _user) external view returns (Car[] memory) {... */\n    tag_3:\n      tag_8\n      0x04\n      dup1\n      calldatasize\n      sub\n      dup2\n      add\n      swap1\n      tag_9\n      swap2\n      swap1\n      tag_10\n      jump\t// in\n    tag_9:\n      tag_11\n      jump\t// in\n    tag_8:\n      mload(0x40)\n      tag_12\n      swap2\n      swap1\n      tag_13\n      jump\t// in\n    tag_12:\n      mload(0x40)\n      dup1\n      swap2\n      sub\n      swap1\n      return\n        /* \"contracts/9_Structs.sol\":1290:1460  function getMyCars() external view returns (Car[] memory) {... */\n    tag_4:\n      tag_14\n      tag_15\n      jump\t// in\n    tag_14:\n      mload(0x40)\n      tag_16\n      swap2\n      swap1\n      tag_13\n      jump\t// in\n    tag_16:\n      mload(0x40)\n      dup1\n      swap2\n      sub\n      swap1\n      return\n        /* \"contracts/9_Structs.sol\":2173:2667  function updateCar(uint256 _index, string memory _make, string memory _model, string memory _color, uint _numberOfDoors) external {... */\n    tag_5:\n      tag_17\n      0x04\n      dup1\n      calldatasize\n      sub\n      dup2\n      add\n      swap1\n      tag_18\n      swap2\n      swap1\n      tag_19\n      jump\t// in\n    tag_18:\n      tag_20\n      jump\t// in\n    tag_17:\n      stop\n        /* \"contracts/9_Structs.sol\":2746:2878  function resetMyGarage() external {... */\n    tag_6:\n      tag_21\n      tag_22\n      jump\t// in\n    tag_21:\n      stop\n        /* \"contracts/9_Structs.sol\":891:1172  function addCar(string memory _make, string memory _model, string memory _color, uint _numberOfDoors) external {... */\n    tag_7:\n      tag_23\n      0x04\n      dup1\n      calldatasize\n      sub\n      dup2\n      add\n      swap1\n      tag_24\n      swap2\n      swap1\n      tag_25\n      jump\t// in\n    tag_24:\n      tag_26\n      jump\t// in\n    tag_23:\n      stop\n        /* \"contracts/9_Structs.sol\":1628:1821  function getUserCars(address _user) external view returns (Car[] memory) {... */\n    tag_11:\n        /* \"contracts/9_Structs.sol\":1687:1699  Car[] memory */\n      0x60\n        /* \"contracts/9_Structs.sol\":1799:1806  garages */\n      0x00\n        /* \"contracts/9_Structs.sol\":1799:1813  garages[_user] */\n      dup1\n        /* \"contracts/9_Structs.sol\":1807:1812  _user */\n      dup4\n        /* \"contracts/9_Structs.sol\":1799:1813  garages[_user] */\n      0xffffffffffffffffffffffffffffffffffffffff\n      and\n      0xffffffffffffffffffffffffffffffffffffffff\n      and\n      dup2\n      mstore\n      0x20\n      add\n      swap1\n      dup2\n      mstore\n      0x20\n      add\n      0x00\n      keccak256\n        /* \"contracts/9_Structs.sol\":1792:1813  return garages[_user] */\n      dup1\n      sload\n      dup1\n      0x20\n      mul\n      0x20\n      add\n      mload(0x40)\n      swap1\n      dup2\n      add\n      0x40\n      mstore\n      dup1\n      swap3\n      swap2\n      swap1\n      dup2\n      dup2\n      mstore\n      0x20\n      add\n      0x00\n      swap1\n    tag_28:\n      dup3\n      dup3\n      lt\n      iszero\n      tag_29\n      jumpi\n      dup4\n      dup3\n      swap1\n      0x00\n      mstore\n      keccak256(0x00, 0x20)\n      swap1\n      0x04\n      mul\n      add\n      mload(0x40)\n      dup1\n      0x80\n      add\n      0x40\n      mstore\n      swap1\n      dup2\n      0x00\n      dup3\n      add\n      dup1\n      sload\n      tag_31\n      swap1\n      tag_32\n      jump\t// in\n    tag_31:\n      dup1\n      0x1f\n      add\n      0x20\n      dup1\n      swap2\n      div\n      mul\n      0x20\n      add\n      mload(0x40)\n      swap1\n      dup2\n      add\n      0x40\n      mstore\n      dup1\n      swap3\n      swap2\n      swap1\n      dup2\n      dup2\n      mstore\n      0x20\n      add\n      dup3\n      dup1\n      sload\n      tag_33\n      swap1\n      tag_32\n      jump\t// in\n    tag_33:\n      dup1\n      iszero\n      tag_34\n      jumpi\n      dup1\n      0x1f\n      lt\n      tag_35\n      jumpi\n      0x0100\n      dup1\n      dup4\n      sload\n      div\n      mul\n      dup4\n      mstore\n      swap2\n      0x20\n      add\n      swap2\n      jump(tag_34)\n    tag_35:\n      dup3\n      add\n      swap2\n      swap1\n      0x00\n      mstore\n      keccak256(0x00, 0x20)\n      swap1\n    tag_36:\n      dup2\n      sload\n      dup2\n      mstore\n      swap1\n      0x01\n      add\n      swap1\n      0x20\n      add\n      dup1\n      dup4\n      gt\n      tag_36\n      jumpi\n      dup3\n      swap1\n      sub\n      0x1f\n      and\n      dup3\n      add\n      swap2\n    tag_34:\n      pop\n      pop\n      pop\n      pop\n      pop\n      dup2\n      mstore\n      0x20\n      add\n      0x01\n      dup3\n      add\n      dup1\n      sload\n      tag_37\n      swap1\n      tag_32\n      jump\t// in\n    tag_37:\n      dup1\n      0x1f\n      add\n      0x20\n      dup1\n      swap2\n      div\n      mul\n      0x20\n      add\n      mload(0x40)\n      swap1\n      dup2\n      add\n      0x40\n      mstore\n      dup1\n      swap3\n      swap2\n      swap1\n      dup2\n      dup2\n      mstore\n      0x20\n      add\n      dup3\n      dup1\n      sload\n      tag_38\n      swap1\n      tag_32\n      jump\t// in\n    tag_38:\n      dup1\n      iszero\n      tag_39\n      jumpi\n      dup1\n      0x1f\n      lt\n      tag_40\n      jumpi\n      0x0100\n      dup1\n      dup4\n      sload\n      div\n      mul\n      dup4\n      mstore\n      swap2\n      0x20\n      add\n      swap2\n      jump(tag_39)\n    tag_40:\n      dup3\n      add\n      swap2\n      swap1\n      0x00\n      mstore\n      keccak256(0x00, 0x20)\n      swap1\n    tag_41:\n      dup2\n      sload\n      dup2\n      mstore\n      swap1\n      0x01\n      add\n      swap1\n      0x20\n      add\n      dup1\n      dup4\n      gt\n      tag_41\n      jumpi\n      dup3\n      swap1\n      sub\n      0x1f\n      and\n      dup3\n      add\n      swap2\n    tag_39:\n      pop\n      pop\n      pop\n      pop\n      pop\n      dup2\n      mstore\n      0x20\n      add\n      0x02\n      dup3\n      add\n      dup1\n      sload\n      tag_42\n      swap1\n      tag_32\n      jump\t// in\n    tag_42:\n      dup1\n      0x1f\n      add\n      0x20\n      dup1\n      swap2\n      div\n      mul\n      0x20\n      add\n      mload(0x40)\n      swap1\n      dup2\n      add\n      0x40\n      mstore\n      dup1\n      swap3\n      swap2\n      swap1\n      dup2\n      dup2\n      mstore\n      0x20\n      add\n      dup3\n      dup1\n      sload\n      tag_43\n      swap1\n      tag_32\n      jump\t// in\n    tag_43:\n      dup1\n      iszero\n      tag_44\n      jumpi\n      dup1\n      0x1f\n      lt\n      tag_45\n      jumpi\n      0x0100\n      dup1\n      dup4\n      sload\n      div\n      mul\n      dup4\n      mstore\n      swap2\n      0x20\n      add\n      swap2\n      jump(tag_44)\n    tag_45:\n      dup3\n      add\n      swap2\n      swap1\n      0x00\n      mstore\n      keccak256(0x00, 0x20)\n      swap1\n    tag_46:\n      dup2\n      sload\n      dup2\n      mstore\n      swap1\n      0x01\n      add\n      swap1\n      0x20\n      add\n      dup1\n      dup4\n      gt\n      tag_46\n      jumpi\n      dup3\n      swap1\n      sub\n      0x1f\n      and\n      dup3\n      add\n      swap2\n    tag_44:\n      pop\n      pop\n      pop\n      pop\n      pop\n      dup2\n      mstore\n      0x20\n      add\n      0x03\n      dup3\n      add\n      sload\n      dup2\n      mstore\n      pop\n      pop\n      dup2\n      mstore\n      0x20\n      add\n      swap1\n      0x01\n      add\n      swap1\n      jump(tag_28)\n    tag_29:\n      pop\n      pop\n      pop\n      pop\n      swap1\n      pop\n        /* \"contracts/9_Structs.sol\":1628:1821  function getUserCars(address _user) external view returns (Car[] memory) {... */\n      swap2\n      swap1\n      pop\n      jump\t// out\n        /* \"contracts/9_Structs.sol\":1290:1460  function getMyCars() external view returns (Car[] memory) {... */\n    tag_15:\n        /* \"contracts/9_Structs.sol\":1334:1346  Car[] memory */\n      0x60\n        /* \"contracts/9_Structs.sol\":1433:1440  garages */\n      0x00\n        /* \"contracts/9_Structs.sol\":1433:1452  garages[msg.sender] */\n      dup1\n        /* \"contracts/9_Structs.sol\":1441:1451  msg.sender */\n      caller\n        /* \"contracts/9_Structs.sol\":1433:1452  garages[msg.sender] */\n      0xffffffffffffffffffffffffffffffffffffffff\n      and\n      0xffffffffffffffffffffffffffffffffffffffff\n      and\n      dup2\n      mstore\n      0x20\n      add\n      swap1\n      dup2\n      mstore\n      0x20\n      add\n      0x00\n      keccak256\n        /* \"contracts/9_Structs.sol\":1426:1452  return garages[msg.sender] */\n      dup1\n      sload\n      dup1\n      0x20\n      mul\n      0x20\n      add\n      mload(0x40)\n      swap1\n      dup2\n      add\n      0x40\n      mstore\n      dup1\n      swap3\n      swap2\n      swap1\n      dup2\n      dup2\n      mstore\n      0x20\n      add\n      0x00\n      swap1\n    tag_48:\n      dup3\n      dup3\n      lt\n      iszero\n      tag_49\n      jumpi\n      dup4\n      dup3\n      swap1\n      0x00\n      mstore\n      keccak256(0x00, 0x20)\n      swap1\n      0x04\n      mul\n      add\n      mload(0x40)\n      dup1\n      0x80\n      add\n      0x40\n      mstore\n      swap1\n      dup2\n      0x00\n      dup3\n      add\n      dup1\n      sload\n      tag_51\n      swap1\n      tag_32\n      jump\t// in\n    tag_51:\n      dup1\n      0x1f\n      add\n      0x20\n      dup1\n      swap2\n      div\n      mul\n      0x20\n      add\n      mload(0x40)\n      swap1\n      dup2\n      add\n      0x40\n      mstore\n      dup1\n      swap3\n      swap2\n      swap1\n      dup2\n      dup2\n      mstore\n      0x20\n      add\n      dup3\n      dup1\n      sload\n      tag_52\n      swap1\n      tag_32\n      jump\t// in\n    tag_52:\n      dup1\n      iszero\n      tag_53\n      jumpi\n      dup1\n      0x1f\n      lt\n      tag_54\n      jumpi\n      0x0100\n      dup1\n      dup4\n      sload\n      div\n      mul\n      dup4\n      mstore\n      swap2\n      0x20\n      add\n      swap2\n      jump(tag_53)\n    tag_54:\n      dup3\n      add\n      swap2\n      swap1\n      0x00\n      mstore\n      keccak256(0x00, 0x20)\n      swap1\n    tag_55:\n      dup2\n      sload\n      dup2\n      mstore\n      swap1\n      0x01\n      add\n      swap1\n      0x20\n      add\n      dup1\n      dup4\n      gt\n      tag_55\n      jumpi\n      dup3\n      swap1\n      sub\n      0x1f\n      and\n      dup3\n      add\n      swap2\n    tag_53:\n      pop\n      pop\n      pop\n      pop\n      pop\n      dup2\n      mstore\n      0x20\n      add\n      0x01\n      dup3\n      add\n      dup1\n      sload\n      tag_56\n      swap1\n      tag_32\n      jump\t// in\n    tag_56:\n      dup1\n      0x1f\n      add\n      0x20\n      dup1\n      swap2\n      div\n      mul\n      0x20\n      add\n      mload(0x40)\n      swap1\n      dup2\n      add\n      0x40\n      mstore\n      dup1\n      swap3\n      swap2\n      swap1\n      dup2\n      dup2\n      mstore\n      0x20\n      add\n      dup3\n      dup1\n      sload\n      tag_57\n      swap1\n      tag_32\n      jump\t// in\n    tag_57:\n      dup1\n      iszero\n      tag_58\n      jumpi\n      dup1\n      0x1f\n      lt\n      tag_59\n      jumpi\n      0x0100\n      dup1\n      dup4\n      sload\n      div\n      mul\n      dup4\n      mstore\n      swap2\n      0x20\n      add\n      swap2\n      jump(tag_58)\n    tag_59:\n      dup3\n      add\n      swap2\n      swap1\n      0x00\n      mstore\n      keccak256(0x00, 0x20)\n      swap1\n    tag_60:\n      dup2\n      sload\n      dup2\n      mstore\n      swap1\n      0x01\n      add\n      swap1\n      0x20\n      add\n      dup1\n      dup4\n      gt\n      tag_60\n      jumpi\n      dup3\n      swap1\n      sub\n      0x1f\n      and\n      dup3\n      add\n      swap2\n    tag_58:\n      pop\n      pop\n      pop\n      pop\n      pop\n      dup2\n      mstore\n      0x20\n      add\n      0x02\n      dup3\n      add\n      dup1\n      sload\n      tag_61\n      swap1\n      tag_32\n      jump\t// in\n    tag_61:\n      dup1\n      0x1f\n      add\n      0x20\n      dup1\n      swap2\n      div\n      mul\n      0x20\n      add\n      mload(0x40)\n      swap1\n      dup2\n      add\n      0x40\n      mstore\n      dup1\n      swap3\n      swap2\n      swap1\n      dup2\n      dup2\n      mstore\n      0x20\n      add\n      dup3\n      dup1\n      sload\n      tag_62\n      swap1\n      tag_32\n      jump\t// in\n    tag_62:\n      dup1\n      iszero\n      tag_63\n      jumpi\n      dup1\n      0x1f\n      lt\n      tag_64\n      jumpi\n      0x0100\n      dup1\n      dup4\n      sload\n      div\n      mul\n      dup4\n      mstore\n      swap2\n      0x20\n      add\n      swap2\n      jump(tag_63)\n    tag_64:\n      dup3\n      add\n      swap2\n      swap1\n      0x00\n      mstore\n      keccak256(0x00, 0x20)\n      swap1\n    tag_65:\n      dup2\n      sload\n      dup2\n      mstore\n      swap1\n      0x01\n      add\n      swap1\n      0x20\n      add\n      dup1\n      dup4\n      gt\n      tag_65\n      jumpi\n      dup3\n      swap1\n      sub\n      0x1f\n      and\n      dup3\n      add\n      swap2\n    tag_63:\n      pop\n      pop\n      pop\n      pop\n      pop\n      dup2\n      mstore\n      0x20\n      add\n      0x03\n      dup3\n      add\n      sload\n      dup2\n      mstore\n      pop\n      pop\n      dup2\n      mstore\n      0x20\n      add\n      swap1\n      0x01\n      add\n      swap1\n      jump(tag_48)\n    tag_49:\n      pop\n      pop\n      pop\n      pop\n      swap1\n      pop\n        /* \"contracts/9_Structs.sol\":1290:1460  function getMyCars() external view returns (Car[] memory) {... */\n      swap1\n      jump\t// out\n        /* \"contracts/9_Structs.sol\":2173:2667  function updateCar(uint256 _index, string memory _make, string memory _model, string memory _color, uint _numberOfDoors) external {... */\n    tag_20:\n        /* \"contracts/9_Structs.sol\":2377:2384  garages */\n      0x00\n        /* \"contracts/9_Structs.sol\":2377:2396  garages[msg.sender] */\n      dup1\n        /* \"contracts/9_Structs.sol\":2385:2395  msg.sender */\n      caller\n        /* \"contracts/9_Structs.sol\":2377:2396  garages[msg.sender] */\n      0xffffffffffffffffffffffffffffffffffffffff\n      and\n      0xffffffffffffffffffffffffffffffffffffffff\n      and\n      dup2\n      mstore\n      0x20\n      add\n      swap1\n      dup2\n      mstore\n      0x20\n      add\n      0x00\n      keccak256\n        /* \"contracts/9_Structs.sol\":2377:2403  garages[msg.sender].length */\n      dup1\n      sload\n      swap1\n      pop\n        /* \"contracts/9_Structs.sol\":2367:2373  _index */\n      dup6\n        /* \"contracts/9_Structs.sol\":2367:2403  _index >= garages[msg.sender].length */\n      lt\n        /* \"contracts/9_Structs.sol\":2363:2519  if (_index >= garages[msg.sender].length) {... */\n      tag_67\n      jumpi\n        /* \"contracts/9_Structs.sol\":2447:2453  _index */\n      dup5\n        /* \"contracts/9_Structs.sol\":2427:2455  BadCarIndex({index: _index}) */\n      mload(0x40)\n      0x40c901ce00000000000000000000000000000000000000000000000000000000\n      dup2\n      mstore\n      0x04\n      add\n      tag_68\n      swap2\n      swap1\n      tag_69\n      jump\t// in\n    tag_68:\n      mload(0x40)\n      dup1\n      swap2\n      sub\n      swap1\n      revert\n        /* \"contracts/9_Structs.sol\":2363:2519  if (_index >= garages[msg.sender].length) {... */\n    tag_67:\n        /* \"contracts/9_Structs.sol\":2617:2659  Car(_make, _model, _color, _numberOfDoors) */\n      mload(0x40)\n      dup1\n      0x80\n      add\n      0x40\n      mstore\n      dup1\n        /* \"contracts/9_Structs.sol\":2621:2626  _make */\n      dup6\n        /* \"contracts/9_Structs.sol\":2617:2659  Car(_make, _model, _color, _numberOfDoors) */\n      dup2\n      mstore\n      0x20\n      add\n        /* \"contracts/9_Structs.sol\":2628:2634  _model */\n      dup5\n        /* \"contracts/9_Structs.sol\":2617:2659  Car(_make, _model, _color, _numberOfDoors) */\n      dup2\n      mstore\n      0x20\n      add\n        /* \"contracts/9_Structs.sol\":2636:2642  _color */\n      dup4\n        /* \"contracts/9_Structs.sol\":2617:2659  Car(_make, _model, _color, _numberOfDoors) */\n      dup2\n      mstore\n      0x20\n      add\n        /* \"contracts/9_Structs.sol\":2644:2658  _numberOfDoors */\n      dup3\n        /* \"contracts/9_Structs.sol\":2617:2659  Car(_make, _model, _color, _numberOfDoors) */\n      dup2\n      mstore\n      pop\n        /* \"contracts/9_Structs.sol\":2587:2594  garages */\n      0x00\n        /* \"contracts/9_Structs.sol\":2587:2606  garages[msg.sender] */\n      dup1\n        /* \"contracts/9_Structs.sol\":2595:2605  msg.sender */\n      caller\n        /* \"contracts/9_Structs.sol\":2587:2606  garages[msg.sender] */\n      0xffffffffffffffffffffffffffffffffffffffff\n      and\n      0xffffffffffffffffffffffffffffffffffffffff\n      and\n      dup2\n      mstore\n      0x20\n      add\n      swap1\n      dup2\n      mstore\n      0x20\n      add\n      0x00\n      keccak256\n        /* \"contracts/9_Structs.sol\":2607:2613  _index */\n      dup7\n        /* \"contracts/9_Structs.sol\":2587:2614  garages[msg.sender][_index] */\n      dup2\n      sload\n      dup2\n      lt\n      tag_70\n      jumpi\n      tag_71\n      tag_72\n      jump\t// in\n    tag_71:\n    tag_70:\n      swap1\n      0x00\n      mstore\n      keccak256(0x00, 0x20)\n      swap1\n      0x04\n      mul\n      add\n        /* \"contracts/9_Structs.sol\":2587:2659  garages[msg.sender][_index] = Car(_make, _model, _color, _numberOfDoors) */\n      0x00\n      dup3\n      add\n      mload\n      dup2\n      0x00\n      add\n      swap1\n      dup2\n      tag_74\n      swap2\n      swap1\n      tag_75\n      jump\t// in\n    tag_74:\n      pop\n      0x20\n      dup3\n      add\n      mload\n      dup2\n      0x01\n      add\n      swap1\n      dup2\n      tag_76\n      swap2\n      swap1\n      tag_75\n      jump\t// in\n    tag_76:\n      pop\n      0x40\n      dup3\n      add\n      mload\n      dup2\n      0x02\n      add\n      swap1\n      dup2\n      tag_77\n      swap2\n      swap1\n      tag_75\n      jump\t// in\n    tag_77:\n      pop\n      0x60\n      dup3\n      add\n      mload\n      dup2\n      0x03\n      add\n      sstore\n      swap1\n      pop\n      pop\n        /* \"contracts/9_Structs.sol\":2173:2667  function updateCar(uint256 _index, string memory _make, string memory _model, string memory _color, uint _numberOfDoors) external {... */\n      pop\n      pop\n      pop\n      pop\n      pop\n      jump\t// out\n        /* \"contracts/9_Structs.sol\":2746:2878  function resetMyGarage() external {... */\n    tag_22:\n        /* \"contracts/9_Structs.sol\":2851:2858  garages */\n      0x00\n        /* \"contracts/9_Structs.sol\":2851:2870  garages[msg.sender] */\n      dup1\n        /* \"contracts/9_Structs.sol\":2859:2869  msg.sender */\n      caller\n        /* \"contracts/9_Structs.sol\":2851:2870  garages[msg.sender] */\n      0xffffffffffffffffffffffffffffffffffffffff\n      and\n      0xffffffffffffffffffffffffffffffffffffffff\n      and\n      dup2\n      mstore\n      0x20\n      add\n      swap1\n      dup2\n      mstore\n      0x20\n      add\n      0x00\n      keccak256\n      0x00\n        /* \"contracts/9_Structs.sol\":2844:2870  delete garages[msg.sender] */\n      tag_79\n      swap2\n      swap1\n      tag_80\n      jump\t// in\n    tag_79:\n        /* \"contracts/9_Structs.sol\":2746:2878  function resetMyGarage() external {... */\n      jump\t// out\n        /* \"contracts/9_Structs.sol\":891:1172  function addCar(string memory _make, string memory _model, string memory _color, uint _numberOfDoors) external {... */\n    tag_26:\n        /* \"contracts/9_Structs.sol\":1096:1103  garages */\n      0x00\n        /* \"contracts/9_Structs.sol\":1096:1115  garages[msg.sender] */\n      dup1\n        /* \"contracts/9_Structs.sol\":1104:1114  msg.sender */\n      caller\n        /* \"contracts/9_Structs.sol\":1096:1115  garages[msg.sender] */\n      0xffffffffffffffffffffffffffffffffffffffff\n      and\n      0xffffffffffffffffffffffffffffffffffffffff\n      and\n      dup2\n      mstore\n      0x20\n      add\n      swap1\n      dup2\n      mstore\n      0x20\n      add\n      0x00\n      keccak256\n        /* \"contracts/9_Structs.sol\":1121:1163  Car(_make, _model, _color, _numberOfDoors) */\n      mload(0x40)\n      dup1\n      0x80\n      add\n      0x40\n      mstore\n      dup1\n        /* \"contracts/9_Structs.sol\":1125:1130  _make */\n      dup7\n        /* \"contracts/9_Structs.sol\":1121:1163  Car(_make, _model, _color, _numberOfDoors) */\n      dup2\n      mstore\n      0x20\n      add\n        /* \"contracts/9_Structs.sol\":1132:1138  _model */\n      dup6\n        /* \"contracts/9_Structs.sol\":1121:1163  Car(_make, _model, _color, _numberOfDoors) */\n      dup2\n      mstore\n      0x20\n      add\n        /* \"contracts/9_Structs.sol\":1140:1146  _color */\n      dup5\n        /* \"contracts/9_Structs.sol\":1121:1163  Car(_make, _model, _color, _numberOfDoors) */\n      dup2\n      mstore\n      0x20\n      add\n        /* \"contracts/9_Structs.sol\":1148:1162  _numberOfDoors */\n      dup4\n        /* \"contracts/9_Structs.sol\":1121:1163  Car(_make, _model, _color, _numberOfDoors) */\n      dup2\n      mstore\n      pop\n        /* \"contracts/9_Structs.sol\":1096:1164  garages[msg.sender].push(Car(_make, _model, _color, _numberOfDoors)) */\n      swap1\n      dup1\n      0x01\n      dup2\n      sload\n      add\n      dup1\n      dup3\n      sstore\n      dup1\n      swap2\n      pop\n      pop\n      0x01\n      swap1\n      sub\n      swap1\n      0x00\n      mstore\n      keccak256(0x00, 0x20)\n      swap1\n      0x04\n      mul\n      add\n      0x00\n      swap1\n      swap2\n      swap1\n      swap2\n      swap1\n      swap2\n      pop\n      0x00\n      dup3\n      add\n      mload\n      dup2\n      0x00\n      add\n      swap1\n      dup2\n      tag_83\n      swap2\n      swap1\n      tag_75\n      jump\t// in\n    tag_83:\n      pop\n      0x20\n      dup3\n      add\n      mload\n      dup2\n      0x01\n      add\n      swap1\n      dup2\n      tag_84\n      swap2\n      swap1\n      tag_75\n      jump\t// in\n    tag_84:\n      pop\n      0x40\n      dup3\n      add\n      mload\n      dup2\n      0x02\n      add\n      swap1\n      dup2\n      tag_85\n      swap2\n      swap1\n      tag_75\n      jump\t// in\n    tag_85:\n      pop\n      0x60\n      dup3\n      add\n      mload\n      dup2\n      0x03\n      add\n      sstore\n      pop\n      pop\n        /* \"contracts/9_Structs.sol\":891:1172  function addCar(string memory _make, string memory _model, string memory _color, uint _numberOfDoors) external {... */\n      pop\n      pop\n      pop\n      pop\n      jump\t// out\n    tag_80:\n      pop\n      dup1\n      sload\n      0x00\n      dup3\n      sstore\n      0x04\n      mul\n      swap1\n      0x00\n      mstore\n      keccak256(0x00, 0x20)\n      swap1\n      dup2\n      add\n      swap1\n      tag_87\n      swap2\n      swap1\n      tag_88\n      jump\t// in\n    tag_87:\n      pop\n      jump\t// out\n    tag_88:\n    tag_89:\n      dup1\n      dup3\n      gt\n      iszero\n      tag_90\n      jumpi\n      0x00\n      dup1\n      dup3\n      add\n      0x00\n      tag_91\n      swap2\n      swap1\n      tag_92\n      jump\t// in\n    tag_91:\n      0x01\n      dup3\n      add\n      0x00\n      tag_93\n      swap2\n      swap1\n      tag_92\n      jump\t// in\n    tag_93:\n      0x02\n      dup3\n      add\n      0x00\n      tag_94\n      swap2\n      swap1\n      tag_92\n      jump\t// in\n    tag_94:\n      0x03\n      dup3\n      add\n      0x00\n      swap1\n      sstore\n      pop\n      0x04\n      add\n      jump(tag_89)\n    tag_90:\n      pop\n      swap1\n      jump\t// out\n    tag_92:\n      pop\n      dup1\n      sload\n      tag_95\n      swap1\n      tag_32\n      jump\t// in\n    tag_95:\n      0x00\n      dup3\n      sstore\n      dup1\n      0x1f\n      lt\n      tag_97\n      jumpi\n      pop\n      jump(tag_96)\n    tag_97:\n      0x1f\n      add\n      0x20\n      swap1\n      div\n      swap1\n      0x00\n      mstore\n      keccak256(0x00, 0x20)\n      swap1\n      dup2\n      add\n      swap1\n      tag_98\n      swap2\n      swap1\n      tag_99\n      jump\t// in\n    tag_98:\n    tag_96:\n      pop\n      jump\t// out\n    tag_99:\n    tag_100:\n      dup1\n      dup3\n      gt\n      iszero\n      tag_101\n      jumpi\n      0x00\n      dup2\n      0x00\n      swap1\n      sstore\n      pop\n      0x01\n      add\n      jump(tag_100)\n    tag_101:\n      pop\n      swap1\n      jump\t// out\n        /* \"#utility.yul\":7:82   */\n    tag_102:\n        /* \"#utility.yul\":40:46   */\n      0x00\n        /* \"#utility.yul\":73:75   */\n      0x40\n        /* \"#utility.yul\":67:76   */\n      mload\n        /* \"#utility.yul\":57:76   */\n      swap1\n      pop\n        /* \"#utility.yul\":7:82   */\n      swap1\n      jump\t// out\n        /* \"#utility.yul\":88:205   */\n    tag_103:\n        /* \"#utility.yul\":197:198   */\n      0x00\n        /* \"#utility.yul\":194:195   */\n      dup1\n        /* \"#utility.yul\":187:199   */\n      revert\n        /* \"#utility.yul\":211:328   */\n    tag_104:\n        /* \"#utility.yul\":320:321   */\n      0x00\n        /* \"#utility.yul\":317:318   */\n      dup1\n        /* \"#utility.yul\":310:322   */\n      revert\n        /* \"#utility.yul\":334:460   */\n    tag_105:\n        /* \"#utility.yul\":371:378   */\n      0x00\n        /* \"#utility.yul\":411:453   */\n      0xffffffffffffffffffffffffffffffffffffffff\n        /* \"#utility.yul\":404:409   */\n      dup3\n        /* \"#utility.yul\":400:454   */\n      and\n        /* \"#utility.yul\":389:454   */\n      swap1\n      pop\n        /* \"#utility.yul\":334:460   */\n      swap2\n      swap1\n      pop\n      jump\t// out\n        /* \"#utility.yul\":466:562   */\n    tag_106:\n        /* \"#utility.yul\":503:510   */\n      0x00\n        /* \"#utility.yul\":532:556   */\n      tag_157\n        /* \"#utility.yul\":550:555   */\n      dup3\n        /* \"#utility.yul\":532:556   */\n      tag_105\n      jump\t// in\n    tag_157:\n        /* \"#utility.yul\":521:556   */\n      swap1\n      pop\n        /* \"#utility.yul\":466:562   */\n      swap2\n      swap1\n      pop\n      jump\t// out\n        /* \"#utility.yul\":568:690   */\n    tag_107:\n        /* \"#utility.yul\":641:665   */\n      tag_159\n        /* \"#utility.yul\":659:664   */\n      dup2\n        /* \"#utility.yul\":641:665   */\n      tag_106\n      jump\t// in\n    tag_159:\n        /* \"#utility.yul\":634:639   */\n      dup2\n        /* \"#utility.yul\":631:666   */\n      eq\n        /* \"#utility.yul\":621:684   */\n      tag_160\n      jumpi\n        /* \"#utility.yul\":680:681   */\n      0x00\n        /* \"#utility.yul\":677:678   */\n      dup1\n        /* \"#utility.yul\":670:682   */\n      revert\n        /* \"#utility.yul\":621:684   */\n    tag_160:\n        /* \"#utility.yul\":568:690   */\n      pop\n      jump\t// out\n        /* \"#utility.yul\":696:835   */\n    tag_108:\n        /* \"#utility.yul\":742:747   */\n      0x00\n        /* \"#utility.yul\":780:786   */\n      dup2\n        /* \"#utility.yul\":767:787   */\n      calldataload\n        /* \"#utility.yul\":758:787   */\n      swap1\n      pop\n        /* \"#utility.yul\":796:829   */\n      tag_162\n        /* \"#utility.yul\":823:828   */\n      dup2\n        /* \"#utility.yul\":796:829   */\n      tag_107\n      jump\t// in\n    tag_162:\n        /* \"#utility.yul\":696:835   */\n      swap3\n      swap2\n      pop\n      pop\n      jump\t// out\n        /* \"#utility.yul\":841:1170   */\n    tag_10:\n        /* \"#utility.yul\":900:906   */\n      0x00\n        /* \"#utility.yul\":949:951   */\n      0x20\n        /* \"#utility.yul\":937:946   */\n      dup3\n        /* \"#utility.yul\":928:935   */\n      dup5\n        /* \"#utility.yul\":924:947   */\n      sub\n        /* \"#utility.yul\":920:952   */\n      slt\n        /* \"#utility.yul\":917:1036   */\n      iszero\n      tag_164\n      jumpi\n        /* \"#utility.yul\":955:1034   */\n      tag_165\n      tag_103\n      jump\t// in\n    tag_165:\n        /* \"#utility.yul\":917:1036   */\n    tag_164:\n        /* \"#utility.yul\":1075:1076   */\n      0x00\n        /* \"#utility.yul\":1100:1153   */\n      tag_166\n        /* \"#utility.yul\":1145:1152   */\n      dup5\n        /* \"#utility.yul\":1136:1142   */\n      dup3\n        /* \"#utility.yul\":1125:1134   */\n      dup6\n        /* \"#utility.yul\":1121:1143   */\n      add\n        /* \"#utility.yul\":1100:1153   */\n      tag_108\n      jump\t// in\n    tag_166:\n        /* \"#utility.yul\":1090:1153   */\n      swap2\n      pop\n        /* \"#utility.yul\":1046:1163   */\n      pop\n        /* \"#utility.yul\":841:1170   */\n      swap3\n      swap2\n      pop\n      pop\n      jump\t// out\n        /* \"#utility.yul\":1176:1309   */\n    tag_109:\n        /* \"#utility.yul\":1262:1268   */\n      0x00\n        /* \"#utility.yul\":1296:1301   */\n      dup2\n        /* \"#utility.yul\":1290:1302   */\n      mload\n        /* \"#utility.yul\":1280:1302   */\n      swap1\n      pop\n        /* \"#utility.yul\":1176:1309   */\n      swap2\n      swap1\n      pop\n      jump\t// out\n        /* \"#utility.yul\":1315:1518   */\n    tag_110:\n        /* \"#utility.yul\":1433:1444   */\n      0x00\n        /* \"#utility.yul\":1467:1473   */\n      dup3\n        /* \"#utility.yul\":1462:1465   */\n      dup3\n        /* \"#utility.yul\":1455:1474   */\n      mstore\n        /* \"#utility.yul\":1507:1511   */\n      0x20\n        /* \"#utility.yul\":1502:1505   */\n      dup3\n        /* \"#utility.yul\":1498:1512   */\n      add\n        /* \"#utility.yul\":1483:1512   */\n      swap1\n      pop\n        /* \"#utility.yul\":1315:1518   */\n      swap3\n      swap2\n      pop\n      pop\n      jump\t// out\n        /* \"#utility.yul\":1524:1675   */\n    tag_111:\n        /* \"#utility.yul\":1610:1614   */\n      0x00\n        /* \"#utility.yul\":1633:1636   */\n      dup2\n        /* \"#utility.yul\":1625:1636   */\n      swap1\n      pop\n        /* \"#utility.yul\":1663:1667   */\n      0x20\n        /* \"#utility.yul\":1658:1661   */\n      dup3\n        /* \"#utility.yul\":1654:1668   */\n      add\n        /* \"#utility.yul\":1646:1668   */\n      swap1\n      pop\n        /* \"#utility.yul\":1524:1675   */\n      swap2\n      swap1\n      pop\n      jump\t// out\n        /* \"#utility.yul\":1681:1780   */\n    tag_112:\n        /* \"#utility.yul\":1733:1739   */\n      0x00\n        /* \"#utility.yul\":1767:1772   */\n      dup2\n        /* \"#utility.yul\":1761:1773   */\n      mload\n        /* \"#utility.yul\":1751:1773   */\n      swap1\n      pop\n        /* \"#utility.yul\":1681:1780   */\n      swap2\n      swap1\n      pop\n      jump\t// out\n        /* \"#utility.yul\":1786:1945   */\n    tag_113:\n        /* \"#utility.yul\":1860:1871   */\n      0x00\n        /* \"#utility.yul\":1894:1900   */\n      dup3\n        /* \"#utility.yul\":1889:1892   */\n      dup3\n        /* \"#utility.yul\":1882:1901   */\n      mstore\n        /* \"#utility.yul\":1934:1938   */\n      0x20\n        /* \"#utility.yul\":1929:1932   */\n      dup3\n        /* \"#utility.yul\":1925:1939   */\n      add\n        /* \"#utility.yul\":1910:1939   */\n      swap1\n      pop\n        /* \"#utility.yul\":1786:1945   */\n      swap3\n      swap2\n      pop\n      pop\n      jump\t// out\n        /* \"#utility.yul\":1951:2197   */\n    tag_114:\n        /* \"#utility.yul\":2032:2033   */\n      0x00\n        /* \"#utility.yul\":2042:2155   */\n    tag_173:\n        /* \"#utility.yul\":2056:2062   */\n      dup4\n        /* \"#utility.yul\":2053:2054   */\n      dup2\n        /* \"#utility.yul\":2050:2063   */\n      lt\n        /* \"#utility.yul\":2042:2155   */\n      iszero\n      tag_175\n      jumpi\n        /* \"#utility.yul\":2141:2142   */\n      dup1\n        /* \"#utility.yul\":2136:2139   */\n      dup3\n        /* \"#utility.yul\":2132:2143   */\n      add\n        /* \"#utility.yul\":2126:2144   */\n      mload\n        /* \"#utility.yul\":2122:2123   */\n      dup2\n        /* \"#utility.yul\":2117:2120   */\n      dup5\n        /* \"#utility.yul\":2113:2124   */\n      add\n        /* \"#utility.yul\":2106:2145   */\n      mstore\n        /* \"#utility.yul\":2078:2080   */\n      0x20\n        /* \"#utility.yul\":2075:2076   */\n      dup2\n        /* \"#utility.yul\":2071:2081   */\n      add\n        /* \"#utility.yul\":2066:2081   */\n      swap1\n      pop\n        /* \"#utility.yul\":2042:2155   */\n      jump(tag_173)\n    tag_175:\n        /* \"#utility.yul\":2189:2190   */\n      0x00\n        /* \"#utility.yul\":2180:2186   */\n      dup5\n        /* \"#utility.yul\":2175:2178   */\n      dup5\n        /* \"#utility.yul\":2171:2187   */\n      add\n        /* \"#utility.yul\":2164:2191   */\n      mstore\n        /* \"#utility.yul\":2013:2197   */\n      pop\n        /* \"#utility.yul\":1951:2197   */\n      pop\n      pop\n      pop\n      jump\t// out\n        /* \"#utility.yul\":2203:2305   */\n    tag_115:\n        /* \"#utility.yul\":2244:2250   */\n      0x00\n        /* \"#utility.yul\":2295:2297   */\n      0x1f\n        /* \"#utility.yul\":2291:2298   */\n      not\n        /* \"#utility.yul\":2286:2288   */\n      0x1f\n        /* \"#utility.yul\":2279:2284   */\n      dup4\n        /* \"#utility.yul\":2275:2289   */\n      add\n        /* \"#utility.yul\":2271:2299   */\n      and\n        /* \"#utility.yul\":2261:2299   */\n      swap1\n      pop\n        /* \"#utility.yul\":2203:2305   */\n      swap2\n      swap1\n      pop\n      jump\t// out\n        /* \"#utility.yul\":2311:2668   */\n    tag_116:\n        /* \"#utility.yul\":2389:2392   */\n      0x00\n        /* \"#utility.yul\":2417:2456   */\n      tag_178\n        /* \"#utility.yul\":2450:2455   */\n      dup3\n        /* \"#utility.yul\":2417:2456   */\n      tag_112\n      jump\t// in\n    tag_178:\n        /* \"#utility.yul\":2472:2533   */\n      tag_179\n        /* \"#utility.yul\":2526:2532   */\n      dup2\n        /* \"#utility.yul\":2521:2524   */\n      dup6\n        /* \"#utility.yul\":2472:2533   */\n      tag_113\n      jump\t// in\n    tag_179:\n        /* \"#utility.yul\":2465:2533   */\n      swap4\n      pop\n        /* \"#utility.yul\":2542:2607   */\n      tag_180\n        /* \"#utility.yul\":2600:2606   */\n      dup2\n        /* \"#utility.yul\":2595:2598   */\n      dup6\n        /* \"#utility.yul\":2588:2592   */\n      0x20\n        /* \"#utility.yul\":2581:2586   */\n      dup7\n        /* \"#utility.yul\":2577:2593   */\n      add\n        /* \"#utility.yul\":2542:2607   */\n      tag_114\n      jump\t// in\n    tag_180:\n        /* \"#utility.yul\":2632:2661   */\n      tag_181\n        /* \"#utility.yul\":2654:2660   */\n      dup2\n        /* \"#utility.yul\":2632:2661   */\n      tag_115\n      jump\t// in\n    tag_181:\n        /* \"#utility.yul\":2627:2630   */\n      dup5\n        /* \"#utility.yul\":2623:2662   */\n      add\n        /* \"#utility.yul\":2616:2662   */\n      swap2\n      pop\n        /* \"#utility.yul\":2393:2668   */\n      pop\n        /* \"#utility.yul\":2311:2668   */\n      swap3\n      swap2\n      pop\n      pop\n      jump\t// out\n        /* \"#utility.yul\":2674:2751   */\n    tag_117:\n        /* \"#utility.yul\":2711:2718   */\n      0x00\n        /* \"#utility.yul\":2740:2745   */\n      dup2\n        /* \"#utility.yul\":2729:2745   */\n      swap1\n      pop\n        /* \"#utility.yul\":2674:2751   */\n      swap2\n      swap1\n      pop\n      jump\t// out\n        /* \"#utility.yul\":2757:2865   */\n    tag_118:\n        /* \"#utility.yul\":2834:2858   */\n      tag_184\n        /* \"#utility.yul\":2852:2857   */\n      dup2\n        /* \"#utility.yul\":2834:2858   */\n      tag_117\n      jump\t// in\n    tag_184:\n        /* \"#utility.yul\":2829:2832   */\n      dup3\n        /* \"#utility.yul\":2822:2859   */\n      mstore\n        /* \"#utility.yul\":2757:2865   */\n      pop\n      pop\n      jump\t// out\n        /* \"#utility.yul\":2933:4018   */\n    tag_119:\n        /* \"#utility.yul\":3030:3033   */\n      0x00\n        /* \"#utility.yul\":3066:3070   */\n      0x80\n        /* \"#utility.yul\":3061:3064   */\n      dup4\n        /* \"#utility.yul\":3057:3071   */\n      add\n        /* \"#utility.yul\":3153:3157   */\n      0x00\n        /* \"#utility.yul\":3146:3151   */\n      dup4\n        /* \"#utility.yul\":3142:3158   */\n      add\n        /* \"#utility.yul\":3136:3159   */\n      mload\n        /* \"#utility.yul\":3206:3209   */\n      dup5\n        /* \"#utility.yul\":3200:3204   */\n      dup3\n        /* \"#utility.yul\":3196:3210   */\n      sub\n        /* \"#utility.yul\":3189:3193   */\n      0x00\n        /* \"#utility.yul\":3184:3187   */\n      dup7\n        /* \"#utility.yul\":3180:3194   */\n      add\n        /* \"#utility.yul\":3173:3211   */\n      mstore\n        /* \"#utility.yul\":3232:3305   */\n      tag_186\n        /* \"#utility.yul\":3300:3304   */\n      dup3\n        /* \"#utility.yul\":3286:3298   */\n      dup3\n        /* \"#utility.yul\":3232:3305   */\n      tag_116\n      jump\t// in\n    tag_186:\n        /* \"#utility.yul\":3224:3305   */\n      swap2\n      pop\n        /* \"#utility.yul\":3081:3316   */\n      pop\n        /* \"#utility.yul\":3399:3403   */\n      0x20\n        /* \"#utility.yul\":3392:3397   */\n      dup4\n        /* \"#utility.yul\":3388:3404   */\n      add\n        /* \"#utility.yul\":3382:3405   */\n      mload\n        /* \"#utility.yul\":3452:3455   */\n      dup5\n        /* \"#utility.yul\":3446:3450   */\n      dup3\n        /* \"#utility.yul\":3442:3456   */\n      sub\n        /* \"#utility.yul\":3435:3439   */\n      0x20\n        /* \"#utility.yul\":3430:3433   */\n      dup7\n        /* \"#utility.yul\":3426:3440   */\n      add\n        /* \"#utility.yul\":3419:3457   */\n      mstore\n        /* \"#utility.yul\":3478:3551   */\n      tag_187\n        /* \"#utility.yul\":3546:3550   */\n      dup3\n        /* \"#utility.yul\":3532:3544   */\n      dup3\n        /* \"#utility.yul\":3478:3551   */\n      tag_116\n      jump\t// in\n    tag_187:\n        /* \"#utility.yul\":3470:3551   */\n      swap2\n      pop\n        /* \"#utility.yul\":3326:3562   */\n      pop\n        /* \"#utility.yul\":3645:3649   */\n      0x40\n        /* \"#utility.yul\":3638:3643   */\n      dup4\n        /* \"#utility.yul\":3634:3650   */\n      add\n        /* \"#utility.yul\":3628:3651   */\n      mload\n        /* \"#utility.yul\":3698:3701   */\n      dup5\n        /* \"#utility.yul\":3692:3696   */\n      dup3\n        /* \"#utility.yul\":3688:3702   */\n      sub\n        /* \"#utility.yul\":3681:3685   */\n      0x40\n        /* \"#utility.yul\":3676:3679   */\n      dup7\n        /* \"#utility.yul\":3672:3686   */\n      add\n        /* \"#utility.yul\":3665:3703   */\n      mstore\n        /* \"#utility.yul\":3724:3797   */\n      tag_188\n        /* \"#utility.yul\":3792:3796   */\n      dup3\n        /* \"#utility.yul\":3778:3790   */\n      dup3\n        /* \"#utility.yul\":3724:3797   */\n      tag_116\n      jump\t// in\n    tag_188:\n        /* \"#utility.yul\":3716:3797   */\n      swap2\n      pop\n        /* \"#utility.yul\":3572:3808   */\n      pop\n        /* \"#utility.yul\":3899:3903   */\n      0x60\n        /* \"#utility.yul\":3892:3897   */\n      dup4\n        /* \"#utility.yul\":3888:3904   */\n      add\n        /* \"#utility.yul\":3882:3905   */\n      mload\n        /* \"#utility.yul\":3918:3981   */\n      tag_189\n        /* \"#utility.yul\":3975:3979   */\n      0x60\n        /* \"#utility.yul\":3970:3973   */\n      dup7\n        /* \"#utility.yul\":3966:3980   */\n      add\n        /* \"#utility.yul\":3952:3964   */\n      dup3\n        /* \"#utility.yul\":3918:3981   */\n      tag_118\n      jump\t// in\n    tag_189:\n        /* \"#utility.yul\":3818:3991   */\n      pop\n        /* \"#utility.yul\":4008:4012   */\n      dup1\n        /* \"#utility.yul\":4001:4012   */\n      swap2\n      pop\n        /* \"#utility.yul\":3035:4018   */\n      pop\n        /* \"#utility.yul\":2933:4018   */\n      swap3\n      swap2\n      pop\n      pop\n      jump\t// out\n        /* \"#utility.yul\":4024:4256   */\n    tag_120:\n        /* \"#utility.yul\":4131:4141   */\n      0x00\n        /* \"#utility.yul\":4166:4250   */\n      tag_191\n        /* \"#utility.yul\":4246:4249   */\n      dup4\n        /* \"#utility.yul\":4238:4244   */\n      dup4\n        /* \"#utility.yul\":4166:4250   */\n      tag_119\n      jump\t// in\n    tag_191:\n        /* \"#utility.yul\":4152:4250   */\n      swap1\n      pop\n        /* \"#utility.yul\":4024:4256   */\n      swap3\n      swap2\n      pop\n      pop\n      jump\t// out\n        /* \"#utility.yul\":4262:4394   */\n    tag_121:\n        /* \"#utility.yul\":4351:4355   */\n      0x00\n        /* \"#utility.yul\":4383:4387   */\n      0x20\n        /* \"#utility.yul\":4378:4381   */\n      dup3\n        /* \"#utility.yul\":4374:4388   */\n      add\n        /* \"#utility.yul\":4366:4388   */\n      swap1\n      pop\n        /* \"#utility.yul\":4262:4394   */\n      swap2\n      swap1\n      pop\n      jump\t// out\n        /* \"#utility.yul\":4466:5529   */\n    tag_122:\n        /* \"#utility.yul\":4623:4626   */\n      0x00\n        /* \"#utility.yul\":4652:4725   */\n      tag_194\n        /* \"#utility.yul\":4719:4724   */\n      dup3\n        /* \"#utility.yul\":4652:4725   */\n      tag_109\n      jump\t// in\n    tag_194:\n        /* \"#utility.yul\":4741:4846   */\n      tag_195\n        /* \"#utility.yul\":4839:4845   */\n      dup2\n        /* \"#utility.yul\":4834:4837   */\n      dup6\n        /* \"#utility.yul\":4741:4846   */\n      tag_110\n      jump\t// in\n    tag_195:\n        /* \"#utility.yul\":4734:4846   */\n      swap4\n      pop\n        /* \"#utility.yul\":4872:4875   */\n      dup4\n        /* \"#utility.yul\":4917:4921   */\n      0x20\n        /* \"#utility.yul\":4909:4915   */\n      dup3\n        /* \"#utility.yul\":4905:4922   */\n      mul\n        /* \"#utility.yul\":4900:4903   */\n      dup6\n        /* \"#utility.yul\":4896:4923   */\n      add\n        /* \"#utility.yul\":4947:5022   */\n      tag_196\n        /* \"#utility.yul\":5016:5021   */\n      dup6\n        /* \"#utility.yul\":4947:5022   */\n      tag_111\n      jump\t// in\n    tag_196:\n        /* \"#utility.yul\":5045:5052   */\n      dup1\n        /* \"#utility.yul\":5076:5077   */\n      0x00\n        /* \"#utility.yul\":5061:5484   */\n    tag_197:\n        /* \"#utility.yul\":5086:5092   */\n      dup6\n        /* \"#utility.yul\":5083:5084   */\n      dup2\n        /* \"#utility.yul\":5080:5093   */\n      lt\n        /* \"#utility.yul\":5061:5484   */\n      iszero\n      tag_199\n      jumpi\n        /* \"#utility.yul\":5157:5166   */\n      dup5\n        /* \"#utility.yul\":5151:5155   */\n      dup5\n        /* \"#utility.yul\":5147:5167   */\n      sub\n        /* \"#utility.yul\":5142:5145   */\n      dup10\n        /* \"#utility.yul\":5135:5168   */\n      mstore\n        /* \"#utility.yul\":5208:5214   */\n      dup2\n        /* \"#utility.yul\":5202:5215   */\n      mload\n        /* \"#utility.yul\":5236:5338   */\n      tag_200\n        /* \"#utility.yul\":5333:5337   */\n      dup6\n        /* \"#utility.yul\":5318:5331   */\n      dup3\n        /* \"#utility.yul\":5236:5338   */\n      tag_120\n      jump\t// in\n    tag_200:\n        /* \"#utility.yul\":5228:5338   */\n      swap5\n      pop\n        /* \"#utility.yul\":5361:5440   */\n      tag_201\n        /* \"#utility.yul\":5433:5439   */\n      dup4\n        /* \"#utility.yul\":5361:5440   */\n      tag_121\n      jump\t// in\n    tag_201:\n        /* \"#utility.yul\":5351:5440   */\n      swap3\n      pop\n        /* \"#utility.yul\":5469:5473   */\n      0x20\n        /* \"#utility.yul\":5464:5467   */\n      dup11\n        /* \"#utility.yul\":5460:5474   */\n      add\n        /* \"#utility.yul\":5453:5474   */\n      swap10\n      pop\n        /* \"#utility.yul\":5121:5484   */\n      pop\n        /* \"#utility.yul\":5108:5109   */\n      0x01\n        /* \"#utility.yul\":5105:5106   */\n      dup2\n        /* \"#utility.yul\":5101:5110   */\n      add\n        /* \"#utility.yul\":5096:5110   */\n      swap1\n      pop\n        /* \"#utility.yul\":5061:5484   */\n      jump(tag_197)\n    tag_199:\n        /* \"#utility.yul\":5065:5079   */\n      pop\n        /* \"#utility.yul\":5500:5504   */\n      dup3\n        /* \"#utility.yul\":5493:5504   */\n      swap8\n      pop\n        /* \"#utility.yul\":5520:5523   */\n      dup8\n        /* \"#utility.yul\":5513:5523   */\n      swap6\n      pop\n        /* \"#utility.yul\":4628:5529   */\n      pop\n      pop\n      pop\n      pop\n      pop\n        /* \"#utility.yul\":4466:5529   */\n      swap3\n      swap2\n      pop\n      pop\n      jump\t// out\n        /* \"#utility.yul\":5535:5984   */\n    tag_13:\n        /* \"#utility.yul\":5716:5720   */\n      0x00\n        /* \"#utility.yul\":5754:5756   */\n      0x20\n        /* \"#utility.yul\":5743:5752   */\n      dup3\n        /* \"#utility.yul\":5739:5757   */\n      add\n        /* \"#utility.yul\":5731:5757   */\n      swap1\n      pop\n        /* \"#utility.yul\":5803:5812   */\n      dup2\n        /* \"#utility.yul\":5797:5801   */\n      dup2\n        /* \"#utility.yul\":5793:5813   */\n      sub\n        /* \"#utility.yul\":5789:5790   */\n      0x00\n        /* \"#utility.yul\":5778:5787   */\n      dup4\n        /* \"#utility.yul\":5774:5791   */\n      add\n        /* \"#utility.yul\":5767:5814   */\n      mstore\n        /* \"#utility.yul\":5831:5977   */\n      tag_203\n        /* \"#utility.yul\":5972:5976   */\n      dup2\n        /* \"#utility.yul\":5963:5969   */\n      dup5\n        /* \"#utility.yul\":5831:5977   */\n      tag_122\n      jump\t// in\n    tag_203:\n        /* \"#utility.yul\":5823:5977   */\n      swap1\n      pop\n        /* \"#utility.yul\":5535:5984   */\n      swap3\n      swap2\n      pop\n      pop\n      jump\t// out\n        /* \"#utility.yul\":5990:6112   */\n    tag_123:\n        /* \"#utility.yul\":6063:6087   */\n      tag_205\n        /* \"#utility.yul\":6081:6086   */\n      dup2\n        /* \"#utility.yul\":6063:6087   */\n      tag_117\n      jump\t// in\n    tag_205:\n        /* \"#utility.yul\":6056:6061   */\n      dup2\n        /* \"#utility.yul\":6053:6088   */\n      eq\n        /* \"#utility.yul\":6043:6106   */\n      tag_206\n      jumpi\n        /* \"#utility.yul\":6102:6103   */\n      0x00\n        /* \"#utility.yul\":6099:6100   */\n      dup1\n        /* \"#utility.yul\":6092:6104   */\n      revert\n        /* \"#utility.yul\":6043:6106   */\n    tag_206:\n        /* \"#utility.yul\":5990:6112   */\n      pop\n      jump\t// out\n        /* \"#utility.yul\":6118:6257   */\n    tag_124:\n        /* \"#utility.yul\":6164:6169   */\n      0x00\n        /* \"#utility.yul\":6202:6208   */\n      dup2\n        /* \"#utility.yul\":6189:6209   */\n      calldataload\n        /* \"#utility.yul\":6180:6209   */\n      swap1\n      pop\n        /* \"#utility.yul\":6218:6251   */\n      tag_208\n        /* \"#utility.yul\":6245:6250   */\n      dup2\n        /* \"#utility.yul\":6218:6251   */\n      tag_123\n      jump\t// in\n    tag_208:\n        /* \"#utility.yul\":6118:6257   */\n      swap3\n      swap2\n      pop\n      pop\n      jump\t// out\n        /* \"#utility.yul\":6263:6380   */\n    tag_125:\n        /* \"#utility.yul\":6372:6373   */\n      0x00\n        /* \"#utility.yul\":6369:6370   */\n      dup1\n        /* \"#utility.yul\":6362:6374   */\n      revert\n        /* \"#utility.yul\":6386:6503   */\n    tag_126:\n        /* \"#utility.yul\":6495:6496   */\n      0x00\n        /* \"#utility.yul\":6492:6493   */\n      dup1\n        /* \"#utility.yul\":6485:6497   */\n      revert\n        /* \"#utility.yul\":6509:6689   */\n    tag_127:\n        /* \"#utility.yul\":6557:6634   */\n      0x4e487b7100000000000000000000000000000000000000000000000000000000\n        /* \"#utility.yul\":6554:6555   */\n      0x00\n        /* \"#utility.yul\":6547:6635   */\n      mstore\n        /* \"#utility.yul\":6654:6658   */\n      0x41\n        /* \"#utility.yul\":6651:6652   */\n      0x04\n        /* \"#utility.yul\":6644:6659   */\n      mstore\n        /* \"#utility.yul\":6678:6682   */\n      0x24\n        /* \"#utility.yul\":6675:6676   */\n      0x00\n        /* \"#utility.yul\":6668:6683   */\n      revert\n        /* \"#utility.yul\":6695:6976   */\n    tag_128:\n        /* \"#utility.yul\":6778:6805   */\n      tag_213\n        /* \"#utility.yul\":6800:6804   */\n      dup3\n        /* \"#utility.yul\":6778:6805   */\n      tag_115\n      jump\t// in\n    tag_213:\n        /* \"#utility.yul\":6770:6776   */\n      dup2\n        /* \"#utility.yul\":6766:6806   */\n      add\n        /* \"#utility.yul\":6908:6914   */\n      dup2\n        /* \"#utility.yul\":6896:6906   */\n      dup2\n        /* \"#utility.yul\":6893:6915   */\n      lt\n        /* \"#utility.yul\":6872:6890   */\n      0xffffffffffffffff\n        /* \"#utility.yul\":6860:6870   */\n      dup3\n        /* \"#utility.yul\":6857:6891   */\n      gt\n        /* \"#utility.yul\":6854:6916   */\n      or\n        /* \"#utility.yul\":6851:6939   */\n      iszero\n      tag_214\n      jumpi\n        /* \"#utility.yul\":6919:6937   */\n      tag_215\n      tag_127\n      jump\t// in\n    tag_215:\n        /* \"#utility.yul\":6851:6939   */\n    tag_214:\n        /* \"#utility.yul\":6959:6969   */\n      dup1\n        /* \"#utility.yul\":6955:6957   */\n      0x40\n        /* \"#utility.yul\":6948:6970   */\n      mstore\n        /* \"#utility.yul\":6738:6976   */\n      pop\n        /* \"#utility.yul\":6695:6976   */\n      pop\n      pop\n      jump\t// out\n        /* \"#utility.yul\":6982:7111   */\n    tag_129:\n        /* \"#utility.yul\":7016:7022   */\n      0x00\n        /* \"#utility.yul\":7043:7063   */\n      tag_217\n      tag_102\n      jump\t// in\n    tag_217:\n        /* \"#utility.yul\":7033:7063   */\n      swap1\n      pop\n        /* \"#utility.yul\":7072:7105   */\n      tag_218\n        /* \"#utility.yul\":7100:7104   */\n      dup3\n        /* \"#utility.yul\":7092:7098   */\n      dup3\n        /* \"#utility.yul\":7072:7105   */\n      tag_128\n      jump\t// in\n    tag_218:\n        /* \"#utility.yul\":6982:7111   */\n      swap2\n      swap1\n      pop\n      jump\t// out\n        /* \"#utility.yul\":7117:7425   */\n    tag_130:\n        /* \"#utility.yul\":7179:7183   */\n      0x00\n        /* \"#utility.yul\":7269:7287   */\n      0xffffffffffffffff\n        /* \"#utility.yul\":7261:7267   */\n      dup3\n        /* \"#utility.yul\":7258:7288   */\n      gt\n        /* \"#utility.yul\":7255:7311   */\n      iszero\n      tag_220\n      jumpi\n        /* \"#utility.yul\":7291:7309   */\n      tag_221\n      tag_127\n      jump\t// in\n    tag_221:\n        /* \"#utility.yul\":7255:7311   */\n    tag_220:\n        /* \"#utility.yul\":7329:7358   */\n      tag_222\n        /* \"#utility.yul\":7351:7357   */\n      dup3\n        /* \"#utility.yul\":7329:7358   */\n      tag_115\n      jump\t// in\n    tag_222:\n        /* \"#utility.yul\":7321:7358   */\n      swap1\n      pop\n        /* \"#utility.yul\":7413:7417   */\n      0x20\n        /* \"#utility.yul\":7407:7411   */\n      dup2\n        /* \"#utility.yul\":7403:7418   */\n      add\n        /* \"#utility.yul\":7395:7418   */\n      swap1\n      pop\n        /* \"#utility.yul\":7117:7425   */\n      swap2\n      swap1\n      pop\n      jump\t// out\n        /* \"#utility.yul\":7431:7577   */\n    tag_131:\n        /* \"#utility.yul\":7528:7534   */\n      dup3\n        /* \"#utility.yul\":7523:7526   */\n      dup2\n        /* \"#utility.yul\":7518:7521   */\n      dup4\n        /* \"#utility.yul\":7505:7535   */\n      calldatacopy\n        /* \"#utility.yul\":7569:7570   */\n      0x00\n        /* \"#utility.yul\":7560:7566   */\n      dup4\n        /* \"#utility.yul\":7555:7558   */\n      dup4\n        /* \"#utility.yul\":7551:7567   */\n      add\n        /* \"#utility.yul\":7544:7571   */\n      mstore\n        /* \"#utility.yul\":7431:7577   */\n      pop\n      pop\n      pop\n      jump\t// out\n        /* \"#utility.yul\":7583:8008   */\n    tag_132:\n        /* \"#utility.yul\":7661:7666   */\n      0x00\n        /* \"#utility.yul\":7686:7752   */\n      tag_225\n        /* \"#utility.yul\":7702:7751   */\n      tag_226\n        /* \"#utility.yul\":7744:7750   */\n      dup5\n        /* \"#utility.yul\":7702:7751   */\n      tag_130\n      jump\t// in\n    tag_226:\n        /* \"#utility.yul\":7686:7752   */\n      tag_129\n      jump\t// in\n    tag_225:\n        /* \"#utility.yul\":7677:7752   */\n      swap1\n      pop\n        /* \"#utility.yul\":7775:7781   */\n      dup3\n        /* \"#utility.yul\":7768:7773   */\n      dup2\n        /* \"#utility.yul\":7761:7782   */\n      mstore\n        /* \"#utility.yul\":7813:7817   */\n      0x20\n        /* \"#utility.yul\":7806:7811   */\n      dup2\n        /* \"#utility.yul\":7802:7818   */\n      add\n        /* \"#utility.yul\":7851:7854   */\n      dup5\n        /* \"#utility.yul\":7842:7848   */\n      dup5\n        /* \"#utility.yul\":7837:7840   */\n      dup5\n        /* \"#utility.yul\":7833:7849   */\n      add\n        /* \"#utility.yul\":7830:7855   */\n      gt\n        /* \"#utility.yul\":7827:7939   */\n      iszero\n      tag_227\n      jumpi\n        /* \"#utility.yul\":7858:7937   */\n      tag_228\n      tag_126\n      jump\t// in\n    tag_228:\n        /* \"#utility.yul\":7827:7939   */\n    tag_227:\n        /* \"#utility.yul\":7948:8002   */\n      tag_229\n        /* \"#utility.yul\":7995:8001   */\n      dup5\n        /* \"#utility.yul\":7990:7993   */\n      dup3\n        /* \"#utility.yul\":7985:7988   */\n      dup6\n        /* \"#utility.yul\":7948:8002   */\n      tag_131\n      jump\t// in\n    tag_229:\n        /* \"#utility.yul\":7667:8008   */\n      pop\n        /* \"#utility.yul\":7583:8008   */\n      swap4\n      swap3\n      pop\n      pop\n      pop\n      jump\t// out\n        /* \"#utility.yul\":8028:8368   */\n    tag_133:\n        /* \"#utility.yul\":8084:8089   */\n      0x00\n        /* \"#utility.yul\":8133:8136   */\n      dup3\n        /* \"#utility.yul\":8126:8130   */\n      0x1f\n        /* \"#utility.yul\":8118:8124   */\n      dup4\n        /* \"#utility.yul\":8114:8131   */\n      add\n        /* \"#utility.yul\":8110:8137   */\n      slt\n        /* \"#utility.yul\":8100:8222   */\n      tag_231\n      jumpi\n        /* \"#utility.yul\":8141:8220   */\n      tag_232\n      tag_125\n      jump\t// in\n    tag_232:\n        /* \"#utility.yul\":8100:8222   */\n    tag_231:\n        /* \"#utility.yul\":8258:8264   */\n      dup2\n        /* \"#utility.yul\":8245:8265   */\n      calldataload\n        /* \"#utility.yul\":8283:8362   */\n      tag_233\n        /* \"#utility.yul\":8358:8361   */\n      dup5\n        /* \"#utility.yul\":8350:8356   */\n      dup3\n        /* \"#utility.yul\":8343:8347   */\n      0x20\n        /* \"#utility.yul\":8335:8341   */\n      dup7\n        /* \"#utility.yul\":8331:8348   */\n      add\n        /* \"#utility.yul\":8283:8362   */\n      tag_132\n      jump\t// in\n    tag_233:\n        /* \"#utility.yul\":8274:8362   */\n      swap2\n      pop\n        /* \"#utility.yul\":8090:8368   */\n      pop\n        /* \"#utility.yul\":8028:8368   */\n      swap3\n      swap2\n      pop\n      pop\n      jump\t// out\n        /* \"#utility.yul\":8374:9825   */\n    tag_19:\n        /* \"#utility.yul\":8499:8505   */\n      0x00\n        /* \"#utility.yul\":8507:8513   */\n      dup1\n        /* \"#utility.yul\":8515:8521   */\n      0x00\n        /* \"#utility.yul\":8523:8529   */\n      dup1\n        /* \"#utility.yul\":8531:8537   */\n      0x00\n        /* \"#utility.yul\":8580:8583   */\n      0xa0\n        /* \"#utility.yul\":8568:8577   */\n      dup7\n        /* \"#utility.yul\":8559:8566   */\n      dup9\n        /* \"#utility.yul\":8555:8578   */\n      sub\n        /* \"#utility.yul\":8551:8584   */\n      slt\n        /* \"#utility.yul\":8548:8668   */\n      iszero\n      tag_235\n      jumpi\n        /* \"#utility.yul\":8587:8666   */\n      tag_236\n      tag_103\n      jump\t// in\n    tag_236:\n        /* \"#utility.yul\":8548:8668   */\n    tag_235:\n        /* \"#utility.yul\":8707:8708   */\n      0x00\n        /* \"#utility.yul\":8732:8785   */\n      tag_237\n        /* \"#utility.yul\":8777:8784   */\n      dup9\n        /* \"#utility.yul\":8768:8774   */\n      dup3\n        /* \"#utility.yul\":8757:8766   */\n      dup10\n        /* \"#utility.yul\":8753:8775   */\n      add\n        /* \"#utility.yul\":8732:8785   */\n      tag_124\n      jump\t// in\n    tag_237:\n        /* \"#utility.yul\":8722:8785   */\n      swap6\n      pop\n        /* \"#utility.yul\":8678:8795   */\n      pop\n        /* \"#utility.yul\":8862:8864   */\n      0x20\n        /* \"#utility.yul\":8851:8860   */\n      dup7\n        /* \"#utility.yul\":8847:8865   */\n      add\n        /* \"#utility.yul\":8834:8866   */\n      calldataload\n        /* \"#utility.yul\":8893:8911   */\n      0xffffffffffffffff\n        /* \"#utility.yul\":8885:8891   */\n      dup2\n        /* \"#utility.yul\":8882:8912   */\n      gt\n        /* \"#utility.yul\":8879:8996   */\n      iszero\n      tag_238\n      jumpi\n        /* \"#utility.yul\":8915:8994   */\n      tag_239\n      tag_104\n      jump\t// in\n    tag_239:\n        /* \"#utility.yul\":8879:8996   */\n    tag_238:\n        /* \"#utility.yul\":9020:9083   */\n      tag_240\n        /* \"#utility.yul\":9075:9082   */\n      dup9\n        /* \"#utility.yul\":9066:9072   */\n      dup3\n        /* \"#utility.yul\":9055:9064   */\n      dup10\n        /* \"#utility.yul\":9051:9073   */\n      add\n        /* \"#utility.yul\":9020:9083   */\n      tag_133\n      jump\t// in\n    tag_240:\n        /* \"#utility.yul\":9010:9083   */\n      swap5\n      pop\n        /* \"#utility.yul\":8805:9093   */\n      pop\n        /* \"#utility.yul\":9160:9162   */\n      0x40\n        /* \"#utility.yul\":9149:9158   */\n      dup7\n        /* \"#utility.yul\":9145:9163   */\n      add\n        /* \"#utility.yul\":9132:9164   */\n      calldataload\n        /* \"#utility.yul\":9191:9209   */\n      0xffffffffffffffff\n        /* \"#utility.yul\":9183:9189   */\n      dup2\n        /* \"#utility.yul\":9180:9210   */\n      gt\n        /* \"#utility.yul\":9177:9294   */\n      iszero\n      tag_241\n      jumpi\n        /* \"#utility.yul\":9213:9292   */\n      tag_242\n      tag_104\n      jump\t// in\n    tag_242:\n        /* \"#utility.yul\":9177:9294   */\n    tag_241:\n        /* \"#utility.yul\":9318:9381   */\n      tag_243\n        /* \"#utility.yul\":9373:9380   */\n      dup9\n        /* \"#utility.yul\":9364:9370   */\n      dup3\n        /* \"#utility.yul\":9353:9362   */\n      dup10\n        /* \"#utility.yul\":9349:9371   */\n      add\n        /* \"#utility.yul\":9318:9381   */\n      tag_133\n      jump\t// in\n    tag_243:\n        /* \"#utility.yul\":9308:9381   */\n      swap4\n      pop\n        /* \"#utility.yul\":9103:9391   */\n      pop\n        /* \"#utility.yul\":9458:9460   */\n      0x60\n        /* \"#utility.yul\":9447:9456   */\n      dup7\n        /* \"#utility.yul\":9443:9461   */\n      add\n        /* \"#utility.yul\":9430:9462   */\n      calldataload\n        /* \"#utility.yul\":9489:9507   */\n      0xffffffffffffffff\n        /* \"#utility.yul\":9481:9487   */\n      dup2\n        /* \"#utility.yul\":9478:9508   */\n      gt\n        /* \"#utility.yul\":9475:9592   */\n      iszero\n      tag_244\n      jumpi\n        /* \"#utility.yul\":9511:9590   */\n      tag_245\n      tag_104\n      jump\t// in\n    tag_245:\n        /* \"#utility.yul\":9475:9592   */\n    tag_244:\n        /* \"#utility.yul\":9616:9679   */\n      tag_246\n        /* \"#utility.yul\":9671:9678   */\n      dup9\n        /* \"#utility.yul\":9662:9668   */\n      dup3\n        /* \"#utility.yul\":9651:9660   */\n      dup10\n        /* \"#utility.yul\":9647:9669   */\n      add\n        /* \"#utility.yul\":9616:9679   */\n      tag_133\n      jump\t// in\n    tag_246:\n        /* \"#utility.yul\":9606:9679   */\n      swap3\n      pop\n        /* \"#utility.yul\":9401:9689   */\n      pop\n        /* \"#utility.yul\":9728:9731   */\n      0x80\n        /* \"#utility.yul\":9755:9808   */\n      tag_247\n        /* \"#utility.yul\":9800:9807   */\n      dup9\n        /* \"#utility.yul\":9791:9797   */\n      dup3\n        /* \"#utility.yul\":9780:9789   */\n      dup10\n        /* \"#utility.yul\":9776:9798   */\n      add\n        /* \"#utility.yul\":9755:9808   */\n      tag_124\n      jump\t// in\n    tag_247:\n        /* \"#utility.yul\":9745:9808   */\n      swap2\n      pop\n        /* \"#utility.yul\":9699:9818   */\n      pop\n        /* \"#utility.yul\":8374:9825   */\n      swap3\n      swap6\n      pop\n      swap3\n      swap6\n      swap1\n      swap4\n      pop\n      jump\t// out\n        /* \"#utility.yul\":9831:11136   */\n    tag_25:\n        /* \"#utility.yul\":9947:9953   */\n      0x00\n        /* \"#utility.yul\":9955:9961   */\n      dup1\n        /* \"#utility.yul\":9963:9969   */\n      0x00\n        /* \"#utility.yul\":9971:9977   */\n      dup1\n        /* \"#utility.yul\":10020:10023   */\n      0x80\n        /* \"#utility.yul\":10008:10017   */\n      dup6\n        /* \"#utility.yul\":9999:10006   */\n      dup8\n        /* \"#utility.yul\":9995:10018   */\n      sub\n        /* \"#utility.yul\":9991:10024   */\n      slt\n        /* \"#utility.yul\":9988:10108   */\n      iszero\n      tag_249\n      jumpi\n        /* \"#utility.yul\":10027:10106   */\n      tag_250\n      tag_103\n      jump\t// in\n    tag_250:\n        /* \"#utility.yul\":9988:10108   */\n    tag_249:\n        /* \"#utility.yul\":10175:10176   */\n      0x00\n        /* \"#utility.yul\":10164:10173   */\n      dup6\n        /* \"#utility.yul\":10160:10177   */\n      add\n        /* \"#utility.yul\":10147:10178   */\n      calldataload\n        /* \"#utility.yul\":10205:10223   */\n      0xffffffffffffffff\n        /* \"#utility.yul\":10197:10203   */\n      dup2\n        /* \"#utility.yul\":10194:10224   */\n      gt\n        /* \"#utility.yul\":10191:10308   */\n      iszero\n      tag_251\n      jumpi\n        /* \"#utility.yul\":10227:10306   */\n      tag_252\n      tag_104\n      jump\t// in\n    tag_252:\n        /* \"#utility.yul\":10191:10308   */\n    tag_251:\n        /* \"#utility.yul\":10332:10395   */\n      tag_253\n        /* \"#utility.yul\":10387:10394   */\n      dup8\n        /* \"#utility.yul\":10378:10384   */\n      dup3\n        /* \"#utility.yul\":10367:10376   */\n      dup9\n        /* \"#utility.yul\":10363:10385   */\n      add\n        /* \"#utility.yul\":10332:10395   */\n      tag_133\n      jump\t// in\n    tag_253:\n        /* \"#utility.yul\":10322:10395   */\n      swap5\n      pop\n        /* \"#utility.yul\":10118:10405   */\n      pop\n        /* \"#utility.yul\":10472:10474   */\n      0x20\n        /* \"#utility.yul\":10461:10470   */\n      dup6\n        /* \"#utility.yul\":10457:10475   */\n      add\n        /* \"#utility.yul\":10444:10476   */\n      calldataload\n        /* \"#utility.yul\":10503:10521   */\n      0xffffffffffffffff\n        /* \"#utility.yul\":10495:10501   */\n      dup2\n        /* \"#utility.yul\":10492:10522   */\n      gt\n        /* \"#utility.yul\":10489:10606   */\n      iszero\n      tag_254\n      jumpi\n        /* \"#utility.yul\":10525:10604   */\n      tag_255\n      tag_104\n      jump\t// in\n    tag_255:\n        /* \"#utility.yul\":10489:10606   */\n    tag_254:\n        /* \"#utility.yul\":10630:10693   */\n      tag_256\n        /* \"#utility.yul\":10685:10692   */\n      dup8\n        /* \"#utility.yul\":10676:10682   */\n      dup3\n        /* \"#utility.yul\":10665:10674   */\n      dup9\n        /* \"#utility.yul\":10661:10683   */\n      add\n        /* \"#utility.yul\":10630:10693   */\n      tag_133\n      jump\t// in\n    tag_256:\n        /* \"#utility.yul\":10620:10693   */\n      swap4\n      pop\n        /* \"#utility.yul\":10415:10703   */\n      pop\n        /* \"#utility.yul\":10770:10772   */\n      0x40\n        /* \"#utility.yul\":10759:10768   */\n      dup6\n        /* \"#utility.yul\":10755:10773   */\n      add\n        /* \"#utility.yul\":10742:10774   */\n      calldataload\n        /* \"#utility.yul\":10801:10819   */\n      0xffffffffffffffff\n        /* \"#utility.yul\":10793:10799   */\n      dup2\n        /* \"#utility.yul\":10790:10820   */\n      gt\n        /* \"#utility.yul\":10787:10904   */\n      iszero\n      tag_257\n      jumpi\n        /* \"#utility.yul\":10823:10902   */\n      tag_258\n      tag_104\n      jump\t// in\n    tag_258:\n        /* \"#utility.yul\":10787:10904   */\n    tag_257:\n        /* \"#utility.yul\":10928:10991   */\n      tag_259\n        /* \"#utility.yul\":10983:10990   */\n      dup8\n        /* \"#utility.yul\":10974:10980   */\n      dup3\n        /* \"#utility.yul\":10963:10972   */\n      dup9\n        /* \"#utility.yul\":10959:10981   */\n      add\n        /* \"#utility.yul\":10928:10991   */\n      tag_133\n      jump\t// in\n    tag_259:\n        /* \"#utility.yul\":10918:10991   */\n      swap3\n      pop\n        /* \"#utility.yul\":10713:11001   */\n      pop\n        /* \"#utility.yul\":11040:11042   */\n      0x60\n        /* \"#utility.yul\":11066:11119   */\n      tag_260\n        /* \"#utility.yul\":11111:11118   */\n      dup8\n        /* \"#utility.yul\":11102:11108   */\n      dup3\n        /* \"#utility.yul\":11091:11100   */\n      dup9\n        /* \"#utility.yul\":11087:11109   */\n      add\n        /* \"#utility.yul\":11066:11119   */\n      tag_124\n      jump\t// in\n    tag_260:\n        /* \"#utility.yul\":11056:11119   */\n      swap2\n      pop\n        /* \"#utility.yul\":11011:11129   */\n      pop\n        /* \"#utility.yul\":9831:11136   */\n      swap3\n      swap6\n      swap2\n      swap5\n      pop\n      swap3\n      pop\n      jump\t// out\n        /* \"#utility.yul\":11142:11322   */\n    tag_134:\n        /* \"#utility.yul\":11190:11267   */\n      0x4e487b7100000000000000000000000000000000000000000000000000000000\n        /* \"#utility.yul\":11187:11188   */\n      0x00\n        /* \"#utility.yul\":11180:11268   */\n      mstore\n        /* \"#utility.yul\":11287:11291   */\n      0x22\n        /* \"#utility.yul\":11284:11285   */\n      0x04\n        /* \"#utility.yul\":11277:11292   */\n      mstore\n        /* \"#utility.yul\":11311:11315   */\n      0x24\n        /* \"#utility.yul\":11308:11309   */\n      0x00\n        /* \"#utility.yul\":11301:11316   */\n      revert\n        /* \"#utility.yul\":11328:11648   */\n    tag_32:\n        /* \"#utility.yul\":11372:11378   */\n      0x00\n        /* \"#utility.yul\":11409:11410   */\n      0x02\n        /* \"#utility.yul\":11403:11407   */\n      dup3\n        /* \"#utility.yul\":11399:11411   */\n      div\n        /* \"#utility.yul\":11389:11411   */\n      swap1\n      pop\n        /* \"#utility.yul\":11456:11457   */\n      0x01\n        /* \"#utility.yul\":11450:11454   */\n      dup3\n        /* \"#utility.yul\":11446:11458   */\n      and\n        /* \"#utility.yul\":11477:11495   */\n      dup1\n        /* \"#utility.yul\":11467:11548   */\n      tag_263\n      jumpi\n        /* \"#utility.yul\":11533:11537   */\n      0x7f\n        /* \"#utility.yul\":11525:11531   */\n      dup3\n        /* \"#utility.yul\":11521:11538   */\n      and\n        /* \"#utility.yul\":11511:11538   */\n      swap2\n      pop\n        /* \"#utility.yul\":11467:11548   */\n    tag_263:\n        /* \"#utility.yul\":11595:11597   */\n      0x20\n        /* \"#utility.yul\":11587:11593   */\n      dup3\n        /* \"#utility.yul\":11584:11598   */\n      lt\n        /* \"#utility.yul\":11564:11582   */\n      dup2\n        /* \"#utility.yul\":11561:11599   */\n      sub\n        /* \"#utility.yul\":11558:11642   */\n      tag_264\n      jumpi\n        /* \"#utility.yul\":11614:11632   */\n      tag_265\n      tag_134\n      jump\t// in\n    tag_265:\n        /* \"#utility.yul\":11558:11642   */\n    tag_264:\n        /* \"#utility.yul\":11379:11648   */\n      pop\n        /* \"#utility.yul\":11328:11648   */\n      swap2\n      swap1\n      pop\n      jump\t// out\n        /* \"#utility.yul\":11654:11772   */\n    tag_135:\n        /* \"#utility.yul\":11741:11765   */\n      tag_267\n        /* \"#utility.yul\":11759:11764   */\n      dup2\n        /* \"#utility.yul\":11741:11765   */\n      tag_117\n      jump\t// in\n    tag_267:\n        /* \"#utility.yul\":11736:11739   */\n      dup3\n        /* \"#utility.yul\":11729:11766   */\n      mstore\n        /* \"#utility.yul\":11654:11772   */\n      pop\n      pop\n      jump\t// out\n        /* \"#utility.yul\":11778:12000   */\n    tag_69:\n        /* \"#utility.yul\":11871:11875   */\n      0x00\n        /* \"#utility.yul\":11909:11911   */\n      0x20\n        /* \"#utility.yul\":11898:11907   */\n      dup3\n        /* \"#utility.yul\":11894:11912   */\n      add\n        /* \"#utility.yul\":11886:11912   */\n      swap1\n      pop\n        /* \"#utility.yul\":11922:11993   */\n      tag_269\n        /* \"#utility.yul\":11990:11991   */\n      0x00\n        /* \"#utility.yul\":11979:11988   */\n      dup4\n        /* \"#utility.yul\":11975:11992   */\n      add\n        /* \"#utility.yul\":11966:11972   */\n      dup5\n        /* \"#utility.yul\":11922:11993   */\n      tag_135\n      jump\t// in\n    tag_269:\n        /* \"#utility.yul\":11778:12000   */\n      swap3\n      swap2\n      pop\n      pop\n      jump\t// out\n        /* \"#utility.yul\":12006:12186   */\n    tag_72:\n        /* \"#utility.yul\":12054:12131   */\n      0x4e487b7100000000000000000000000000000000000000000000000000000000\n        /* \"#utility.yul\":12051:12052   */\n      0x00\n        /* \"#utility.yul\":12044:12132   */\n      mstore\n        /* \"#utility.yul\":12151:12155   */\n      0x32\n        /* \"#utility.yul\":12148:12149   */\n      0x04\n        /* \"#utility.yul\":12141:12156   */\n      mstore\n        /* \"#utility.yul\":12175:12179   */\n      0x24\n        /* \"#utility.yul\":12172:12173   */\n      0x00\n        /* \"#utility.yul\":12165:12180   */\n      revert\n        /* \"#utility.yul\":12192:12333   */\n    tag_136:\n        /* \"#utility.yul\":12241:12245   */\n      0x00\n        /* \"#utility.yul\":12264:12267   */\n      dup2\n        /* \"#utility.yul\":12256:12267   */\n      swap1\n      pop\n        /* \"#utility.yul\":12287:12290   */\n      dup2\n        /* \"#utility.yul\":12284:12285   */\n      0x00\n        /* \"#utility.yul\":12277:12291   */\n      mstore\n        /* \"#utility.yul\":12321:12325   */\n      0x20\n        /* \"#utility.yul\":12318:12319   */\n      0x00\n        /* \"#utility.yul\":12308:12326   */\n      keccak256\n        /* \"#utility.yul\":12300:12326   */\n      swap1\n      pop\n        /* \"#utility.yul\":12192:12333   */\n      swap2\n      swap1\n      pop\n      jump\t// out\n        /* \"#utility.yul\":12339:12432   */\n    tag_137:\n        /* \"#utility.yul\":12376:12382   */\n      0x00\n        /* \"#utility.yul\":12423:12425   */\n      0x20\n        /* \"#utility.yul\":12418:12420   */\n      0x1f\n        /* \"#utility.yul\":12411:12416   */\n      dup4\n        /* \"#utility.yul\":12407:12421   */\n      add\n        /* \"#utility.yul\":12403:12426   */\n      div\n        /* \"#utility.yul\":12393:12426   */\n      swap1\n      pop\n        /* \"#utility.yul\":12339:12432   */\n      swap2\n      swap1\n      pop\n      jump\t// out\n        /* \"#utility.yul\":12438:12545   */\n    tag_138:\n        /* \"#utility.yul\":12482:12490   */\n      0x00\n        /* \"#utility.yul\":12532:12537   */\n      dup3\n        /* \"#utility.yul\":12526:12530   */\n      dup3\n        /* \"#utility.yul\":12522:12538   */\n      shl\n        /* \"#utility.yul\":12501:12538   */\n      swap1\n      pop\n        /* \"#utility.yul\":12438:12545   */\n      swap3\n      swap2\n      pop\n      pop\n      jump\t// out\n        /* \"#utility.yul\":12551:12944   */\n    tag_139:\n        /* \"#utility.yul\":12620:12626   */\n      0x00\n        /* \"#utility.yul\":12670:12671   */\n      0x08\n        /* \"#utility.yul\":12658:12668   */\n      dup4\n        /* \"#utility.yul\":12654:12672   */\n      mul\n        /* \"#utility.yul\":12693:12790   */\n      tag_275\n        /* \"#utility.yul\":12723:12789   */\n      0xffffffffffffffffffffffffffffffffffffffffffffffffffffffffffffffff\n        /* \"#utility.yul\":12712:12721   */\n      dup3\n        /* \"#utility.yul\":12693:12790   */\n      tag_138\n      jump\t// in\n    tag_275:\n        /* \"#utility.yul\":12811:12850   */\n      tag_276\n        /* \"#utility.yul\":12841:12849   */\n      dup7\n        /* \"#utility.yul\":12830:12839   */\n      dup4\n        /* \"#utility.yul\":12811:12850   */\n      tag_138\n      jump\t// in\n    tag_276:\n        /* \"#utility.yul\":12799:12850   */\n      swap6\n      pop\n        /* \"#utility.yul\":12883:12887   */\n      dup1\n        /* \"#utility.yul\":12879:12888   */\n      not\n        /* \"#utility.yul\":12872:12877   */\n      dup5\n        /* \"#utility.yul\":12868:12889   */\n      and\n        /* \"#utility.yul\":12859:12889   */\n      swap4\n      pop\n        /* \"#utility.yul\":12932:12936   */\n      dup1\n        /* \"#utility.yul\":12922:12930   */\n      dup7\n        /* \"#utility.yul\":12918:12937   */\n      and\n        /* \"#utility.yul\":12911:12916   */\n      dup5\n        /* \"#utility.yul\":12908:12938   */\n      or\n        /* \"#utility.yul\":12898:12938   */\n      swap3\n      pop\n        /* \"#utility.yul\":12627:12944   */\n      pop\n      pop\n        /* \"#utility.yul\":12551:12944   */\n      swap4\n      swap3\n      pop\n      pop\n      pop\n      jump\t// out\n        /* \"#utility.yul\":12950:13010   */\n    tag_140:\n        /* \"#utility.yul\":12978:12981   */\n      0x00\n        /* \"#utility.yul\":12999:13004   */\n      dup2\n        /* \"#utility.yul\":12992:13004   */\n      swap1\n      pop\n        /* \"#utility.yul\":12950:13010   */\n      swap2\n      swap1\n      pop\n      jump\t// out\n        /* \"#utility.yul\":13016:13158   */\n    tag_141:\n        /* \"#utility.yul\":13066:13075   */\n      0x00\n        /* \"#utility.yul\":13099:13152   */\n      tag_279\n        /* \"#utility.yul\":13117:13151   */\n      tag_280\n        /* \"#utility.yul\":13126:13150   */\n      tag_281\n        /* \"#utility.yul\":13144:13149   */\n      dup5\n        /* \"#utility.yul\":13126:13150   */\n      tag_117\n      jump\t// in\n    tag_281:\n        /* \"#utility.yul\":13117:13151   */\n      tag_140\n      jump\t// in\n    tag_280:\n        /* \"#utility.yul\":13099:13152   */\n      tag_117\n      jump\t// in\n    tag_279:\n        /* \"#utility.yul\":13086:13152   */\n      swap1\n      pop\n        /* \"#utility.yul\":13016:13158   */\n      swap2\n      swap1\n      pop\n      jump\t// out\n        /* \"#utility.yul\":13164:13239   */\n    tag_142:\n        /* \"#utility.yul\":13207:13210   */\n      0x00\n        /* \"#utility.yul\":13228:13233   */\n      dup2\n        /* \"#utility.yul\":13221:13233   */\n      swap1\n      pop\n        /* \"#utility.yul\":13164:13239   */\n      swap2\n      swap1\n      pop\n      jump\t// out\n        /* \"#utility.yul\":13245:13514   */\n    tag_143:\n        /* \"#utility.yul\":13355:13394   */\n      tag_284\n        /* \"#utility.yul\":13386:13393   */\n      dup4\n        /* \"#utility.yul\":13355:13394   */\n      tag_141\n      jump\t// in\n    tag_284:\n        /* \"#utility.yul\":13416:13507   */\n      tag_285\n        /* \"#utility.yul\":13465:13506   */\n      tag_286\n        /* \"#utility.yul\":13489:13505   */\n      dup3\n        /* \"#utility.yul\":13465:13506   */\n      tag_142\n      jump\t// in\n    tag_286:\n        /* \"#utility.yul\":13457:13463   */\n      dup5\n        /* \"#utility.yul\":13450:13454   */\n      dup5\n        /* \"#utility.yul\":13444:13455   */\n      sload\n        /* \"#utility.yul\":13416:13507   */\n      tag_139\n      jump\t// in\n    tag_285:\n        /* \"#utility.yul\":13410:13414   */\n      dup3\n        /* \"#utility.yul\":13403:13508   */\n      sstore\n        /* \"#utility.yul\":13321:13514   */\n      pop\n        /* \"#utility.yul\":13245:13514   */\n      pop\n      pop\n      pop\n      jump\t// out\n        /* \"#utility.yul\":13520:13593   */\n    tag_144:\n        /* \"#utility.yul\":13565:13568   */\n      0x00\n        /* \"#utility.yul\":13520:13593   */\n      swap1\n      jump\t// out\n        /* \"#utility.yul\":13599:13788   */\n    tag_145:\n        /* \"#utility.yul\":13676:13708   */\n      tag_289\n      tag_144\n      jump\t// in\n    tag_289:\n        /* \"#utility.yul\":13717:13782   */\n      tag_290\n        /* \"#utility.yul\":13775:13781   */\n      dup2\n        /* \"#utility.yul\":13767:13773   */\n      dup5\n        /* \"#utility.yul\":13761:13765   */\n      dup5\n        /* \"#utility.yul\":13717:13782   */\n      tag_143\n      jump\t// in\n    tag_290:\n        /* \"#utility.yul\":13652:13788   */\n      pop\n        /* \"#utility.yul\":13599:13788   */\n      pop\n      pop\n      jump\t// out\n        /* \"#utility.yul\":13794:13980   */\n    tag_146:\n        /* \"#utility.yul\":13854:13974   */\n    tag_292:\n        /* \"#utility.yul\":13871:13874   */\n      dup2\n        /* \"#utility.yul\":13864:13869   */\n      dup2\n        /* \"#utility.yul\":13861:13875   */\n      lt\n        /* \"#utility.yul\":13854:13974   */\n      iszero\n      tag_294\n      jumpi\n        /* \"#utility.yul\":13925:13964   */\n      tag_295\n        /* \"#utility.yul\":13962:13963   */\n      0x00\n        /* \"#utility.yul\":13955:13960   */\n      dup3\n        /* \"#utility.yul\":13925:13964   */\n      tag_145\n      jump\t// in\n    tag_295:\n        /* \"#utility.yul\":13898:13899   */\n      0x01\n        /* \"#utility.yul\":13891:13896   */\n      dup2\n        /* \"#utility.yul\":13887:13900   */\n      add\n        /* \"#utility.yul\":13878:13900   */\n      swap1\n      pop\n        /* \"#utility.yul\":13854:13974   */\n      jump(tag_292)\n    tag_294:\n        /* \"#utility.yul\":13794:13980   */\n      pop\n      pop\n      jump\t// out\n        /* \"#utility.yul\":13986:14529   */\n    tag_147:\n        /* \"#utility.yul\":14087:14089   */\n      0x1f\n        /* \"#utility.yul\":14082:14085   */\n      dup3\n        /* \"#utility.yul\":14079:14090   */\n      gt\n        /* \"#utility.yul\":14076:14522   */\n      iszero\n      tag_297\n      jumpi\n        /* \"#utility.yul\":14121:14159   */\n      tag_298\n        /* \"#utility.yul\":14153:14158   */\n      dup2\n        /* \"#utility.yul\":14121:14159   */\n      tag_136\n      jump\t// in\n    tag_298:\n        /* \"#utility.yul\":14205:14234   */\n      tag_299\n        /* \"#utility.yul\":14223:14233   */\n      dup5\n        /* \"#utility.yul\":14205:14234   */\n      tag_137\n      jump\t// in\n    tag_299:\n        /* \"#utility.yul\":14195:14203   */\n      dup2\n        /* \"#utility.yul\":14191:14235   */\n      add\n        /* \"#utility.yul\":14388:14390   */\n      0x20\n        /* \"#utility.yul\":14376:14386   */\n      dup6\n        /* \"#utility.yul\":14373:14391   */\n      lt\n        /* \"#utility.yul\":14370:14419   */\n      iszero\n      tag_300\n      jumpi\n        /* \"#utility.yul\":14409:14417   */\n      dup2\n        /* \"#utility.yul\":14394:14417   */\n      swap1\n      pop\n        /* \"#utility.yul\":14370:14419   */\n    tag_300:\n        /* \"#utility.yul\":14432:14512   */\n      tag_301\n        /* \"#utility.yul\":14488:14510   */\n      tag_302\n        /* \"#utility.yul\":14506:14509   */\n      dup6\n        /* \"#utility.yul\":14488:14510   */\n      tag_137\n      jump\t// in\n    tag_302:\n        /* \"#utility.yul\":14478:14486   */\n      dup4\n        /* \"#utility.yul\":14474:14511   */\n      add\n        /* \"#utility.yul\":14461:14472   */\n      dup3\n        /* \"#utility.yul\":14432:14512   */\n      tag_146\n      jump\t// in\n    tag_301:\n        /* \"#utility.yul\":14091:14522   */\n      pop\n      pop\n        /* \"#utility.yul\":14076:14522   */\n    tag_297:\n        /* \"#utility.yul\":13986:14529   */\n      pop\n      pop\n      pop\n      jump\t// out\n        /* \"#utility.yul\":14535:14652   */\n    tag_148:\n        /* \"#utility.yul\":14589:14597   */\n      0x00\n        /* \"#utility.yul\":14639:14644   */\n      dup3\n        /* \"#utility.yul\":14633:14637   */\n      dup3\n        /* \"#utility.yul\":14629:14645   */\n      shr\n        /* \"#utility.yul\":14608:14645   */\n      swap1\n      pop\n        /* \"#utility.yul\":14535:14652   */\n      swap3\n      swap2\n      pop\n      pop\n      jump\t// out\n        /* \"#utility.yul\":14658:14827   */\n    tag_149:\n        /* \"#utility.yul\":14702:14708   */\n      0x00\n        /* \"#utility.yul\":14735:14786   */\n      tag_305\n        /* \"#utility.yul\":14783:14784   */\n      0x00\n        /* \"#utility.yul\":14779:14785   */\n      not\n        /* \"#utility.yul\":14771:14776   */\n      dup5\n        /* \"#utility.yul\":14768:14769   */\n      0x08\n        /* \"#utility.yul\":14764:14777   */\n      mul\n        /* \"#utility.yul\":14735:14786   */\n      tag_148\n      jump\t// in\n    tag_305:\n        /* \"#utility.yul\":14731:14787   */\n      not\n        /* \"#utility.yul\":14816:14820   */\n      dup1\n        /* \"#utility.yul\":14810:14814   */\n      dup4\n        /* \"#utility.yul\":14806:14821   */\n      and\n        /* \"#utility.yul\":14796:14821   */\n      swap2\n      pop\n        /* \"#utility.yul\":14709:14827   */\n      pop\n        /* \"#utility.yul\":14658:14827   */\n      swap3\n      swap2\n      pop\n      pop\n      jump\t// out\n        /* \"#utility.yul\":14832:15127   */\n    tag_150:\n        /* \"#utility.yul\":14908:14912   */\n      0x00\n        /* \"#utility.yul\":15054:15083   */\n      tag_307\n        /* \"#utility.yul\":15079:15082   */\n      dup4\n        /* \"#utility.yul\":15073:15077   */\n      dup4\n        /* \"#utility.yul\":15054:15083   */\n      tag_149\n      jump\t// in\n    tag_307:\n        /* \"#utility.yul\":15046:15083   */\n      swap2\n      pop\n        /* \"#utility.yul\":15116:15119   */\n      dup3\n        /* \"#utility.yul\":15113:15114   */\n      0x02\n        /* \"#utility.yul\":15109:15120   */\n      mul\n        /* \"#utility.yul\":15103:15107   */\n      dup3\n        /* \"#utility.yul\":15100:15121   */\n      or\n        /* \"#utility.yul\":15092:15121   */\n      swap1\n      pop\n        /* \"#utility.yul\":14832:15127   */\n      swap3\n      swap2\n      pop\n      pop\n      jump\t// out\n        /* \"#utility.yul\":15132:16527   */\n    tag_75:\n        /* \"#utility.yul\":15249:15286   */\n      tag_309\n        /* \"#utility.yul\":15282:15285   */\n      dup3\n        /* \"#utility.yul\":15249:15286   */\n      tag_112\n      jump\t// in\n    tag_309:\n        /* \"#utility.yul\":15351:15369   */\n      0xffffffffffffffff\n        /* \"#utility.yul\":15343:15349   */\n      dup2\n        /* \"#utility.yul\":15340:15370   */\n      gt\n        /* \"#utility.yul\":15337:15393   */\n      iszero\n      tag_310\n      jumpi\n        /* \"#utility.yul\":15373:15391   */\n      tag_311\n      tag_127\n      jump\t// in\n    tag_311:\n        /* \"#utility.yul\":15337:15393   */\n    tag_310:\n        /* \"#utility.yul\":15417:15455   */\n      tag_312\n        /* \"#utility.yul\":15449:15453   */\n      dup3\n        /* \"#utility.yul\":15443:15454   */\n      sload\n        /* \"#utility.yul\":15417:15455   */\n      tag_32\n      jump\t// in\n    tag_312:\n        /* \"#utility.yul\":15502:15569   */\n      tag_313\n        /* \"#utility.yul\":15562:15568   */\n      dup3\n        /* \"#utility.yul\":15554:15560   */\n      dup3\n        /* \"#utility.yul\":15548:15552   */\n      dup6\n        /* \"#utility.yul\":15502:15569   */\n      tag_147\n      jump\t// in\n    tag_313:\n        /* \"#utility.yul\":15596:15597   */\n      0x00\n        /* \"#utility.yul\":15620:15624   */\n      0x20\n        /* \"#utility.yul\":15607:15624   */\n      swap1\n      pop\n        /* \"#utility.yul\":15652:15654   */\n      0x1f\n        /* \"#utility.yul\":15644:15650   */\n      dup4\n        /* \"#utility.yul\":15641:15655   */\n      gt\n        /* \"#utility.yul\":15669:15670   */\n      0x01\n        /* \"#utility.yul\":15664:16282   */\n      dup2\n      eq\n      tag_315\n      jumpi\n        /* \"#utility.yul\":16326:16327   */\n      0x00\n        /* \"#utility.yul\":16343:16349   */\n      dup5\n        /* \"#utility.yul\":16340:16417   */\n      iszero\n      tag_316\n      jumpi\n        /* \"#utility.yul\":16392:16401   */\n      dup3\n        /* \"#utility.yul\":16387:16390   */\n      dup8\n        /* \"#utility.yul\":16383:16402   */\n      add\n        /* \"#utility.yul\":16377:16403   */\n      mload\n        /* \"#utility.yul\":16368:16403   */\n      swap1\n      pop\n        /* \"#utility.yul\":16340:16417   */\n    tag_316:\n        /* \"#utility.yul\":16443:16510   */\n      tag_317\n        /* \"#utility.yul\":16503:16509   */\n      dup6\n        /* \"#utility.yul\":16496:16501   */\n      dup3\n        /* \"#utility.yul\":16443:16510   */\n      tag_150\n      jump\t// in\n    tag_317:\n        /* \"#utility.yul\":16437:16441   */\n      dup7\n        /* \"#utility.yul\":16430:16511   */\n      sstore\n        /* \"#utility.yul\":16299:16521   */\n      pop\n        /* \"#utility.yul\":15634:16521   */\n      jump(tag_314)\n        /* \"#utility.yul\":15664:16282   */\n    tag_315:\n        /* \"#utility.yul\":15716:15720   */\n      0x1f\n        /* \"#utility.yul\":15712:15721   */\n      not\n        /* \"#utility.yul\":15704:15710   */\n      dup5\n        /* \"#utility.yul\":15700:15722   */\n      and\n        /* \"#utility.yul\":15750:15787   */\n      tag_318\n        /* \"#utility.yul\":15782:15786   */\n      dup7\n        /* \"#utility.yul\":15750:15787   */\n      tag_136\n      jump\t// in\n    tag_318:\n        /* \"#utility.yul\":15809:15810   */\n      0x00\n        /* \"#utility.yul\":15823:16031   */\n    tag_319:\n        /* \"#utility.yul\":15837:15844   */\n      dup3\n        /* \"#utility.yul\":15834:15835   */\n      dup2\n        /* \"#utility.yul\":15831:15845   */\n      lt\n        /* \"#utility.yul\":15823:16031   */\n      iszero\n      tag_321\n      jumpi\n        /* \"#utility.yul\":15916:15925   */\n      dup5\n        /* \"#utility.yul\":15911:15914   */\n      dup10\n        /* \"#utility.yul\":15907:15926   */\n      add\n        /* \"#utility.yul\":15901:15927   */\n      mload\n        /* \"#utility.yul\":15893:15899   */\n      dup3\n        /* \"#utility.yul\":15886:15928   */\n      sstore\n        /* \"#utility.yul\":15967:15968   */\n      0x01\n        /* \"#utility.yul\":15959:15965   */\n      dup3\n        /* \"#utility.yul\":15955:15969   */\n      add\n        /* \"#utility.yul\":15945:15969   */\n      swap2\n      pop\n        /* \"#utility.yul\":16014:16016   */\n      0x20\n        /* \"#utility.yul\":16003:16012   */\n      dup6\n        /* \"#utility.yul\":15999:16017   */\n      add\n        /* \"#utility.yul\":15986:16017   */\n      swap5\n      pop\n        /* \"#utility.yul\":15860:15864   */\n      0x20\n        /* \"#utility.yul\":15857:15858   */\n      dup2\n        /* \"#utility.yul\":15853:15865   */\n      add\n        /* \"#utility.yul\":15848:15865   */\n      swap1\n      pop\n        /* \"#utility.yul\":15823:16031   */\n      jump(tag_319)\n    tag_321:\n        /* \"#utility.yul\":16059:16065   */\n      dup7\n        /* \"#utility.yul\":16050:16057   */\n      dup4\n        /* \"#utility.yul\":16047:16066   */\n      lt\n        /* \"#utility.yul\":16044:16223   */\n      iszero\n      tag_322\n      jumpi\n        /* \"#utility.yul\":16117:16126   */\n      dup5\n        /* \"#utility.yul\":16112:16115   */\n      dup10\n        /* \"#utility.yul\":16108:16127   */\n      add\n        /* \"#utility.yul\":16102:16128   */\n      mload\n        /* \"#utility.yul\":16160:16208   */\n      tag_323\n        /* \"#utility.yul\":16202:16206   */\n      0x1f\n        /* \"#utility.yul\":16194:16200   */\n      dup10\n        /* \"#utility.yul\":16190:16207   */\n      and\n        /* \"#utility.yul\":16179:16188   */\n      dup3\n        /* \"#utility.yul\":16160:16208   */\n      tag_149\n      jump\t// in\n    tag_323:\n        /* \"#utility.yul\":16152:16158   */\n      dup4\n        /* \"#utility.yul\":16145:16209   */\n      sstore\n        /* \"#utility.yul\":16067:16223   */\n      pop\n        /* \"#utility.yul\":16044:16223   */\n    tag_322:\n        /* \"#utility.yul\":16269:16270   */\n      0x01\n        /* \"#utility.yul\":16265:16266   */\n      0x02\n        /* \"#utility.yul\":16257:16263   */\n      dup9\n        /* \"#utility.yul\":16253:16267   */\n      mul\n        /* \"#utility.yul\":16249:16271   */\n      add\n        /* \"#utility.yul\":16243:16247   */\n      dup9\n        /* \"#utility.yul\":16236:16272   */\n      sstore\n        /* \"#utility.yul\":15671:16282   */\n      pop\n      pop\n      pop\n        /* \"#utility.yul\":15634:16521   */\n    tag_314:\n      pop\n        /* \"#utility.yul\":15224:16527   */\n      pop\n      pop\n      pop\n        /* \"#utility.yul\":15132:16527   */\n      pop\n      pop\n      jump\t// out\n\n    auxdata: 0xa2646970667358221220e4144251ea1d345d01c7be5eec39da1c342381d6f6aec229f2a97bebcee71db464736f6c63430008110033\n}\n",
				"bytecode": {
					"linkReferences": {},
					"object": "608060405234801561001057600080fd5b506111eb806100206000396000f3fe608060405234801561001057600080fd5b50600436106100575760003560e01c80632698286c1461005c578063341fa05d1461008c5780634cd1ed3d146100aa5780636dcb7896146100c6578063d2d50bd8146100d0575b600080fd5b61007660048036038101906100719190610968565b6100ec565b6040516100839190610b71565b60405180910390f35b610094610349565b6040516100a19190610b71565b60405180910390f35b6100c460048036038101906100bf9190610cf4565b6105a4565b005b6100ce6106fe565b005b6100ea60048036038101906100e59190610dc3565b61074a565b005b60606000808373ffffffffffffffffffffffffffffffffffffffff1673ffffffffffffffffffffffffffffffffffffffff168152602001908152602001600020805480602002602001604051908101604052809291908181526020016000905b8282101561033e578382906000526020600020906004020160405180608001604052908160008201805461017f90610ead565b80601f01602080910402602001604051908101604052809291908181526020018280546101ab90610ead565b80156101f85780601f106101cd576101008083540402835291602001916101f8565b820191906000526020600020905b8154815290600101906020018083116101db57829003601f168201915b5050505050815260200160018201805461021190610ead565b80601f016020809104026020016040519081016040528092919081815260200182805461023d90610ead565b801561028a5780601f1061025f5761010080835404028352916020019161028a565b820191906000526020600020905b81548152906001019060200180831161026d57829003601f168201915b505050505081526020016002820180546102a390610ead565b80601f01602080910402602001604051908101604052809291908181526020018280546102cf90610ead565b801561031c5780601f106102f15761010080835404028352916020019161031c565b820191906000526020600020905b8154815290600101906020018083116102ff57829003601f168201915b505050505081526020016003820154815250508152602001906001019061014c565b505050509050919050565b60606000803373ffffffffffffffffffffffffffffffffffffffff1673ffffffffffffffffffffffffffffffffffffffff168152602001908152602001600020805480602002602001604051908101604052809291908181526020016000905b8282101561059b57838290600052602060002090600402016040518060800160405290816000820180546103dc90610ead565b80601f016020809104026020016040519081016040528092919081815260200182805461040890610ead565b80156104555780601f1061042a57610100808354040283529160200191610455565b820191906000526020600020905b81548152906001019060200180831161043857829003601f168201915b5050505050815260200160018201805461046e90610ead565b80601f016020809104026020016040519081016040528092919081815260200182805461049a90610ead565b80156104e75780601f106104bc576101008083540402835291602001916104e7565b820191906000526020600020905b8154815290600101906020018083116104ca57829003601f168201915b5050505050815260200160028201805461050090610ead565b80601f016020809104026020016040519081016040528092919081815260200182805461052c90610ead565b80156105795780601f1061054e57610100808354040283529160200191610579565b820191906000526020600020905b81548152906001019060200180831161055c57829003601f168201915b50505050508152602001600382015481525050815260200190600101906103a9565b50505050905090565b6000803373ffffffffffffffffffffffffffffffffffffffff1673ffffffffffffffffffffffffffffffffffffffff16815260200190815260200160002080549050851061062957846040517f40c901ce0000000000000000000000000000000000000000000000000000000081526004016106209190610eed565b60405180910390fd5b6040518060800160405280858152602001848152602001838152602001828152506000803373ffffffffffffffffffffffffffffffffffffffff1673ffffffffffffffffffffffffffffffffffffffff168152602001908152602001600020868154811061069a57610699610f08565b5b906000526020600020906004020160008201518160000190816106bd91906110e3565b5060208201518160010190816106d391906110e3565b5060408201518160020190816106e991906110e3565b50606082015181600301559050505050505050565b6000803373ffffffffffffffffffffffffffffffffffffffff1673ffffffffffffffffffffffffffffffffffffffff16815260200190815260200160002060006107489190610826565b565b6000803373ffffffffffffffffffffffffffffffffffffffff1673ffffffffffffffffffffffffffffffffffffffff168152602001908152602001600020604051806080016040528086815260200185815260200184815260200183815250908060018154018082558091505060019003906000526020600020906004020160009091909190915060008201518160000190816107e791906110e3565b5060208201518160010190816107fd91906110e3565b50604082015181600201908161081391906110e3565b5060608201518160030155505050505050565b5080546000825560040290600052602060002090810190610847919061084a565b50565b5b8082111561089557600080820160006108649190610899565b6001820160006108749190610899565b6002820160006108849190610899565b60038201600090555060040161084b565b5090565b5080546108a590610ead565b6000825580601f106108b757506108d6565b601f0160209004906000526020600020908101906108d591906108d9565b5b50565b5b808211156108f25760008160009055506001016108da565b5090565b6000604051905090565b600080fd5b600080fd5b600073ffffffffffffffffffffffffffffffffffffffff82169050919050565b60006109358261090a565b9050919050565b6109458161092a565b811461095057600080fd5b50565b6000813590506109628161093c565b92915050565b60006020828403121561097e5761097d610900565b5b600061098c84828501610953565b91505092915050565b600081519050919050565b600082825260208201905092915050565b6000819050602082019050919050565b600081519050919050565b600082825260208201905092915050565b60005b838110156109fb5780820151818401526020810190506109e0565b60008484015250505050565b6000601f19601f8301169050919050565b6000610a23826109c1565b610a2d81856109cc565b9350610a3d8185602086016109dd565b610a4681610a07565b840191505092915050565b6000819050919050565b610a6481610a51565b82525050565b60006080830160008301518482036000860152610a878282610a18565b91505060208301518482036020860152610aa18282610a18565b91505060408301518482036040860152610abb8282610a18565b9150506060830151610ad06060860182610a5b565b508091505092915050565b6000610ae78383610a6a565b905092915050565b6000602082019050919050565b6000610b0782610995565b610b1181856109a0565b935083602082028501610b23856109b1565b8060005b85811015610b5f5784840389528151610b408582610adb565b9450610b4b83610aef565b925060208a01995050600181019050610b27565b50829750879550505050505092915050565b60006020820190508181036000830152610b8b8184610afc565b905092915050565b610b9c81610a51565b8114610ba757600080fd5b50565b600081359050610bb981610b93565b92915050565b600080fd5b600080fd5b7f4e487b7100000000000000000000000000000000000000000000000000000000600052604160045260246000fd5b610c0182610a07565b810181811067ffffffffffffffff82111715610c2057610c1f610bc9565b5b80604052505050565b6000610c336108f6565b9050610c3f8282610bf8565b919050565b600067ffffffffffffffff821115610c5f57610c5e610bc9565b5b610c6882610a07565b9050602081019050919050565b82818337600083830152505050565b6000610c97610c9284610c44565b610c29565b905082815260208101848484011115610cb357610cb2610bc4565b5b610cbe848285610c75565b509392505050565b600082601f830112610cdb57610cda610bbf565b5b8135610ceb848260208601610c84565b91505092915050565b600080600080600060a08688031215610d1057610d0f610900565b5b6000610d1e88828901610baa565b955050602086013567ffffffffffffffff811115610d3f57610d3e610905565b5b610d4b88828901610cc6565b945050604086013567ffffffffffffffff811115610d6c57610d6b610905565b5b610d7888828901610cc6565b935050606086013567ffffffffffffffff811115610d9957610d98610905565b5b610da588828901610cc6565b9250506080610db688828901610baa565b9150509295509295909350565b60008060008060808587031215610ddd57610ddc610900565b5b600085013567ffffffffffffffff811115610dfb57610dfa610905565b5b610e0787828801610cc6565b945050602085013567ffffffffffffffff811115610e2857610e27610905565b5b610e3487828801610cc6565b935050604085013567ffffffffffffffff811115610e5557610e54610905565b5b610e6187828801610cc6565b9250506060610e7287828801610baa565b91505092959194509250565b7f4e487b7100000000000000000000000000000000000000000000000000000000600052602260045260246000fd5b60006002820490506001821680610ec557607f821691505b602082108103610ed857610ed7610e7e565b5b50919050565b610ee781610a51565b82525050565b6000602082019050610f026000830184610ede565b92915050565b7f4e487b7100000000000000000000000000000000000000000000000000000000600052603260045260246000fd5b60008190508160005260206000209050919050565b60006020601f8301049050919050565b600082821b905092915050565b600060088302610f997fffffffffffffffffffffffffffffffffffffffffffffffffffffffffffffffff82610f5c565b610fa38683610f5c565b95508019841693508086168417925050509392505050565b6000819050919050565b6000610fe0610fdb610fd684610a51565b610fbb565b610a51565b9050919050565b6000819050919050565b610ffa83610fc5565b61100e61100682610fe7565b848454610f69565b825550505050565b600090565b611023611016565b61102e818484610ff1565b505050565b5b818110156110525761104760008261101b565b600181019050611034565b5050565b601f8211156110975761106881610f37565b61107184610f4c565b81016020851015611080578190505b61109461108c85610f4c565b830182611033565b50505b505050565b600082821c905092915050565b60006110ba6000198460080261109c565b1980831691505092915050565b60006110d383836110a9565b9150826002028217905092915050565b6110ec826109c1565b67ffffffffffffffff81111561110557611104610bc9565b5b61110f8254610ead565b61111a828285611056565b600060209050601f83116001811461114d576000841561113b578287015190505b61114585826110c7565b8655506111ad565b601f19841661115b86610f37565b60005b828110156111835784890151825560018201915060208501945060208101905061115e565b868310156111a0578489015161119c601f8916826110a9565b8355505b6001600288020188555050505b50505050505056fea2646970667358221220e4144251ea1d345d01c7be5eec39da1c342381d6f6aec229f2a97bebcee71db464736f6c63430008110033",
					"opcodes": "PUSH1 0x80 PUSH1 0x40 MSTORE CALLVALUE DUP1 ISZERO PUSH2 0x10 JUMPI PUSH1 0x0 DUP1 REVERT JUMPDEST POP PUSH2 0x11EB DUP1 PUSH2 0x20 PUSH1 0x0 CODECOPY PUSH1 0x0 RETURN INVALID PUSH1 0x80 PUSH1 0x40 MSTORE CALLVALUE DUP1 ISZERO PUSH2 0x10 JUMPI PUSH1 0x0 DUP1 REVERT JUMPDEST POP PUSH1 0x4 CALLDATASIZE LT PUSH2 0x57 JUMPI PUSH1 0x0 CALLDATALOAD PUSH1 0xE0 SHR DUP1 PUSH4 0x2698286C EQ PUSH2 0x5C JUMPI DUP1 PUSH4 0x341FA05D EQ PUSH2 0x8C JUMPI DUP1 PUSH4 0x4CD1ED3D EQ PUSH2 0xAA JUMPI DUP1 PUSH4 0x6DCB7896 EQ PUSH2 0xC6 JUMPI DUP1 PUSH4 0xD2D50BD8 EQ PUSH2 0xD0 JUMPI JUMPDEST PUSH1 0x0 DUP1 REVERT JUMPDEST PUSH2 0x76 PUSH1 0x4 DUP1 CALLDATASIZE SUB DUP2 ADD SWAP1 PUSH2 0x71 SWAP2 SWAP1 PUSH2 0x968 JUMP JUMPDEST PUSH2 0xEC JUMP JUMPDEST PUSH1 0x40 MLOAD PUSH2 0x83 SWAP2 SWAP1 PUSH2 0xB71 JUMP JUMPDEST PUSH1 0x40 MLOAD DUP1 SWAP2 SUB SWAP1 RETURN JUMPDEST PUSH2 0x94 PUSH2 0x349 JUMP JUMPDEST PUSH1 0x40 MLOAD PUSH2 0xA1 SWAP2 SWAP1 PUSH2 0xB71 JUMP JUMPDEST PUSH1 0x40 MLOAD DUP1 SWAP2 SUB SWAP1 RETURN JUMPDEST PUSH2 0xC4 PUSH1 0x4 DUP1 CALLDATASIZE SUB DUP2 ADD SWAP1 PUSH2 0xBF SWAP2 SWAP1 PUSH2 0xCF4 JUMP JUMPDEST PUSH2 0x5A4 JUMP JUMPDEST STOP JUMPDEST PUSH2 0xCE PUSH2 0x6FE JUMP JUMPDEST STOP JUMPDEST PUSH2 0xEA PUSH1 0x4 DUP1 CALLDATASIZE SUB DUP2 ADD SWAP1 PUSH2 0xE5 SWAP2 SWAP1 PUSH2 0xDC3 JUMP JUMPDEST PUSH2 0x74A JUMP JUMPDEST STOP JUMPDEST PUSH1 0x60 PUSH1 0x0 DUP1 DUP4 PUSH20 0xFFFFFFFFFFFFFFFFFFFFFFFFFFFFFFFFFFFFFFFF AND PUSH20 0xFFFFFFFFFFFFFFFFFFFFFFFFFFFFFFFFFFFFFFFF AND DUP2 MSTORE PUSH1 0x20 ADD SWAP1 DUP2 MSTORE PUSH1 0x20 ADD PUSH1 0x0 KECCAK256 DUP1 SLOAD DUP1 PUSH1 0x20 MUL PUSH1 0x20 ADD PUSH1 0x40 MLOAD SWAP1 DUP2 ADD PUSH1 0x40 MSTORE DUP1 SWAP3 SWAP2 SWAP1 DUP2 DUP2 MSTORE PUSH1 0x20 ADD PUSH1 0x0 SWAP1 JUMPDEST DUP3 DUP3 LT ISZERO PUSH2 0x33E JUMPI DUP4 DUP3 SWAP1 PUSH1 0x0 MSTORE PUSH1 0x20 PUSH1 0x0 KECCAK256 SWAP1 PUSH1 0x4 MUL ADD PUSH1 0x40 MLOAD DUP1 PUSH1 0x80 ADD PUSH1 0x40 MSTORE SWAP1 DUP2 PUSH1 0x0 DUP3 ADD DUP1 SLOAD PUSH2 0x17F SWAP1 PUSH2 0xEAD JUMP JUMPDEST DUP1 PUSH1 0x1F ADD PUSH1 0x20 DUP1 SWAP2 DIV MUL PUSH1 0x20 ADD PUSH1 0x40 MLOAD SWAP1 DUP2 ADD PUSH1 0x40 MSTORE DUP1 SWAP3 SWAP2 SWAP1 DUP2 DUP2 MSTORE PUSH1 0x20 ADD DUP3 DUP1 SLOAD PUSH2 0x1AB SWAP1 PUSH2 0xEAD JUMP JUMPDEST DUP1 ISZERO PUSH2 0x1F8 JUMPI DUP1 PUSH1 0x1F LT PUSH2 0x1CD JUMPI PUSH2 0x100 DUP1 DUP4 SLOAD DIV MUL DUP4 MSTORE SWAP2 PUSH1 0x20 ADD SWAP2 PUSH2 0x1F8 JUMP JUMPDEST DUP3 ADD SWAP2 SWAP1 PUSH1 0x0 MSTORE PUSH1 0x20 PUSH1 0x0 KECCAK256 SWAP1 JUMPDEST DUP2 SLOAD DUP2 MSTORE SWAP1 PUSH1 0x1 ADD SWAP1 PUSH1 0x20 ADD DUP1 DUP4 GT PUSH2 0x1DB JUMPI DUP3 SWAP1 SUB PUSH1 0x1F AND DUP3 ADD SWAP2 JUMPDEST POP POP POP POP POP DUP2 MSTORE PUSH1 0x20 ADD PUSH1 0x1 DUP3 ADD DUP1 SLOAD PUSH2 0x211 SWAP1 PUSH2 0xEAD JUMP JUMPDEST DUP1 PUSH1 0x1F ADD PUSH1 0x20 DUP1 SWAP2 DIV MUL PUSH1 0x20 ADD PUSH1 0x40 MLOAD SWAP1 DUP2 ADD PUSH1 0x40 MSTORE DUP1 SWAP3 SWAP2 SWAP1 DUP2 DUP2 MSTORE PUSH1 0x20 ADD DUP3 DUP1 SLOAD PUSH2 0x23D SWAP1 PUSH2 0xEAD JUMP JUMPDEST DUP1 ISZERO PUSH2 0x28A JUMPI DUP1 PUSH1 0x1F LT PUSH2 0x25F JUMPI PUSH2 0x100 DUP1 DUP4 SLOAD DIV MUL DUP4 MSTORE SWAP2 PUSH1 0x20 ADD SWAP2 PUSH2 0x28A JUMP JUMPDEST DUP3 ADD SWAP2 SWAP1 PUSH1 0x0 MSTORE PUSH1 0x20 PUSH1 0x0 KECCAK256 SWAP1 JUMPDEST DUP2 SLOAD DUP2 MSTORE SWAP1 PUSH1 0x1 ADD SWAP1 PUSH1 0x20 ADD DUP1 DUP4 GT PUSH2 0x26D JUMPI DUP3 SWAP1 SUB PUSH1 0x1F AND DUP3 ADD SWAP2 JUMPDEST POP POP POP POP POP DUP2 MSTORE PUSH1 0x20 ADD PUSH1 0x2 DUP3 ADD DUP1 SLOAD PUSH2 0x2A3 SWAP1 PUSH2 0xEAD JUMP JUMPDEST DUP1 PUSH1 0x1F ADD PUSH1 0x20 DUP1 SWAP2 DIV MUL PUSH1 0x20 ADD PUSH1 0x40 MLOAD SWAP1 DUP2 ADD PUSH1 0x40 MSTORE DUP1 SWAP3 SWAP2 SWAP1 DUP2 DUP2 MSTORE PUSH1 0x20 ADD DUP3 DUP1 SLOAD PUSH2 0x2CF SWAP1 PUSH2 0xEAD JUMP JUMPDEST DUP1 ISZERO PUSH2 0x31C JUMPI DUP1 PUSH1 0x1F LT PUSH2 0x2F1 JUMPI PUSH2 0x100 DUP1 DUP4 SLOAD DIV MUL DUP4 MSTORE SWAP2 PUSH1 0x20 ADD SWAP2 PUSH2 0x31C JUMP JUMPDEST DUP3 ADD SWAP2 SWAP1 PUSH1 0x0 MSTORE PUSH1 0x20 PUSH1 0x0 KECCAK256 SWAP1 JUMPDEST DUP2 SLOAD DUP2 MSTORE SWAP1 PUSH1 0x1 ADD SWAP1 PUSH1 0x20 ADD DUP1 DUP4 GT PUSH2 0x2FF JUMPI DUP3 SWAP1 SUB PUSH1 0x1F AND DUP3 ADD SWAP2 JUMPDEST POP POP POP POP POP DUP2 MSTORE PUSH1 0x20 ADD PUSH1 0x3 DUP3 ADD SLOAD DUP2 MSTORE POP POP DUP2 MSTORE PUSH1 0x20 ADD SWAP1 PUSH1 0x1 ADD SWAP1 PUSH2 0x14C JUMP JUMPDEST POP POP POP POP SWAP1 POP SWAP2 SWAP1 POP JUMP JUMPDEST PUSH1 0x60 PUSH1 0x0 DUP1 CALLER PUSH20 0xFFFFFFFFFFFFFFFFFFFFFFFFFFFFFFFFFFFFFFFF AND PUSH20 0xFFFFFFFFFFFFFFFFFFFFFFFFFFFFFFFFFFFFFFFF AND DUP2 MSTORE PUSH1 0x20 ADD SWAP1 DUP2 MSTORE PUSH1 0x20 ADD PUSH1 0x0 KECCAK256 DUP1 SLOAD DUP1 PUSH1 0x20 MUL PUSH1 0x20 ADD PUSH1 0x40 MLOAD SWAP1 DUP2 ADD PUSH1 0x40 MSTORE DUP1 SWAP3 SWAP2 SWAP1 DUP2 DUP2 MSTORE PUSH1 0x20 ADD PUSH1 0x0 SWAP1 JUMPDEST DUP3 DUP3 LT ISZERO PUSH2 0x59B JUMPI DUP4 DUP3 SWAP1 PUSH1 0x0 MSTORE PUSH1 0x20 PUSH1 0x0 KECCAK256 SWAP1 PUSH1 0x4 MUL ADD PUSH1 0x40 MLOAD DUP1 PUSH1 0x80 ADD PUSH1 0x40 MSTORE SWAP1 DUP2 PUSH1 0x0 DUP3 ADD DUP1 SLOAD PUSH2 0x3DC SWAP1 PUSH2 0xEAD JUMP JUMPDEST DUP1 PUSH1 0x1F ADD PUSH1 0x20 DUP1 SWAP2 DIV MUL PUSH1 0x20 ADD PUSH1 0x40 MLOAD SWAP1 DUP2 ADD PUSH1 0x40 MSTORE DUP1 SWAP3 SWAP2 SWAP1 DUP2 DUP2 MSTORE PUSH1 0x20 ADD DUP3 DUP1 SLOAD PUSH2 0x408 SWAP1 PUSH2 0xEAD JUMP JUMPDEST DUP1 ISZERO PUSH2 0x455 JUMPI DUP1 PUSH1 0x1F LT PUSH2 0x42A JUMPI PUSH2 0x100 DUP1 DUP4 SLOAD DIV MUL DUP4 MSTORE SWAP2 PUSH1 0x20 ADD SWAP2 PUSH2 0x455 JUMP JUMPDEST DUP3 ADD SWAP2 SWAP1 PUSH1 0x0 MSTORE PUSH1 0x20 PUSH1 0x0 KECCAK256 SWAP1 JUMPDEST DUP2 SLOAD DUP2 MSTORE SWAP1 PUSH1 0x1 ADD SWAP1 PUSH1 0x20 ADD DUP1 DUP4 GT PUSH2 0x438 JUMPI DUP3 SWAP1 SUB PUSH1 0x1F AND DUP3 ADD SWAP2 JUMPDEST POP POP POP POP POP DUP2 MSTORE PUSH1 0x20 ADD PUSH1 0x1 DUP3 ADD DUP1 SLOAD PUSH2 0x46E SWAP1 PUSH2 0xEAD JUMP JUMPDEST DUP1 PUSH1 0x1F ADD PUSH1 0x20 DUP1 SWAP2 DIV MUL PUSH1 0x20 ADD PUSH1 0x40 MLOAD SWAP1 DUP2 ADD PUSH1 0x40 MSTORE DUP1 SWAP3 SWAP2 SWAP1 DUP2 DUP2 MSTORE PUSH1 0x20 ADD DUP3 DUP1 SLOAD PUSH2 0x49A SWAP1 PUSH2 0xEAD JUMP JUMPDEST DUP1 ISZERO PUSH2 0x4E7 JUMPI DUP1 PUSH1 0x1F LT PUSH2 0x4BC JUMPI PUSH2 0x100 DUP1 DUP4 SLOAD DIV MUL DUP4 MSTORE SWAP2 PUSH1 0x20 ADD SWAP2 PUSH2 0x4E7 JUMP JUMPDEST DUP3 ADD SWAP2 SWAP1 PUSH1 0x0 MSTORE PUSH1 0x20 PUSH1 0x0 KECCAK256 SWAP1 JUMPDEST DUP2 SLOAD DUP2 MSTORE SWAP1 PUSH1 0x1 ADD SWAP1 PUSH1 0x20 ADD DUP1 DUP4 GT PUSH2 0x4CA JUMPI DUP3 SWAP1 SUB PUSH1 0x1F AND DUP3 ADD SWAP2 JUMPDEST POP POP POP POP POP DUP2 MSTORE PUSH1 0x20 ADD PUSH1 0x2 DUP3 ADD DUP1 SLOAD PUSH2 0x500 SWAP1 PUSH2 0xEAD JUMP JUMPDEST DUP1 PUSH1 0x1F ADD PUSH1 0x20 DUP1 SWAP2 DIV MUL PUSH1 0x20 ADD PUSH1 0x40 MLOAD SWAP1 DUP2 ADD PUSH1 0x40 MSTORE DUP1 SWAP3 SWAP2 SWAP1 DUP2 DUP2 MSTORE PUSH1 0x20 ADD DUP3 DUP1 SLOAD PUSH2 0x52C SWAP1 PUSH2 0xEAD JUMP JUMPDEST DUP1 ISZERO PUSH2 0x579 JUMPI DUP1 PUSH1 0x1F LT PUSH2 0x54E JUMPI PUSH2 0x100 DUP1 DUP4 SLOAD DIV MUL DUP4 MSTORE SWAP2 PUSH1 0x20 ADD SWAP2 PUSH2 0x579 JUMP JUMPDEST DUP3 ADD SWAP2 SWAP1 PUSH1 0x0 MSTORE PUSH1 0x20 PUSH1 0x0 KECCAK256 SWAP1 JUMPDEST DUP2 SLOAD DUP2 MSTORE SWAP1 PUSH1 0x1 ADD SWAP1 PUSH1 0x20 ADD DUP1 DUP4 GT PUSH2 0x55C JUMPI DUP3 SWAP1 SUB PUSH1 0x1F AND DUP3 ADD SWAP2 JUMPDEST POP POP POP POP POP DUP2 MSTORE PUSH1 0x20 ADD PUSH1 0x3 DUP3 ADD SLOAD DUP2 MSTORE POP POP DUP2 MSTORE PUSH1 0x20 ADD SWAP1 PUSH1 0x1 ADD SWAP1 PUSH2 0x3A9 JUMP JUMPDEST POP POP POP POP SWAP1 POP SWAP1 JUMP JUMPDEST PUSH1 0x0 DUP1 CALLER PUSH20 0xFFFFFFFFFFFFFFFFFFFFFFFFFFFFFFFFFFFFFFFF AND PUSH20 0xFFFFFFFFFFFFFFFFFFFFFFFFFFFFFFFFFFFFFFFF AND DUP2 MSTORE PUSH1 0x20 ADD SWAP1 DUP2 MSTORE PUSH1 0x20 ADD PUSH1 0x0 KECCAK256 DUP1 SLOAD SWAP1 POP DUP6 LT PUSH2 0x629 JUMPI DUP5 PUSH1 0x40 MLOAD PUSH32 0x40C901CE00000000000000000000000000000000000000000000000000000000 DUP2 MSTORE PUSH1 0x4 ADD PUSH2 0x620 SWAP2 SWAP1 PUSH2 0xEED JUMP JUMPDEST PUSH1 0x40 MLOAD DUP1 SWAP2 SUB SWAP1 REVERT JUMPDEST PUSH1 0x40 MLOAD DUP1 PUSH1 0x80 ADD PUSH1 0x40 MSTORE DUP1 DUP6 DUP2 MSTORE PUSH1 0x20 ADD DUP5 DUP2 MSTORE PUSH1 0x20 ADD DUP4 DUP2 MSTORE PUSH1 0x20 ADD DUP3 DUP2 MSTORE POP PUSH1 0x0 DUP1 CALLER PUSH20 0xFFFFFFFFFFFFFFFFFFFFFFFFFFFFFFFFFFFFFFFF AND PUSH20 0xFFFFFFFFFFFFFFFFFFFFFFFFFFFFFFFFFFFFFFFF AND DUP2 MSTORE PUSH1 0x20 ADD SWAP1 DUP2 MSTORE PUSH1 0x20 ADD PUSH1 0x0 KECCAK256 DUP7 DUP2 SLOAD DUP2 LT PUSH2 0x69A JUMPI PUSH2 0x699 PUSH2 0xF08 JUMP JUMPDEST JUMPDEST SWAP1 PUSH1 0x0 MSTORE PUSH1 0x20 PUSH1 0x0 KECCAK256 SWAP1 PUSH1 0x4 MUL ADD PUSH1 0x0 DUP3 ADD MLOAD DUP2 PUSH1 0x0 ADD SWAP1 DUP2 PUSH2 0x6BD SWAP2 SWAP1 PUSH2 0x10E3 JUMP JUMPDEST POP PUSH1 0x20 DUP3 ADD MLOAD DUP2 PUSH1 0x1 ADD SWAP1 DUP2 PUSH2 0x6D3 SWAP2 SWAP1 PUSH2 0x10E3 JUMP JUMPDEST POP PUSH1 0x40 DUP3 ADD MLOAD DUP2 PUSH1 0x2 ADD SWAP1 DUP2 PUSH2 0x6E9 SWAP2 SWAP1 PUSH2 0x10E3 JUMP JUMPDEST POP PUSH1 0x60 DUP3 ADD MLOAD DUP2 PUSH1 0x3 ADD SSTORE SWAP1 POP POP POP POP POP POP POP JUMP JUMPDEST PUSH1 0x0 DUP1 CALLER PUSH20 0xFFFFFFFFFFFFFFFFFFFFFFFFFFFFFFFFFFFFFFFF AND PUSH20 0xFFFFFFFFFFFFFFFFFFFFFFFFFFFFFFFFFFFFFFFF AND DUP2 MSTORE PUSH1 0x20 ADD SWAP1 DUP2 MSTORE PUSH1 0x20 ADD PUSH1 0x0 KECCAK256 PUSH1 0x0 PUSH2 0x748 SWAP2 SWAP1 PUSH2 0x826 JUMP JUMPDEST JUMP JUMPDEST PUSH1 0x0 DUP1 CALLER PUSH20 0xFFFFFFFFFFFFFFFFFFFFFFFFFFFFFFFFFFFFFFFF AND PUSH20 0xFFFFFFFFFFFFFFFFFFFFFFFFFFFFFFFFFFFFFFFF AND DUP2 MSTORE PUSH1 0x20 ADD SWAP1 DUP2 MSTORE PUSH1 0x20 ADD PUSH1 0x0 KECCAK256 PUSH1 0x40 MLOAD DUP1 PUSH1 0x80 ADD PUSH1 0x40 MSTORE DUP1 DUP7 DUP2 MSTORE PUSH1 0x20 ADD DUP6 DUP2 MSTORE PUSH1 0x20 ADD DUP5 DUP2 MSTORE PUSH1 0x20 ADD DUP4 DUP2 MSTORE POP SWAP1 DUP1 PUSH1 0x1 DUP2 SLOAD ADD DUP1 DUP3 SSTORE DUP1 SWAP2 POP POP PUSH1 0x1 SWAP1 SUB SWAP1 PUSH1 0x0 MSTORE PUSH1 0x20 PUSH1 0x0 KECCAK256 SWAP1 PUSH1 0x4 MUL ADD PUSH1 0x0 SWAP1 SWAP2 SWAP1 SWAP2 SWAP1 SWAP2 POP PUSH1 0x0 DUP3 ADD MLOAD DUP2 PUSH1 0x0 ADD SWAP1 DUP2 PUSH2 0x7E7 SWAP2 SWAP1 PUSH2 0x10E3 JUMP JUMPDEST POP PUSH1 0x20 DUP3 ADD MLOAD DUP2 PUSH1 0x1 ADD SWAP1 DUP2 PUSH2 0x7FD SWAP2 SWAP1 PUSH2 0x10E3 JUMP JUMPDEST POP PUSH1 0x40 DUP3 ADD MLOAD DUP2 PUSH1 0x2 ADD SWAP1 DUP2 PUSH2 0x813 SWAP2 SWAP1 PUSH2 0x10E3 JUMP JUMPDEST POP PUSH1 0x60 DUP3 ADD MLOAD DUP2 PUSH1 0x3 ADD SSTORE POP POP POP POP POP POP JUMP JUMPDEST POP DUP1 SLOAD PUSH1 0x0 DUP3 SSTORE PUSH1 0x4 MUL SWAP1 PUSH1 0x0 MSTORE PUSH1 0x20 PUSH1 0x0 KECCAK256 SWAP1 DUP2 ADD SWAP1 PUSH2 0x847 SWAP2 SWAP1 PUSH2 0x84A JUMP JUMPDEST POP JUMP JUMPDEST JUMPDEST DUP1 DUP3 GT ISZERO PUSH2 0x895 JUMPI PUSH1 0x0 DUP1 DUP3 ADD PUSH1 0x0 PUSH2 0x864 SWAP2 SWAP1 PUSH2 0x899 JUMP JUMPDEST PUSH1 0x1 DUP3 ADD PUSH1 0x0 PUSH2 0x874 SWAP2 SWAP1 PUSH2 0x899 JUMP JUMPDEST PUSH1 0x2 DUP3 ADD PUSH1 0x0 PUSH2 0x884 SWAP2 SWAP1 PUSH2 0x899 JUMP JUMPDEST PUSH1 0x3 DUP3 ADD PUSH1 0x0 SWAP1 SSTORE POP PUSH1 0x4 ADD PUSH2 0x84B JUMP JUMPDEST POP SWAP1 JUMP JUMPDEST POP DUP1 SLOAD PUSH2 0x8A5 SWAP1 PUSH2 0xEAD JUMP JUMPDEST PUSH1 0x0 DUP3 SSTORE DUP1 PUSH1 0x1F LT PUSH2 0x8B7 JUMPI POP PUSH2 0x8D6 JUMP JUMPDEST PUSH1 0x1F ADD PUSH1 0x20 SWAP1 DIV SWAP1 PUSH1 0x0 MSTORE PUSH1 0x20 PUSH1 0x0 KECCAK256 SWAP1 DUP2 ADD SWAP1 PUSH2 0x8D5 SWAP2 SWAP1 PUSH2 0x8D9 JUMP JUMPDEST JUMPDEST POP JUMP JUMPDEST JUMPDEST DUP1 DUP3 GT ISZERO PUSH2 0x8F2 JUMPI PUSH1 0x0 DUP2 PUSH1 0x0 SWAP1 SSTORE POP PUSH1 0x1 ADD PUSH2 0x8DA JUMP JUMPDEST POP SWAP1 JUMP JUMPDEST PUSH1 0x0 PUSH1 0x40 MLOAD SWAP1 POP SWAP1 JUMP JUMPDEST PUSH1 0x0 DUP1 REVERT JUMPDEST PUSH1 0x0 DUP1 REVERT JUMPDEST PUSH1 0x0 PUSH20 0xFFFFFFFFFFFFFFFFFFFFFFFFFFFFFFFFFFFFFFFF DUP3 AND SWAP1 POP SWAP2 SWAP1 POP JUMP JUMPDEST PUSH1 0x0 PUSH2 0x935 DUP3 PUSH2 0x90A JUMP JUMPDEST SWAP1 POP SWAP2 SWAP1 POP JUMP JUMPDEST PUSH2 0x945 DUP2 PUSH2 0x92A JUMP JUMPDEST DUP2 EQ PUSH2 0x950 JUMPI PUSH1 0x0 DUP1 REVERT JUMPDEST POP JUMP JUMPDEST PUSH1 0x0 DUP2 CALLDATALOAD SWAP1 POP PUSH2 0x962 DUP2 PUSH2 0x93C JUMP JUMPDEST SWAP3 SWAP2 POP POP JUMP JUMPDEST PUSH1 0x0 PUSH1 0x20 DUP3 DUP5 SUB SLT ISZERO PUSH2 0x97E JUMPI PUSH2 0x97D PUSH2 0x900 JUMP JUMPDEST JUMPDEST PUSH1 0x0 PUSH2 0x98C DUP5 DUP3 DUP6 ADD PUSH2 0x953 JUMP JUMPDEST SWAP2 POP POP SWAP3 SWAP2 POP POP JUMP JUMPDEST PUSH1 0x0 DUP2 MLOAD SWAP1 POP SWAP2 SWAP1 POP JUMP JUMPDEST PUSH1 0x0 DUP3 DUP3 MSTORE PUSH1 0x20 DUP3 ADD SWAP1 POP SWAP3 SWAP2 POP POP JUMP JUMPDEST PUSH1 0x0 DUP2 SWAP1 POP PUSH1 0x20 DUP3 ADD SWAP1 POP SWAP2 SWAP1 POP JUMP JUMPDEST PUSH1 0x0 DUP2 MLOAD SWAP1 POP SWAP2 SWAP1 POP JUMP JUMPDEST PUSH1 0x0 DUP3 DUP3 MSTORE PUSH1 0x20 DUP3 ADD SWAP1 POP SWAP3 SWAP2 POP POP JUMP JUMPDEST PUSH1 0x0 JUMPDEST DUP4 DUP2 LT ISZERO PUSH2 0x9FB JUMPI DUP1 DUP3 ADD MLOAD DUP2 DUP5 ADD MSTORE PUSH1 0x20 DUP2 ADD SWAP1 POP PUSH2 0x9E0 JUMP JUMPDEST PUSH1 0x0 DUP5 DUP5 ADD MSTORE POP POP POP POP JUMP JUMPDEST PUSH1 0x0 PUSH1 0x1F NOT PUSH1 0x1F DUP4 ADD AND SWAP1 POP SWAP2 SWAP1 POP JUMP JUMPDEST PUSH1 0x0 PUSH2 0xA23 DUP3 PUSH2 0x9C1 JUMP JUMPDEST PUSH2 0xA2D DUP2 DUP6 PUSH2 0x9CC JUMP JUMPDEST SWAP4 POP PUSH2 0xA3D DUP2 DUP6 PUSH1 0x20 DUP7 ADD PUSH2 0x9DD JUMP JUMPDEST PUSH2 0xA46 DUP2 PUSH2 0xA07 JUMP JUMPDEST DUP5 ADD SWAP2 POP POP SWAP3 SWAP2 POP POP JUMP JUMPDEST PUSH1 0x0 DUP2 SWAP1 POP SWAP2 SWAP1 POP JUMP JUMPDEST PUSH2 0xA64 DUP2 PUSH2 0xA51 JUMP JUMPDEST DUP3 MSTORE POP POP JUMP JUMPDEST PUSH1 0x0 PUSH1 0x80 DUP4 ADD PUSH1 0x0 DUP4 ADD MLOAD DUP5 DUP3 SUB PUSH1 0x0 DUP7 ADD MSTORE PUSH2 0xA87 DUP3 DUP3 PUSH2 0xA18 JUMP JUMPDEST SWAP2 POP POP PUSH1 0x20 DUP4 ADD MLOAD DUP5 DUP3 SUB PUSH1 0x20 DUP7 ADD MSTORE PUSH2 0xAA1 DUP3 DUP3 PUSH2 0xA18 JUMP JUMPDEST SWAP2 POP POP PUSH1 0x40 DUP4 ADD MLOAD DUP5 DUP3 SUB PUSH1 0x40 DUP7 ADD MSTORE PUSH2 0xABB DUP3 DUP3 PUSH2 0xA18 JUMP JUMPDEST SWAP2 POP POP PUSH1 0x60 DUP4 ADD MLOAD PUSH2 0xAD0 PUSH1 0x60 DUP7 ADD DUP3 PUSH2 0xA5B JUMP JUMPDEST POP DUP1 SWAP2 POP POP SWAP3 SWAP2 POP POP JUMP JUMPDEST PUSH1 0x0 PUSH2 0xAE7 DUP4 DUP4 PUSH2 0xA6A JUMP JUMPDEST SWAP1 POP SWAP3 SWAP2 POP POP JUMP JUMPDEST PUSH1 0x0 PUSH1 0x20 DUP3 ADD SWAP1 POP SWAP2 SWAP1 POP JUMP JUMPDEST PUSH1 0x0 PUSH2 0xB07 DUP3 PUSH2 0x995 JUMP JUMPDEST PUSH2 0xB11 DUP2 DUP6 PUSH2 0x9A0 JUMP JUMPDEST SWAP4 POP DUP4 PUSH1 0x20 DUP3 MUL DUP6 ADD PUSH2 0xB23 DUP6 PUSH2 0x9B1 JUMP JUMPDEST DUP1 PUSH1 0x0 JUMPDEST DUP6 DUP2 LT ISZERO PUSH2 0xB5F JUMPI DUP5 DUP5 SUB DUP10 MSTORE DUP2 MLOAD PUSH2 0xB40 DUP6 DUP3 PUSH2 0xADB JUMP JUMPDEST SWAP5 POP PUSH2 0xB4B DUP4 PUSH2 0xAEF JUMP JUMPDEST SWAP3 POP PUSH1 0x20 DUP11 ADD SWAP10 POP POP PUSH1 0x1 DUP2 ADD SWAP1 POP PUSH2 0xB27 JUMP JUMPDEST POP DUP3 SWAP8 POP DUP8 SWAP6 POP POP POP POP POP POP SWAP3 SWAP2 POP POP JUMP JUMPDEST PUSH1 0x0 PUSH1 0x20 DUP3 ADD SWAP1 POP DUP2 DUP2 SUB PUSH1 0x0 DUP4 ADD MSTORE PUSH2 0xB8B DUP2 DUP5 PUSH2 0xAFC JUMP JUMPDEST SWAP1 POP SWAP3 SWAP2 POP POP JUMP JUMPDEST PUSH2 0xB9C DUP2 PUSH2 0xA51 JUMP JUMPDEST DUP2 EQ PUSH2 0xBA7 JUMPI PUSH1 0x0 DUP1 REVERT JUMPDEST POP JUMP JUMPDEST PUSH1 0x0 DUP2 CALLDATALOAD SWAP1 POP PUSH2 0xBB9 DUP2 PUSH2 0xB93 JUMP JUMPDEST SWAP3 SWAP2 POP POP JUMP JUMPDEST PUSH1 0x0 DUP1 REVERT JUMPDEST PUSH1 0x0 DUP1 REVERT JUMPDEST PUSH32 0x4E487B7100000000000000000000000000000000000000000000000000000000 PUSH1 0x0 MSTORE PUSH1 0x41 PUSH1 0x4 MSTORE PUSH1 0x24 PUSH1 0x0 REVERT JUMPDEST PUSH2 0xC01 DUP3 PUSH2 0xA07 JUMP JUMPDEST DUP2 ADD DUP2 DUP2 LT PUSH8 0xFFFFFFFFFFFFFFFF DUP3 GT OR ISZERO PUSH2 0xC20 JUMPI PUSH2 0xC1F PUSH2 0xBC9 JUMP JUMPDEST JUMPDEST DUP1 PUSH1 0x40 MSTORE POP POP POP JUMP JUMPDEST PUSH1 0x0 PUSH2 0xC33 PUSH2 0x8F6 JUMP JUMPDEST SWAP1 POP PUSH2 0xC3F DUP3 DUP3 PUSH2 0xBF8 JUMP JUMPDEST SWAP2 SWAP1 POP JUMP JUMPDEST PUSH1 0x0 PUSH8 0xFFFFFFFFFFFFFFFF DUP3 GT ISZERO PUSH2 0xC5F JUMPI PUSH2 0xC5E PUSH2 0xBC9 JUMP JUMPDEST JUMPDEST PUSH2 0xC68 DUP3 PUSH2 0xA07 JUMP JUMPDEST SWAP1 POP PUSH1 0x20 DUP2 ADD SWAP1 POP SWAP2 SWAP1 POP JUMP JUMPDEST DUP3 DUP2 DUP4 CALLDATACOPY PUSH1 0x0 DUP4 DUP4 ADD MSTORE POP POP POP JUMP JUMPDEST PUSH1 0x0 PUSH2 0xC97 PUSH2 0xC92 DUP5 PUSH2 0xC44 JUMP JUMPDEST PUSH2 0xC29 JUMP JUMPDEST SWAP1 POP DUP3 DUP2 MSTORE PUSH1 0x20 DUP2 ADD DUP5 DUP5 DUP5 ADD GT ISZERO PUSH2 0xCB3 JUMPI PUSH2 0xCB2 PUSH2 0xBC4 JUMP JUMPDEST JUMPDEST PUSH2 0xCBE DUP5 DUP3 DUP6 PUSH2 0xC75 JUMP JUMPDEST POP SWAP4 SWAP3 POP POP POP JUMP JUMPDEST PUSH1 0x0 DUP3 PUSH1 0x1F DUP4 ADD SLT PUSH2 0xCDB JUMPI PUSH2 0xCDA PUSH2 0xBBF JUMP JUMPDEST JUMPDEST DUP2 CALLDATALOAD PUSH2 0xCEB DUP5 DUP3 PUSH1 0x20 DUP7 ADD PUSH2 0xC84 JUMP JUMPDEST SWAP2 POP POP SWAP3 SWAP2 POP POP JUMP JUMPDEST PUSH1 0x0 DUP1 PUSH1 0x0 DUP1 PUSH1 0x0 PUSH1 0xA0 DUP7 DUP9 SUB SLT ISZERO PUSH2 0xD10 JUMPI PUSH2 0xD0F PUSH2 0x900 JUMP JUMPDEST JUMPDEST PUSH1 0x0 PUSH2 0xD1E DUP9 DUP3 DUP10 ADD PUSH2 0xBAA JUMP JUMPDEST SWAP6 POP POP PUSH1 0x20 DUP7 ADD CALLDATALOAD PUSH8 0xFFFFFFFFFFFFFFFF DUP2 GT ISZERO PUSH2 0xD3F JUMPI PUSH2 0xD3E PUSH2 0x905 JUMP JUMPDEST JUMPDEST PUSH2 0xD4B DUP9 DUP3 DUP10 ADD PUSH2 0xCC6 JUMP JUMPDEST SWAP5 POP POP PUSH1 0x40 DUP7 ADD CALLDATALOAD PUSH8 0xFFFFFFFFFFFFFFFF DUP2 GT ISZERO PUSH2 0xD6C JUMPI PUSH2 0xD6B PUSH2 0x905 JUMP JUMPDEST JUMPDEST PUSH2 0xD78 DUP9 DUP3 DUP10 ADD PUSH2 0xCC6 JUMP JUMPDEST SWAP4 POP POP PUSH1 0x60 DUP7 ADD CALLDATALOAD PUSH8 0xFFFFFFFFFFFFFFFF DUP2 GT ISZERO PUSH2 0xD99 JUMPI PUSH2 0xD98 PUSH2 0x905 JUMP JUMPDEST JUMPDEST PUSH2 0xDA5 DUP9 DUP3 DUP10 ADD PUSH2 0xCC6 JUMP JUMPDEST SWAP3 POP POP PUSH1 0x80 PUSH2 0xDB6 DUP9 DUP3 DUP10 ADD PUSH2 0xBAA JUMP JUMPDEST SWAP2 POP POP SWAP3 SWAP6 POP SWAP3 SWAP6 SWAP1 SWAP4 POP JUMP JUMPDEST PUSH1 0x0 DUP1 PUSH1 0x0 DUP1 PUSH1 0x80 DUP6 DUP8 SUB SLT ISZERO PUSH2 0xDDD JUMPI PUSH2 0xDDC PUSH2 0x900 JUMP JUMPDEST JUMPDEST PUSH1 0x0 DUP6 ADD CALLDATALOAD PUSH8 0xFFFFFFFFFFFFFFFF DUP2 GT ISZERO PUSH2 0xDFB JUMPI PUSH2 0xDFA PUSH2 0x905 JUMP JUMPDEST JUMPDEST PUSH2 0xE07 DUP8 DUP3 DUP9 ADD PUSH2 0xCC6 JUMP JUMPDEST SWAP5 POP POP PUSH1 0x20 DUP6 ADD CALLDATALOAD PUSH8 0xFFFFFFFFFFFFFFFF DUP2 GT ISZERO PUSH2 0xE28 JUMPI PUSH2 0xE27 PUSH2 0x905 JUMP JUMPDEST JUMPDEST PUSH2 0xE34 DUP8 DUP3 DUP9 ADD PUSH2 0xCC6 JUMP JUMPDEST SWAP4 POP POP PUSH1 0x40 DUP6 ADD CALLDATALOAD PUSH8 0xFFFFFFFFFFFFFFFF DUP2 GT ISZERO PUSH2 0xE55 JUMPI PUSH2 0xE54 PUSH2 0x905 JUMP JUMPDEST JUMPDEST PUSH2 0xE61 DUP8 DUP3 DUP9 ADD PUSH2 0xCC6 JUMP JUMPDEST SWAP3 POP POP PUSH1 0x60 PUSH2 0xE72 DUP8 DUP3 DUP9 ADD PUSH2 0xBAA JUMP JUMPDEST SWAP2 POP POP SWAP3 SWAP6 SWAP2 SWAP5 POP SWAP3 POP JUMP JUMPDEST PUSH32 0x4E487B7100000000000000000000000000000000000000000000000000000000 PUSH1 0x0 MSTORE PUSH1 0x22 PUSH1 0x4 MSTORE PUSH1 0x24 PUSH1 0x0 REVERT JUMPDEST PUSH1 0x0 PUSH1 0x2 DUP3 DIV SWAP1 POP PUSH1 0x1 DUP3 AND DUP1 PUSH2 0xEC5 JUMPI PUSH1 0x7F DUP3 AND SWAP2 POP JUMPDEST PUSH1 0x20 DUP3 LT DUP2 SUB PUSH2 0xED8 JUMPI PUSH2 0xED7 PUSH2 0xE7E JUMP JUMPDEST JUMPDEST POP SWAP2 SWAP1 POP JUMP JUMPDEST PUSH2 0xEE7 DUP2 PUSH2 0xA51 JUMP JUMPDEST DUP3 MSTORE POP POP JUMP JUMPDEST PUSH1 0x0 PUSH1 0x20 DUP3 ADD SWAP1 POP PUSH2 0xF02 PUSH1 0x0 DUP4 ADD DUP5 PUSH2 0xEDE JUMP JUMPDEST SWAP3 SWAP2 POP POP JUMP JUMPDEST PUSH32 0x4E487B7100000000000000000000000000000000000000000000000000000000 PUSH1 0x0 MSTORE PUSH1 0x32 PUSH1 0x4 MSTORE PUSH1 0x24 PUSH1 0x0 REVERT JUMPDEST PUSH1 0x0 DUP2 SWAP1 POP DUP2 PUSH1 0x0 MSTORE PUSH1 0x20 PUSH1 0x0 KECCAK256 SWAP1 POP SWAP2 SWAP1 POP JUMP JUMPDEST PUSH1 0x0 PUSH1 0x20 PUSH1 0x1F DUP4 ADD DIV SWAP1 POP SWAP2 SWAP1 POP JUMP JUMPDEST PUSH1 0x0 DUP3 DUP3 SHL SWAP1 POP SWAP3 SWAP2 POP POP JUMP JUMPDEST PUSH1 0x0 PUSH1 0x8 DUP4 MUL PUSH2 0xF99 PUSH32 0xFFFFFFFFFFFFFFFFFFFFFFFFFFFFFFFFFFFFFFFFFFFFFFFFFFFFFFFFFFFFFFFF DUP3 PUSH2 0xF5C JUMP JUMPDEST PUSH2 0xFA3 DUP7 DUP4 PUSH2 0xF5C JUMP JUMPDEST SWAP6 POP DUP1 NOT DUP5 AND SWAP4 POP DUP1 DUP7 AND DUP5 OR SWAP3 POP POP POP SWAP4 SWAP3 POP POP POP JUMP JUMPDEST PUSH1 0x0 DUP2 SWAP1 POP SWAP2 SWAP1 POP JUMP JUMPDEST PUSH1 0x0 PUSH2 0xFE0 PUSH2 0xFDB PUSH2 0xFD6 DUP5 PUSH2 0xA51 JUMP JUMPDEST PUSH2 0xFBB JUMP JUMPDEST PUSH2 0xA51 JUMP JUMPDEST SWAP1 POP SWAP2 SWAP1 POP JUMP JUMPDEST PUSH1 0x0 DUP2 SWAP1 POP SWAP2 SWAP1 POP JUMP JUMPDEST PUSH2 0xFFA DUP4 PUSH2 0xFC5 JUMP JUMPDEST PUSH2 0x100E PUSH2 0x1006 DUP3 PUSH2 0xFE7 JUMP JUMPDEST DUP5 DUP5 SLOAD PUSH2 0xF69 JUMP JUMPDEST DUP3 SSTORE POP POP POP POP JUMP JUMPDEST PUSH1 0x0 SWAP1 JUMP JUMPDEST PUSH2 0x1023 PUSH2 0x1016 JUMP JUMPDEST PUSH2 0x102E DUP2 DUP5 DUP5 PUSH2 0xFF1 JUMP JUMPDEST POP POP POP JUMP JUMPDEST JUMPDEST DUP2 DUP2 LT ISZERO PUSH2 0x1052 JUMPI PUSH2 0x1047 PUSH1 0x0 DUP3 PUSH2 0x101B JUMP JUMPDEST PUSH1 0x1 DUP2 ADD SWAP1 POP PUSH2 0x1034 JUMP JUMPDEST POP POP JUMP JUMPDEST PUSH1 0x1F DUP3 GT ISZERO PUSH2 0x1097 JUMPI PUSH2 0x1068 DUP2 PUSH2 0xF37 JUMP JUMPDEST PUSH2 0x1071 DUP5 PUSH2 0xF4C JUMP JUMPDEST DUP2 ADD PUSH1 0x20 DUP6 LT ISZERO PUSH2 0x1080 JUMPI DUP2 SWAP1 POP JUMPDEST PUSH2 0x1094 PUSH2 0x108C DUP6 PUSH2 0xF4C JUMP JUMPDEST DUP4 ADD DUP3 PUSH2 0x1033 JUMP JUMPDEST POP POP JUMPDEST POP POP POP JUMP JUMPDEST PUSH1 0x0 DUP3 DUP3 SHR SWAP1 POP SWAP3 SWAP2 POP POP JUMP JUMPDEST PUSH1 0x0 PUSH2 0x10BA PUSH1 0x0 NOT DUP5 PUSH1 0x8 MUL PUSH2 0x109C JUMP JUMPDEST NOT DUP1 DUP4 AND SWAP2 POP POP SWAP3 SWAP2 POP POP JUMP JUMPDEST PUSH1 0x0 PUSH2 0x10D3 DUP4 DUP4 PUSH2 0x10A9 JUMP JUMPDEST SWAP2 POP DUP3 PUSH1 0x2 MUL DUP3 OR SWAP1 POP SWAP3 SWAP2 POP POP JUMP JUMPDEST PUSH2 0x10EC DUP3 PUSH2 0x9C1 JUMP JUMPDEST PUSH8 0xFFFFFFFFFFFFFFFF DUP2 GT ISZERO PUSH2 0x1105 JUMPI PUSH2 0x1104 PUSH2 0xBC9 JUMP JUMPDEST JUMPDEST PUSH2 0x110F DUP3 SLOAD PUSH2 0xEAD JUMP JUMPDEST PUSH2 0x111A DUP3 DUP3 DUP6 PUSH2 0x1056 JUMP JUMPDEST PUSH1 0x0 PUSH1 0x20 SWAP1 POP PUSH1 0x1F DUP4 GT PUSH1 0x1 DUP2 EQ PUSH2 0x114D JUMPI PUSH1 0x0 DUP5 ISZERO PUSH2 0x113B JUMPI DUP3 DUP8 ADD MLOAD SWAP1 POP JUMPDEST PUSH2 0x1145 DUP6 DUP3 PUSH2 0x10C7 JUMP JUMPDEST DUP7 SSTORE POP PUSH2 0x11AD JUMP JUMPDEST PUSH1 0x1F NOT DUP5 AND PUSH2 0x115B DUP7 PUSH2 0xF37 JUMP JUMPDEST PUSH1 0x0 JUMPDEST DUP3 DUP2 LT ISZERO PUSH2 0x1183 JUMPI DUP5 DUP10 ADD MLOAD DUP3 SSTORE PUSH1 0x1 DUP3 ADD SWAP2 POP PUSH1 0x20 DUP6 ADD SWAP5 POP PUSH1 0x20 DUP2 ADD SWAP1 POP PUSH2 0x115E JUMP JUMPDEST DUP7 DUP4 LT ISZERO PUSH2 0x11A0 JUMPI DUP5 DUP10 ADD MLOAD PUSH2 0x119C PUSH1 0x1F DUP10 AND DUP3 PUSH2 0x10A9 JUMP JUMPDEST DUP4 SSTORE POP JUMPDEST PUSH1 0x1 PUSH1 0x2 DUP9 MUL ADD DUP9 SSTORE POP POP POP JUMPDEST POP POP POP POP POP POP JUMP INVALID LOG2 PUSH5 0x6970667358 0x22 SLT KECCAK256 0xE4 EQ TIMESTAMP MLOAD 0xEA SAR CALLVALUE 0x5D ADD 0xC7 0xBE 0x5E 0xEC CODECOPY 0xDA SHR CALLVALUE 0x23 DUP2 0xD6 0xF6 0xAE 0xC2 0x29 CALLCODE 0xA9 PUSH28 0xEBCEE71DB464736F6C63430008110033000000000000000000000000 "
				},
				"gasEstimates": {
					"creation": {
						"codeDepositCost": "917400",
						"executionCost": "955",
						"totalCost": "918355"
					},
					"external": {
						"addCar(string,string,string,uint256)": "infinite",
						"getMyCars()": "infinite",
						"getUserCars(address)": "infinite",
						"resetMyGarage()": "infinite",
						"updateCar(uint256,string,string,string,uint256)": "infinite"
					}
				},
				"methodIdentifiers": {
					"addCar(string,string,string,uint256)": "d2d50bd8",
					"getMyCars()": "341fa05d",
					"getUserCars(address)": "2698286c",
					"resetMyGarage()": "6dcb7896",
					"updateCar(uint256,string,string,string,uint256)": "4cd1ed3d"
				}
			},
			"storageLayout": {
				"storage": [
					{
						"astId": 8,
						"contract": "contracts/9_Structs.sol:Garage_Manager",
						"label": "garages",
						"offset": 0,
						"slot": "0",
						"type": "t_mapping(t_address,t_array(t_struct(Car)17_storage)dyn_storage)"
					}
				],
				"types": {
					"t_address": {
						"encoding": "inplace",
						"label": "address",
						"numberOfBytes": "20"
					},
					"t_array(t_struct(Car)17_storage)dyn_storage": {
						"base": "t_struct(Car)17_storage",
						"encoding": "dynamic_array",
						"label": "struct Garage_Manager.Car[]",
						"numberOfBytes": "32"
					},
					"t_mapping(t_address,t_array(t_struct(Car)17_storage)dyn_storage)": {
						"encoding": "mapping",
						"key": "t_address",
						"label": "mapping(address => struct Garage_Manager.Car[])",
						"numberOfBytes": "32",
						"value": "t_array(t_struct(Car)17_storage)dyn_storage"
					},
					"t_string_storage": {
						"encoding": "bytes",
						"label": "string",
						"numberOfBytes": "32"
					},
					"t_struct(Car)17_storage": {
						"encoding": "inplace",
						"label": "struct Garage_Manager.Car",
						"members": [
							{
								"astId": 10,
								"contract": "contracts/9_Structs.sol:Garage_Manager",
								"label": "make",
								"offset": 0,
								"slot": "0",
								"type": "t_string_storage"
							},
							{
								"astId": 12,
								"contract": "contracts/9_Structs.sol:Garage_Manager",
								"label": "model",
								"offset": 0,
								"slot": "1",
								"type": "t_string_storage"
							},
							{
								"astId": 14,
								"contract": "contracts/9_Structs.sol:Garage_Manager",
								"label": "color",
								"offset": 0,
								"slot": "2",
								"type": "t_string_storage"
							},
							{
								"astId": 16,
								"contract": "contracts/9_Structs.sol:Garage_Manager",
								"label": "numberOfDoors",
								"offset": 0,
								"slot": "3",
								"type": "t_uint256"
							}
						],
						"numberOfBytes": "128"
					},
					"t_uint256": {
						"encoding": "inplace",
						"label": "uint256",
						"numberOfBytes": "32"
					}
				}
			},
			"userdoc": {
				"kind": "user",
				"methods": {},
				"version": 1
			}
		}
	}
}