{
	"contracts/17_ERC20.sol": {
		"WeightedVoting": {
			"abi": [
				{
					"inputs": [
						{
							"internalType": "string",
							"name": "_name",
							"type": "string"
						},
						{
							"internalType": "string",
							"name": "_symbol",
							"type": "string"
						}
					],
					"stateMutability": "nonpayable",
					"type": "constructor"
				},
				{
					"inputs": [],
					"name": "AllTokensClaimed",
					"type": "error"
				},
				{
					"inputs": [],
					"name": "AlreadyVoted",
					"type": "error"
				},
				{
					"inputs": [
						{
							"internalType": "address",
							"name": "spender",
							"type": "address"
						},
						{
							"internalType": "uint256",
							"name": "allowance",
							"type": "uint256"
						},
						{
							"internalType": "uint256",
							"name": "needed",
							"type": "uint256"
						}
					],
					"name": "ERC20InsufficientAllowance",
					"type": "error"
				},
				{
					"inputs": [
						{
							"internalType": "address",
							"name": "sender",
							"type": "address"
						},
						{
							"internalType": "uint256",
							"name": "balance",
							"type": "uint256"
						},
						{
							"internalType": "uint256",
							"name": "needed",
							"type": "uint256"
						}
					],
					"name": "ERC20InsufficientBalance",
					"type": "error"
				},
				{
					"inputs": [
						{
							"internalType": "address",
							"name": "approver",
							"type": "address"
						}
					],
					"name": "ERC20InvalidApprover",
					"type": "error"
				},
				{
					"inputs": [
						{
							"internalType": "address",
							"name": "receiver",
							"type": "address"
						}
					],
					"name": "ERC20InvalidReceiver",
					"type": "error"
				},
				{
					"inputs": [
						{
							"internalType": "address",
							"name": "sender",
							"type": "address"
						}
					],
					"name": "ERC20InvalidSender",
					"type": "error"
				},
				{
					"inputs": [
						{
							"internalType": "address",
							"name": "spender",
							"type": "address"
						}
					],
					"name": "ERC20InvalidSpender",
					"type": "error"
				},
				{
					"inputs": [],
					"name": "NoTokensHeld",
					"type": "error"
				},
				{
					"inputs": [],
					"name": "QuorumTooHigh",
					"type": "error"
				},
				{
					"inputs": [],
					"name": "TokensClaimed",
					"type": "error"
				},
				{
					"inputs": [],
					"name": "VotingClosed",
					"type": "error"
				},
				{
					"anonymous": false,
					"inputs": [
						{
							"indexed": true,
							"internalType": "address",
							"name": "owner",
							"type": "address"
						},
						{
							"indexed": true,
							"internalType": "address",
							"name": "spender",
							"type": "address"
						},
						{
							"indexed": false,
							"internalType": "uint256",
							"name": "value",
							"type": "uint256"
						}
					],
					"name": "Approval",
					"type": "event"
				},
				{
					"anonymous": false,
					"inputs": [
						{
							"indexed": true,
							"internalType": "address",
							"name": "from",
							"type": "address"
						},
						{
							"indexed": true,
							"internalType": "address",
							"name": "to",
							"type": "address"
						},
						{
							"indexed": false,
							"internalType": "uint256",
							"name": "value",
							"type": "uint256"
						}
					],
					"name": "Transfer",
					"type": "event"
				},
				{
					"inputs": [
						{
							"internalType": "address",
							"name": "owner",
							"type": "address"
						},
						{
							"internalType": "address",
							"name": "spender",
							"type": "address"
						}
					],
					"name": "allowance",
					"outputs": [
						{
							"internalType": "uint256",
							"name": "",
							"type": "uint256"
						}
					],
					"stateMutability": "view",
					"type": "function"
				},
				{
					"inputs": [
						{
							"internalType": "address",
							"name": "spender",
							"type": "address"
						},
						{
							"internalType": "uint256",
							"name": "value",
							"type": "uint256"
						}
					],
					"name": "approve",
					"outputs": [
						{
							"internalType": "bool",
							"name": "",
							"type": "bool"
						}
					],
					"stateMutability": "nonpayable",
					"type": "function"
				},
				{
					"inputs": [
						{
							"internalType": "address",
							"name": "account",
							"type": "address"
						}
					],
					"name": "balanceOf",
					"outputs": [
						{
							"internalType": "uint256",
							"name": "",
							"type": "uint256"
						}
					],
					"stateMutability": "view",
					"type": "function"
				},
				{
					"inputs": [],
					"name": "claim",
					"outputs": [],
					"stateMutability": "nonpayable",
					"type": "function"
				},
				{
					"inputs": [],
					"name": "claimAmount",
					"outputs": [
						{
							"internalType": "uint256",
							"name": "",
							"type": "uint256"
						}
					],
					"stateMutability": "view",
					"type": "function"
				},
				{
					"inputs": [
						{
							"internalType": "string",
							"name": "_issueDesc",
							"type": "string"
						},
						{
							"internalType": "uint256",
							"name": "_quorum",
							"type": "uint256"
						}
					],
					"name": "createIssue",
					"outputs": [
						{
							"internalType": "uint256",
							"name": "",
							"type": "uint256"
						}
					],
					"stateMutability": "nonpayable",
					"type": "function"
				},
				{
					"inputs": [],
					"name": "decimals",
					"outputs": [
						{
							"internalType": "uint8",
							"name": "",
							"type": "uint8"
						}
					],
					"stateMutability": "view",
					"type": "function"
				},
				{
					"inputs": [
						{
							"internalType": "uint256",
							"name": "_issueId",
							"type": "uint256"
						}
					],
					"name": "getIssue",
					"outputs": [
						{
							"components": [
								{
									"internalType": "address[]",
									"name": "voters",
									"type": "address[]"
								},
								{
									"internalType": "string",
									"name": "issueDesc",
									"type": "string"
								},
								{
									"internalType": "uint256",
									"name": "quorum",
									"type": "uint256"
								},
								{
									"internalType": "uint256",
									"name": "totalVotes",
									"type": "uint256"
								},
								{
									"internalType": "uint256",
									"name": "votesFor",
									"type": "uint256"
								},
								{
									"internalType": "uint256",
									"name": "votesAgainst",
									"type": "uint256"
								},
								{
									"internalType": "uint256",
									"name": "votesAbstain",
									"type": "uint256"
								},
								{
									"internalType": "bool",
									"name": "passed",
									"type": "bool"
								},
								{
									"internalType": "bool",
									"name": "closed",
									"type": "bool"
								}
							],
							"internalType": "struct WeightedVoting.SerializedIssue",
							"name": "",
							"type": "tuple"
						}
					],
					"stateMutability": "view",
					"type": "function"
				},
				{
					"inputs": [],
					"name": "maxSupply",
					"outputs": [
						{
							"internalType": "uint256",
							"name": "",
							"type": "uint256"
						}
					],
					"stateMutability": "view",
					"type": "function"
				},
				{
					"inputs": [],
					"name": "name",
					"outputs": [
						{
							"internalType": "string",
							"name": "",
							"type": "string"
						}
					],
					"stateMutability": "view",
					"type": "function"
				},
				{
					"inputs": [],
					"name": "symbol",
					"outputs": [
						{
							"internalType": "string",
							"name": "",
							"type": "string"
						}
					],
					"stateMutability": "view",
					"type": "function"
				},
				{
					"inputs": [
						{
							"internalType": "address",
							"name": "",
							"type": "address"
						}
					],
					"name": "tokensClaimed",
					"outputs": [
						{
							"internalType": "bool",
							"name": "",
							"type": "bool"
						}
					],
					"stateMutability": "view",
					"type": "function"
				},
				{
					"inputs": [],
					"name": "totalSupply",
					"outputs": [
						{
							"internalType": "uint256",
							"name": "",
							"type": "uint256"
						}
					],
					"stateMutability": "view",
					"type": "function"
				},
				{
					"inputs": [
						{
							"internalType": "address",
							"name": "to",
							"type": "address"
						},
						{
							"internalType": "uint256",
							"name": "value",
							"type": "uint256"
						}
					],
					"name": "transfer",
					"outputs": [
						{
							"internalType": "bool",
							"name": "",
							"type": "bool"
						}
					],
					"stateMutability": "nonpayable",
					"type": "function"
				},
				{
					"inputs": [
						{
							"internalType": "address",
							"name": "from",
							"type": "address"
						},
						{
							"internalType": "address",
							"name": "to",
							"type": "address"
						},
						{
							"internalType": "uint256",
							"name": "value",
							"type": "uint256"
						}
					],
					"name": "transferFrom",
					"outputs": [
						{
							"internalType": "bool",
							"name": "",
							"type": "bool"
						}
					],
					"stateMutability": "nonpayable",
					"type": "function"
				},
				{
					"inputs": [
						{
							"internalType": "uint256",
							"name": "_issueId",
							"type": "uint256"
						},
						{
							"internalType": "enum WeightedVoting.Vote",
							"name": "_vote",
							"type": "uint8"
						}
					],
					"name": "vote",
					"outputs": [],
					"stateMutability": "nonpayable",
					"type": "function"
				}
			],
			"devdoc": {
				"errors": {
					"ERC20InsufficientAllowance(address,uint256,uint256)": [
						{
							"details": "Indicates a failure with the `spender`’s `allowance`. Used in transfers.",
							"params": {
								"allowance": "Amount of tokens a `spender` is allowed to operate with.",
								"needed": "Minimum amount required to perform a transfer.",
								"spender": "Address that may be allowed to operate on tokens without being their owner."
							}
						}
					],
					"ERC20InsufficientBalance(address,uint256,uint256)": [
						{
							"details": "Indicates an error related to the current `balance` of a `sender`. Used in transfers.",
							"params": {
								"balance": "Current balance for the interacting account.",
								"needed": "Minimum amount required to perform a transfer.",
								"sender": "Address whose tokens are being transferred."
							}
						}
					],
					"ERC20InvalidApprover(address)": [
						{
							"details": "Indicates a failure with the `approver` of a token to be approved. Used in approvals.",
							"params": {
								"approver": "Address initiating an approval operation."
							}
						}
					],
					"ERC20InvalidReceiver(address)": [
						{
							"details": "Indicates a failure with the token `receiver`. Used in transfers.",
							"params": {
								"receiver": "Address to which tokens are being transferred."
							}
						}
					],
					"ERC20InvalidSender(address)": [
						{
							"details": "Indicates a failure with the token `sender`. Used in transfers.",
							"params": {
								"sender": "Address whose tokens are being transferred."
							}
						}
					],
					"ERC20InvalidSpender(address)": [
						{
							"details": "Indicates a failure with the `spender` to be approved. Used in approvals.",
							"params": {
								"spender": "Address that may be allowed to operate on tokens without being their owner."
							}
						}
					]
				},
				"events": {
					"Approval(address,address,uint256)": {
						"details": "Emitted when the allowance of a `spender` for an `owner` is set by a call to {approve}. `value` is the new allowance."
					},
					"Transfer(address,address,uint256)": {
						"details": "Emitted when `value` tokens are moved from one account (`from`) to another (`to`). Note that `value` may be zero."
					}
				},
				"kind": "dev",
				"methods": {
					"allowance(address,address)": {
						"details": "See {IERC20-allowance}."
					},
					"approve(address,uint256)": {
						"details": "See {IERC20-approve}. NOTE: If `value` is the maximum `uint256`, the allowance is not updated on `transferFrom`. This is semantically equivalent to an infinite approval. Requirements: - `spender` cannot be the zero address."
					},
					"balanceOf(address)": {
						"details": "See {IERC20-balanceOf}."
					},
					"decimals()": {
						"details": "Returns the number of decimals used to get its user representation. For example, if `decimals` equals `2`, a balance of `505` tokens should be displayed to a user as `5.05` (`505 / 10 ** 2`). Tokens usually opt for a value of 18, imitating the relationship between Ether and Wei. This is the default value returned by this function, unless it's overridden. NOTE: This information is only used for _display_ purposes: it in no way affects any of the arithmetic of the contract, including {IERC20-balanceOf} and {IERC20-transfer}."
					},
					"name()": {
						"details": "Returns the name of the token."
					},
					"symbol()": {
						"details": "Returns the symbol of the token, usually a shorter version of the name."
					},
					"totalSupply()": {
						"details": "See {IERC20-totalSupply}."
					},
					"transfer(address,uint256)": {
						"details": "See {IERC20-transfer}. Requirements: - `to` cannot be the zero address. - the caller must have a balance of at least `value`."
					},
					"transferFrom(address,address,uint256)": {
						"details": "See {IERC20-transferFrom}. Emits an {Approval} event indicating the updated allowance. This is not required by the EIP. See the note at the beginning of {ERC20}. NOTE: Does not update the allowance if the current allowance is the maximum `uint256`. Requirements: - `from` and `to` cannot be the zero address. - `from` must have a balance of at least `value`. - the caller must have allowance for ``from``'s tokens of at least `value`."
					}
				},
				"version": 1
			},
			"evm": {
				"assembly": "    /* \"contracts/17_ERC20.sol\":322:6262  contract WeightedVoting is ERC20 {... */\n  mstore(0x40, 0x80)\n    /* \"contracts/17_ERC20.sol\":362:391  string private salt = \"CHASE\" */\n  mload(0x40)\n  dup1\n  0x40\n  add\n  0x40\n  mstore\n  dup1\n  0x05\n  dup2\n  mstore\n  0x20\n  add\n  0x4348415345000000000000000000000000000000000000000000000000000000\n  dup2\n  mstore\n  pop\n  0x05\n  swap1\n  dup2\n  tag_1\n  swap2\n  swap1\n  tag_2\n  jump\t// in\ntag_1:\n  pop\n    /* \"contracts/17_ERC20.sol\":2619:2626  1000000 */\n  0x0f4240\n    /* \"contracts/17_ERC20.sol\":2592:2626  uint256 public maxSupply = 1000000 */\n  0x08\n  sstore\n    /* \"contracts/17_ERC20.sol\":2690:2693  100 */\n  0x64\n    /* \"contracts/17_ERC20.sol\":2661:2693  uint256 public claimAmount = 100 */\n  0x09\n  sstore\n    /* \"contracts/17_ERC20.sol\":2853:3025  constructor(string memory _name, string memory _symbol)... */\n  callvalue\n  dup1\n  iszero\n  tag_3\n  jumpi\n  0x00\n  dup1\n  revert\ntag_3:\n  pop\n  mload(0x40)\n  sub(codesize, bytecodeSize)\n  dup1\n  bytecodeSize\n  dup4\n  codecopy\n  dup2\n  dup2\n  add\n  0x40\n  mstore\n  dup2\n  add\n  swap1\n  tag_4\n  swap2\n  swap1\n  tag_5\n  jump\t// in\ntag_4:\n    /* \"contracts/17_ERC20.sol\":2924:2929  _name */\n  dup2\n    /* \"contracts/17_ERC20.sol\":2931:2938  _symbol */\n  dup2\n    /* \"@openzeppelin/contracts/token/ERC20/ERC20.sol\":1970:1975  name_ */\n  dup2\n    /* \"@openzeppelin/contracts/token/ERC20/ERC20.sol\":1962:1967  _name */\n  0x03\n    /* \"@openzeppelin/contracts/token/ERC20/ERC20.sol\":1962:1975  _name = name_ */\n  swap1\n  dup2\n  tag_9\n  swap2\n  swap1\n  tag_2\n  jump\t// in\ntag_9:\n  pop\n    /* \"@openzeppelin/contracts/token/ERC20/ERC20.sol\":1995:2002  symbol_ */\n  dup1\n    /* \"@openzeppelin/contracts/token/ERC20/ERC20.sol\":1985:1992  _symbol */\n  0x04\n    /* \"@openzeppelin/contracts/token/ERC20/ERC20.sol\":1985:2002  _symbol = symbol_ */\n  swap1\n  dup2\n  tag_10\n  swap2\n  swap1\n  tag_2\n  jump\t// in\ntag_10:\n  pop\n    /* \"@openzeppelin/contracts/token/ERC20/ERC20.sol\":1896:2009  constructor(string memory name_, string memory symbol_) {... */\n  pop\n  pop\n    /* \"contracts/17_ERC20.sol\":2956:2962  issues */\n  0x06\n    /* \"contracts/17_ERC20.sol\":2956:2969  issues.push() */\n  0x01\n  dup2\n  0x01\n  dup2\n  sload\n  add\n  dup1\n  dup3\n  sstore\n  dup1\n  swap2\n  pop\n  pop\n  sub\n  swap1\n  0x00\n  mstore\n  keccak256(0x00, 0x20)\n  swap1\n  pop\n  pop\n    /* \"contracts/17_ERC20.sol\":2853:3025  constructor(string memory _name, string memory _symbol)... */\n  pop\n  pop\n    /* \"contracts/17_ERC20.sol\":322:6262  contract WeightedVoting is ERC20 {... */\n  jump(tag_13)\n    /* \"#utility.yul\":7:106   */\ntag_14:\n    /* \"#utility.yul\":59:65   */\n  0x00\n    /* \"#utility.yul\":93:98   */\n  dup2\n    /* \"#utility.yul\":87:99   */\n  mload\n    /* \"#utility.yul\":77:99   */\n  swap1\n  pop\n    /* \"#utility.yul\":7:106   */\n  swap2\n  swap1\n  pop\n  jump\t// out\n    /* \"#utility.yul\":112:292   */\ntag_15:\n    /* \"#utility.yul\":160:237   */\n  0x4e487b7100000000000000000000000000000000000000000000000000000000\n    /* \"#utility.yul\":157:158   */\n  0x00\n    /* \"#utility.yul\":150:238   */\n  mstore\n    /* \"#utility.yul\":257:261   */\n  0x41\n    /* \"#utility.yul\":254:255   */\n  0x04\n    /* \"#utility.yul\":247:262   */\n  mstore\n    /* \"#utility.yul\":281:285   */\n  0x24\n    /* \"#utility.yul\":278:279   */\n  0x00\n    /* \"#utility.yul\":271:286   */\n  revert\n    /* \"#utility.yul\":298:478   */\ntag_16:\n    /* \"#utility.yul\":346:423   */\n  0x4e487b7100000000000000000000000000000000000000000000000000000000\n    /* \"#utility.yul\":343:344   */\n  0x00\n    /* \"#utility.yul\":336:424   */\n  mstore\n    /* \"#utility.yul\":443:447   */\n  0x22\n    /* \"#utility.yul\":440:441   */\n  0x04\n    /* \"#utility.yul\":433:448   */\n  mstore\n    /* \"#utility.yul\":467:471   */\n  0x24\n    /* \"#utility.yul\":464:465   */\n  0x00\n    /* \"#utility.yul\":457:472   */\n  revert\n    /* \"#utility.yul\":484:804   */\ntag_17:\n    /* \"#utility.yul\":528:534   */\n  0x00\n    /* \"#utility.yul\":565:566   */\n  0x02\n    /* \"#utility.yul\":559:563   */\n  dup3\n    /* \"#utility.yul\":555:567   */\n  div\n    /* \"#utility.yul\":545:567   */\n  swap1\n  pop\n    /* \"#utility.yul\":612:613   */\n  0x01\n    /* \"#utility.yul\":606:610   */\n  dup3\n    /* \"#utility.yul\":602:614   */\n  and\n    /* \"#utility.yul\":633:651   */\n  dup1\n    /* \"#utility.yul\":623:704   */\n  tag_51\n  jumpi\n    /* \"#utility.yul\":689:693   */\n  0x7f\n    /* \"#utility.yul\":681:687   */\n  dup3\n    /* \"#utility.yul\":677:694   */\n  and\n    /* \"#utility.yul\":667:694   */\n  swap2\n  pop\n    /* \"#utility.yul\":623:704   */\ntag_51:\n    /* \"#utility.yul\":751:753   */\n  0x20\n    /* \"#utility.yul\":743:749   */\n  dup3\n    /* \"#utility.yul\":740:754   */\n  lt\n    /* \"#utility.yul\":720:738   */\n  dup2\n    /* \"#utility.yul\":717:755   */\n  sub\n    /* \"#utility.yul\":714:798   */\n  tag_52\n  jumpi\n    /* \"#utility.yul\":770:788   */\n  tag_53\n  tag_16\n  jump\t// in\ntag_53:\n    /* \"#utility.yul\":714:798   */\ntag_52:\n    /* \"#utility.yul\":535:804   */\n  pop\n    /* \"#utility.yul\":484:804   */\n  swap2\n  swap1\n  pop\n  jump\t// out\n    /* \"#utility.yul\":810:951   */\ntag_18:\n    /* \"#utility.yul\":859:863   */\n  0x00\n    /* \"#utility.yul\":882:885   */\n  dup2\n    /* \"#utility.yul\":874:885   */\n  swap1\n  pop\n    /* \"#utility.yul\":905:908   */\n  dup2\n    /* \"#utility.yul\":902:903   */\n  0x00\n    /* \"#utility.yul\":895:909   */\n  mstore\n    /* \"#utility.yul\":939:943   */\n  0x20\n    /* \"#utility.yul\":936:937   */\n  0x00\n    /* \"#utility.yul\":926:944   */\n  keccak256\n    /* \"#utility.yul\":918:944   */\n  swap1\n  pop\n    /* \"#utility.yul\":810:951   */\n  swap2\n  swap1\n  pop\n  jump\t// out\n    /* \"#utility.yul\":957:1050   */\ntag_19:\n    /* \"#utility.yul\":994:1000   */\n  0x00\n    /* \"#utility.yul\":1041:1043   */\n  0x20\n    /* \"#utility.yul\":1036:1038   */\n  0x1f\n    /* \"#utility.yul\":1029:1034   */\n  dup4\n    /* \"#utility.yul\":1025:1039   */\n  add\n    /* \"#utility.yul\":1021:1044   */\n  div\n    /* \"#utility.yul\":1011:1044   */\n  swap1\n  pop\n    /* \"#utility.yul\":957:1050   */\n  swap2\n  swap1\n  pop\n  jump\t// out\n    /* \"#utility.yul\":1056:1163   */\ntag_20:\n    /* \"#utility.yul\":1100:1108   */\n  0x00\n    /* \"#utility.yul\":1150:1155   */\n  dup3\n    /* \"#utility.yul\":1144:1148   */\n  dup3\n    /* \"#utility.yul\":1140:1156   */\n  shl\n    /* \"#utility.yul\":1119:1156   */\n  swap1\n  pop\n    /* \"#utility.yul\":1056:1163   */\n  swap3\n  swap2\n  pop\n  pop\n  jump\t// out\n    /* \"#utility.yul\":1169:1562   */\ntag_21:\n    /* \"#utility.yul\":1238:1244   */\n  0x00\n    /* \"#utility.yul\":1288:1289   */\n  0x08\n    /* \"#utility.yul\":1276:1286   */\n  dup4\n    /* \"#utility.yul\":1272:1290   */\n  mul\n    /* \"#utility.yul\":1311:1408   */\n  tag_58\n    /* \"#utility.yul\":1341:1407   */\n  0xffffffffffffffffffffffffffffffffffffffffffffffffffffffffffffffff\n    /* \"#utility.yul\":1330:1339   */\n  dup3\n    /* \"#utility.yul\":1311:1408   */\n  tag_20\n  jump\t// in\ntag_58:\n    /* \"#utility.yul\":1429:1468   */\n  tag_59\n    /* \"#utility.yul\":1459:1467   */\n  dup7\n    /* \"#utility.yul\":1448:1457   */\n  dup4\n    /* \"#utility.yul\":1429:1468   */\n  tag_20\n  jump\t// in\ntag_59:\n    /* \"#utility.yul\":1417:1468   */\n  swap6\n  pop\n    /* \"#utility.yul\":1501:1505   */\n  dup1\n    /* \"#utility.yul\":1497:1506   */\n  not\n    /* \"#utility.yul\":1490:1495   */\n  dup5\n    /* \"#utility.yul\":1486:1507   */\n  and\n    /* \"#utility.yul\":1477:1507   */\n  swap4\n  pop\n    /* \"#utility.yul\":1550:1554   */\n  dup1\n    /* \"#utility.yul\":1540:1548   */\n  dup7\n    /* \"#utility.yul\":1536:1555   */\n  and\n    /* \"#utility.yul\":1529:1534   */\n  dup5\n    /* \"#utility.yul\":1526:1556   */\n  or\n    /* \"#utility.yul\":1516:1556   */\n  swap3\n  pop\n    /* \"#utility.yul\":1245:1562   */\n  pop\n  pop\n    /* \"#utility.yul\":1169:1562   */\n  swap4\n  swap3\n  pop\n  pop\n  pop\n  jump\t// out\n    /* \"#utility.yul\":1568:1645   */\ntag_22:\n    /* \"#utility.yul\":1605:1612   */\n  0x00\n    /* \"#utility.yul\":1634:1639   */\n  dup2\n    /* \"#utility.yul\":1623:1639   */\n  swap1\n  pop\n    /* \"#utility.yul\":1568:1645   */\n  swap2\n  swap1\n  pop\n  jump\t// out\n    /* \"#utility.yul\":1651:1711   */\ntag_23:\n    /* \"#utility.yul\":1679:1682   */\n  0x00\n    /* \"#utility.yul\":1700:1705   */\n  dup2\n    /* \"#utility.yul\":1693:1705   */\n  swap1\n  pop\n    /* \"#utility.yul\":1651:1711   */\n  swap2\n  swap1\n  pop\n  jump\t// out\n    /* \"#utility.yul\":1717:1859   */\ntag_24:\n    /* \"#utility.yul\":1767:1776   */\n  0x00\n    /* \"#utility.yul\":1800:1853   */\n  tag_63\n    /* \"#utility.yul\":1818:1852   */\n  tag_64\n    /* \"#utility.yul\":1827:1851   */\n  tag_65\n    /* \"#utility.yul\":1845:1850   */\n  dup5\n    /* \"#utility.yul\":1827:1851   */\n  tag_22\n  jump\t// in\ntag_65:\n    /* \"#utility.yul\":1818:1852   */\n  tag_23\n  jump\t// in\ntag_64:\n    /* \"#utility.yul\":1800:1853   */\n  tag_22\n  jump\t// in\ntag_63:\n    /* \"#utility.yul\":1787:1853   */\n  swap1\n  pop\n    /* \"#utility.yul\":1717:1859   */\n  swap2\n  swap1\n  pop\n  jump\t// out\n    /* \"#utility.yul\":1865:1940   */\ntag_25:\n    /* \"#utility.yul\":1908:1911   */\n  0x00\n    /* \"#utility.yul\":1929:1934   */\n  dup2\n    /* \"#utility.yul\":1922:1934   */\n  swap1\n  pop\n    /* \"#utility.yul\":1865:1940   */\n  swap2\n  swap1\n  pop\n  jump\t// out\n    /* \"#utility.yul\":1946:2215   */\ntag_26:\n    /* \"#utility.yul\":2056:2095   */\n  tag_68\n    /* \"#utility.yul\":2087:2094   */\n  dup4\n    /* \"#utility.yul\":2056:2095   */\n  tag_24\n  jump\t// in\ntag_68:\n    /* \"#utility.yul\":2117:2208   */\n  tag_69\n    /* \"#utility.yul\":2166:2207   */\n  tag_70\n    /* \"#utility.yul\":2190:2206   */\n  dup3\n    /* \"#utility.yul\":2166:2207   */\n  tag_25\n  jump\t// in\ntag_70:\n    /* \"#utility.yul\":2158:2164   */\n  dup5\n    /* \"#utility.yul\":2151:2155   */\n  dup5\n    /* \"#utility.yul\":2145:2156   */\n  sload\n    /* \"#utility.yul\":2117:2208   */\n  tag_21\n  jump\t// in\ntag_69:\n    /* \"#utility.yul\":2111:2115   */\n  dup3\n    /* \"#utility.yul\":2104:2209   */\n  sstore\n    /* \"#utility.yul\":2022:2215   */\n  pop\n    /* \"#utility.yul\":1946:2215   */\n  pop\n  pop\n  pop\n  jump\t// out\n    /* \"#utility.yul\":2221:2294   */\ntag_27:\n    /* \"#utility.yul\":2266:2269   */\n  0x00\n    /* \"#utility.yul\":2221:2294   */\n  swap1\n  jump\t// out\n    /* \"#utility.yul\":2300:2489   */\ntag_28:\n    /* \"#utility.yul\":2377:2409   */\n  tag_73\n  tag_27\n  jump\t// in\ntag_73:\n    /* \"#utility.yul\":2418:2483   */\n  tag_74\n    /* \"#utility.yul\":2476:2482   */\n  dup2\n    /* \"#utility.yul\":2468:2474   */\n  dup5\n    /* \"#utility.yul\":2462:2466   */\n  dup5\n    /* \"#utility.yul\":2418:2483   */\n  tag_26\n  jump\t// in\ntag_74:\n    /* \"#utility.yul\":2353:2489   */\n  pop\n    /* \"#utility.yul\":2300:2489   */\n  pop\n  pop\n  jump\t// out\n    /* \"#utility.yul\":2495:2681   */\ntag_29:\n    /* \"#utility.yul\":2555:2675   */\ntag_76:\n    /* \"#utility.yul\":2572:2575   */\n  dup2\n    /* \"#utility.yul\":2565:2570   */\n  dup2\n    /* \"#utility.yul\":2562:2576   */\n  lt\n    /* \"#utility.yul\":2555:2675   */\n  iszero\n  tag_78\n  jumpi\n    /* \"#utility.yul\":2626:2665   */\n  tag_79\n    /* \"#utility.yul\":2663:2664   */\n  0x00\n    /* \"#utility.yul\":2656:2661   */\n  dup3\n    /* \"#utility.yul\":2626:2665   */\n  tag_28\n  jump\t// in\ntag_79:\n    /* \"#utility.yul\":2599:2600   */\n  0x01\n    /* \"#utility.yul\":2592:2597   */\n  dup2\n    /* \"#utility.yul\":2588:2601   */\n  add\n    /* \"#utility.yul\":2579:2601   */\n  swap1\n  pop\n    /* \"#utility.yul\":2555:2675   */\n  jump(tag_76)\ntag_78:\n    /* \"#utility.yul\":2495:2681   */\n  pop\n  pop\n  jump\t// out\n    /* \"#utility.yul\":2687:3230   */\ntag_30:\n    /* \"#utility.yul\":2788:2790   */\n  0x1f\n    /* \"#utility.yul\":2783:2786   */\n  dup3\n    /* \"#utility.yul\":2780:2791   */\n  gt\n    /* \"#utility.yul\":2777:3223   */\n  iszero\n  tag_81\n  jumpi\n    /* \"#utility.yul\":2822:2860   */\n  tag_82\n    /* \"#utility.yul\":2854:2859   */\n  dup2\n    /* \"#utility.yul\":2822:2860   */\n  tag_18\n  jump\t// in\ntag_82:\n    /* \"#utility.yul\":2906:2935   */\n  tag_83\n    /* \"#utility.yul\":2924:2934   */\n  dup5\n    /* \"#utility.yul\":2906:2935   */\n  tag_19\n  jump\t// in\ntag_83:\n    /* \"#utility.yul\":2896:2904   */\n  dup2\n    /* \"#utility.yul\":2892:2936   */\n  add\n    /* \"#utility.yul\":3089:3091   */\n  0x20\n    /* \"#utility.yul\":3077:3087   */\n  dup6\n    /* \"#utility.yul\":3074:3092   */\n  lt\n    /* \"#utility.yul\":3071:3120   */\n  iszero\n  tag_84\n  jumpi\n    /* \"#utility.yul\":3110:3118   */\n  dup2\n    /* \"#utility.yul\":3095:3118   */\n  swap1\n  pop\n    /* \"#utility.yul\":3071:3120   */\ntag_84:\n    /* \"#utility.yul\":3133:3213   */\n  tag_85\n    /* \"#utility.yul\":3189:3211   */\n  tag_86\n    /* \"#utility.yul\":3207:3210   */\n  dup6\n    /* \"#utility.yul\":3189:3211   */\n  tag_19\n  jump\t// in\ntag_86:\n    /* \"#utility.yul\":3179:3187   */\n  dup4\n    /* \"#utility.yul\":3175:3212   */\n  add\n    /* \"#utility.yul\":3162:3173   */\n  dup3\n    /* \"#utility.yul\":3133:3213   */\n  tag_29\n  jump\t// in\ntag_85:\n    /* \"#utility.yul\":2792:3223   */\n  pop\n  pop\n    /* \"#utility.yul\":2777:3223   */\ntag_81:\n    /* \"#utility.yul\":2687:3230   */\n  pop\n  pop\n  pop\n  jump\t// out\n    /* \"#utility.yul\":3236:3353   */\ntag_31:\n    /* \"#utility.yul\":3290:3298   */\n  0x00\n    /* \"#utility.yul\":3340:3345   */\n  dup3\n    /* \"#utility.yul\":3334:3338   */\n  dup3\n    /* \"#utility.yul\":3330:3346   */\n  shr\n    /* \"#utility.yul\":3309:3346   */\n  swap1\n  pop\n    /* \"#utility.yul\":3236:3353   */\n  swap3\n  swap2\n  pop\n  pop\n  jump\t// out\n    /* \"#utility.yul\":3359:3528   */\ntag_32:\n    /* \"#utility.yul\":3403:3409   */\n  0x00\n    /* \"#utility.yul\":3436:3487   */\n  tag_89\n    /* \"#utility.yul\":3484:3485   */\n  0x00\n    /* \"#utility.yul\":3480:3486   */\n  not\n    /* \"#utility.yul\":3472:3477   */\n  dup5\n    /* \"#utility.yul\":3469:3470   */\n  0x08\n    /* \"#utility.yul\":3465:3478   */\n  mul\n    /* \"#utility.yul\":3436:3487   */\n  tag_31\n  jump\t// in\ntag_89:\n    /* \"#utility.yul\":3432:3488   */\n  not\n    /* \"#utility.yul\":3517:3521   */\n  dup1\n    /* \"#utility.yul\":3511:3515   */\n  dup4\n    /* \"#utility.yul\":3507:3522   */\n  and\n    /* \"#utility.yul\":3497:3522   */\n  swap2\n  pop\n    /* \"#utility.yul\":3410:3528   */\n  pop\n    /* \"#utility.yul\":3359:3528   */\n  swap3\n  swap2\n  pop\n  pop\n  jump\t// out\n    /* \"#utility.yul\":3533:3828   */\ntag_33:\n    /* \"#utility.yul\":3609:3613   */\n  0x00\n    /* \"#utility.yul\":3755:3784   */\n  tag_91\n    /* \"#utility.yul\":3780:3783   */\n  dup4\n    /* \"#utility.yul\":3774:3778   */\n  dup4\n    /* \"#utility.yul\":3755:3784   */\n  tag_32\n  jump\t// in\ntag_91:\n    /* \"#utility.yul\":3747:3784   */\n  swap2\n  pop\n    /* \"#utility.yul\":3817:3820   */\n  dup3\n    /* \"#utility.yul\":3814:3815   */\n  0x02\n    /* \"#utility.yul\":3810:3821   */\n  mul\n    /* \"#utility.yul\":3804:3808   */\n  dup3\n    /* \"#utility.yul\":3801:3822   */\n  or\n    /* \"#utility.yul\":3793:3822   */\n  swap1\n  pop\n    /* \"#utility.yul\":3533:3828   */\n  swap3\n  swap2\n  pop\n  pop\n  jump\t// out\n    /* \"#utility.yul\":3833:5228   */\ntag_2:\n    /* \"#utility.yul\":3950:3987   */\n  tag_93\n    /* \"#utility.yul\":3983:3986   */\n  dup3\n    /* \"#utility.yul\":3950:3987   */\n  tag_14\n  jump\t// in\ntag_93:\n    /* \"#utility.yul\":4052:4070   */\n  0xffffffffffffffff\n    /* \"#utility.yul\":4044:4050   */\n  dup2\n    /* \"#utility.yul\":4041:4071   */\n  gt\n    /* \"#utility.yul\":4038:4094   */\n  iszero\n  tag_94\n  jumpi\n    /* \"#utility.yul\":4074:4092   */\n  tag_95\n  tag_15\n  jump\t// in\ntag_95:\n    /* \"#utility.yul\":4038:4094   */\ntag_94:\n    /* \"#utility.yul\":4118:4156   */\n  tag_96\n    /* \"#utility.yul\":4150:4154   */\n  dup3\n    /* \"#utility.yul\":4144:4155   */\n  sload\n    /* \"#utility.yul\":4118:4156   */\n  tag_17\n  jump\t// in\ntag_96:\n    /* \"#utility.yul\":4203:4270   */\n  tag_97\n    /* \"#utility.yul\":4263:4269   */\n  dup3\n    /* \"#utility.yul\":4255:4261   */\n  dup3\n    /* \"#utility.yul\":4249:4253   */\n  dup6\n    /* \"#utility.yul\":4203:4270   */\n  tag_30\n  jump\t// in\ntag_97:\n    /* \"#utility.yul\":4297:4298   */\n  0x00\n    /* \"#utility.yul\":4321:4325   */\n  0x20\n    /* \"#utility.yul\":4308:4325   */\n  swap1\n  pop\n    /* \"#utility.yul\":4353:4355   */\n  0x1f\n    /* \"#utility.yul\":4345:4351   */\n  dup4\n    /* \"#utility.yul\":4342:4356   */\n  gt\n    /* \"#utility.yul\":4370:4371   */\n  0x01\n    /* \"#utility.yul\":4365:4983   */\n  dup2\n  eq\n  tag_99\n  jumpi\n    /* \"#utility.yul\":5027:5028   */\n  0x00\n    /* \"#utility.yul\":5044:5050   */\n  dup5\n    /* \"#utility.yul\":5041:5118   */\n  iszero\n  tag_100\n  jumpi\n    /* \"#utility.yul\":5093:5102   */\n  dup3\n    /* \"#utility.yul\":5088:5091   */\n  dup8\n    /* \"#utility.yul\":5084:5103   */\n  add\n    /* \"#utility.yul\":5078:5104   */\n  mload\n    /* \"#utility.yul\":5069:5104   */\n  swap1\n  pop\n    /* \"#utility.yul\":5041:5118   */\ntag_100:\n    /* \"#utility.yul\":5144:5211   */\n  tag_101\n    /* \"#utility.yul\":5204:5210   */\n  dup6\n    /* \"#utility.yul\":5197:5202   */\n  dup3\n    /* \"#utility.yul\":5144:5211   */\n  tag_33\n  jump\t// in\ntag_101:\n    /* \"#utility.yul\":5138:5142   */\n  dup7\n    /* \"#utility.yul\":5131:5212   */\n  sstore\n    /* \"#utility.yul\":5000:5222   */\n  pop\n    /* \"#utility.yul\":4335:5222   */\n  jump(tag_98)\n    /* \"#utility.yul\":4365:4983   */\ntag_99:\n    /* \"#utility.yul\":4417:4421   */\n  0x1f\n    /* \"#utility.yul\":4413:4422   */\n  not\n    /* \"#utility.yul\":4405:4411   */\n  dup5\n    /* \"#utility.yul\":4401:4423   */\n  and\n    /* \"#utility.yul\":4451:4488   */\n  tag_102\n    /* \"#utility.yul\":4483:4487   */\n  dup7\n    /* \"#utility.yul\":4451:4488   */\n  tag_18\n  jump\t// in\ntag_102:\n    /* \"#utility.yul\":4510:4511   */\n  0x00\n    /* \"#utility.yul\":4524:4732   */\ntag_103:\n    /* \"#utility.yul\":4538:4545   */\n  dup3\n    /* \"#utility.yul\":4535:4536   */\n  dup2\n    /* \"#utility.yul\":4532:4546   */\n  lt\n    /* \"#utility.yul\":4524:4732   */\n  iszero\n  tag_105\n  jumpi\n    /* \"#utility.yul\":4617:4626   */\n  dup5\n    /* \"#utility.yul\":4612:4615   */\n  dup10\n    /* \"#utility.yul\":4608:4627   */\n  add\n    /* \"#utility.yul\":4602:4628   */\n  mload\n    /* \"#utility.yul\":4594:4600   */\n  dup3\n    /* \"#utility.yul\":4587:4629   */\n  sstore\n    /* \"#utility.yul\":4668:4669   */\n  0x01\n    /* \"#utility.yul\":4660:4666   */\n  dup3\n    /* \"#utility.yul\":4656:4670   */\n  add\n    /* \"#utility.yul\":4646:4670   */\n  swap2\n  pop\n    /* \"#utility.yul\":4715:4717   */\n  0x20\n    /* \"#utility.yul\":4704:4713   */\n  dup6\n    /* \"#utility.yul\":4700:4718   */\n  add\n    /* \"#utility.yul\":4687:4718   */\n  swap5\n  pop\n    /* \"#utility.yul\":4561:4565   */\n  0x20\n    /* \"#utility.yul\":4558:4559   */\n  dup2\n    /* \"#utility.yul\":4554:4566   */\n  add\n    /* \"#utility.yul\":4549:4566   */\n  swap1\n  pop\n    /* \"#utility.yul\":4524:4732   */\n  jump(tag_103)\ntag_105:\n    /* \"#utility.yul\":4760:4766   */\n  dup7\n    /* \"#utility.yul\":4751:4758   */\n  dup4\n    /* \"#utility.yul\":4748:4767   */\n  lt\n    /* \"#utility.yul\":4745:4924   */\n  iszero\n  tag_106\n  jumpi\n    /* \"#utility.yul\":4818:4827   */\n  dup5\n    /* \"#utility.yul\":4813:4816   */\n  dup10\n    /* \"#utility.yul\":4809:4828   */\n  add\n    /* \"#utility.yul\":4803:4829   */\n  mload\n    /* \"#utility.yul\":4861:4909   */\n  tag_107\n    /* \"#utility.yul\":4903:4907   */\n  0x1f\n    /* \"#utility.yul\":4895:4901   */\n  dup10\n    /* \"#utility.yul\":4891:4908   */\n  and\n    /* \"#utility.yul\":4880:4889   */\n  dup3\n    /* \"#utility.yul\":4861:4909   */\n  tag_32\n  jump\t// in\ntag_107:\n    /* \"#utility.yul\":4853:4859   */\n  dup4\n    /* \"#utility.yul\":4846:4910   */\n  sstore\n    /* \"#utility.yul\":4768:4924   */\n  pop\n    /* \"#utility.yul\":4745:4924   */\ntag_106:\n    /* \"#utility.yul\":4970:4971   */\n  0x01\n    /* \"#utility.yul\":4966:4967   */\n  0x02\n    /* \"#utility.yul\":4958:4964   */\n  dup9\n    /* \"#utility.yul\":4954:4968   */\n  mul\n    /* \"#utility.yul\":4950:4972   */\n  add\n    /* \"#utility.yul\":4944:4948   */\n  dup9\n    /* \"#utility.yul\":4937:4973   */\n  sstore\n    /* \"#utility.yul\":4372:4983   */\n  pop\n  pop\n  pop\n    /* \"#utility.yul\":4335:5222   */\ntag_98:\n  pop\n    /* \"#utility.yul\":3925:5228   */\n  pop\n  pop\n  pop\n    /* \"#utility.yul\":3833:5228   */\n  pop\n  pop\n  jump\t// out\n    /* \"#utility.yul\":5234:5309   */\ntag_34:\n    /* \"#utility.yul\":5267:5273   */\n  0x00\n    /* \"#utility.yul\":5300:5302   */\n  0x40\n    /* \"#utility.yul\":5294:5303   */\n  mload\n    /* \"#utility.yul\":5284:5303   */\n  swap1\n  pop\n    /* \"#utility.yul\":5234:5309   */\n  swap1\n  jump\t// out\n    /* \"#utility.yul\":5315:5432   */\ntag_35:\n    /* \"#utility.yul\":5424:5425   */\n  0x00\n    /* \"#utility.yul\":5421:5422   */\n  dup1\n    /* \"#utility.yul\":5414:5426   */\n  revert\n    /* \"#utility.yul\":5438:5555   */\ntag_36:\n    /* \"#utility.yul\":5547:5548   */\n  0x00\n    /* \"#utility.yul\":5544:5545   */\n  dup1\n    /* \"#utility.yul\":5537:5549   */\n  revert\n    /* \"#utility.yul\":5561:5678   */\ntag_37:\n    /* \"#utility.yul\":5670:5671   */\n  0x00\n    /* \"#utility.yul\":5667:5668   */\n  dup1\n    /* \"#utility.yul\":5660:5672   */\n  revert\n    /* \"#utility.yul\":5684:5801   */\ntag_38:\n    /* \"#utility.yul\":5793:5794   */\n  0x00\n    /* \"#utility.yul\":5790:5791   */\n  dup1\n    /* \"#utility.yul\":5783:5795   */\n  revert\n    /* \"#utility.yul\":5807:5909   */\ntag_39:\n    /* \"#utility.yul\":5848:5854   */\n  0x00\n    /* \"#utility.yul\":5899:5901   */\n  0x1f\n    /* \"#utility.yul\":5895:5902   */\n  not\n    /* \"#utility.yul\":5890:5892   */\n  0x1f\n    /* \"#utility.yul\":5883:5888   */\n  dup4\n    /* \"#utility.yul\":5879:5893   */\n  add\n    /* \"#utility.yul\":5875:5903   */\n  and\n    /* \"#utility.yul\":5865:5903   */\n  swap1\n  pop\n    /* \"#utility.yul\":5807:5909   */\n  swap2\n  swap1\n  pop\n  jump\t// out\n    /* \"#utility.yul\":5915:6196   */\ntag_40:\n    /* \"#utility.yul\":5998:6025   */\n  tag_115\n    /* \"#utility.yul\":6020:6024   */\n  dup3\n    /* \"#utility.yul\":5998:6025   */\n  tag_39\n  jump\t// in\ntag_115:\n    /* \"#utility.yul\":5990:5996   */\n  dup2\n    /* \"#utility.yul\":5986:6026   */\n  add\n    /* \"#utility.yul\":6128:6134   */\n  dup2\n    /* \"#utility.yul\":6116:6126   */\n  dup2\n    /* \"#utility.yul\":6113:6135   */\n  lt\n    /* \"#utility.yul\":6092:6110   */\n  0xffffffffffffffff\n    /* \"#utility.yul\":6080:6090   */\n  dup3\n    /* \"#utility.yul\":6077:6111   */\n  gt\n    /* \"#utility.yul\":6074:6136   */\n  or\n    /* \"#utility.yul\":6071:6159   */\n  iszero\n  tag_116\n  jumpi\n    /* \"#utility.yul\":6139:6157   */\n  tag_117\n  tag_15\n  jump\t// in\ntag_117:\n    /* \"#utility.yul\":6071:6159   */\ntag_116:\n    /* \"#utility.yul\":6179:6189   */\n  dup1\n    /* \"#utility.yul\":6175:6177   */\n  0x40\n    /* \"#utility.yul\":6168:6190   */\n  mstore\n    /* \"#utility.yul\":5958:6196   */\n  pop\n    /* \"#utility.yul\":5915:6196   */\n  pop\n  pop\n  jump\t// out\n    /* \"#utility.yul\":6202:6331   */\ntag_41:\n    /* \"#utility.yul\":6236:6242   */\n  0x00\n    /* \"#utility.yul\":6263:6283   */\n  tag_119\n  tag_34\n  jump\t// in\ntag_119:\n    /* \"#utility.yul\":6253:6283   */\n  swap1\n  pop\n    /* \"#utility.yul\":6292:6325   */\n  tag_120\n    /* \"#utility.yul\":6320:6324   */\n  dup3\n    /* \"#utility.yul\":6312:6318   */\n  dup3\n    /* \"#utility.yul\":6292:6325   */\n  tag_40\n  jump\t// in\ntag_120:\n    /* \"#utility.yul\":6202:6331   */\n  swap2\n  swap1\n  pop\n  jump\t// out\n    /* \"#utility.yul\":6337:6645   */\ntag_42:\n    /* \"#utility.yul\":6399:6403   */\n  0x00\n    /* \"#utility.yul\":6489:6507   */\n  0xffffffffffffffff\n    /* \"#utility.yul\":6481:6487   */\n  dup3\n    /* \"#utility.yul\":6478:6508   */\n  gt\n    /* \"#utility.yul\":6475:6531   */\n  iszero\n  tag_122\n  jumpi\n    /* \"#utility.yul\":6511:6529   */\n  tag_123\n  tag_15\n  jump\t// in\ntag_123:\n    /* \"#utility.yul\":6475:6531   */\ntag_122:\n    /* \"#utility.yul\":6549:6578   */\n  tag_124\n    /* \"#utility.yul\":6571:6577   */\n  dup3\n    /* \"#utility.yul\":6549:6578   */\n  tag_39\n  jump\t// in\ntag_124:\n    /* \"#utility.yul\":6541:6578   */\n  swap1\n  pop\n    /* \"#utility.yul\":6633:6637   */\n  0x20\n    /* \"#utility.yul\":6627:6631   */\n  dup2\n    /* \"#utility.yul\":6623:6638   */\n  add\n    /* \"#utility.yul\":6615:6638   */\n  swap1\n  pop\n    /* \"#utility.yul\":6337:6645   */\n  swap2\n  swap1\n  pop\n  jump\t// out\n    /* \"#utility.yul\":6651:6897   */\ntag_43:\n    /* \"#utility.yul\":6732:6733   */\n  0x00\n    /* \"#utility.yul\":6742:6855   */\ntag_126:\n    /* \"#utility.yul\":6756:6762   */\n  dup4\n    /* \"#utility.yul\":6753:6754   */\n  dup2\n    /* \"#utility.yul\":6750:6763   */\n  lt\n    /* \"#utility.yul\":6742:6855   */\n  iszero\n  tag_128\n  jumpi\n    /* \"#utility.yul\":6841:6842   */\n  dup1\n    /* \"#utility.yul\":6836:6839   */\n  dup3\n    /* \"#utility.yul\":6832:6843   */\n  add\n    /* \"#utility.yul\":6826:6844   */\n  mload\n    /* \"#utility.yul\":6822:6823   */\n  dup2\n    /* \"#utility.yul\":6817:6820   */\n  dup5\n    /* \"#utility.yul\":6813:6824   */\n  add\n    /* \"#utility.yul\":6806:6845   */\n  mstore\n    /* \"#utility.yul\":6778:6780   */\n  0x20\n    /* \"#utility.yul\":6775:6776   */\n  dup2\n    /* \"#utility.yul\":6771:6781   */\n  add\n    /* \"#utility.yul\":6766:6781   */\n  swap1\n  pop\n    /* \"#utility.yul\":6742:6855   */\n  jump(tag_126)\ntag_128:\n    /* \"#utility.yul\":6889:6890   */\n  0x00\n    /* \"#utility.yul\":6880:6886   */\n  dup5\n    /* \"#utility.yul\":6875:6878   */\n  dup5\n    /* \"#utility.yul\":6871:6887   */\n  add\n    /* \"#utility.yul\":6864:6891   */\n  mstore\n    /* \"#utility.yul\":6713:6897   */\n  pop\n    /* \"#utility.yul\":6651:6897   */\n  pop\n  pop\n  pop\n  jump\t// out\n    /* \"#utility.yul\":6903:7337   */\ntag_44:\n    /* \"#utility.yul\":6992:6997   */\n  0x00\n    /* \"#utility.yul\":7017:7083   */\n  tag_130\n    /* \"#utility.yul\":7033:7082   */\n  tag_131\n    /* \"#utility.yul\":7075:7081   */\n  dup5\n    /* \"#utility.yul\":7033:7082   */\n  tag_42\n  jump\t// in\ntag_131:\n    /* \"#utility.yul\":7017:7083   */\n  tag_41\n  jump\t// in\ntag_130:\n    /* \"#utility.yul\":7008:7083   */\n  swap1\n  pop\n    /* \"#utility.yul\":7106:7112   */\n  dup3\n    /* \"#utility.yul\":7099:7104   */\n  dup2\n    /* \"#utility.yul\":7092:7113   */\n  mstore\n    /* \"#utility.yul\":7144:7148   */\n  0x20\n    /* \"#utility.yul\":7137:7142   */\n  dup2\n    /* \"#utility.yul\":7133:7149   */\n  add\n    /* \"#utility.yul\":7182:7185   */\n  dup5\n    /* \"#utility.yul\":7173:7179   */\n  dup5\n    /* \"#utility.yul\":7168:7171   */\n  dup5\n    /* \"#utility.yul\":7164:7180   */\n  add\n    /* \"#utility.yul\":7161:7186   */\n  gt\n    /* \"#utility.yul\":7158:7270   */\n  iszero\n  tag_132\n  jumpi\n    /* \"#utility.yul\":7189:7268   */\n  tag_133\n  tag_38\n  jump\t// in\ntag_133:\n    /* \"#utility.yul\":7158:7270   */\ntag_132:\n    /* \"#utility.yul\":7279:7331   */\n  tag_134\n    /* \"#utility.yul\":7324:7330   */\n  dup5\n    /* \"#utility.yul\":7319:7322   */\n  dup3\n    /* \"#utility.yul\":7314:7317   */\n  dup6\n    /* \"#utility.yul\":7279:7331   */\n  tag_43\n  jump\t// in\ntag_134:\n    /* \"#utility.yul\":6998:7337   */\n  pop\n    /* \"#utility.yul\":6903:7337   */\n  swap4\n  swap3\n  pop\n  pop\n  pop\n  jump\t// out\n    /* \"#utility.yul\":7357:7712   */\ntag_45:\n    /* \"#utility.yul\":7424:7429   */\n  0x00\n    /* \"#utility.yul\":7473:7476   */\n  dup3\n    /* \"#utility.yul\":7466:7470   */\n  0x1f\n    /* \"#utility.yul\":7458:7464   */\n  dup4\n    /* \"#utility.yul\":7454:7471   */\n  add\n    /* \"#utility.yul\":7450:7477   */\n  slt\n    /* \"#utility.yul\":7440:7562   */\n  tag_136\n  jumpi\n    /* \"#utility.yul\":7481:7560   */\n  tag_137\n  tag_37\n  jump\t// in\ntag_137:\n    /* \"#utility.yul\":7440:7562   */\ntag_136:\n    /* \"#utility.yul\":7591:7597   */\n  dup2\n    /* \"#utility.yul\":7585:7598   */\n  mload\n    /* \"#utility.yul\":7616:7706   */\n  tag_138\n    /* \"#utility.yul\":7702:7705   */\n  dup5\n    /* \"#utility.yul\":7694:7700   */\n  dup3\n    /* \"#utility.yul\":7687:7691   */\n  0x20\n    /* \"#utility.yul\":7679:7685   */\n  dup7\n    /* \"#utility.yul\":7675:7692   */\n  add\n    /* \"#utility.yul\":7616:7706   */\n  tag_44\n  jump\t// in\ntag_138:\n    /* \"#utility.yul\":7607:7706   */\n  swap2\n  pop\n    /* \"#utility.yul\":7430:7712   */\n  pop\n    /* \"#utility.yul\":7357:7712   */\n  swap3\n  swap2\n  pop\n  pop\n  jump\t// out\n    /* \"#utility.yul\":7718:8571   */\ntag_5:\n    /* \"#utility.yul\":7817:7823   */\n  0x00\n    /* \"#utility.yul\":7825:7831   */\n  dup1\n    /* \"#utility.yul\":7874:7876   */\n  0x40\n    /* \"#utility.yul\":7862:7871   */\n  dup4\n    /* \"#utility.yul\":7853:7860   */\n  dup6\n    /* \"#utility.yul\":7849:7872   */\n  sub\n    /* \"#utility.yul\":7845:7877   */\n  slt\n    /* \"#utility.yul\":7842:7961   */\n  iszero\n  tag_140\n  jumpi\n    /* \"#utility.yul\":7880:7959   */\n  tag_141\n  tag_35\n  jump\t// in\ntag_141:\n    /* \"#utility.yul\":7842:7961   */\ntag_140:\n    /* \"#utility.yul\":8021:8022   */\n  0x00\n    /* \"#utility.yul\":8010:8019   */\n  dup4\n    /* \"#utility.yul\":8006:8023   */\n  add\n    /* \"#utility.yul\":8000:8024   */\n  mload\n    /* \"#utility.yul\":8051:8069   */\n  0xffffffffffffffff\n    /* \"#utility.yul\":8043:8049   */\n  dup2\n    /* \"#utility.yul\":8040:8070   */\n  gt\n    /* \"#utility.yul\":8037:8154   */\n  iszero\n  tag_142\n  jumpi\n    /* \"#utility.yul\":8073:8152   */\n  tag_143\n  tag_36\n  jump\t// in\ntag_143:\n    /* \"#utility.yul\":8037:8154   */\ntag_142:\n    /* \"#utility.yul\":8178:8252   */\n  tag_144\n    /* \"#utility.yul\":8244:8251   */\n  dup6\n    /* \"#utility.yul\":8235:8241   */\n  dup3\n    /* \"#utility.yul\":8224:8233   */\n  dup7\n    /* \"#utility.yul\":8220:8242   */\n  add\n    /* \"#utility.yul\":8178:8252   */\n  tag_45\n  jump\t// in\ntag_144:\n    /* \"#utility.yul\":8168:8252   */\n  swap3\n  pop\n    /* \"#utility.yul\":7971:8262   */\n  pop\n    /* \"#utility.yul\":8322:8324   */\n  0x20\n    /* \"#utility.yul\":8311:8320   */\n  dup4\n    /* \"#utility.yul\":8307:8325   */\n  add\n    /* \"#utility.yul\":8301:8326   */\n  mload\n    /* \"#utility.yul\":8353:8371   */\n  0xffffffffffffffff\n    /* \"#utility.yul\":8345:8351   */\n  dup2\n    /* \"#utility.yul\":8342:8372   */\n  gt\n    /* \"#utility.yul\":8339:8456   */\n  iszero\n  tag_145\n  jumpi\n    /* \"#utility.yul\":8375:8454   */\n  tag_146\n  tag_36\n  jump\t// in\ntag_146:\n    /* \"#utility.yul\":8339:8456   */\ntag_145:\n    /* \"#utility.yul\":8480:8554   */\n  tag_147\n    /* \"#utility.yul\":8546:8553   */\n  dup6\n    /* \"#utility.yul\":8537:8543   */\n  dup3\n    /* \"#utility.yul\":8526:8535   */\n  dup7\n    /* \"#utility.yul\":8522:8544   */\n  add\n    /* \"#utility.yul\":8480:8554   */\n  tag_45\n  jump\t// in\ntag_147:\n    /* \"#utility.yul\":8470:8554   */\n  swap2\n  pop\n    /* \"#utility.yul\":8272:8564   */\n  pop\n    /* \"#utility.yul\":7718:8571   */\n  swap3\n  pop\n  swap3\n  swap1\n  pop\n  jump\t// out\n    /* \"contracts/17_ERC20.sol\":322:6262  contract WeightedVoting is ERC20 {... */\ntag_13:\n  dataSize(sub_0)\n  dup1\n  dataOffset(sub_0)\n  0x00\n  codecopy\n  0x00\n  return\nstop\n\nsub_0: assembly {\n        /* \"contracts/17_ERC20.sol\":322:6262  contract WeightedVoting is ERC20 {... */\n      mstore(0x40, 0x80)\n      callvalue\n      dup1\n      iszero\n      tag_1\n      jumpi\n      0x00\n      dup1\n      revert\n    tag_1:\n      pop\n      jumpi(tag_2, lt(calldatasize, 0x04))\n      shr(0xe0, calldataload(0x00))\n      dup1\n      0x830953ab\n      gt\n      tag_19\n      jumpi\n      dup1\n      0x976b3113\n      gt\n      tag_20\n      jumpi\n      dup1\n      0x976b3113\n      eq\n      tag_15\n      jumpi\n      dup1\n      0xa9059cbb\n      eq\n      tag_16\n      jumpi\n      dup1\n      0xd5abeb01\n      eq\n      tag_17\n      jumpi\n      dup1\n      0xdd62ed3e\n      eq\n      tag_18\n      jumpi\n      jump(tag_2)\n    tag_20:\n      dup1\n      0x830953ab\n      eq\n      tag_11\n      jumpi\n      dup1\n      0x8615d855\n      eq\n      tag_12\n      jumpi\n      dup1\n      0x943e8216\n      eq\n      tag_13\n      jumpi\n      dup1\n      0x95d89b41\n      eq\n      tag_14\n      jumpi\n      jump(tag_2)\n    tag_19:\n      dup1\n      0x313ce567\n      gt\n      tag_21\n      jumpi\n      dup1\n      0x313ce567\n      eq\n      tag_7\n      jumpi\n      dup1\n      0x4e71d92d\n      eq\n      tag_8\n      jumpi\n      dup1\n      0x624601b6\n      eq\n      tag_9\n      jumpi\n      dup1\n      0x70a08231\n      eq\n      tag_10\n      jumpi\n      jump(tag_2)\n    tag_21:\n      dup1\n      0x06fdde03\n      eq\n      tag_3\n      jumpi\n      dup1\n      0x095ea7b3\n      eq\n      tag_4\n      jumpi\n      dup1\n      0x18160ddd\n      eq\n      tag_5\n      jumpi\n      dup1\n      0x23b872dd\n      eq\n      tag_6\n      jumpi\n    tag_2:\n      0x00\n      dup1\n      revert\n        /* \"@openzeppelin/contracts/token/ERC20/ERC20.sol\":2074:2163  function name() public view virtual returns (string memory) {... */\n    tag_3:\n      tag_22\n      tag_23\n      jump\t// in\n    tag_22:\n      mload(0x40)\n      tag_24\n      swap2\n      swap1\n      tag_25\n      jump\t// in\n    tag_24:\n      mload(0x40)\n      dup1\n      swap2\n      sub\n      swap1\n      return\n        /* \"@openzeppelin/contracts/token/ERC20/ERC20.sol\":4293:4479  function approve(address spender, uint256 value) public virtual returns (bool) {... */\n    tag_4:\n      tag_26\n      0x04\n      dup1\n      calldatasize\n      sub\n      dup2\n      add\n      swap1\n      tag_27\n      swap2\n      swap1\n      tag_28\n      jump\t// in\n    tag_27:\n      tag_29\n      jump\t// in\n    tag_26:\n      mload(0x40)\n      tag_30\n      swap2\n      swap1\n      tag_31\n      jump\t// in\n    tag_30:\n      mload(0x40)\n      dup1\n      swap2\n      sub\n      swap1\n      return\n        /* \"@openzeppelin/contracts/token/ERC20/ERC20.sol\":3144:3241  function totalSupply() public view virtual returns (uint256) {... */\n    tag_5:\n      tag_32\n      tag_33\n      jump\t// in\n    tag_32:\n      mload(0x40)\n      tag_34\n      swap2\n      swap1\n      tag_35\n      jump\t// in\n    tag_34:\n      mload(0x40)\n      dup1\n      swap2\n      sub\n      swap1\n      return\n        /* \"@openzeppelin/contracts/token/ERC20/ERC20.sol\":5039:5283  function transferFrom(address from, address to, uint256 value) public virtual returns (bool) {... */\n    tag_6:\n      tag_36\n      0x04\n      dup1\n      calldatasize\n      sub\n      dup2\n      add\n      swap1\n      tag_37\n      swap2\n      swap1\n      tag_38\n      jump\t// in\n    tag_37:\n      tag_39\n      jump\t// in\n    tag_36:\n      mload(0x40)\n      tag_40\n      swap2\n      swap1\n      tag_31\n      jump\t// in\n    tag_40:\n      mload(0x40)\n      dup1\n      swap2\n      sub\n      swap1\n      return\n        /* \"@openzeppelin/contracts/token/ERC20/ERC20.sol\":3002:3084  function decimals() public view virtual returns (uint8) {... */\n    tag_7:\n      tag_41\n      tag_42\n      jump\t// in\n    tag_41:\n      mload(0x40)\n      tag_43\n      swap2\n      swap1\n      tag_44\n      jump\t// in\n    tag_43:\n      mload(0x40)\n      dup1\n      swap2\n      sub\n      swap1\n      return\n        /* \"contracts/17_ERC20.sol\":3062:3548  function claim() public {... */\n    tag_8:\n      tag_45\n      tag_46\n      jump\t// in\n    tag_45:\n      stop\n        /* \"contracts/17_ERC20.sol\":2542:2587  mapping(address => bool) public tokensClaimed */\n    tag_9:\n      tag_47\n      0x04\n      dup1\n      calldatasize\n      sub\n      dup2\n      add\n      swap1\n      tag_48\n      swap2\n      swap1\n      tag_49\n      jump\t// in\n    tag_48:\n      tag_50\n      jump\t// in\n    tag_47:\n      mload(0x40)\n      tag_51\n      swap2\n      swap1\n      tag_31\n      jump\t// in\n    tag_51:\n      mload(0x40)\n      dup1\n      swap2\n      sub\n      swap1\n      return\n        /* \"@openzeppelin/contracts/token/ERC20/ERC20.sol\":3299:3415  function balanceOf(address account) public view virtual returns (uint256) {... */\n    tag_10:\n      tag_52\n      0x04\n      dup1\n      calldatasize\n      sub\n      dup2\n      add\n      swap1\n      tag_53\n      swap2\n      swap1\n      tag_49\n      jump\t// in\n    tag_53:\n      tag_54\n      jump\t// in\n    tag_52:\n      mload(0x40)\n      tag_55\n      swap2\n      swap1\n      tag_35\n      jump\t// in\n    tag_55:\n      mload(0x40)\n      dup1\n      swap2\n      sub\n      swap1\n      return\n        /* \"contracts/17_ERC20.sol\":2661:2693  uint256 public claimAmount = 100 */\n    tag_11:\n      tag_56\n      tag_57\n      jump\t// in\n    tag_56:\n      mload(0x40)\n      tag_58\n      swap2\n      swap1\n      tag_35\n      jump\t// in\n    tag_58:\n      mload(0x40)\n      dup1\n      swap2\n      sub\n      swap1\n      return\n        /* \"contracts/17_ERC20.sol\":3598:4227  function createIssue(string calldata _issueDesc, uint256 _quorum)... */\n    tag_12:\n      tag_59\n      0x04\n      dup1\n      calldatasize\n      sub\n      dup2\n      add\n      swap1\n      tag_60\n      swap2\n      swap1\n      tag_61\n      jump\t// in\n    tag_60:\n      tag_62\n      jump\t// in\n    tag_59:\n      mload(0x40)\n      tag_63\n      swap2\n      swap1\n      tag_35\n      jump\t// in\n    tag_63:\n      mload(0x40)\n      dup1\n      swap2\n      sub\n      swap1\n      return\n        /* \"contracts/17_ERC20.sol\":4982:6259  function vote(uint256 _issueId, Vote _vote) public {... */\n    tag_13:\n      tag_64\n      0x04\n      dup1\n      calldatasize\n      sub\n      dup2\n      add\n      swap1\n      tag_65\n      swap2\n      swap1\n      tag_66\n      jump\t// in\n    tag_65:\n      tag_67\n      jump\t// in\n    tag_64:\n      stop\n        /* \"@openzeppelin/contracts/token/ERC20/ERC20.sol\":2276:2369  function symbol() public view virtual returns (string memory) {... */\n    tag_14:\n      tag_68\n      tag_69\n      jump\t// in\n    tag_68:\n      mload(0x40)\n      tag_70\n      swap2\n      swap1\n      tag_25\n      jump\t// in\n    tag_70:\n      mload(0x40)\n      dup1\n      swap2\n      sub\n      swap1\n      return\n        /* \"contracts/17_ERC20.sol\":4281:4928  function getIssue(uint256 _issueId)... */\n    tag_15:\n      tag_71\n      0x04\n      dup1\n      calldatasize\n      sub\n      dup2\n      add\n      swap1\n      tag_72\n      swap2\n      swap1\n      tag_73\n      jump\t// in\n    tag_72:\n      tag_74\n      jump\t// in\n    tag_71:\n      mload(0x40)\n      tag_75\n      swap2\n      swap1\n      tag_76\n      jump\t// in\n    tag_75:\n      mload(0x40)\n      dup1\n      swap2\n      sub\n      swap1\n      return\n        /* \"@openzeppelin/contracts/token/ERC20/ERC20.sol\":3610:3788  function transfer(address to, uint256 value) public virtual returns (bool) {... */\n    tag_16:\n      tag_77\n      0x04\n      dup1\n      calldatasize\n      sub\n      dup2\n      add\n      swap1\n      tag_78\n      swap2\n      swap1\n      tag_28\n      jump\t// in\n    tag_78:\n      tag_79\n      jump\t// in\n    tag_77:\n      mload(0x40)\n      tag_80\n      swap2\n      swap1\n      tag_31\n      jump\t// in\n    tag_80:\n      mload(0x40)\n      dup1\n      swap2\n      sub\n      swap1\n      return\n        /* \"contracts/17_ERC20.sol\":2592:2626  uint256 public maxSupply = 1000000 */\n    tag_17:\n      tag_81\n      tag_82\n      jump\t// in\n    tag_81:\n      mload(0x40)\n      tag_83\n      swap2\n      swap1\n      tag_35\n      jump\t// in\n    tag_83:\n      mload(0x40)\n      dup1\n      swap2\n      sub\n      swap1\n      return\n        /* \"@openzeppelin/contracts/token/ERC20/ERC20.sol\":3846:3986  function allowance(address owner, address spender) public view virtual returns (uint256) {... */\n    tag_18:\n      tag_84\n      0x04\n      dup1\n      calldatasize\n      sub\n      dup2\n      add\n      swap1\n      tag_85\n      swap2\n      swap1\n      tag_86\n      jump\t// in\n    tag_85:\n      tag_87\n      jump\t// in\n    tag_84:\n      mload(0x40)\n      tag_88\n      swap2\n      swap1\n      tag_35\n      jump\t// in\n    tag_88:\n      mload(0x40)\n      dup1\n      swap2\n      sub\n      swap1\n      return\n        /* \"@openzeppelin/contracts/token/ERC20/ERC20.sol\":2074:2163  function name() public view virtual returns (string memory) {... */\n    tag_23:\n        /* \"@openzeppelin/contracts/token/ERC20/ERC20.sol\":2119:2132  string memory */\n      0x60\n        /* \"@openzeppelin/contracts/token/ERC20/ERC20.sol\":2151:2156  _name */\n      0x03\n        /* \"@openzeppelin/contracts/token/ERC20/ERC20.sol\":2144:2156  return _name */\n      dup1\n      sload\n      tag_90\n      swap1\n      tag_91\n      jump\t// in\n    tag_90:\n      dup1\n      0x1f\n      add\n      0x20\n      dup1\n      swap2\n      div\n      mul\n      0x20\n      add\n      mload(0x40)\n      swap1\n      dup2\n      add\n      0x40\n      mstore\n      dup1\n      swap3\n      swap2\n      swap1\n      dup2\n      dup2\n      mstore\n      0x20\n      add\n      dup3\n      dup1\n      sload\n      tag_92\n      swap1\n      tag_91\n      jump\t// in\n    tag_92:\n      dup1\n      iszero\n      tag_93\n      jumpi\n      dup1\n      0x1f\n      lt\n      tag_94\n      jumpi\n      0x0100\n      dup1\n      dup4\n      sload\n      div\n      mul\n      dup4\n      mstore\n      swap2\n      0x20\n      add\n      swap2\n      jump(tag_93)\n    tag_94:\n      dup3\n      add\n      swap2\n      swap1\n      0x00\n      mstore\n      keccak256(0x00, 0x20)\n      swap1\n    tag_95:\n      dup2\n      sload\n      dup2\n      mstore\n      swap1\n      0x01\n      add\n      swap1\n      0x20\n      add\n      dup1\n      dup4\n      gt\n      tag_95\n      jumpi\n      dup3\n      swap1\n      sub\n      0x1f\n      and\n      dup3\n      add\n      swap2\n    tag_93:\n      pop\n      pop\n      pop\n      pop\n      pop\n      swap1\n      pop\n        /* \"@openzeppelin/contracts/token/ERC20/ERC20.sol\":2074:2163  function name() public view virtual returns (string memory) {... */\n      swap1\n      jump\t// out\n        /* \"@openzeppelin/contracts/token/ERC20/ERC20.sol\":4293:4479  function approve(address spender, uint256 value) public virtual returns (bool) {... */\n    tag_29:\n        /* \"@openzeppelin/contracts/token/ERC20/ERC20.sol\":4366:4370  bool */\n      0x00\n        /* \"@openzeppelin/contracts/token/ERC20/ERC20.sol\":4382:4395  address owner */\n      dup1\n        /* \"@openzeppelin/contracts/token/ERC20/ERC20.sol\":4398:4410  _msgSender() */\n      tag_97\n        /* \"@openzeppelin/contracts/token/ERC20/ERC20.sol\":4398:4408  _msgSender */\n      tag_98\n        /* \"@openzeppelin/contracts/token/ERC20/ERC20.sol\":4398:4410  _msgSender() */\n      jump\t// in\n    tag_97:\n        /* \"@openzeppelin/contracts/token/ERC20/ERC20.sol\":4382:4410  address owner = _msgSender() */\n      swap1\n      pop\n        /* \"@openzeppelin/contracts/token/ERC20/ERC20.sol\":4420:4451  _approve(owner, spender, value) */\n      tag_99\n        /* \"@openzeppelin/contracts/token/ERC20/ERC20.sol\":4429:4434  owner */\n      dup2\n        /* \"@openzeppelin/contracts/token/ERC20/ERC20.sol\":4436:4443  spender */\n      dup6\n        /* \"@openzeppelin/contracts/token/ERC20/ERC20.sol\":4445:4450  value */\n      dup6\n        /* \"@openzeppelin/contracts/token/ERC20/ERC20.sol\":4420:4428  _approve */\n      tag_100\n        /* \"@openzeppelin/contracts/token/ERC20/ERC20.sol\":4420:4451  _approve(owner, spender, value) */\n      jump\t// in\n    tag_99:\n        /* \"@openzeppelin/contracts/token/ERC20/ERC20.sol\":4468:4472  true */\n      0x01\n        /* \"@openzeppelin/contracts/token/ERC20/ERC20.sol\":4461:4472  return true */\n      swap2\n      pop\n      pop\n        /* \"@openzeppelin/contracts/token/ERC20/ERC20.sol\":4293:4479  function approve(address spender, uint256 value) public virtual returns (bool) {... */\n      swap3\n      swap2\n      pop\n      pop\n      jump\t// out\n        /* \"@openzeppelin/contracts/token/ERC20/ERC20.sol\":3144:3241  function totalSupply() public view virtual returns (uint256) {... */\n    tag_33:\n        /* \"@openzeppelin/contracts/token/ERC20/ERC20.sol\":3196:3203  uint256 */\n      0x00\n        /* \"@openzeppelin/contracts/token/ERC20/ERC20.sol\":3222:3234  _totalSupply */\n      sload(0x02)\n        /* \"@openzeppelin/contracts/token/ERC20/ERC20.sol\":3215:3234  return _totalSupply */\n      swap1\n      pop\n        /* \"@openzeppelin/contracts/token/ERC20/ERC20.sol\":3144:3241  function totalSupply() public view virtual returns (uint256) {... */\n      swap1\n      jump\t// out\n        /* \"@openzeppelin/contracts/token/ERC20/ERC20.sol\":5039:5283  function transferFrom(address from, address to, uint256 value) public virtual returns (bool) {... */\n    tag_39:\n        /* \"@openzeppelin/contracts/token/ERC20/ERC20.sol\":5126:5130  bool */\n      0x00\n        /* \"@openzeppelin/contracts/token/ERC20/ERC20.sol\":5142:5157  address spender */\n      dup1\n        /* \"@openzeppelin/contracts/token/ERC20/ERC20.sol\":5160:5172  _msgSender() */\n      tag_103\n        /* \"@openzeppelin/contracts/token/ERC20/ERC20.sol\":5160:5170  _msgSender */\n      tag_98\n        /* \"@openzeppelin/contracts/token/ERC20/ERC20.sol\":5160:5172  _msgSender() */\n      jump\t// in\n    tag_103:\n        /* \"@openzeppelin/contracts/token/ERC20/ERC20.sol\":5142:5172  address spender = _msgSender() */\n      swap1\n      pop\n        /* \"@openzeppelin/contracts/token/ERC20/ERC20.sol\":5182:5219  _spendAllowance(from, spender, value) */\n      tag_104\n        /* \"@openzeppelin/contracts/token/ERC20/ERC20.sol\":5198:5202  from */\n      dup6\n        /* \"@openzeppelin/contracts/token/ERC20/ERC20.sol\":5204:5211  spender */\n      dup3\n        /* \"@openzeppelin/contracts/token/ERC20/ERC20.sol\":5213:5218  value */\n      dup6\n        /* \"@openzeppelin/contracts/token/ERC20/ERC20.sol\":5182:5197  _spendAllowance */\n      tag_105\n        /* \"@openzeppelin/contracts/token/ERC20/ERC20.sol\":5182:5219  _spendAllowance(from, spender, value) */\n      jump\t// in\n    tag_104:\n        /* \"@openzeppelin/contracts/token/ERC20/ERC20.sol\":5229:5255  _transfer(from, to, value) */\n      tag_106\n        /* \"@openzeppelin/contracts/token/ERC20/ERC20.sol\":5239:5243  from */\n      dup6\n        /* \"@openzeppelin/contracts/token/ERC20/ERC20.sol\":5245:5247  to */\n      dup6\n        /* \"@openzeppelin/contracts/token/ERC20/ERC20.sol\":5249:5254  value */\n      dup6\n        /* \"@openzeppelin/contracts/token/ERC20/ERC20.sol\":5229:5238  _transfer */\n      tag_107\n        /* \"@openzeppelin/contracts/token/ERC20/ERC20.sol\":5229:5255  _transfer(from, to, value) */\n      jump\t// in\n    tag_106:\n        /* \"@openzeppelin/contracts/token/ERC20/ERC20.sol\":5272:5276  true */\n      0x01\n        /* \"@openzeppelin/contracts/token/ERC20/ERC20.sol\":5265:5276  return true */\n      swap2\n      pop\n      pop\n        /* \"@openzeppelin/contracts/token/ERC20/ERC20.sol\":5039:5283  function transferFrom(address from, address to, uint256 value) public virtual returns (bool) {... */\n      swap4\n      swap3\n      pop\n      pop\n      pop\n      jump\t// out\n        /* \"@openzeppelin/contracts/token/ERC20/ERC20.sol\":3002:3084  function decimals() public view virtual returns (uint8) {... */\n    tag_42:\n        /* \"@openzeppelin/contracts/token/ERC20/ERC20.sol\":3051:3056  uint8 */\n      0x00\n        /* \"@openzeppelin/contracts/token/ERC20/ERC20.sol\":3075:3077  18 */\n      0x12\n        /* \"@openzeppelin/contracts/token/ERC20/ERC20.sol\":3068:3077  return 18 */\n      swap1\n      pop\n        /* \"@openzeppelin/contracts/token/ERC20/ERC20.sol\":3002:3084  function decimals() public view virtual returns (uint8) {... */\n      swap1\n      jump\t// out\n        /* \"contracts/17_ERC20.sol\":3062:3548  function claim() public {... */\n    tag_46:\n        /* \"contracts/17_ERC20.sol\":3181:3190  maxSupply */\n      sload(0x08)\n        /* \"contracts/17_ERC20.sol\":3167:3178  claimAmount */\n      sload(0x09)\n        /* \"contracts/17_ERC20.sol\":3151:3164  totalSupply() */\n      tag_110\n        /* \"contracts/17_ERC20.sol\":3151:3162  totalSupply */\n      tag_33\n        /* \"contracts/17_ERC20.sol\":3151:3164  totalSupply() */\n      jump\t// in\n    tag_110:\n        /* \"contracts/17_ERC20.sol\":3151:3178  totalSupply() + claimAmount */\n      tag_111\n      swap2\n      swap1\n      tag_112\n      jump\t// in\n    tag_111:\n        /* \"contracts/17_ERC20.sol\":3151:3190  totalSupply() + claimAmount > maxSupply */\n      gt\n        /* \"contracts/17_ERC20.sol\":3147:3244  if (totalSupply() + claimAmount > maxSupply) {... */\n      iszero\n      tag_113\n      jumpi\n        /* \"contracts/17_ERC20.sol\":3214:3232  AllTokensClaimed() */\n      mload(0x40)\n      0xcbe2483100000000000000000000000000000000000000000000000000000000\n      dup2\n      mstore\n      0x04\n      add\n      mload(0x40)\n      dup1\n      swap2\n      sub\n      swap1\n      revert\n        /* \"contracts/17_ERC20.sol\":3147:3244  if (totalSupply() + claimAmount > maxSupply) {... */\n    tag_113:\n        /* \"contracts/17_ERC20.sol\":3317:3330  tokensClaimed */\n      0x07\n        /* \"contracts/17_ERC20.sol\":3317:3342  tokensClaimed[msg.sender] */\n      0x00\n        /* \"contracts/17_ERC20.sol\":3331:3341  msg.sender */\n      caller\n        /* \"contracts/17_ERC20.sol\":3317:3342  tokensClaimed[msg.sender] */\n      0xffffffffffffffffffffffffffffffffffffffff\n      and\n      0xffffffffffffffffffffffffffffffffffffffff\n      and\n      dup2\n      mstore\n      0x20\n      add\n      swap1\n      dup2\n      mstore\n      0x20\n      add\n      0x00\n      keccak256\n      0x00\n      swap1\n      sload\n      swap1\n      0x0100\n      exp\n      swap1\n      div\n      0xff\n      and\n        /* \"contracts/17_ERC20.sol\":3313:3393  if (tokensClaimed[msg.sender]) {... */\n      iszero\n      tag_114\n      jumpi\n        /* \"contracts/17_ERC20.sol\":3366:3381  TokensClaimed() */\n      mload(0x40)\n      0x0b1327a600000000000000000000000000000000000000000000000000000000\n      dup2\n      mstore\n      0x04\n      add\n      mload(0x40)\n      dup1\n      swap2\n      sub\n      swap1\n      revert\n        /* \"contracts/17_ERC20.sol\":3313:3393  if (tokensClaimed[msg.sender]) {... */\n    tag_114:\n        /* \"contracts/17_ERC20.sol\":3441:3471  _mint(msg.sender, claimAmount) */\n      tag_115\n        /* \"contracts/17_ERC20.sol\":3447:3457  msg.sender */\n      caller\n        /* \"contracts/17_ERC20.sol\":3459:3470  claimAmount */\n      sload(0x09)\n        /* \"contracts/17_ERC20.sol\":3441:3446  _mint */\n      tag_116\n        /* \"contracts/17_ERC20.sol\":3441:3471  _mint(msg.sender, claimAmount) */\n      jump\t// in\n    tag_115:\n        /* \"contracts/17_ERC20.sol\":3510:3514  true */\n      0x01\n        /* \"contracts/17_ERC20.sol\":3482:3495  tokensClaimed */\n      0x07\n        /* \"contracts/17_ERC20.sol\":3482:3507  tokensClaimed[msg.sender] */\n      0x00\n        /* \"contracts/17_ERC20.sol\":3496:3506  msg.sender */\n      caller\n        /* \"contracts/17_ERC20.sol\":3482:3507  tokensClaimed[msg.sender] */\n      0xffffffffffffffffffffffffffffffffffffffff\n      and\n      0xffffffffffffffffffffffffffffffffffffffff\n      and\n      dup2\n      mstore\n      0x20\n      add\n      swap1\n      dup2\n      mstore\n      0x20\n      add\n      0x00\n      keccak256\n      0x00\n        /* \"contracts/17_ERC20.sol\":3482:3514  tokensClaimed[msg.sender] = true */\n      0x0100\n      exp\n      dup2\n      sload\n      dup2\n      0xff\n      mul\n      not\n      and\n      swap1\n      dup4\n      iszero\n      iszero\n      mul\n      or\n      swap1\n      sstore\n      pop\n        /* \"contracts/17_ERC20.sol\":3062:3548  function claim() public {... */\n      jump\t// out\n        /* \"contracts/17_ERC20.sol\":2542:2587  mapping(address => bool) public tokensClaimed */\n    tag_50:\n      mstore(0x20, 0x07)\n      dup1\n      0x00\n      mstore\n      keccak256(0x00, 0x40)\n      0x00\n      swap2\n      pop\n      sload\n      swap1\n      0x0100\n      exp\n      swap1\n      div\n      0xff\n      and\n      dup2\n      jump\t// out\n        /* \"@openzeppelin/contracts/token/ERC20/ERC20.sol\":3299:3415  function balanceOf(address account) public view virtual returns (uint256) {... */\n    tag_54:\n        /* \"@openzeppelin/contracts/token/ERC20/ERC20.sol\":3364:3371  uint256 */\n      0x00\n        /* \"@openzeppelin/contracts/token/ERC20/ERC20.sol\":3390:3399  _balances */\n      dup1\n        /* \"@openzeppelin/contracts/token/ERC20/ERC20.sol\":3390:3408  _balances[account] */\n      0x00\n        /* \"@openzeppelin/contracts/token/ERC20/ERC20.sol\":3400:3407  account */\n      dup4\n        /* \"@openzeppelin/contracts/token/ERC20/ERC20.sol\":3390:3408  _balances[account] */\n      0xffffffffffffffffffffffffffffffffffffffff\n      and\n      0xffffffffffffffffffffffffffffffffffffffff\n      and\n      dup2\n      mstore\n      0x20\n      add\n      swap1\n      dup2\n      mstore\n      0x20\n      add\n      0x00\n      keccak256\n      sload\n        /* \"@openzeppelin/contracts/token/ERC20/ERC20.sol\":3383:3408  return _balances[account] */\n      swap1\n      pop\n        /* \"@openzeppelin/contracts/token/ERC20/ERC20.sol\":3299:3415  function balanceOf(address account) public view virtual returns (uint256) {... */\n      swap2\n      swap1\n      pop\n      jump\t// out\n        /* \"contracts/17_ERC20.sol\":2661:2693  uint256 public claimAmount = 100 */\n    tag_57:\n      sload(0x09)\n      dup2\n      jump\t// out\n        /* \"contracts/17_ERC20.sol\":3598:4227  function createIssue(string calldata _issueDesc, uint256 _quorum)... */\n    tag_62:\n        /* \"contracts/17_ERC20.sol\":3700:3707  uint256 */\n      0x00\n        /* \"contracts/17_ERC20.sol\":3803:3804  0 */\n      dup1\n        /* \"contracts/17_ERC20.sol\":3778:3799  balanceOf(msg.sender) */\n      tag_119\n        /* \"contracts/17_ERC20.sol\":3788:3798  msg.sender */\n      caller\n        /* \"contracts/17_ERC20.sol\":3778:3787  balanceOf */\n      tag_54\n        /* \"contracts/17_ERC20.sol\":3778:3799  balanceOf(msg.sender) */\n      jump\t// in\n    tag_119:\n        /* \"contracts/17_ERC20.sol\":3778:3804  balanceOf(msg.sender) == 0 */\n      sub\n        /* \"contracts/17_ERC20.sol\":3774:3854  if (balanceOf(msg.sender) == 0) {... */\n      tag_120\n      jumpi\n        /* \"contracts/17_ERC20.sol\":3828:3842  NoTokensHeld() */\n      mload(0x40)\n      0x8439960d00000000000000000000000000000000000000000000000000000000\n      dup2\n      mstore\n      0x04\n      add\n      mload(0x40)\n      dup1\n      swap2\n      sub\n      swap1\n      revert\n        /* \"contracts/17_ERC20.sol\":3774:3854  if (balanceOf(msg.sender) == 0) {... */\n    tag_120:\n        /* \"contracts/17_ERC20.sol\":3948:3961  totalSupply() */\n      tag_121\n        /* \"contracts/17_ERC20.sol\":3948:3959  totalSupply */\n      tag_33\n        /* \"contracts/17_ERC20.sol\":3948:3961  totalSupply() */\n      jump\t// in\n    tag_121:\n        /* \"contracts/17_ERC20.sol\":3938:3945  _quorum */\n      dup3\n        /* \"contracts/17_ERC20.sol\":3938:3961  _quorum > totalSupply() */\n      gt\n        /* \"contracts/17_ERC20.sol\":3934:4012  if (_quorum > totalSupply()) {... */\n      iszero\n      tag_122\n      jumpi\n        /* \"contracts/17_ERC20.sol\":3985:4000  QuorumTooHigh() */\n      mload(0x40)\n      0x0d92730000000000000000000000000000000000000000000000000000000000\n      dup2\n      mstore\n      0x04\n      add\n      mload(0x40)\n      dup1\n      swap2\n      sub\n      swap1\n      revert\n        /* \"contracts/17_ERC20.sol\":3934:4012  if (_quorum > totalSupply()) {... */\n    tag_122:\n        /* \"contracts/17_ERC20.sol\":4074:4094  Issue storage _issue */\n      0x00\n        /* \"contracts/17_ERC20.sol\":4097:4103  issues */\n      0x06\n        /* \"contracts/17_ERC20.sol\":4097:4110  issues.push() */\n      0x01\n      dup2\n      0x01\n      dup2\n      sload\n      add\n      dup1\n      dup3\n      sstore\n      dup1\n      swap2\n      pop\n      pop\n      sub\n      swap1\n      0x00\n      mstore\n      keccak256(0x00, 0x20)\n      swap1\n      0x09\n      mul\n      add\n        /* \"contracts/17_ERC20.sol\":4074:4110  Issue storage _issue = issues.push() */\n      swap1\n      pop\n        /* \"contracts/17_ERC20.sol\":4140:4150  _issueDesc */\n      dup5\n      dup5\n        /* \"contracts/17_ERC20.sol\":4121:4127  _issue */\n      dup3\n        /* \"contracts/17_ERC20.sol\":4121:4137  _issue.issueDesc */\n      0x02\n      add\n        /* \"contracts/17_ERC20.sol\":4121:4150  _issue.issueDesc = _issueDesc */\n      swap2\n      dup3\n      tag_124\n      swap3\n      swap2\n      swap1\n      tag_125\n      jump\t// in\n    tag_124:\n      pop\n        /* \"contracts/17_ERC20.sol\":4177:4184  _quorum */\n      dup3\n        /* \"contracts/17_ERC20.sol\":4161:4167  _issue */\n      dup2\n        /* \"contracts/17_ERC20.sol\":4161:4174  _issue.quorum */\n      0x03\n      add\n        /* \"contracts/17_ERC20.sol\":4161:4184  _issue.quorum = _quorum */\n      dup2\n      swap1\n      sstore\n      pop\n        /* \"contracts/17_ERC20.sol\":4218:4219  1 */\n      0x01\n        /* \"contracts/17_ERC20.sol\":4202:4208  issues */\n      0x06\n        /* \"contracts/17_ERC20.sol\":4202:4215  issues.length */\n      dup1\n      sload\n      swap1\n      pop\n        /* \"contracts/17_ERC20.sol\":4202:4219  issues.length - 1 */\n      tag_126\n      swap2\n      swap1\n      tag_127\n      jump\t// in\n    tag_126:\n        /* \"contracts/17_ERC20.sol\":4195:4219  return issues.length - 1 */\n      swap2\n      pop\n      pop\n        /* \"contracts/17_ERC20.sol\":3598:4227  function createIssue(string calldata _issueDesc, uint256 _quorum)... */\n      swap4\n      swap3\n      pop\n      pop\n      pop\n      jump\t// out\n        /* \"contracts/17_ERC20.sol\":4982:6259  function vote(uint256 _issueId, Vote _vote) public {... */\n    tag_67:\n        /* \"contracts/17_ERC20.sol\":5044:5064  Issue storage _issue */\n      0x00\n        /* \"contracts/17_ERC20.sol\":5067:5073  issues */\n      0x06\n        /* \"contracts/17_ERC20.sol\":5074:5082  _issueId */\n      dup4\n        /* \"contracts/17_ERC20.sol\":5067:5083  issues[_issueId] */\n      dup2\n      sload\n      dup2\n      lt\n      tag_129\n      jumpi\n      tag_130\n      tag_131\n      jump\t// in\n    tag_130:\n    tag_129:\n      swap1\n      0x00\n      mstore\n      keccak256(0x00, 0x20)\n      swap1\n      0x09\n      mul\n      add\n        /* \"contracts/17_ERC20.sol\":5044:5083  Issue storage _issue = issues[_issueId] */\n      swap1\n      pop\n        /* \"contracts/17_ERC20.sol\":5137:5143  _issue */\n      dup1\n        /* \"contracts/17_ERC20.sol\":5137:5150  _issue.closed */\n      0x08\n      add\n      0x01\n      swap1\n      sload\n      swap1\n      0x0100\n      exp\n      swap1\n      div\n      0xff\n      and\n        /* \"contracts/17_ERC20.sol\":5133:5200  if (_issue.closed) {... */\n      iszero\n      tag_133\n      jumpi\n        /* \"contracts/17_ERC20.sol\":5174:5188  VotingClosed() */\n      mload(0x40)\n      0x66b6cb4a00000000000000000000000000000000000000000000000000000000\n      dup2\n      mstore\n      0x04\n      add\n      mload(0x40)\n      dup1\n      swap2\n      sub\n      swap1\n      revert\n        /* \"contracts/17_ERC20.sol\":5133:5200  if (_issue.closed) {... */\n    tag_133:\n        /* \"contracts/17_ERC20.sol\":5264:5298  _issue.voters.contains(msg.sender) */\n      tag_134\n        /* \"contracts/17_ERC20.sol\":5287:5297  msg.sender */\n      caller\n        /* \"contracts/17_ERC20.sol\":5264:5270  _issue */\n      dup3\n        /* \"contracts/17_ERC20.sol\":5264:5277  _issue.voters */\n      0x00\n      add\n        /* \"contracts/17_ERC20.sol\":5264:5286  _issue.voters.contains */\n      tag_135\n      swap1\n        /* \"contracts/17_ERC20.sol\":5264:5298  _issue.voters.contains(msg.sender) */\n      swap2\n      swap1\n      0xffffffff\n      and\n      jump\t// in\n    tag_134:\n        /* \"contracts/17_ERC20.sol\":5260:5348  if (_issue.voters.contains(msg.sender)) {... */\n      iszero\n      tag_136\n      jumpi\n        /* \"contracts/17_ERC20.sol\":5322:5336  AlreadyVoted() */\n      mload(0x40)\n      0x7c9a1cf900000000000000000000000000000000000000000000000000000000\n      dup2\n      mstore\n      0x04\n      add\n      mload(0x40)\n      dup1\n      swap2\n      sub\n      swap1\n      revert\n        /* \"contracts/17_ERC20.sol\":5260:5348  if (_issue.voters.contains(msg.sender)) {... */\n    tag_136:\n        /* \"contracts/17_ERC20.sol\":5356:5371  uint256 nTokens */\n      0x00\n        /* \"contracts/17_ERC20.sol\":5374:5395  balanceOf(msg.sender) */\n      tag_137\n        /* \"contracts/17_ERC20.sol\":5384:5394  msg.sender */\n      caller\n        /* \"contracts/17_ERC20.sol\":5374:5383  balanceOf */\n      tag_54\n        /* \"contracts/17_ERC20.sol\":5374:5395  balanceOf(msg.sender) */\n      jump\t// in\n    tag_137:\n        /* \"contracts/17_ERC20.sol\":5356:5395  uint256 nTokens = balanceOf(msg.sender) */\n      swap1\n      pop\n        /* \"contracts/17_ERC20.sol\":5470:5471  0 */\n      0x00\n        /* \"contracts/17_ERC20.sol\":5459:5466  nTokens */\n      dup2\n        /* \"contracts/17_ERC20.sol\":5459:5471  nTokens == 0 */\n      sub\n        /* \"contracts/17_ERC20.sol\":5455:5521  if (nTokens == 0) {... */\n      tag_138\n      jumpi\n        /* \"contracts/17_ERC20.sol\":5495:5509  NoTokensHeld() */\n      mload(0x40)\n      0x8439960d00000000000000000000000000000000000000000000000000000000\n      dup2\n      mstore\n      0x04\n      add\n      mload(0x40)\n      dup1\n      swap2\n      sub\n      swap1\n      revert\n        /* \"contracts/17_ERC20.sol\":5455:5521  if (nTokens == 0) {... */\n    tag_138:\n        /* \"contracts/17_ERC20.sol\":5598:5610  Vote.AGAINST */\n      0x00\n        /* \"contracts/17_ERC20.sol\":5589:5610  _vote == Vote.AGAINST */\n      0x02\n      dup2\n      gt\n      iszero\n      tag_139\n      jumpi\n      tag_140\n      tag_141\n      jump\t// in\n    tag_140:\n    tag_139:\n        /* \"contracts/17_ERC20.sol\":5589:5594  _vote */\n      dup4\n        /* \"contracts/17_ERC20.sol\":5589:5610  _vote == Vote.AGAINST */\n      0x02\n      dup2\n      gt\n      iszero\n      tag_142\n      jumpi\n      tag_143\n      tag_141\n      jump\t// in\n    tag_143:\n    tag_142:\n      sub\n        /* \"contracts/17_ERC20.sol\":5585:5814  if (_vote == Vote.AGAINST) {... */\n      tag_144\n      jumpi\n        /* \"contracts/17_ERC20.sol\":5650:5657  nTokens */\n      dup1\n        /* \"contracts/17_ERC20.sol\":5627:5633  _issue */\n      dup3\n        /* \"contracts/17_ERC20.sol\":5627:5646  _issue.votesAgainst */\n      0x06\n      add\n      0x00\n        /* \"contracts/17_ERC20.sol\":5627:5657  _issue.votesAgainst += nTokens */\n      dup3\n      dup3\n      sload\n      tag_145\n      swap2\n      swap1\n      tag_112\n      jump\t// in\n    tag_145:\n      swap3\n      pop\n      pop\n      dup2\n      swap1\n      sstore\n      pop\n        /* \"contracts/17_ERC20.sol\":5585:5814  if (_vote == Vote.AGAINST) {... */\n      jump(tag_146)\n    tag_144:\n        /* \"contracts/17_ERC20.sol\":5688:5696  Vote.FOR */\n      0x01\n        /* \"contracts/17_ERC20.sol\":5679:5696  _vote == Vote.FOR */\n      0x02\n      dup2\n      gt\n      iszero\n      tag_147\n      jumpi\n      tag_148\n      tag_141\n      jump\t// in\n    tag_148:\n    tag_147:\n        /* \"contracts/17_ERC20.sol\":5679:5684  _vote */\n      dup4\n        /* \"contracts/17_ERC20.sol\":5679:5696  _vote == Vote.FOR */\n      0x02\n      dup2\n      gt\n      iszero\n      tag_149\n      jumpi\n      tag_150\n      tag_141\n      jump\t// in\n    tag_150:\n    tag_149:\n      sub\n        /* \"contracts/17_ERC20.sol\":5675:5814  if (_vote == Vote.FOR) {... */\n      tag_151\n      jumpi\n        /* \"contracts/17_ERC20.sol\":5732:5739  nTokens */\n      dup1\n        /* \"contracts/17_ERC20.sol\":5713:5719  _issue */\n      dup3\n        /* \"contracts/17_ERC20.sol\":5713:5728  _issue.votesFor */\n      0x05\n      add\n      0x00\n        /* \"contracts/17_ERC20.sol\":5713:5739  _issue.votesFor += nTokens */\n      dup3\n      dup3\n      sload\n      tag_152\n      swap2\n      swap1\n      tag_112\n      jump\t// in\n    tag_152:\n      swap3\n      pop\n      pop\n      dup2\n      swap1\n      sstore\n      pop\n        /* \"contracts/17_ERC20.sol\":5675:5814  if (_vote == Vote.FOR) {... */\n      jump(tag_153)\n    tag_151:\n        /* \"contracts/17_ERC20.sol\":5795:5802  nTokens */\n      dup1\n        /* \"contracts/17_ERC20.sol\":5772:5778  _issue */\n      dup3\n        /* \"contracts/17_ERC20.sol\":5772:5791  _issue.votesAbstain */\n      0x07\n      add\n      0x00\n        /* \"contracts/17_ERC20.sol\":5772:5802  _issue.votesAbstain += nTokens */\n      dup3\n      dup3\n      sload\n      tag_154\n      swap2\n      swap1\n      tag_112\n      jump\t// in\n    tag_154:\n      swap3\n      pop\n      pop\n      dup2\n      swap1\n      sstore\n      pop\n        /* \"contracts/17_ERC20.sol\":5675:5814  if (_vote == Vote.FOR) {... */\n    tag_153:\n        /* \"contracts/17_ERC20.sol\":5585:5814  if (_vote == Vote.AGAINST) {... */\n    tag_146:\n        /* \"contracts/17_ERC20.sol\":5900:5929  _issue.voters.add(msg.sender) */\n      tag_155\n        /* \"contracts/17_ERC20.sol\":5918:5928  msg.sender */\n      caller\n        /* \"contracts/17_ERC20.sol\":5900:5906  _issue */\n      dup4\n        /* \"contracts/17_ERC20.sol\":5900:5913  _issue.voters */\n      0x00\n      add\n        /* \"contracts/17_ERC20.sol\":5900:5917  _issue.voters.add */\n      tag_156\n      swap1\n        /* \"contracts/17_ERC20.sol\":5900:5929  _issue.voters.add(msg.sender) */\n      swap2\n      swap1\n      0xffffffff\n      and\n      jump\t// in\n    tag_155:\n      pop\n        /* \"contracts/17_ERC20.sol\":5961:5968  nTokens */\n      dup1\n        /* \"contracts/17_ERC20.sol\":5940:5946  _issue */\n      dup3\n        /* \"contracts/17_ERC20.sol\":5940:5957  _issue.totalVotes */\n      0x04\n      add\n      0x00\n        /* \"contracts/17_ERC20.sol\":5940:5968  _issue.totalVotes += nTokens */\n      dup3\n      dup3\n      sload\n      tag_157\n      swap2\n      swap1\n      tag_112\n      jump\t// in\n    tag_157:\n      swap3\n      pop\n      pop\n      dup2\n      swap1\n      sstore\n      pop\n        /* \"contracts/17_ERC20.sol\":6078:6084  _issue */\n      dup2\n        /* \"contracts/17_ERC20.sol\":6078:6091  _issue.quorum */\n      0x03\n      add\n      sload\n        /* \"contracts/17_ERC20.sol\":6057:6063  _issue */\n      dup3\n        /* \"contracts/17_ERC20.sol\":6057:6074  _issue.totalVotes */\n      0x04\n      add\n      sload\n        /* \"contracts/17_ERC20.sol\":6057:6091  _issue.totalVotes >= _issue.quorum */\n      lt\n        /* \"contracts/17_ERC20.sol\":6053:6252  if (_issue.totalVotes >= _issue.quorum) {... */\n      tag_158\n      jumpi\n        /* \"contracts/17_ERC20.sol\":6124:6128  true */\n      0x01\n        /* \"contracts/17_ERC20.sol\":6108:6114  _issue */\n      dup3\n        /* \"contracts/17_ERC20.sol\":6108:6121  _issue.closed */\n      0x08\n      add\n      0x01\n        /* \"contracts/17_ERC20.sol\":6108:6128  _issue.closed = true */\n      0x0100\n      exp\n      dup2\n      sload\n      dup2\n      0xff\n      mul\n      not\n      and\n      swap1\n      dup4\n      iszero\n      iszero\n      mul\n      or\n      swap1\n      sstore\n      pop\n        /* \"contracts/17_ERC20.sol\":6165:6171  _issue */\n      dup2\n        /* \"contracts/17_ERC20.sol\":6165:6184  _issue.votesAgainst */\n      0x06\n      add\n      sload\n        /* \"contracts/17_ERC20.sol\":6147:6153  _issue */\n      dup3\n        /* \"contracts/17_ERC20.sol\":6147:6162  _issue.votesFor */\n      0x05\n      add\n      sload\n        /* \"contracts/17_ERC20.sol\":6147:6184  _issue.votesFor > _issue.votesAgainst */\n      gt\n        /* \"contracts/17_ERC20.sol\":6143:6241  if (_issue.votesFor > _issue.votesAgainst) {... */\n      iszero\n      tag_159\n      jumpi\n        /* \"contracts/17_ERC20.sol\":6221:6225  true */\n      0x01\n        /* \"contracts/17_ERC20.sol\":6205:6211  _issue */\n      dup3\n        /* \"contracts/17_ERC20.sol\":6205:6218  _issue.passed */\n      0x08\n      add\n      0x00\n        /* \"contracts/17_ERC20.sol\":6205:6225  _issue.passed = true */\n      0x0100\n      exp\n      dup2\n      sload\n      dup2\n      0xff\n      mul\n      not\n      and\n      swap1\n      dup4\n      iszero\n      iszero\n      mul\n      or\n      swap1\n      sstore\n      pop\n        /* \"contracts/17_ERC20.sol\":6143:6241  if (_issue.votesFor > _issue.votesAgainst) {... */\n    tag_159:\n        /* \"contracts/17_ERC20.sol\":6053:6252  if (_issue.totalVotes >= _issue.quorum) {... */\n    tag_158:\n        /* \"contracts/17_ERC20.sol\":5033:6259  {... */\n      pop\n      pop\n        /* \"contracts/17_ERC20.sol\":4982:6259  function vote(uint256 _issueId, Vote _vote) public {... */\n      pop\n      pop\n      jump\t// out\n        /* \"@openzeppelin/contracts/token/ERC20/ERC20.sol\":2276:2369  function symbol() public view virtual returns (string memory) {... */\n    tag_69:\n        /* \"@openzeppelin/contracts/token/ERC20/ERC20.sol\":2323:2336  string memory */\n      0x60\n        /* \"@openzeppelin/contracts/token/ERC20/ERC20.sol\":2355:2362  _symbol */\n      0x04\n        /* \"@openzeppelin/contracts/token/ERC20/ERC20.sol\":2348:2362  return _symbol */\n      dup1\n      sload\n      tag_161\n      swap1\n      tag_91\n      jump\t// in\n    tag_161:\n      dup1\n      0x1f\n      add\n      0x20\n      dup1\n      swap2\n      div\n      mul\n      0x20\n      add\n      mload(0x40)\n      swap1\n      dup2\n      add\n      0x40\n      mstore\n      dup1\n      swap3\n      swap2\n      swap1\n      dup2\n      dup2\n      mstore\n      0x20\n      add\n      dup3\n      dup1\n      sload\n      tag_162\n      swap1\n      tag_91\n      jump\t// in\n    tag_162:\n      dup1\n      iszero\n      tag_163\n      jumpi\n      dup1\n      0x1f\n      lt\n      tag_164\n      jumpi\n      0x0100\n      dup1\n      dup4\n      sload\n      div\n      mul\n      dup4\n      mstore\n      swap2\n      0x20\n      add\n      swap2\n      jump(tag_163)\n    tag_164:\n      dup3\n      add\n      swap2\n      swap1\n      0x00\n      mstore\n      keccak256(0x00, 0x20)\n      swap1\n    tag_165:\n      dup2\n      sload\n      dup2\n      mstore\n      swap1\n      0x01\n      add\n      swap1\n      0x20\n      add\n      dup1\n      dup4\n      gt\n      tag_165\n      jumpi\n      dup3\n      swap1\n      sub\n      0x1f\n      and\n      dup3\n      add\n      swap2\n    tag_163:\n      pop\n      pop\n      pop\n      pop\n      pop\n      swap1\n      pop\n        /* \"@openzeppelin/contracts/token/ERC20/ERC20.sol\":2276:2369  function symbol() public view virtual returns (string memory) {... */\n      swap1\n      jump\t// out\n        /* \"contracts/17_ERC20.sol\":4281:4928  function getIssue(uint256 _issueId)... */\n    tag_74:\n        /* \"contracts/17_ERC20.sol\":4367:4389  SerializedIssue memory */\n      tag_166\n      tag_167\n      jump\t// in\n    tag_166:\n        /* \"contracts/17_ERC20.sol\":4407:4427  Issue storage _issue */\n      0x00\n        /* \"contracts/17_ERC20.sol\":4430:4436  issues */\n      0x06\n        /* \"contracts/17_ERC20.sol\":4437:4445  _issueId */\n      dup4\n        /* \"contracts/17_ERC20.sol\":4430:4446  issues[_issueId] */\n      dup2\n      sload\n      dup2\n      lt\n      tag_169\n      jumpi\n      tag_170\n      tag_131\n      jump\t// in\n    tag_170:\n    tag_169:\n      swap1\n      0x00\n      mstore\n      keccak256(0x00, 0x20)\n      swap1\n      0x09\n      mul\n      add\n        /* \"contracts/17_ERC20.sol\":4407:4446  Issue storage _issue = issues[_issueId] */\n      swap1\n      pop\n        /* \"contracts/17_ERC20.sol\":4477:4920  SerializedIssue({... */\n      mload(0x40)\n      dup1\n      0x0120\n      add\n      0x40\n      mstore\n      dup1\n        /* \"contracts/17_ERC20.sol\":4520:4542  _issue.voters.values() */\n      tag_172\n        /* \"contracts/17_ERC20.sol\":4520:4526  _issue */\n      dup4\n        /* \"contracts/17_ERC20.sol\":4520:4533  _issue.voters */\n      0x00\n      add\n        /* \"contracts/17_ERC20.sol\":4520:4540  _issue.voters.values */\n      tag_173\n        /* \"contracts/17_ERC20.sol\":4520:4542  _issue.voters.values() */\n      jump\t// in\n    tag_172:\n        /* \"contracts/17_ERC20.sol\":4477:4920  SerializedIssue({... */\n      dup2\n      mstore\n      0x20\n      add\n        /* \"contracts/17_ERC20.sol\":4572:4578  _issue */\n      dup3\n        /* \"contracts/17_ERC20.sol\":4572:4588  _issue.issueDesc */\n      0x02\n      add\n        /* \"contracts/17_ERC20.sol\":4477:4920  SerializedIssue({... */\n      dup1\n      sload\n      tag_174\n      swap1\n      tag_91\n      jump\t// in\n    tag_174:\n      dup1\n      0x1f\n      add\n      0x20\n      dup1\n      swap2\n      div\n      mul\n      0x20\n      add\n      mload(0x40)\n      swap1\n      dup2\n      add\n      0x40\n      mstore\n      dup1\n      swap3\n      swap2\n      swap1\n      dup2\n      dup2\n      mstore\n      0x20\n      add\n      dup3\n      dup1\n      sload\n      tag_175\n      swap1\n      tag_91\n      jump\t// in\n    tag_175:\n      dup1\n      iszero\n      tag_176\n      jumpi\n      dup1\n      0x1f\n      lt\n      tag_177\n      jumpi\n      0x0100\n      dup1\n      dup4\n      sload\n      div\n      mul\n      dup4\n      mstore\n      swap2\n      0x20\n      add\n      swap2\n      jump(tag_176)\n    tag_177:\n      dup3\n      add\n      swap2\n      swap1\n      0x00\n      mstore\n      keccak256(0x00, 0x20)\n      swap1\n    tag_178:\n      dup2\n      sload\n      dup2\n      mstore\n      swap1\n      0x01\n      add\n      swap1\n      0x20\n      add\n      dup1\n      dup4\n      gt\n      tag_178\n      jumpi\n      dup3\n      swap1\n      sub\n      0x1f\n      and\n      dup3\n      add\n      swap2\n    tag_176:\n      pop\n      pop\n      pop\n      pop\n      pop\n      dup2\n      mstore\n      0x20\n      add\n        /* \"contracts/17_ERC20.sol\":4615:4621  _issue */\n      dup3\n        /* \"contracts/17_ERC20.sol\":4615:4628  _issue.quorum */\n      0x03\n      add\n      sload\n        /* \"contracts/17_ERC20.sol\":4477:4920  SerializedIssue({... */\n      dup2\n      mstore\n      0x20\n      add\n        /* \"contracts/17_ERC20.sol\":4659:4665  _issue */\n      dup3\n        /* \"contracts/17_ERC20.sol\":4659:4676  _issue.totalVotes */\n      0x04\n      add\n      sload\n        /* \"contracts/17_ERC20.sol\":4477:4920  SerializedIssue({... */\n      dup2\n      mstore\n      0x20\n      add\n        /* \"contracts/17_ERC20.sol\":4705:4711  _issue */\n      dup3\n        /* \"contracts/17_ERC20.sol\":4705:4720  _issue.votesFor */\n      0x05\n      add\n      sload\n        /* \"contracts/17_ERC20.sol\":4477:4920  SerializedIssue({... */\n      dup2\n      mstore\n      0x20\n      add\n        /* \"contracts/17_ERC20.sol\":4753:4759  _issue */\n      dup3\n        /* \"contracts/17_ERC20.sol\":4753:4772  _issue.votesAgainst */\n      0x06\n      add\n      sload\n        /* \"contracts/17_ERC20.sol\":4477:4920  SerializedIssue({... */\n      dup2\n      mstore\n      0x20\n      add\n        /* \"contracts/17_ERC20.sol\":4805:4811  _issue */\n      dup3\n        /* \"contracts/17_ERC20.sol\":4805:4824  _issue.votesAbstain */\n      0x07\n      add\n      sload\n        /* \"contracts/17_ERC20.sol\":4477:4920  SerializedIssue({... */\n      dup2\n      mstore\n      0x20\n      add\n        /* \"contracts/17_ERC20.sol\":4851:4857  _issue */\n      dup3\n        /* \"contracts/17_ERC20.sol\":4851:4864  _issue.passed */\n      0x08\n      add\n      0x00\n      swap1\n      sload\n      swap1\n      0x0100\n      exp\n      swap1\n      div\n      0xff\n      and\n        /* \"contracts/17_ERC20.sol\":4477:4920  SerializedIssue({... */\n      iszero\n      iszero\n      dup2\n      mstore\n      0x20\n      add\n        /* \"contracts/17_ERC20.sol\":4891:4897  _issue */\n      dup3\n        /* \"contracts/17_ERC20.sol\":4891:4904  _issue.closed */\n      0x08\n      add\n      0x01\n      swap1\n      sload\n      swap1\n      0x0100\n      exp\n      swap1\n      div\n      0xff\n      and\n        /* \"contracts/17_ERC20.sol\":4477:4920  SerializedIssue({... */\n      iszero\n      iszero\n      dup2\n      mstore\n      pop\n        /* \"contracts/17_ERC20.sol\":4457:4920  return... */\n      swap2\n      pop\n      pop\n        /* \"contracts/17_ERC20.sol\":4281:4928  function getIssue(uint256 _issueId)... */\n      swap2\n      swap1\n      pop\n      jump\t// out\n        /* \"@openzeppelin/contracts/token/ERC20/ERC20.sol\":3610:3788  function transfer(address to, uint256 value) public virtual returns (bool) {... */\n    tag_79:\n        /* \"@openzeppelin/contracts/token/ERC20/ERC20.sol\":3679:3683  bool */\n      0x00\n        /* \"@openzeppelin/contracts/token/ERC20/ERC20.sol\":3695:3708  address owner */\n      dup1\n        /* \"@openzeppelin/contracts/token/ERC20/ERC20.sol\":3711:3723  _msgSender() */\n      tag_180\n        /* \"@openzeppelin/contracts/token/ERC20/ERC20.sol\":3711:3721  _msgSender */\n      tag_98\n        /* \"@openzeppelin/contracts/token/ERC20/ERC20.sol\":3711:3723  _msgSender() */\n      jump\t// in\n    tag_180:\n        /* \"@openzeppelin/contracts/token/ERC20/ERC20.sol\":3695:3723  address owner = _msgSender() */\n      swap1\n      pop\n        /* \"@openzeppelin/contracts/token/ERC20/ERC20.sol\":3733:3760  _transfer(owner, to, value) */\n      tag_181\n        /* \"@openzeppelin/contracts/token/ERC20/ERC20.sol\":3743:3748  owner */\n      dup2\n        /* \"@openzeppelin/contracts/token/ERC20/ERC20.sol\":3750:3752  to */\n      dup6\n        /* \"@openzeppelin/contracts/token/ERC20/ERC20.sol\":3754:3759  value */\n      dup6\n        /* \"@openzeppelin/contracts/token/ERC20/ERC20.sol\":3733:3742  _transfer */\n      tag_107\n        /* \"@openzeppelin/contracts/token/ERC20/ERC20.sol\":3733:3760  _transfer(owner, to, value) */\n      jump\t// in\n    tag_181:\n        /* \"@openzeppelin/contracts/token/ERC20/ERC20.sol\":3777:3781  true */\n      0x01\n        /* \"@openzeppelin/contracts/token/ERC20/ERC20.sol\":3770:3781  return true */\n      swap2\n      pop\n      pop\n        /* \"@openzeppelin/contracts/token/ERC20/ERC20.sol\":3610:3788  function transfer(address to, uint256 value) public virtual returns (bool) {... */\n      swap3\n      swap2\n      pop\n      pop\n      jump\t// out\n        /* \"contracts/17_ERC20.sol\":2592:2626  uint256 public maxSupply = 1000000 */\n    tag_82:\n      sload(0x08)\n      dup2\n      jump\t// out\n        /* \"@openzeppelin/contracts/token/ERC20/ERC20.sol\":3846:3986  function allowance(address owner, address spender) public view virtual returns (uint256) {... */\n    tag_87:\n        /* \"@openzeppelin/contracts/token/ERC20/ERC20.sol\":3926:3933  uint256 */\n      0x00\n        /* \"@openzeppelin/contracts/token/ERC20/ERC20.sol\":3952:3963  _allowances */\n      0x01\n        /* \"@openzeppelin/contracts/token/ERC20/ERC20.sol\":3952:3970  _allowances[owner] */\n      0x00\n        /* \"@openzeppelin/contracts/token/ERC20/ERC20.sol\":3964:3969  owner */\n      dup5\n        /* \"@openzeppelin/contracts/token/ERC20/ERC20.sol\":3952:3970  _allowances[owner] */\n      0xffffffffffffffffffffffffffffffffffffffff\n      and\n      0xffffffffffffffffffffffffffffffffffffffff\n      and\n      dup2\n      mstore\n      0x20\n      add\n      swap1\n      dup2\n      mstore\n      0x20\n      add\n      0x00\n      keccak256\n        /* \"@openzeppelin/contracts/token/ERC20/ERC20.sol\":3952:3979  _allowances[owner][spender] */\n      0x00\n        /* \"@openzeppelin/contracts/token/ERC20/ERC20.sol\":3971:3978  spender */\n      dup4\n        /* \"@openzeppelin/contracts/token/ERC20/ERC20.sol\":3952:3979  _allowances[owner][spender] */\n      0xffffffffffffffffffffffffffffffffffffffff\n      and\n      0xffffffffffffffffffffffffffffffffffffffff\n      and\n      dup2\n      mstore\n      0x20\n      add\n      swap1\n      dup2\n      mstore\n      0x20\n      add\n      0x00\n      keccak256\n      sload\n        /* \"@openzeppelin/contracts/token/ERC20/ERC20.sol\":3945:3979  return _allowances[owner][spender] */\n      swap1\n      pop\n        /* \"@openzeppelin/contracts/token/ERC20/ERC20.sol\":3846:3986  function allowance(address owner, address spender) public view virtual returns (uint256) {... */\n      swap3\n      swap2\n      pop\n      pop\n      jump\t// out\n        /* \"@openzeppelin/contracts/utils/Context.sol\":656:752  function _msgSender() internal view virtual returns (address) {... */\n    tag_98:\n        /* \"@openzeppelin/contracts/utils/Context.sol\":709:716  address */\n      0x00\n        /* \"@openzeppelin/contracts/utils/Context.sol\":735:745  msg.sender */\n      caller\n        /* \"@openzeppelin/contracts/utils/Context.sol\":728:745  return msg.sender */\n      swap1\n      pop\n        /* \"@openzeppelin/contracts/utils/Context.sol\":656:752  function _msgSender() internal view virtual returns (address) {... */\n      swap1\n      jump\t// out\n        /* \"@openzeppelin/contracts/token/ERC20/ERC20.sol\":8989:9117  function _approve(address owner, address spender, uint256 value) internal {... */\n    tag_100:\n        /* \"@openzeppelin/contracts/token/ERC20/ERC20.sol\":9073:9110  _approve(owner, spender, value, true) */\n      tag_185\n        /* \"@openzeppelin/contracts/token/ERC20/ERC20.sol\":9082:9087  owner */\n      dup4\n        /* \"@openzeppelin/contracts/token/ERC20/ERC20.sol\":9089:9096  spender */\n      dup4\n        /* \"@openzeppelin/contracts/token/ERC20/ERC20.sol\":9098:9103  value */\n      dup4\n        /* \"@openzeppelin/contracts/token/ERC20/ERC20.sol\":9105:9109  true */\n      0x01\n        /* \"@openzeppelin/contracts/token/ERC20/ERC20.sol\":9073:9081  _approve */\n      tag_186\n        /* \"@openzeppelin/contracts/token/ERC20/ERC20.sol\":9073:9110  _approve(owner, spender, value, true) */\n      jump\t// in\n    tag_185:\n        /* \"@openzeppelin/contracts/token/ERC20/ERC20.sol\":8989:9117  function _approve(address owner, address spender, uint256 value) internal {... */\n      pop\n      pop\n      pop\n      jump\t// out\n        /* \"@openzeppelin/contracts/token/ERC20/ERC20.sol\":10663:11140  function _spendAllowance(address owner, address spender, uint256 value) internal virtual {... */\n    tag_105:\n        /* \"@openzeppelin/contracts/token/ERC20/ERC20.sol\":10762:10786  uint256 currentAllowance */\n      0x00\n        /* \"@openzeppelin/contracts/token/ERC20/ERC20.sol\":10789:10814  allowance(owner, spender) */\n      tag_188\n        /* \"@openzeppelin/contracts/token/ERC20/ERC20.sol\":10799:10804  owner */\n      dup5\n        /* \"@openzeppelin/contracts/token/ERC20/ERC20.sol\":10806:10813  spender */\n      dup5\n        /* \"@openzeppelin/contracts/token/ERC20/ERC20.sol\":10789:10798  allowance */\n      tag_87\n        /* \"@openzeppelin/contracts/token/ERC20/ERC20.sol\":10789:10814  allowance(owner, spender) */\n      jump\t// in\n    tag_188:\n        /* \"@openzeppelin/contracts/token/ERC20/ERC20.sol\":10762:10814  uint256 currentAllowance = allowance(owner, spender) */\n      swap1\n      pop\n        /* \"@openzeppelin/contracts/token/ERC20/ERC20.sol\":10848:10865  type(uint256).max */\n      0xffffffffffffffffffffffffffffffffffffffffffffffffffffffffffffffff\n        /* \"@openzeppelin/contracts/token/ERC20/ERC20.sol\":10828:10844  currentAllowance */\n      dup2\n        /* \"@openzeppelin/contracts/token/ERC20/ERC20.sol\":10828:10865  currentAllowance != type(uint256).max */\n      eq\n        /* \"@openzeppelin/contracts/token/ERC20/ERC20.sol\":10824:11134  if (currentAllowance != type(uint256).max) {... */\n      tag_189\n      jumpi\n        /* \"@openzeppelin/contracts/token/ERC20/ERC20.sol\":10904:10909  value */\n      dup2\n        /* \"@openzeppelin/contracts/token/ERC20/ERC20.sol\":10885:10901  currentAllowance */\n      dup2\n        /* \"@openzeppelin/contracts/token/ERC20/ERC20.sol\":10885:10909  currentAllowance < value */\n      lt\n        /* \"@openzeppelin/contracts/token/ERC20/ERC20.sol\":10881:11011  if (currentAllowance < value) {... */\n      iszero\n      tag_190\n      jumpi\n        /* \"@openzeppelin/contracts/token/ERC20/ERC20.sol\":10963:10970  spender */\n      dup3\n        /* \"@openzeppelin/contracts/token/ERC20/ERC20.sol\":10972:10988  currentAllowance */\n      dup2\n        /* \"@openzeppelin/contracts/token/ERC20/ERC20.sol\":10990:10995  value */\n      dup4\n        /* \"@openzeppelin/contracts/token/ERC20/ERC20.sol\":10936:10996  ERC20InsufficientAllowance(spender, currentAllowance, value) */\n      mload(0x40)\n      0xfb8f41b200000000000000000000000000000000000000000000000000000000\n      dup2\n      mstore\n      0x04\n      add\n      tag_191\n      swap4\n      swap3\n      swap2\n      swap1\n      tag_192\n      jump\t// in\n    tag_191:\n      mload(0x40)\n      dup1\n      swap2\n      sub\n      swap1\n      revert\n        /* \"@openzeppelin/contracts/token/ERC20/ERC20.sol\":10881:11011  if (currentAllowance < value) {... */\n    tag_190:\n        /* \"@openzeppelin/contracts/token/ERC20/ERC20.sol\":11052:11109  _approve(owner, spender, currentAllowance - value, false) */\n      tag_193\n        /* \"@openzeppelin/contracts/token/ERC20/ERC20.sol\":11061:11066  owner */\n      dup5\n        /* \"@openzeppelin/contracts/token/ERC20/ERC20.sol\":11068:11075  spender */\n      dup5\n        /* \"@openzeppelin/contracts/token/ERC20/ERC20.sol\":11096:11101  value */\n      dup5\n        /* \"@openzeppelin/contracts/token/ERC20/ERC20.sol\":11077:11093  currentAllowance */\n      dup5\n        /* \"@openzeppelin/contracts/token/ERC20/ERC20.sol\":11077:11101  currentAllowance - value */\n      sub\n        /* \"@openzeppelin/contracts/token/ERC20/ERC20.sol\":11103:11108  false */\n      0x00\n        /* \"@openzeppelin/contracts/token/ERC20/ERC20.sol\":11052:11060  _approve */\n      tag_186\n        /* \"@openzeppelin/contracts/token/ERC20/ERC20.sol\":11052:11109  _approve(owner, spender, currentAllowance - value, false) */\n      jump\t// in\n    tag_193:\n        /* \"@openzeppelin/contracts/token/ERC20/ERC20.sol\":10824:11134  if (currentAllowance != type(uint256).max) {... */\n    tag_189:\n        /* \"@openzeppelin/contracts/token/ERC20/ERC20.sol\":10752:11140  {... */\n      pop\n        /* \"@openzeppelin/contracts/token/ERC20/ERC20.sol\":10663:11140  function _spendAllowance(address owner, address spender, uint256 value) internal virtual {... */\n      pop\n      pop\n      pop\n      jump\t// out\n        /* \"@openzeppelin/contracts/token/ERC20/ERC20.sol\":5656:5956  function _transfer(address from, address to, uint256 value) internal {... */\n    tag_107:\n        /* \"@openzeppelin/contracts/token/ERC20/ERC20.sol\":5755:5756  0 */\n      0x00\n        /* \"@openzeppelin/contracts/token/ERC20/ERC20.sol\":5739:5757  from == address(0) */\n      0xffffffffffffffffffffffffffffffffffffffff\n      and\n        /* \"@openzeppelin/contracts/token/ERC20/ERC20.sol\":5739:5743  from */\n      dup4\n        /* \"@openzeppelin/contracts/token/ERC20/ERC20.sol\":5739:5757  from == address(0) */\n      0xffffffffffffffffffffffffffffffffffffffff\n      and\n      sub\n        /* \"@openzeppelin/contracts/token/ERC20/ERC20.sol\":5735:5821  if (from == address(0)) {... */\n      tag_195\n      jumpi\n        /* \"@openzeppelin/contracts/token/ERC20/ERC20.sol\":5807:5808  0 */\n      0x00\n        /* \"@openzeppelin/contracts/token/ERC20/ERC20.sol\":5780:5810  ERC20InvalidSender(address(0)) */\n      mload(0x40)\n      0x96c6fd1e00000000000000000000000000000000000000000000000000000000\n      dup2\n      mstore\n      0x04\n      add\n      tag_196\n      swap2\n      swap1\n      tag_197\n      jump\t// in\n    tag_196:\n      mload(0x40)\n      dup1\n      swap2\n      sub\n      swap1\n      revert\n        /* \"@openzeppelin/contracts/token/ERC20/ERC20.sol\":5735:5821  if (from == address(0)) {... */\n    tag_195:\n        /* \"@openzeppelin/contracts/token/ERC20/ERC20.sol\":5848:5849  0 */\n      0x00\n        /* \"@openzeppelin/contracts/token/ERC20/ERC20.sol\":5834:5850  to == address(0) */\n      0xffffffffffffffffffffffffffffffffffffffff\n      and\n        /* \"@openzeppelin/contracts/token/ERC20/ERC20.sol\":5834:5836  to */\n      dup3\n        /* \"@openzeppelin/contracts/token/ERC20/ERC20.sol\":5834:5850  to == address(0) */\n      0xffffffffffffffffffffffffffffffffffffffff\n      and\n      sub\n        /* \"@openzeppelin/contracts/token/ERC20/ERC20.sol\":5830:5916  if (to == address(0)) {... */\n      tag_198\n      jumpi\n        /* \"@openzeppelin/contracts/token/ERC20/ERC20.sol\":5902:5903  0 */\n      0x00\n        /* \"@openzeppelin/contracts/token/ERC20/ERC20.sol\":5873:5905  ERC20InvalidReceiver(address(0)) */\n      mload(0x40)\n      0xec442f0500000000000000000000000000000000000000000000000000000000\n      dup2\n      mstore\n      0x04\n      add\n      tag_199\n      swap2\n      swap1\n      tag_197\n      jump\t// in\n    tag_199:\n      mload(0x40)\n      dup1\n      swap2\n      sub\n      swap1\n      revert\n        /* \"@openzeppelin/contracts/token/ERC20/ERC20.sol\":5830:5916  if (to == address(0)) {... */\n    tag_198:\n        /* \"@openzeppelin/contracts/token/ERC20/ERC20.sol\":5925:5949  _update(from, to, value) */\n      tag_200\n        /* \"@openzeppelin/contracts/token/ERC20/ERC20.sol\":5933:5937  from */\n      dup4\n        /* \"@openzeppelin/contracts/token/ERC20/ERC20.sol\":5939:5941  to */\n      dup4\n        /* \"@openzeppelin/contracts/token/ERC20/ERC20.sol\":5943:5948  value */\n      dup4\n        /* \"@openzeppelin/contracts/token/ERC20/ERC20.sol\":5925:5932  _update */\n      tag_201\n        /* \"@openzeppelin/contracts/token/ERC20/ERC20.sol\":5925:5949  _update(from, to, value) */\n      jump\t// in\n    tag_200:\n        /* \"@openzeppelin/contracts/token/ERC20/ERC20.sol\":5656:5956  function _transfer(address from, address to, uint256 value) internal {... */\n      pop\n      pop\n      pop\n      jump\t// out\n        /* \"@openzeppelin/contracts/token/ERC20/ERC20.sol\":7721:7929  function _mint(address account, uint256 value) internal {... */\n    tag_116:\n        /* \"@openzeppelin/contracts/token/ERC20/ERC20.sol\":7810:7811  0 */\n      0x00\n        /* \"@openzeppelin/contracts/token/ERC20/ERC20.sol\":7791:7812  account == address(0) */\n      0xffffffffffffffffffffffffffffffffffffffff\n      and\n        /* \"@openzeppelin/contracts/token/ERC20/ERC20.sol\":7791:7798  account */\n      dup3\n        /* \"@openzeppelin/contracts/token/ERC20/ERC20.sol\":7791:7812  account == address(0) */\n      0xffffffffffffffffffffffffffffffffffffffff\n      and\n      sub\n        /* \"@openzeppelin/contracts/token/ERC20/ERC20.sol\":7787:7878  if (account == address(0)) {... */\n      tag_203\n      jumpi\n        /* \"@openzeppelin/contracts/token/ERC20/ERC20.sol\":7864:7865  0 */\n      0x00\n        /* \"@openzeppelin/contracts/token/ERC20/ERC20.sol\":7835:7867  ERC20InvalidReceiver(address(0)) */\n      mload(0x40)\n      0xec442f0500000000000000000000000000000000000000000000000000000000\n      dup2\n      mstore\n      0x04\n      add\n      tag_204\n      swap2\n      swap1\n      tag_197\n      jump\t// in\n    tag_204:\n      mload(0x40)\n      dup1\n      swap2\n      sub\n      swap1\n      revert\n        /* \"@openzeppelin/contracts/token/ERC20/ERC20.sol\":7787:7878  if (account == address(0)) {... */\n    tag_203:\n        /* \"@openzeppelin/contracts/token/ERC20/ERC20.sol\":7887:7922  _update(address(0), account, value) */\n      tag_205\n        /* \"@openzeppelin/contracts/token/ERC20/ERC20.sol\":7903:7904  0 */\n      0x00\n        /* \"@openzeppelin/contracts/token/ERC20/ERC20.sol\":7907:7914  account */\n      dup4\n        /* \"@openzeppelin/contracts/token/ERC20/ERC20.sol\":7916:7921  value */\n      dup4\n        /* \"@openzeppelin/contracts/token/ERC20/ERC20.sol\":7887:7894  _update */\n      tag_201\n        /* \"@openzeppelin/contracts/token/ERC20/ERC20.sol\":7887:7922  _update(address(0), account, value) */\n      jump\t// in\n    tag_205:\n        /* \"@openzeppelin/contracts/token/ERC20/ERC20.sol\":7721:7929  function _mint(address account, uint256 value) internal {... */\n      pop\n      pop\n      jump\t// out\n        /* \"@openzeppelin/contracts/utils/structs/EnumerableSet.sol\":8871:9036  function contains(AddressSet storage set, address value) internal view returns (bool) {... */\n    tag_135:\n        /* \"@openzeppelin/contracts/utils/structs/EnumerableSet.sol\":8951:8955  bool */\n      0x00\n        /* \"@openzeppelin/contracts/utils/structs/EnumerableSet.sol\":8974:9029  _contains(set._inner, bytes32(uint256(uint160(value)))) */\n      tag_207\n        /* \"@openzeppelin/contracts/utils/structs/EnumerableSet.sol\":8984:8987  set */\n      dup4\n        /* \"@openzeppelin/contracts/utils/structs/EnumerableSet.sol\":8984:8994  set._inner */\n      0x00\n      add\n        /* \"@openzeppelin/contracts/utils/structs/EnumerableSet.sol\":9020:9025  value */\n      dup4\n        /* \"@openzeppelin/contracts/utils/structs/EnumerableSet.sol\":9004:9027  uint256(uint160(value)) */\n      0xffffffffffffffffffffffffffffffffffffffff\n      and\n        /* \"@openzeppelin/contracts/utils/structs/EnumerableSet.sol\":8996:9028  bytes32(uint256(uint160(value))) */\n      0x00\n      shl\n        /* \"@openzeppelin/contracts/utils/structs/EnumerableSet.sol\":8974:8983  _contains */\n      tag_208\n        /* \"@openzeppelin/contracts/utils/structs/EnumerableSet.sol\":8974:9029  _contains(set._inner, bytes32(uint256(uint160(value)))) */\n      jump\t// in\n    tag_207:\n        /* \"@openzeppelin/contracts/utils/structs/EnumerableSet.sol\":8967:9029  return _contains(set._inner, bytes32(uint256(uint160(value)))) */\n      swap1\n      pop\n        /* \"@openzeppelin/contracts/utils/structs/EnumerableSet.sol\":8871:9036  function contains(AddressSet storage set, address value) internal view returns (bool) {... */\n      swap3\n      swap2\n      pop\n      pop\n      jump\t// out\n        /* \"@openzeppelin/contracts/utils/structs/EnumerableSet.sol\":8316:8466  function add(AddressSet storage set, address value) internal returns (bool) {... */\n    tag_156:\n        /* \"@openzeppelin/contracts/utils/structs/EnumerableSet.sol\":8386:8390  bool */\n      0x00\n        /* \"@openzeppelin/contracts/utils/structs/EnumerableSet.sol\":8409:8459  _add(set._inner, bytes32(uint256(uint160(value)))) */\n      tag_210\n        /* \"@openzeppelin/contracts/utils/structs/EnumerableSet.sol\":8414:8417  set */\n      dup4\n        /* \"@openzeppelin/contracts/utils/structs/EnumerableSet.sol\":8414:8424  set._inner */\n      0x00\n      add\n        /* \"@openzeppelin/contracts/utils/structs/EnumerableSet.sol\":8450:8455  value */\n      dup4\n        /* \"@openzeppelin/contracts/utils/structs/EnumerableSet.sol\":8434:8457  uint256(uint160(value)) */\n      0xffffffffffffffffffffffffffffffffffffffff\n      and\n        /* \"@openzeppelin/contracts/utils/structs/EnumerableSet.sol\":8426:8458  bytes32(uint256(uint160(value))) */\n      0x00\n      shl\n        /* \"@openzeppelin/contracts/utils/structs/EnumerableSet.sol\":8409:8413  _add */\n      tag_211\n        /* \"@openzeppelin/contracts/utils/structs/EnumerableSet.sol\":8409:8459  _add(set._inner, bytes32(uint256(uint160(value)))) */\n      jump\t// in\n    tag_210:\n        /* \"@openzeppelin/contracts/utils/structs/EnumerableSet.sol\":8402:8459  return _add(set._inner, bytes32(uint256(uint160(value)))) */\n      swap1\n      pop\n        /* \"@openzeppelin/contracts/utils/structs/EnumerableSet.sol\":8316:8466  function add(AddressSet storage set, address value) internal returns (bool) {... */\n      swap3\n      swap2\n      pop\n      pop\n      jump\t// out\n        /* \"@openzeppelin/contracts/utils/structs/EnumerableSet.sol\":10270:10570  function values(AddressSet storage set) internal view returns (address[] memory) {... */\n    tag_173:\n        /* \"@openzeppelin/contracts/utils/structs/EnumerableSet.sol\":10333:10349  address[] memory */\n      0x60\n        /* \"@openzeppelin/contracts/utils/structs/EnumerableSet.sol\":10361:10383  bytes32[] memory store */\n      0x00\n        /* \"@openzeppelin/contracts/utils/structs/EnumerableSet.sol\":10386:10405  _values(set._inner) */\n      tag_213\n        /* \"@openzeppelin/contracts/utils/structs/EnumerableSet.sol\":10394:10397  set */\n      dup4\n        /* \"@openzeppelin/contracts/utils/structs/EnumerableSet.sol\":10394:10404  set._inner */\n      0x00\n      add\n        /* \"@openzeppelin/contracts/utils/structs/EnumerableSet.sol\":10386:10393  _values */\n      tag_214\n        /* \"@openzeppelin/contracts/utils/structs/EnumerableSet.sol\":10386:10405  _values(set._inner) */\n      jump\t// in\n    tag_213:\n        /* \"@openzeppelin/contracts/utils/structs/EnumerableSet.sol\":10361:10405  bytes32[] memory store = _values(set._inner) */\n      swap1\n      pop\n        /* \"@openzeppelin/contracts/utils/structs/EnumerableSet.sol\":10415:10438  address[] memory result */\n      0x60\n        /* \"@openzeppelin/contracts/utils/structs/EnumerableSet.sol\":10525:10530  store */\n      dup2\n        /* \"@openzeppelin/contracts/utils/structs/EnumerableSet.sol\":10515:10530  result := store */\n      swap1\n      pop\n        /* \"@openzeppelin/contracts/utils/structs/EnumerableSet.sol\":10557:10563  result */\n      dup1\n        /* \"@openzeppelin/contracts/utils/structs/EnumerableSet.sol\":10550:10563  return result */\n      swap3\n      pop\n      pop\n      pop\n        /* \"@openzeppelin/contracts/utils/structs/EnumerableSet.sol\":10270:10570  function values(AddressSet storage set) internal view returns (address[] memory) {... */\n      swap2\n      swap1\n      pop\n      jump\t// out\n        /* \"@openzeppelin/contracts/token/ERC20/ERC20.sol\":9949:10381  function _approve(address owner, address spender, uint256 value, bool emitEvent) internal virtual {... */\n    tag_186:\n        /* \"@openzeppelin/contracts/token/ERC20/ERC20.sol\":10078:10079  0 */\n      0x00\n        /* \"@openzeppelin/contracts/token/ERC20/ERC20.sol\":10061:10080  owner == address(0) */\n      0xffffffffffffffffffffffffffffffffffffffff\n      and\n        /* \"@openzeppelin/contracts/token/ERC20/ERC20.sol\":10061:10066  owner */\n      dup5\n        /* \"@openzeppelin/contracts/token/ERC20/ERC20.sol\":10061:10080  owner == address(0) */\n      0xffffffffffffffffffffffffffffffffffffffff\n      and\n      sub\n        /* \"@openzeppelin/contracts/token/ERC20/ERC20.sol\":10057:10146  if (owner == address(0)) {... */\n      tag_216\n      jumpi\n        /* \"@openzeppelin/contracts/token/ERC20/ERC20.sol\":10132:10133  0 */\n      0x00\n        /* \"@openzeppelin/contracts/token/ERC20/ERC20.sol\":10103:10135  ERC20InvalidApprover(address(0)) */\n      mload(0x40)\n      0xe602df0500000000000000000000000000000000000000000000000000000000\n      dup2\n      mstore\n      0x04\n      add\n      tag_217\n      swap2\n      swap1\n      tag_197\n      jump\t// in\n    tag_217:\n      mload(0x40)\n      dup1\n      swap2\n      sub\n      swap1\n      revert\n        /* \"@openzeppelin/contracts/token/ERC20/ERC20.sol\":10057:10146  if (owner == address(0)) {... */\n    tag_216:\n        /* \"@openzeppelin/contracts/token/ERC20/ERC20.sol\":10178:10179  0 */\n      0x00\n        /* \"@openzeppelin/contracts/token/ERC20/ERC20.sol\":10159:10180  spender == address(0) */\n      0xffffffffffffffffffffffffffffffffffffffff\n      and\n        /* \"@openzeppelin/contracts/token/ERC20/ERC20.sol\":10159:10166  spender */\n      dup4\n        /* \"@openzeppelin/contracts/token/ERC20/ERC20.sol\":10159:10180  spender == address(0) */\n      0xffffffffffffffffffffffffffffffffffffffff\n      and\n      sub\n        /* \"@openzeppelin/contracts/token/ERC20/ERC20.sol\":10155:10245  if (spender == address(0)) {... */\n      tag_218\n      jumpi\n        /* \"@openzeppelin/contracts/token/ERC20/ERC20.sol\":10231:10232  0 */\n      0x00\n        /* \"@openzeppelin/contracts/token/ERC20/ERC20.sol\":10203:10234  ERC20InvalidSpender(address(0)) */\n      mload(0x40)\n      0x94280d6200000000000000000000000000000000000000000000000000000000\n      dup2\n      mstore\n      0x04\n      add\n      tag_219\n      swap2\n      swap1\n      tag_197\n      jump\t// in\n    tag_219:\n      mload(0x40)\n      dup1\n      swap2\n      sub\n      swap1\n      revert\n        /* \"@openzeppelin/contracts/token/ERC20/ERC20.sol\":10155:10245  if (spender == address(0)) {... */\n    tag_218:\n        /* \"@openzeppelin/contracts/token/ERC20/ERC20.sol\":10284:10289  value */\n      dup2\n        /* \"@openzeppelin/contracts/token/ERC20/ERC20.sol\":10254:10265  _allowances */\n      0x01\n        /* \"@openzeppelin/contracts/token/ERC20/ERC20.sol\":10254:10272  _allowances[owner] */\n      0x00\n        /* \"@openzeppelin/contracts/token/ERC20/ERC20.sol\":10266:10271  owner */\n      dup7\n        /* \"@openzeppelin/contracts/token/ERC20/ERC20.sol\":10254:10272  _allowances[owner] */\n      0xffffffffffffffffffffffffffffffffffffffff\n      and\n      0xffffffffffffffffffffffffffffffffffffffff\n      and\n      dup2\n      mstore\n      0x20\n      add\n      swap1\n      dup2\n      mstore\n      0x20\n      add\n      0x00\n      keccak256\n        /* \"@openzeppelin/contracts/token/ERC20/ERC20.sol\":10254:10281  _allowances[owner][spender] */\n      0x00\n        /* \"@openzeppelin/contracts/token/ERC20/ERC20.sol\":10273:10280  spender */\n      dup6\n        /* \"@openzeppelin/contracts/token/ERC20/ERC20.sol\":10254:10281  _allowances[owner][spender] */\n      0xffffffffffffffffffffffffffffffffffffffff\n      and\n      0xffffffffffffffffffffffffffffffffffffffff\n      and\n      dup2\n      mstore\n      0x20\n      add\n      swap1\n      dup2\n      mstore\n      0x20\n      add\n      0x00\n      keccak256\n        /* \"@openzeppelin/contracts/token/ERC20/ERC20.sol\":10254:10289  _allowances[owner][spender] = value */\n      dup2\n      swap1\n      sstore\n      pop\n        /* \"@openzeppelin/contracts/token/ERC20/ERC20.sol\":10303:10312  emitEvent */\n      dup1\n        /* \"@openzeppelin/contracts/token/ERC20/ERC20.sol\":10299:10375  if (emitEvent) {... */\n      iszero\n      tag_220\n      jumpi\n        /* \"@openzeppelin/contracts/token/ERC20/ERC20.sol\":10349:10356  spender */\n      dup3\n        /* \"@openzeppelin/contracts/token/ERC20/ERC20.sol\":10333:10364  Approval(owner, spender, value) */\n      0xffffffffffffffffffffffffffffffffffffffff\n      and\n        /* \"@openzeppelin/contracts/token/ERC20/ERC20.sol\":10342:10347  owner */\n      dup5\n        /* \"@openzeppelin/contracts/token/ERC20/ERC20.sol\":10333:10364  Approval(owner, spender, value) */\n      0xffffffffffffffffffffffffffffffffffffffff\n      and\n      0x8c5be1e5ebec7d5bd14f71427d1e84f3dd0314c0f7b2291e5b200ac8c7c3b925\n        /* \"@openzeppelin/contracts/token/ERC20/ERC20.sol\":10358:10363  value */\n      dup5\n        /* \"@openzeppelin/contracts/token/ERC20/ERC20.sol\":10333:10364  Approval(owner, spender, value) */\n      mload(0x40)\n      tag_221\n      swap2\n      swap1\n      tag_35\n      jump\t// in\n    tag_221:\n      mload(0x40)\n      dup1\n      swap2\n      sub\n      swap1\n      log3\n        /* \"@openzeppelin/contracts/token/ERC20/ERC20.sol\":10299:10375  if (emitEvent) {... */\n    tag_220:\n        /* \"@openzeppelin/contracts/token/ERC20/ERC20.sol\":9949:10381  function _approve(address owner, address spender, uint256 value, bool emitEvent) internal virtual {... */\n      pop\n      pop\n      pop\n      pop\n      jump\t// out\n        /* \"@openzeppelin/contracts/token/ERC20/ERC20.sol\":6271:7378  function _update(address from, address to, uint256 value) internal virtual {... */\n    tag_201:\n        /* \"@openzeppelin/contracts/token/ERC20/ERC20.sol\":6376:6377  0 */\n      0x00\n        /* \"@openzeppelin/contracts/token/ERC20/ERC20.sol\":6360:6378  from == address(0) */\n      0xffffffffffffffffffffffffffffffffffffffff\n      and\n        /* \"@openzeppelin/contracts/token/ERC20/ERC20.sol\":6360:6364  from */\n      dup4\n        /* \"@openzeppelin/contracts/token/ERC20/ERC20.sol\":6360:6378  from == address(0) */\n      0xffffffffffffffffffffffffffffffffffffffff\n      and\n      sub\n        /* \"@openzeppelin/contracts/token/ERC20/ERC20.sol\":6356:6896  if (from == address(0)) {... */\n      tag_223\n      jumpi\n        /* \"@openzeppelin/contracts/token/ERC20/ERC20.sol\":6512:6517  value */\n      dup1\n        /* \"@openzeppelin/contracts/token/ERC20/ERC20.sol\":6496:6508  _totalSupply */\n      0x02\n      0x00\n        /* \"@openzeppelin/contracts/token/ERC20/ERC20.sol\":6496:6517  _totalSupply += value */\n      dup3\n      dup3\n      sload\n      tag_224\n      swap2\n      swap1\n      tag_112\n      jump\t// in\n    tag_224:\n      swap3\n      pop\n      pop\n      dup2\n      swap1\n      sstore\n      pop\n        /* \"@openzeppelin/contracts/token/ERC20/ERC20.sol\":6356:6896  if (from == address(0)) {... */\n      jump(tag_225)\n    tag_223:\n        /* \"@openzeppelin/contracts/token/ERC20/ERC20.sol\":6548:6567  uint256 fromBalance */\n      0x00\n        /* \"@openzeppelin/contracts/token/ERC20/ERC20.sol\":6570:6579  _balances */\n      dup1\n        /* \"@openzeppelin/contracts/token/ERC20/ERC20.sol\":6570:6585  _balances[from] */\n      0x00\n        /* \"@openzeppelin/contracts/token/ERC20/ERC20.sol\":6580:6584  from */\n      dup6\n        /* \"@openzeppelin/contracts/token/ERC20/ERC20.sol\":6570:6585  _balances[from] */\n      0xffffffffffffffffffffffffffffffffffffffff\n      and\n      0xffffffffffffffffffffffffffffffffffffffff\n      and\n      dup2\n      mstore\n      0x20\n      add\n      swap1\n      dup2\n      mstore\n      0x20\n      add\n      0x00\n      keccak256\n      sload\n        /* \"@openzeppelin/contracts/token/ERC20/ERC20.sol\":6548:6585  uint256 fromBalance = _balances[from] */\n      swap1\n      pop\n        /* \"@openzeppelin/contracts/token/ERC20/ERC20.sol\":6617:6622  value */\n      dup2\n        /* \"@openzeppelin/contracts/token/ERC20/ERC20.sol\":6603:6614  fromBalance */\n      dup2\n        /* \"@openzeppelin/contracts/token/ERC20/ERC20.sol\":6603:6622  fromBalance < value */\n      lt\n        /* \"@openzeppelin/contracts/token/ERC20/ERC20.sol\":6599:6714  if (fromBalance < value) {... */\n      iszero\n      tag_226\n      jumpi\n        /* \"@openzeppelin/contracts/token/ERC20/ERC20.sol\":6674:6678  from */\n      dup4\n        /* \"@openzeppelin/contracts/token/ERC20/ERC20.sol\":6680:6691  fromBalance */\n      dup2\n        /* \"@openzeppelin/contracts/token/ERC20/ERC20.sol\":6693:6698  value */\n      dup4\n        /* \"@openzeppelin/contracts/token/ERC20/ERC20.sol\":6649:6699  ERC20InsufficientBalance(from, fromBalance, value) */\n      mload(0x40)\n      0xe450d38c00000000000000000000000000000000000000000000000000000000\n      dup2\n      mstore\n      0x04\n      add\n      tag_227\n      swap4\n      swap3\n      swap2\n      swap1\n      tag_192\n      jump\t// in\n    tag_227:\n      mload(0x40)\n      dup1\n      swap2\n      sub\n      swap1\n      revert\n        /* \"@openzeppelin/contracts/token/ERC20/ERC20.sol\":6599:6714  if (fromBalance < value) {... */\n    tag_226:\n        /* \"@openzeppelin/contracts/token/ERC20/ERC20.sol\":6866:6871  value */\n      dup2\n        /* \"@openzeppelin/contracts/token/ERC20/ERC20.sol\":6852:6863  fromBalance */\n      dup2\n        /* \"@openzeppelin/contracts/token/ERC20/ERC20.sol\":6852:6871  fromBalance - value */\n      sub\n        /* \"@openzeppelin/contracts/token/ERC20/ERC20.sol\":6834:6843  _balances */\n      0x00\n        /* \"@openzeppelin/contracts/token/ERC20/ERC20.sol\":6834:6849  _balances[from] */\n      dup1\n        /* \"@openzeppelin/contracts/token/ERC20/ERC20.sol\":6844:6848  from */\n      dup7\n        /* \"@openzeppelin/contracts/token/ERC20/ERC20.sol\":6834:6849  _balances[from] */\n      0xffffffffffffffffffffffffffffffffffffffff\n      and\n      0xffffffffffffffffffffffffffffffffffffffff\n      and\n      dup2\n      mstore\n      0x20\n      add\n      swap1\n      dup2\n      mstore\n      0x20\n      add\n      0x00\n      keccak256\n        /* \"@openzeppelin/contracts/token/ERC20/ERC20.sol\":6834:6871  _balances[from] = fromBalance - value */\n      dup2\n      swap1\n      sstore\n      pop\n        /* \"@openzeppelin/contracts/token/ERC20/ERC20.sol\":6534:6896  {... */\n      pop\n        /* \"@openzeppelin/contracts/token/ERC20/ERC20.sol\":6356:6896  if (from == address(0)) {... */\n    tag_225:\n        /* \"@openzeppelin/contracts/token/ERC20/ERC20.sol\":6924:6925  0 */\n      0x00\n        /* \"@openzeppelin/contracts/token/ERC20/ERC20.sol\":6910:6926  to == address(0) */\n      0xffffffffffffffffffffffffffffffffffffffff\n      and\n        /* \"@openzeppelin/contracts/token/ERC20/ERC20.sol\":6910:6912  to */\n      dup3\n        /* \"@openzeppelin/contracts/token/ERC20/ERC20.sol\":6910:6926  to == address(0) */\n      0xffffffffffffffffffffffffffffffffffffffff\n      and\n      sub\n        /* \"@openzeppelin/contracts/token/ERC20/ERC20.sol\":6906:7331  if (to == address(0)) {... */\n      tag_228\n      jumpi\n        /* \"@openzeppelin/contracts/token/ERC20/ERC20.sol\":7089:7094  value */\n      dup1\n        /* \"@openzeppelin/contracts/token/ERC20/ERC20.sol\":7073:7085  _totalSupply */\n      0x02\n      0x00\n        /* \"@openzeppelin/contracts/token/ERC20/ERC20.sol\":7073:7094  _totalSupply -= value */\n      dup3\n      dup3\n      sload\n      sub\n      swap3\n      pop\n      pop\n      dup2\n      swap1\n      sstore\n      pop\n        /* \"@openzeppelin/contracts/token/ERC20/ERC20.sol\":6906:7331  if (to == address(0)) {... */\n      jump(tag_229)\n    tag_228:\n        /* \"@openzeppelin/contracts/token/ERC20/ERC20.sol\":7301:7306  value */\n      dup1\n        /* \"@openzeppelin/contracts/token/ERC20/ERC20.sol\":7284:7293  _balances */\n      0x00\n        /* \"@openzeppelin/contracts/token/ERC20/ERC20.sol\":7284:7297  _balances[to] */\n      dup1\n        /* \"@openzeppelin/contracts/token/ERC20/ERC20.sol\":7294:7296  to */\n      dup5\n        /* \"@openzeppelin/contracts/token/ERC20/ERC20.sol\":7284:7297  _balances[to] */\n      0xffffffffffffffffffffffffffffffffffffffff\n      and\n      0xffffffffffffffffffffffffffffffffffffffff\n      and\n      dup2\n      mstore\n      0x20\n      add\n      swap1\n      dup2\n      mstore\n      0x20\n      add\n      0x00\n      keccak256\n      0x00\n        /* \"@openzeppelin/contracts/token/ERC20/ERC20.sol\":7284:7306  _balances[to] += value */\n      dup3\n      dup3\n      sload\n      add\n      swap3\n      pop\n      pop\n      dup2\n      swap1\n      sstore\n      pop\n        /* \"@openzeppelin/contracts/token/ERC20/ERC20.sol\":6906:7331  if (to == address(0)) {... */\n    tag_229:\n        /* \"@openzeppelin/contracts/token/ERC20/ERC20.sol\":7361:7363  to */\n      dup2\n        /* \"@openzeppelin/contracts/token/ERC20/ERC20.sol\":7346:7371  Transfer(from, to, value) */\n      0xffffffffffffffffffffffffffffffffffffffff\n      and\n        /* \"@openzeppelin/contracts/token/ERC20/ERC20.sol\":7355:7359  from */\n      dup4\n        /* \"@openzeppelin/contracts/token/ERC20/ERC20.sol\":7346:7371  Transfer(from, to, value) */\n      0xffffffffffffffffffffffffffffffffffffffff\n      and\n      0xddf252ad1be2c89b69c2b068fc378daa952ba7f163c4a11628f55a4df523b3ef\n        /* \"@openzeppelin/contracts/token/ERC20/ERC20.sol\":7365:7370  value */\n      dup4\n        /* \"@openzeppelin/contracts/token/ERC20/ERC20.sol\":7346:7371  Transfer(from, to, value) */\n      mload(0x40)\n      tag_230\n      swap2\n      swap1\n      tag_35\n      jump\t// in\n    tag_230:\n      mload(0x40)\n      dup1\n      swap2\n      sub\n      swap1\n      log3\n        /* \"@openzeppelin/contracts/token/ERC20/ERC20.sol\":6271:7378  function _update(address from, address to, uint256 value) internal virtual {... */\n      pop\n      pop\n      pop\n      jump\t// out\n        /* \"@openzeppelin/contracts/utils/structs/EnumerableSet.sol\":4264:4393  function _contains(Set storage set, bytes32 value) private view returns (bool) {... */\n    tag_208:\n        /* \"@openzeppelin/contracts/utils/structs/EnumerableSet.sol\":4337:4341  bool */\n      0x00\n        /* \"@openzeppelin/contracts/utils/structs/EnumerableSet.sol\":4385:4386  0 */\n      dup1\n        /* \"@openzeppelin/contracts/utils/structs/EnumerableSet.sol\":4360:4363  set */\n      dup4\n        /* \"@openzeppelin/contracts/utils/structs/EnumerableSet.sol\":4360:4374  set._positions */\n      0x01\n      add\n        /* \"@openzeppelin/contracts/utils/structs/EnumerableSet.sol\":4360:4381  set._positions[value] */\n      0x00\n        /* \"@openzeppelin/contracts/utils/structs/EnumerableSet.sol\":4375:4380  value */\n      dup5\n        /* \"@openzeppelin/contracts/utils/structs/EnumerableSet.sol\":4360:4381  set._positions[value] */\n      dup2\n      mstore\n      0x20\n      add\n      swap1\n      dup2\n      mstore\n      0x20\n      add\n      0x00\n      keccak256\n      sload\n        /* \"@openzeppelin/contracts/utils/structs/EnumerableSet.sol\":4360:4386  set._positions[value] != 0 */\n      eq\n      iszero\n        /* \"@openzeppelin/contracts/utils/structs/EnumerableSet.sol\":4353:4386  return set._positions[value] != 0 */\n      swap1\n      pop\n        /* \"@openzeppelin/contracts/utils/structs/EnumerableSet.sol\":4264:4393  function _contains(Set storage set, bytes32 value) private view returns (bool) {... */\n      swap3\n      swap2\n      pop\n      pop\n      jump\t// out\n        /* \"@openzeppelin/contracts/utils/structs/EnumerableSet.sol\":2241:2647  function _add(Set storage set, bytes32 value) private returns (bool) {... */\n    tag_211:\n        /* \"@openzeppelin/contracts/utils/structs/EnumerableSet.sol\":2304:2308  bool */\n      0x00\n        /* \"@openzeppelin/contracts/utils/structs/EnumerableSet.sol\":2325:2346  _contains(set, value) */\n      tag_233\n        /* \"@openzeppelin/contracts/utils/structs/EnumerableSet.sol\":2335:2338  set */\n      dup4\n        /* \"@openzeppelin/contracts/utils/structs/EnumerableSet.sol\":2340:2345  value */\n      dup4\n        /* \"@openzeppelin/contracts/utils/structs/EnumerableSet.sol\":2325:2334  _contains */\n      tag_208\n        /* \"@openzeppelin/contracts/utils/structs/EnumerableSet.sol\":2325:2346  _contains(set, value) */\n      jump\t// in\n    tag_233:\n        /* \"@openzeppelin/contracts/utils/structs/EnumerableSet.sol\":2320:2641  if (!_contains(set, value)) {... */\n      tag_234\n      jumpi\n        /* \"@openzeppelin/contracts/utils/structs/EnumerableSet.sol\":2362:2365  set */\n      dup3\n        /* \"@openzeppelin/contracts/utils/structs/EnumerableSet.sol\":2362:2373  set._values */\n      0x00\n      add\n        /* \"@openzeppelin/contracts/utils/structs/EnumerableSet.sol\":2379:2384  value */\n      dup3\n        /* \"@openzeppelin/contracts/utils/structs/EnumerableSet.sol\":2362:2385  set._values.push(value) */\n      swap1\n      dup1\n      0x01\n      dup2\n      sload\n      add\n      dup1\n      dup3\n      sstore\n      dup1\n      swap2\n      pop\n      pop\n      0x01\n      swap1\n      sub\n      swap1\n      0x00\n      mstore\n      keccak256(0x00, 0x20)\n      add\n      0x00\n      swap1\n      swap2\n      swap1\n      swap2\n      swap1\n      swap2\n      pop\n      sstore\n        /* \"@openzeppelin/contracts/utils/structs/EnumerableSet.sol\":2544:2547  set */\n      dup3\n        /* \"@openzeppelin/contracts/utils/structs/EnumerableSet.sol\":2544:2555  set._values */\n      0x00\n      add\n        /* \"@openzeppelin/contracts/utils/structs/EnumerableSet.sol\":2544:2562  set._values.length */\n      dup1\n      sload\n      swap1\n      pop\n        /* \"@openzeppelin/contracts/utils/structs/EnumerableSet.sol\":2520:2523  set */\n      dup4\n        /* \"@openzeppelin/contracts/utils/structs/EnumerableSet.sol\":2520:2534  set._positions */\n      0x01\n      add\n        /* \"@openzeppelin/contracts/utils/structs/EnumerableSet.sol\":2520:2541  set._positions[value] */\n      0x00\n        /* \"@openzeppelin/contracts/utils/structs/EnumerableSet.sol\":2535:2540  value */\n      dup5\n        /* \"@openzeppelin/contracts/utils/structs/EnumerableSet.sol\":2520:2541  set._positions[value] */\n      dup2\n      mstore\n      0x20\n      add\n      swap1\n      dup2\n      mstore\n      0x20\n      add\n      0x00\n      keccak256\n        /* \"@openzeppelin/contracts/utils/structs/EnumerableSet.sol\":2520:2562  set._positions[value] = set._values.length */\n      dup2\n      swap1\n      sstore\n      pop\n        /* \"@openzeppelin/contracts/utils/structs/EnumerableSet.sol\":2583:2587  true */\n      0x01\n        /* \"@openzeppelin/contracts/utils/structs/EnumerableSet.sol\":2576:2587  return true */\n      swap1\n      pop\n      jump(tag_232)\n        /* \"@openzeppelin/contracts/utils/structs/EnumerableSet.sol\":2320:2641  if (!_contains(set, value)) {... */\n    tag_234:\n        /* \"@openzeppelin/contracts/utils/structs/EnumerableSet.sol\":2625:2630  false */\n      0x00\n        /* \"@openzeppelin/contracts/utils/structs/EnumerableSet.sol\":2618:2630  return false */\n      swap1\n      pop\n        /* \"@openzeppelin/contracts/utils/structs/EnumerableSet.sol\":2241:2647  function _add(Set storage set, bytes32 value) private returns (bool) {... */\n    tag_232:\n      swap3\n      swap2\n      pop\n      pop\n      jump\t// out\n        /* \"@openzeppelin/contracts/utils/structs/EnumerableSet.sol\":5581:5690  function _values(Set storage set) private view returns (bytes32[] memory) {... */\n    tag_214:\n        /* \"@openzeppelin/contracts/utils/structs/EnumerableSet.sol\":5637:5653  bytes32[] memory */\n      0x60\n        /* \"@openzeppelin/contracts/utils/structs/EnumerableSet.sol\":5672:5675  set */\n      dup2\n        /* \"@openzeppelin/contracts/utils/structs/EnumerableSet.sol\":5672:5683  set._values */\n      0x00\n      add\n        /* \"@openzeppelin/contracts/utils/structs/EnumerableSet.sol\":5665:5683  return set._values */\n      dup1\n      sload\n      dup1\n      0x20\n      mul\n      0x20\n      add\n      mload(0x40)\n      swap1\n      dup2\n      add\n      0x40\n      mstore\n      dup1\n      swap3\n      swap2\n      swap1\n      dup2\n      dup2\n      mstore\n      0x20\n      add\n      dup3\n      dup1\n      sload\n      dup1\n      iszero\n      tag_238\n      jumpi\n      0x20\n      mul\n      dup3\n      add\n      swap2\n      swap1\n      0x00\n      mstore\n      keccak256(0x00, 0x20)\n      swap1\n    tag_239:\n      dup2\n      sload\n      dup2\n      mstore\n      0x20\n      add\n      swap1\n      0x01\n      add\n      swap1\n      dup1\n      dup4\n      gt\n      tag_239\n      jumpi\n    tag_238:\n      pop\n      pop\n      pop\n      pop\n      pop\n      swap1\n      pop\n        /* \"@openzeppelin/contracts/utils/structs/EnumerableSet.sol\":5581:5690  function _values(Set storage set) private view returns (bytes32[] memory) {... */\n      swap2\n      swap1\n      pop\n      jump\t// out\n    tag_167:\n      mload(0x40)\n      dup1\n      0x0120\n      add\n      0x40\n      mstore\n      dup1\n      0x60\n      dup2\n      mstore\n      0x20\n      add\n      0x60\n      dup2\n      mstore\n      0x20\n      add\n      0x00\n      dup2\n      mstore\n      0x20\n      add\n      0x00\n      dup2\n      mstore\n      0x20\n      add\n      0x00\n      dup2\n      mstore\n      0x20\n      add\n      0x00\n      dup2\n      mstore\n      0x20\n      add\n      0x00\n      dup2\n      mstore\n      0x20\n      add\n      iszero(iszero(0x00))\n      dup2\n      mstore\n      0x20\n      add\n      iszero(iszero(0x00))\n      dup2\n      mstore\n      pop\n      swap1\n      jump\t// out\n        /* \"#utility.yul\":7:106   */\n    tag_240:\n        /* \"#utility.yul\":59:65   */\n      0x00\n        /* \"#utility.yul\":93:98   */\n      dup2\n        /* \"#utility.yul\":87:99   */\n      mload\n        /* \"#utility.yul\":77:99   */\n      swap1\n      pop\n        /* \"#utility.yul\":7:106   */\n      swap2\n      swap1\n      pop\n      jump\t// out\n        /* \"#utility.yul\":112:281   */\n    tag_241:\n        /* \"#utility.yul\":196:207   */\n      0x00\n        /* \"#utility.yul\":230:236   */\n      dup3\n        /* \"#utility.yul\":225:228   */\n      dup3\n        /* \"#utility.yul\":218:237   */\n      mstore\n        /* \"#utility.yul\":270:274   */\n      0x20\n        /* \"#utility.yul\":265:268   */\n      dup3\n        /* \"#utility.yul\":261:275   */\n      add\n        /* \"#utility.yul\":246:275   */\n      swap1\n      pop\n        /* \"#utility.yul\":112:281   */\n      swap3\n      swap2\n      pop\n      pop\n      jump\t// out\n        /* \"#utility.yul\":287:533   */\n    tag_242:\n        /* \"#utility.yul\":368:369   */\n      0x00\n        /* \"#utility.yul\":378:491   */\n    tag_302:\n        /* \"#utility.yul\":392:398   */\n      dup4\n        /* \"#utility.yul\":389:390   */\n      dup2\n        /* \"#utility.yul\":386:399   */\n      lt\n        /* \"#utility.yul\":378:491   */\n      iszero\n      tag_304\n      jumpi\n        /* \"#utility.yul\":477:478   */\n      dup1\n        /* \"#utility.yul\":472:475   */\n      dup3\n        /* \"#utility.yul\":468:479   */\n      add\n        /* \"#utility.yul\":462:480   */\n      mload\n        /* \"#utility.yul\":458:459   */\n      dup2\n        /* \"#utility.yul\":453:456   */\n      dup5\n        /* \"#utility.yul\":449:460   */\n      add\n        /* \"#utility.yul\":442:481   */\n      mstore\n        /* \"#utility.yul\":414:416   */\n      0x20\n        /* \"#utility.yul\":411:412   */\n      dup2\n        /* \"#utility.yul\":407:417   */\n      add\n        /* \"#utility.yul\":402:417   */\n      swap1\n      pop\n        /* \"#utility.yul\":378:491   */\n      jump(tag_302)\n    tag_304:\n        /* \"#utility.yul\":525:526   */\n      0x00\n        /* \"#utility.yul\":516:522   */\n      dup5\n        /* \"#utility.yul\":511:514   */\n      dup5\n        /* \"#utility.yul\":507:523   */\n      add\n        /* \"#utility.yul\":500:527   */\n      mstore\n        /* \"#utility.yul\":349:533   */\n      pop\n        /* \"#utility.yul\":287:533   */\n      pop\n      pop\n      pop\n      jump\t// out\n        /* \"#utility.yul\":539:641   */\n    tag_243:\n        /* \"#utility.yul\":580:586   */\n      0x00\n        /* \"#utility.yul\":631:633   */\n      0x1f\n        /* \"#utility.yul\":627:634   */\n      not\n        /* \"#utility.yul\":622:624   */\n      0x1f\n        /* \"#utility.yul\":615:620   */\n      dup4\n        /* \"#utility.yul\":611:625   */\n      add\n        /* \"#utility.yul\":607:635   */\n      and\n        /* \"#utility.yul\":597:635   */\n      swap1\n      pop\n        /* \"#utility.yul\":539:641   */\n      swap2\n      swap1\n      pop\n      jump\t// out\n        /* \"#utility.yul\":647:1024   */\n    tag_244:\n        /* \"#utility.yul\":735:738   */\n      0x00\n        /* \"#utility.yul\":763:802   */\n      tag_307\n        /* \"#utility.yul\":796:801   */\n      dup3\n        /* \"#utility.yul\":763:802   */\n      tag_240\n      jump\t// in\n    tag_307:\n        /* \"#utility.yul\":818:889   */\n      tag_308\n        /* \"#utility.yul\":882:888   */\n      dup2\n        /* \"#utility.yul\":877:880   */\n      dup6\n        /* \"#utility.yul\":818:889   */\n      tag_241\n      jump\t// in\n    tag_308:\n        /* \"#utility.yul\":811:889   */\n      swap4\n      pop\n        /* \"#utility.yul\":898:963   */\n      tag_309\n        /* \"#utility.yul\":956:962   */\n      dup2\n        /* \"#utility.yul\":951:954   */\n      dup6\n        /* \"#utility.yul\":944:948   */\n      0x20\n        /* \"#utility.yul\":937:942   */\n      dup7\n        /* \"#utility.yul\":933:949   */\n      add\n        /* \"#utility.yul\":898:963   */\n      tag_242\n      jump\t// in\n    tag_309:\n        /* \"#utility.yul\":988:1017   */\n      tag_310\n        /* \"#utility.yul\":1010:1016   */\n      dup2\n        /* \"#utility.yul\":988:1017   */\n      tag_243\n      jump\t// in\n    tag_310:\n        /* \"#utility.yul\":983:986   */\n      dup5\n        /* \"#utility.yul\":979:1018   */\n      add\n        /* \"#utility.yul\":972:1018   */\n      swap2\n      pop\n        /* \"#utility.yul\":739:1024   */\n      pop\n        /* \"#utility.yul\":647:1024   */\n      swap3\n      swap2\n      pop\n      pop\n      jump\t// out\n        /* \"#utility.yul\":1030:1343   */\n    tag_25:\n        /* \"#utility.yul\":1143:1147   */\n      0x00\n        /* \"#utility.yul\":1181:1183   */\n      0x20\n        /* \"#utility.yul\":1170:1179   */\n      dup3\n        /* \"#utility.yul\":1166:1184   */\n      add\n        /* \"#utility.yul\":1158:1184   */\n      swap1\n      pop\n        /* \"#utility.yul\":1230:1239   */\n      dup2\n        /* \"#utility.yul\":1224:1228   */\n      dup2\n        /* \"#utility.yul\":1220:1240   */\n      sub\n        /* \"#utility.yul\":1216:1217   */\n      0x00\n        /* \"#utility.yul\":1205:1214   */\n      dup4\n        /* \"#utility.yul\":1201:1218   */\n      add\n        /* \"#utility.yul\":1194:1241   */\n      mstore\n        /* \"#utility.yul\":1258:1336   */\n      tag_312\n        /* \"#utility.yul\":1331:1335   */\n      dup2\n        /* \"#utility.yul\":1322:1328   */\n      dup5\n        /* \"#utility.yul\":1258:1336   */\n      tag_244\n      jump\t// in\n    tag_312:\n        /* \"#utility.yul\":1250:1336   */\n      swap1\n      pop\n        /* \"#utility.yul\":1030:1343   */\n      swap3\n      swap2\n      pop\n      pop\n      jump\t// out\n        /* \"#utility.yul\":1430:1547   */\n    tag_246:\n        /* \"#utility.yul\":1539:1540   */\n      0x00\n        /* \"#utility.yul\":1536:1537   */\n      dup1\n        /* \"#utility.yul\":1529:1541   */\n      revert\n        /* \"#utility.yul\":1553:1670   */\n    tag_247:\n        /* \"#utility.yul\":1662:1663   */\n      0x00\n        /* \"#utility.yul\":1659:1660   */\n      dup1\n        /* \"#utility.yul\":1652:1664   */\n      revert\n        /* \"#utility.yul\":1676:1802   */\n    tag_248:\n        /* \"#utility.yul\":1713:1720   */\n      0x00\n        /* \"#utility.yul\":1753:1795   */\n      0xffffffffffffffffffffffffffffffffffffffff\n        /* \"#utility.yul\":1746:1751   */\n      dup3\n        /* \"#utility.yul\":1742:1796   */\n      and\n        /* \"#utility.yul\":1731:1796   */\n      swap1\n      pop\n        /* \"#utility.yul\":1676:1802   */\n      swap2\n      swap1\n      pop\n      jump\t// out\n        /* \"#utility.yul\":1808:1904   */\n    tag_249:\n        /* \"#utility.yul\":1845:1852   */\n      0x00\n        /* \"#utility.yul\":1874:1898   */\n      tag_318\n        /* \"#utility.yul\":1892:1897   */\n      dup3\n        /* \"#utility.yul\":1874:1898   */\n      tag_248\n      jump\t// in\n    tag_318:\n        /* \"#utility.yul\":1863:1898   */\n      swap1\n      pop\n        /* \"#utility.yul\":1808:1904   */\n      swap2\n      swap1\n      pop\n      jump\t// out\n        /* \"#utility.yul\":1910:2032   */\n    tag_250:\n        /* \"#utility.yul\":1983:2007   */\n      tag_320\n        /* \"#utility.yul\":2001:2006   */\n      dup2\n        /* \"#utility.yul\":1983:2007   */\n      tag_249\n      jump\t// in\n    tag_320:\n        /* \"#utility.yul\":1976:1981   */\n      dup2\n        /* \"#utility.yul\":1973:2008   */\n      eq\n        /* \"#utility.yul\":1963:2026   */\n      tag_321\n      jumpi\n        /* \"#utility.yul\":2022:2023   */\n      0x00\n        /* \"#utility.yul\":2019:2020   */\n      dup1\n        /* \"#utility.yul\":2012:2024   */\n      revert\n        /* \"#utility.yul\":1963:2026   */\n    tag_321:\n        /* \"#utility.yul\":1910:2032   */\n      pop\n      jump\t// out\n        /* \"#utility.yul\":2038:2177   */\n    tag_251:\n        /* \"#utility.yul\":2084:2089   */\n      0x00\n        /* \"#utility.yul\":2122:2128   */\n      dup2\n        /* \"#utility.yul\":2109:2129   */\n      calldataload\n        /* \"#utility.yul\":2100:2129   */\n      swap1\n      pop\n        /* \"#utility.yul\":2138:2171   */\n      tag_323\n        /* \"#utility.yul\":2165:2170   */\n      dup2\n        /* \"#utility.yul\":2138:2171   */\n      tag_250\n      jump\t// in\n    tag_323:\n        /* \"#utility.yul\":2038:2177   */\n      swap3\n      swap2\n      pop\n      pop\n      jump\t// out\n        /* \"#utility.yul\":2183:2260   */\n    tag_252:\n        /* \"#utility.yul\":2220:2227   */\n      0x00\n        /* \"#utility.yul\":2249:2254   */\n      dup2\n        /* \"#utility.yul\":2238:2254   */\n      swap1\n      pop\n        /* \"#utility.yul\":2183:2260   */\n      swap2\n      swap1\n      pop\n      jump\t// out\n        /* \"#utility.yul\":2266:2388   */\n    tag_253:\n        /* \"#utility.yul\":2339:2363   */\n      tag_326\n        /* \"#utility.yul\":2357:2362   */\n      dup2\n        /* \"#utility.yul\":2339:2363   */\n      tag_252\n      jump\t// in\n    tag_326:\n        /* \"#utility.yul\":2332:2337   */\n      dup2\n        /* \"#utility.yul\":2329:2364   */\n      eq\n        /* \"#utility.yul\":2319:2382   */\n      tag_327\n      jumpi\n        /* \"#utility.yul\":2378:2379   */\n      0x00\n        /* \"#utility.yul\":2375:2376   */\n      dup1\n        /* \"#utility.yul\":2368:2380   */\n      revert\n        /* \"#utility.yul\":2319:2382   */\n    tag_327:\n        /* \"#utility.yul\":2266:2388   */\n      pop\n      jump\t// out\n        /* \"#utility.yul\":2394:2533   */\n    tag_254:\n        /* \"#utility.yul\":2440:2445   */\n      0x00\n        /* \"#utility.yul\":2478:2484   */\n      dup2\n        /* \"#utility.yul\":2465:2485   */\n      calldataload\n        /* \"#utility.yul\":2456:2485   */\n      swap1\n      pop\n        /* \"#utility.yul\":2494:2527   */\n      tag_329\n        /* \"#utility.yul\":2521:2526   */\n      dup2\n        /* \"#utility.yul\":2494:2527   */\n      tag_253\n      jump\t// in\n    tag_329:\n        /* \"#utility.yul\":2394:2533   */\n      swap3\n      swap2\n      pop\n      pop\n      jump\t// out\n        /* \"#utility.yul\":2539:3013   */\n    tag_28:\n        /* \"#utility.yul\":2607:2613   */\n      0x00\n        /* \"#utility.yul\":2615:2621   */\n      dup1\n        /* \"#utility.yul\":2664:2666   */\n      0x40\n        /* \"#utility.yul\":2652:2661   */\n      dup4\n        /* \"#utility.yul\":2643:2650   */\n      dup6\n        /* \"#utility.yul\":2639:2662   */\n      sub\n        /* \"#utility.yul\":2635:2667   */\n      slt\n        /* \"#utility.yul\":2632:2751   */\n      iszero\n      tag_331\n      jumpi\n        /* \"#utility.yul\":2670:2749   */\n      tag_332\n      tag_246\n      jump\t// in\n    tag_332:\n        /* \"#utility.yul\":2632:2751   */\n    tag_331:\n        /* \"#utility.yul\":2790:2791   */\n      0x00\n        /* \"#utility.yul\":2815:2868   */\n      tag_333\n        /* \"#utility.yul\":2860:2867   */\n      dup6\n        /* \"#utility.yul\":2851:2857   */\n      dup3\n        /* \"#utility.yul\":2840:2849   */\n      dup7\n        /* \"#utility.yul\":2836:2858   */\n      add\n        /* \"#utility.yul\":2815:2868   */\n      tag_251\n      jump\t// in\n    tag_333:\n        /* \"#utility.yul\":2805:2868   */\n      swap3\n      pop\n        /* \"#utility.yul\":2761:2878   */\n      pop\n        /* \"#utility.yul\":2917:2919   */\n      0x20\n        /* \"#utility.yul\":2943:2996   */\n      tag_334\n        /* \"#utility.yul\":2988:2995   */\n      dup6\n        /* \"#utility.yul\":2979:2985   */\n      dup3\n        /* \"#utility.yul\":2968:2977   */\n      dup7\n        /* \"#utility.yul\":2964:2986   */\n      add\n        /* \"#utility.yul\":2943:2996   */\n      tag_254\n      jump\t// in\n    tag_334:\n        /* \"#utility.yul\":2933:2996   */\n      swap2\n      pop\n        /* \"#utility.yul\":2888:3006   */\n      pop\n        /* \"#utility.yul\":2539:3013   */\n      swap3\n      pop\n      swap3\n      swap1\n      pop\n      jump\t// out\n        /* \"#utility.yul\":3019:3109   */\n    tag_255:\n        /* \"#utility.yul\":3053:3060   */\n      0x00\n        /* \"#utility.yul\":3096:3101   */\n      dup2\n        /* \"#utility.yul\":3089:3102   */\n      iszero\n        /* \"#utility.yul\":3082:3103   */\n      iszero\n        /* \"#utility.yul\":3071:3103   */\n      swap1\n      pop\n        /* \"#utility.yul\":3019:3109   */\n      swap2\n      swap1\n      pop\n      jump\t// out\n        /* \"#utility.yul\":3115:3224   */\n    tag_256:\n        /* \"#utility.yul\":3196:3217   */\n      tag_337\n        /* \"#utility.yul\":3211:3216   */\n      dup2\n        /* \"#utility.yul\":3196:3217   */\n      tag_255\n      jump\t// in\n    tag_337:\n        /* \"#utility.yul\":3191:3194   */\n      dup3\n        /* \"#utility.yul\":3184:3218   */\n      mstore\n        /* \"#utility.yul\":3115:3224   */\n      pop\n      pop\n      jump\t// out\n        /* \"#utility.yul\":3230:3440   */\n    tag_31:\n        /* \"#utility.yul\":3317:3321   */\n      0x00\n        /* \"#utility.yul\":3355:3357   */\n      0x20\n        /* \"#utility.yul\":3344:3353   */\n      dup3\n        /* \"#utility.yul\":3340:3358   */\n      add\n        /* \"#utility.yul\":3332:3358   */\n      swap1\n      pop\n        /* \"#utility.yul\":3368:3433   */\n      tag_339\n        /* \"#utility.yul\":3430:3431   */\n      0x00\n        /* \"#utility.yul\":3419:3428   */\n      dup4\n        /* \"#utility.yul\":3415:3432   */\n      add\n        /* \"#utility.yul\":3406:3412   */\n      dup5\n        /* \"#utility.yul\":3368:3433   */\n      tag_256\n      jump\t// in\n    tag_339:\n        /* \"#utility.yul\":3230:3440   */\n      swap3\n      swap2\n      pop\n      pop\n      jump\t// out\n        /* \"#utility.yul\":3446:3564   */\n    tag_257:\n        /* \"#utility.yul\":3533:3557   */\n      tag_341\n        /* \"#utility.yul\":3551:3556   */\n      dup2\n        /* \"#utility.yul\":3533:3557   */\n      tag_252\n      jump\t// in\n    tag_341:\n        /* \"#utility.yul\":3528:3531   */\n      dup3\n        /* \"#utility.yul\":3521:3558   */\n      mstore\n        /* \"#utility.yul\":3446:3564   */\n      pop\n      pop\n      jump\t// out\n        /* \"#utility.yul\":3570:3792   */\n    tag_35:\n        /* \"#utility.yul\":3663:3667   */\n      0x00\n        /* \"#utility.yul\":3701:3703   */\n      0x20\n        /* \"#utility.yul\":3690:3699   */\n      dup3\n        /* \"#utility.yul\":3686:3704   */\n      add\n        /* \"#utility.yul\":3678:3704   */\n      swap1\n      pop\n        /* \"#utility.yul\":3714:3785   */\n      tag_343\n        /* \"#utility.yul\":3782:3783   */\n      0x00\n        /* \"#utility.yul\":3771:3780   */\n      dup4\n        /* \"#utility.yul\":3767:3784   */\n      add\n        /* \"#utility.yul\":3758:3764   */\n      dup5\n        /* \"#utility.yul\":3714:3785   */\n      tag_257\n      jump\t// in\n    tag_343:\n        /* \"#utility.yul\":3570:3792   */\n      swap3\n      swap2\n      pop\n      pop\n      jump\t// out\n        /* \"#utility.yul\":3798:4417   */\n    tag_38:\n        /* \"#utility.yul\":3875:3881   */\n      0x00\n        /* \"#utility.yul\":3883:3889   */\n      dup1\n        /* \"#utility.yul\":3891:3897   */\n      0x00\n        /* \"#utility.yul\":3940:3942   */\n      0x60\n        /* \"#utility.yul\":3928:3937   */\n      dup5\n        /* \"#utility.yul\":3919:3926   */\n      dup7\n        /* \"#utility.yul\":3915:3938   */\n      sub\n        /* \"#utility.yul\":3911:3943   */\n      slt\n        /* \"#utility.yul\":3908:4027   */\n      iszero\n      tag_345\n      jumpi\n        /* \"#utility.yul\":3946:4025   */\n      tag_346\n      tag_246\n      jump\t// in\n    tag_346:\n        /* \"#utility.yul\":3908:4027   */\n    tag_345:\n        /* \"#utility.yul\":4066:4067   */\n      0x00\n        /* \"#utility.yul\":4091:4144   */\n      tag_347\n        /* \"#utility.yul\":4136:4143   */\n      dup7\n        /* \"#utility.yul\":4127:4133   */\n      dup3\n        /* \"#utility.yul\":4116:4125   */\n      dup8\n        /* \"#utility.yul\":4112:4134   */\n      add\n        /* \"#utility.yul\":4091:4144   */\n      tag_251\n      jump\t// in\n    tag_347:\n        /* \"#utility.yul\":4081:4144   */\n      swap4\n      pop\n        /* \"#utility.yul\":4037:4154   */\n      pop\n        /* \"#utility.yul\":4193:4195   */\n      0x20\n        /* \"#utility.yul\":4219:4272   */\n      tag_348\n        /* \"#utility.yul\":4264:4271   */\n      dup7\n        /* \"#utility.yul\":4255:4261   */\n      dup3\n        /* \"#utility.yul\":4244:4253   */\n      dup8\n        /* \"#utility.yul\":4240:4262   */\n      add\n        /* \"#utility.yul\":4219:4272   */\n      tag_251\n      jump\t// in\n    tag_348:\n        /* \"#utility.yul\":4209:4272   */\n      swap3\n      pop\n        /* \"#utility.yul\":4164:4282   */\n      pop\n        /* \"#utility.yul\":4321:4323   */\n      0x40\n        /* \"#utility.yul\":4347:4400   */\n      tag_349\n        /* \"#utility.yul\":4392:4399   */\n      dup7\n        /* \"#utility.yul\":4383:4389   */\n      dup3\n        /* \"#utility.yul\":4372:4381   */\n      dup8\n        /* \"#utility.yul\":4368:4390   */\n      add\n        /* \"#utility.yul\":4347:4400   */\n      tag_254\n      jump\t// in\n    tag_349:\n        /* \"#utility.yul\":4337:4400   */\n      swap2\n      pop\n        /* \"#utility.yul\":4292:4410   */\n      pop\n        /* \"#utility.yul\":3798:4417   */\n      swap3\n      pop\n      swap3\n      pop\n      swap3\n      jump\t// out\n        /* \"#utility.yul\":4423:4509   */\n    tag_258:\n        /* \"#utility.yul\":4458:4465   */\n      0x00\n        /* \"#utility.yul\":4498:4502   */\n      0xff\n        /* \"#utility.yul\":4491:4496   */\n      dup3\n        /* \"#utility.yul\":4487:4503   */\n      and\n        /* \"#utility.yul\":4476:4503   */\n      swap1\n      pop\n        /* \"#utility.yul\":4423:4509   */\n      swap2\n      swap1\n      pop\n      jump\t// out\n        /* \"#utility.yul\":4515:4627   */\n    tag_259:\n        /* \"#utility.yul\":4598:4620   */\n      tag_352\n        /* \"#utility.yul\":4614:4619   */\n      dup2\n        /* \"#utility.yul\":4598:4620   */\n      tag_258\n      jump\t// in\n    tag_352:\n        /* \"#utility.yul\":4593:4596   */\n      dup3\n        /* \"#utility.yul\":4586:4621   */\n      mstore\n        /* \"#utility.yul\":4515:4627   */\n      pop\n      pop\n      jump\t// out\n        /* \"#utility.yul\":4633:4847   */\n    tag_44:\n        /* \"#utility.yul\":4722:4726   */\n      0x00\n        /* \"#utility.yul\":4760:4762   */\n      0x20\n        /* \"#utility.yul\":4749:4758   */\n      dup3\n        /* \"#utility.yul\":4745:4763   */\n      add\n        /* \"#utility.yul\":4737:4763   */\n      swap1\n      pop\n        /* \"#utility.yul\":4773:4840   */\n      tag_354\n        /* \"#utility.yul\":4837:4838   */\n      0x00\n        /* \"#utility.yul\":4826:4835   */\n      dup4\n        /* \"#utility.yul\":4822:4839   */\n      add\n        /* \"#utility.yul\":4813:4819   */\n      dup5\n        /* \"#utility.yul\":4773:4840   */\n      tag_259\n      jump\t// in\n    tag_354:\n        /* \"#utility.yul\":4633:4847   */\n      swap3\n      swap2\n      pop\n      pop\n      jump\t// out\n        /* \"#utility.yul\":4853:5182   */\n    tag_49:\n        /* \"#utility.yul\":4912:4918   */\n      0x00\n        /* \"#utility.yul\":4961:4963   */\n      0x20\n        /* \"#utility.yul\":4949:4958   */\n      dup3\n        /* \"#utility.yul\":4940:4947   */\n      dup5\n        /* \"#utility.yul\":4936:4959   */\n      sub\n        /* \"#utility.yul\":4932:4964   */\n      slt\n        /* \"#utility.yul\":4929:5048   */\n      iszero\n      tag_356\n      jumpi\n        /* \"#utility.yul\":4967:5046   */\n      tag_357\n      tag_246\n      jump\t// in\n    tag_357:\n        /* \"#utility.yul\":4929:5048   */\n    tag_356:\n        /* \"#utility.yul\":5087:5088   */\n      0x00\n        /* \"#utility.yul\":5112:5165   */\n      tag_358\n        /* \"#utility.yul\":5157:5164   */\n      dup5\n        /* \"#utility.yul\":5148:5154   */\n      dup3\n        /* \"#utility.yul\":5137:5146   */\n      dup6\n        /* \"#utility.yul\":5133:5155   */\n      add\n        /* \"#utility.yul\":5112:5165   */\n      tag_251\n      jump\t// in\n    tag_358:\n        /* \"#utility.yul\":5102:5165   */\n      swap2\n      pop\n        /* \"#utility.yul\":5058:5175   */\n      pop\n        /* \"#utility.yul\":4853:5182   */\n      swap3\n      swap2\n      pop\n      pop\n      jump\t// out\n        /* \"#utility.yul\":5188:5305   */\n    tag_260:\n        /* \"#utility.yul\":5297:5298   */\n      0x00\n        /* \"#utility.yul\":5294:5295   */\n      dup1\n        /* \"#utility.yul\":5287:5299   */\n      revert\n        /* \"#utility.yul\":5311:5428   */\n    tag_261:\n        /* \"#utility.yul\":5420:5421   */\n      0x00\n        /* \"#utility.yul\":5417:5418   */\n      dup1\n        /* \"#utility.yul\":5410:5422   */\n      revert\n        /* \"#utility.yul\":5434:5551   */\n    tag_262:\n        /* \"#utility.yul\":5543:5544   */\n      0x00\n        /* \"#utility.yul\":5540:5541   */\n      dup1\n        /* \"#utility.yul\":5533:5545   */\n      revert\n        /* \"#utility.yul\":5571:6124   */\n    tag_263:\n        /* \"#utility.yul\":5629:5637   */\n      0x00\n        /* \"#utility.yul\":5639:5645   */\n      dup1\n        /* \"#utility.yul\":5689:5692   */\n      dup4\n        /* \"#utility.yul\":5682:5686   */\n      0x1f\n        /* \"#utility.yul\":5674:5680   */\n      dup5\n        /* \"#utility.yul\":5670:5687   */\n      add\n        /* \"#utility.yul\":5666:5693   */\n      slt\n        /* \"#utility.yul\":5656:5778   */\n      tag_363\n      jumpi\n        /* \"#utility.yul\":5697:5776   */\n      tag_364\n      tag_260\n      jump\t// in\n    tag_364:\n        /* \"#utility.yul\":5656:5778   */\n    tag_363:\n        /* \"#utility.yul\":5810:5816   */\n      dup3\n        /* \"#utility.yul\":5797:5817   */\n      calldataload\n        /* \"#utility.yul\":5787:5817   */\n      swap1\n      pop\n        /* \"#utility.yul\":5840:5858   */\n      0xffffffffffffffff\n        /* \"#utility.yul\":5832:5838   */\n      dup2\n        /* \"#utility.yul\":5829:5859   */\n      gt\n        /* \"#utility.yul\":5826:5943   */\n      iszero\n      tag_365\n      jumpi\n        /* \"#utility.yul\":5862:5941   */\n      tag_366\n      tag_261\n      jump\t// in\n    tag_366:\n        /* \"#utility.yul\":5826:5943   */\n    tag_365:\n        /* \"#utility.yul\":5976:5980   */\n      0x20\n        /* \"#utility.yul\":5968:5974   */\n      dup4\n        /* \"#utility.yul\":5964:5981   */\n      add\n        /* \"#utility.yul\":5952:5981   */\n      swap2\n      pop\n        /* \"#utility.yul\":6030:6033   */\n      dup4\n        /* \"#utility.yul\":6022:6026   */\n      0x01\n        /* \"#utility.yul\":6014:6020   */\n      dup3\n        /* \"#utility.yul\":6010:6027   */\n      mul\n        /* \"#utility.yul\":6000:6008   */\n      dup4\n        /* \"#utility.yul\":5996:6028   */\n      add\n        /* \"#utility.yul\":5993:6034   */\n      gt\n        /* \"#utility.yul\":5990:6118   */\n      iszero\n      tag_367\n      jumpi\n        /* \"#utility.yul\":6037:6116   */\n      tag_368\n      tag_262\n      jump\t// in\n    tag_368:\n        /* \"#utility.yul\":5990:6118   */\n    tag_367:\n        /* \"#utility.yul\":5571:6124   */\n      swap3\n      pop\n      swap3\n      swap1\n      pop\n      jump\t// out\n        /* \"#utility.yul\":6130:6804   */\n    tag_61:\n        /* \"#utility.yul\":6210:6216   */\n      0x00\n        /* \"#utility.yul\":6218:6224   */\n      dup1\n        /* \"#utility.yul\":6226:6232   */\n      0x00\n        /* \"#utility.yul\":6275:6277   */\n      0x40\n        /* \"#utility.yul\":6263:6272   */\n      dup5\n        /* \"#utility.yul\":6254:6261   */\n      dup7\n        /* \"#utility.yul\":6250:6273   */\n      sub\n        /* \"#utility.yul\":6246:6278   */\n      slt\n        /* \"#utility.yul\":6243:6362   */\n      iszero\n      tag_370\n      jumpi\n        /* \"#utility.yul\":6281:6360   */\n      tag_371\n      tag_246\n      jump\t// in\n    tag_371:\n        /* \"#utility.yul\":6243:6362   */\n    tag_370:\n        /* \"#utility.yul\":6429:6430   */\n      0x00\n        /* \"#utility.yul\":6418:6427   */\n      dup5\n        /* \"#utility.yul\":6414:6431   */\n      add\n        /* \"#utility.yul\":6401:6432   */\n      calldataload\n        /* \"#utility.yul\":6459:6477   */\n      0xffffffffffffffff\n        /* \"#utility.yul\":6451:6457   */\n      dup2\n        /* \"#utility.yul\":6448:6478   */\n      gt\n        /* \"#utility.yul\":6445:6562   */\n      iszero\n      tag_372\n      jumpi\n        /* \"#utility.yul\":6481:6560   */\n      tag_373\n      tag_247\n      jump\t// in\n    tag_373:\n        /* \"#utility.yul\":6445:6562   */\n    tag_372:\n        /* \"#utility.yul\":6594:6659   */\n      tag_374\n        /* \"#utility.yul\":6651:6658   */\n      dup7\n        /* \"#utility.yul\":6642:6648   */\n      dup3\n        /* \"#utility.yul\":6631:6640   */\n      dup8\n        /* \"#utility.yul\":6627:6649   */\n      add\n        /* \"#utility.yul\":6594:6659   */\n      tag_263\n      jump\t// in\n    tag_374:\n        /* \"#utility.yul\":6576:6659   */\n      swap4\n      pop\n      swap4\n      pop\n        /* \"#utility.yul\":6372:6669   */\n      pop\n        /* \"#utility.yul\":6708:6710   */\n      0x20\n        /* \"#utility.yul\":6734:6787   */\n      tag_375\n        /* \"#utility.yul\":6779:6786   */\n      dup7\n        /* \"#utility.yul\":6770:6776   */\n      dup3\n        /* \"#utility.yul\":6759:6768   */\n      dup8\n        /* \"#utility.yul\":6755:6777   */\n      add\n        /* \"#utility.yul\":6734:6787   */\n      tag_254\n      jump\t// in\n    tag_375:\n        /* \"#utility.yul\":6724:6787   */\n      swap2\n      pop\n        /* \"#utility.yul\":6679:6797   */\n      pop\n        /* \"#utility.yul\":6130:6804   */\n      swap3\n      pop\n      swap3\n      pop\n      swap3\n      jump\t// out\n        /* \"#utility.yul\":6810:6918   */\n    tag_264:\n        /* \"#utility.yul\":6892:6893   */\n      0x03\n        /* \"#utility.yul\":6885:6890   */\n      dup2\n        /* \"#utility.yul\":6882:6894   */\n      lt\n        /* \"#utility.yul\":6872:6912   */\n      tag_377\n      jumpi\n        /* \"#utility.yul\":6908:6909   */\n      0x00\n        /* \"#utility.yul\":6905:6906   */\n      dup1\n        /* \"#utility.yul\":6898:6910   */\n      revert\n        /* \"#utility.yul\":6872:6912   */\n    tag_377:\n        /* \"#utility.yul\":6810:6918   */\n      pop\n      jump\t// out\n        /* \"#utility.yul\":6924:7081   */\n    tag_265:\n        /* \"#utility.yul\":6979:6984   */\n      0x00\n        /* \"#utility.yul\":7017:7023   */\n      dup2\n        /* \"#utility.yul\":7004:7024   */\n      calldataload\n        /* \"#utility.yul\":6995:7024   */\n      swap1\n      pop\n        /* \"#utility.yul\":7033:7075   */\n      tag_379\n        /* \"#utility.yul\":7069:7074   */\n      dup2\n        /* \"#utility.yul\":7033:7075   */\n      tag_264\n      jump\t// in\n    tag_379:\n        /* \"#utility.yul\":6924:7081   */\n      swap3\n      swap2\n      pop\n      pop\n      jump\t// out\n        /* \"#utility.yul\":7087:7579   */\n    tag_66:\n        /* \"#utility.yul\":7164:7170   */\n      0x00\n        /* \"#utility.yul\":7172:7178   */\n      dup1\n        /* \"#utility.yul\":7221:7223   */\n      0x40\n        /* \"#utility.yul\":7209:7218   */\n      dup4\n        /* \"#utility.yul\":7200:7207   */\n      dup6\n        /* \"#utility.yul\":7196:7219   */\n      sub\n        /* \"#utility.yul\":7192:7224   */\n      slt\n        /* \"#utility.yul\":7189:7308   */\n      iszero\n      tag_381\n      jumpi\n        /* \"#utility.yul\":7227:7306   */\n      tag_382\n      tag_246\n      jump\t// in\n    tag_382:\n        /* \"#utility.yul\":7189:7308   */\n    tag_381:\n        /* \"#utility.yul\":7347:7348   */\n      0x00\n        /* \"#utility.yul\":7372:7425   */\n      tag_383\n        /* \"#utility.yul\":7417:7424   */\n      dup6\n        /* \"#utility.yul\":7408:7414   */\n      dup3\n        /* \"#utility.yul\":7397:7406   */\n      dup7\n        /* \"#utility.yul\":7393:7415   */\n      add\n        /* \"#utility.yul\":7372:7425   */\n      tag_254\n      jump\t// in\n    tag_383:\n        /* \"#utility.yul\":7362:7425   */\n      swap3\n      pop\n        /* \"#utility.yul\":7318:7435   */\n      pop\n        /* \"#utility.yul\":7474:7476   */\n      0x20\n        /* \"#utility.yul\":7500:7562   */\n      tag_384\n        /* \"#utility.yul\":7554:7561   */\n      dup6\n        /* \"#utility.yul\":7545:7551   */\n      dup3\n        /* \"#utility.yul\":7534:7543   */\n      dup7\n        /* \"#utility.yul\":7530:7552   */\n      add\n        /* \"#utility.yul\":7500:7562   */\n      tag_265\n      jump\t// in\n    tag_384:\n        /* \"#utility.yul\":7490:7562   */\n      swap2\n      pop\n        /* \"#utility.yul\":7445:7572   */\n      pop\n        /* \"#utility.yul\":7087:7579   */\n      swap3\n      pop\n      swap3\n      swap1\n      pop\n      jump\t// out\n        /* \"#utility.yul\":7585:7914   */\n    tag_73:\n        /* \"#utility.yul\":7644:7650   */\n      0x00\n        /* \"#utility.yul\":7693:7695   */\n      0x20\n        /* \"#utility.yul\":7681:7690   */\n      dup3\n        /* \"#utility.yul\":7672:7679   */\n      dup5\n        /* \"#utility.yul\":7668:7691   */\n      sub\n        /* \"#utility.yul\":7664:7696   */\n      slt\n        /* \"#utility.yul\":7661:7780   */\n      iszero\n      tag_386\n      jumpi\n        /* \"#utility.yul\":7699:7778   */\n      tag_387\n      tag_246\n      jump\t// in\n    tag_387:\n        /* \"#utility.yul\":7661:7780   */\n    tag_386:\n        /* \"#utility.yul\":7819:7820   */\n      0x00\n        /* \"#utility.yul\":7844:7897   */\n      tag_388\n        /* \"#utility.yul\":7889:7896   */\n      dup5\n        /* \"#utility.yul\":7880:7886   */\n      dup3\n        /* \"#utility.yul\":7869:7878   */\n      dup6\n        /* \"#utility.yul\":7865:7887   */\n      add\n        /* \"#utility.yul\":7844:7897   */\n      tag_254\n      jump\t// in\n    tag_388:\n        /* \"#utility.yul\":7834:7897   */\n      swap2\n      pop\n        /* \"#utility.yul\":7790:7907   */\n      pop\n        /* \"#utility.yul\":7585:7914   */\n      swap3\n      swap2\n      pop\n      pop\n      jump\t// out\n        /* \"#utility.yul\":7920:8034   */\n    tag_266:\n        /* \"#utility.yul\":7987:7993   */\n      0x00\n        /* \"#utility.yul\":8021:8026   */\n      dup2\n        /* \"#utility.yul\":8015:8027   */\n      mload\n        /* \"#utility.yul\":8005:8027   */\n      swap1\n      pop\n        /* \"#utility.yul\":7920:8034   */\n      swap2\n      swap1\n      pop\n      jump\t// out\n        /* \"#utility.yul\":8040:8214   */\n    tag_267:\n        /* \"#utility.yul\":8129:8140   */\n      0x00\n        /* \"#utility.yul\":8163:8169   */\n      dup3\n        /* \"#utility.yul\":8158:8161   */\n      dup3\n        /* \"#utility.yul\":8151:8170   */\n      mstore\n        /* \"#utility.yul\":8203:8207   */\n      0x20\n        /* \"#utility.yul\":8198:8201   */\n      dup3\n        /* \"#utility.yul\":8194:8208   */\n      add\n        /* \"#utility.yul\":8179:8208   */\n      swap1\n      pop\n        /* \"#utility.yul\":8040:8214   */\n      swap3\n      swap2\n      pop\n      pop\n      jump\t// out\n        /* \"#utility.yul\":8220:8352   */\n    tag_268:\n        /* \"#utility.yul\":8287:8291   */\n      0x00\n        /* \"#utility.yul\":8310:8313   */\n      dup2\n        /* \"#utility.yul\":8302:8313   */\n      swap1\n      pop\n        /* \"#utility.yul\":8340:8344   */\n      0x20\n        /* \"#utility.yul\":8335:8338   */\n      dup3\n        /* \"#utility.yul\":8331:8345   */\n      add\n        /* \"#utility.yul\":8323:8345   */\n      swap1\n      pop\n        /* \"#utility.yul\":8220:8352   */\n      swap2\n      swap1\n      pop\n      jump\t// out\n        /* \"#utility.yul\":8358:8466   */\n    tag_269:\n        /* \"#utility.yul\":8435:8459   */\n      tag_393\n        /* \"#utility.yul\":8453:8458   */\n      dup2\n        /* \"#utility.yul\":8435:8459   */\n      tag_249\n      jump\t// in\n    tag_393:\n        /* \"#utility.yul\":8430:8433   */\n      dup3\n        /* \"#utility.yul\":8423:8460   */\n      mstore\n        /* \"#utility.yul\":8358:8466   */\n      pop\n      pop\n      jump\t// out\n        /* \"#utility.yul\":8472:8651   */\n    tag_270:\n        /* \"#utility.yul\":8541:8551   */\n      0x00\n        /* \"#utility.yul\":8562:8608   */\n      tag_395\n        /* \"#utility.yul\":8604:8607   */\n      dup4\n        /* \"#utility.yul\":8596:8602   */\n      dup4\n        /* \"#utility.yul\":8562:8608   */\n      tag_269\n      jump\t// in\n    tag_395:\n        /* \"#utility.yul\":8640:8644   */\n      0x20\n        /* \"#utility.yul\":8635:8638   */\n      dup4\n        /* \"#utility.yul\":8631:8645   */\n      add\n        /* \"#utility.yul\":8617:8645   */\n      swap1\n      pop\n        /* \"#utility.yul\":8472:8651   */\n      swap3\n      swap2\n      pop\n      pop\n      jump\t// out\n        /* \"#utility.yul\":8657:8770   */\n    tag_271:\n        /* \"#utility.yul\":8727:8731   */\n      0x00\n        /* \"#utility.yul\":8759:8763   */\n      0x20\n        /* \"#utility.yul\":8754:8757   */\n      dup3\n        /* \"#utility.yul\":8750:8764   */\n      add\n        /* \"#utility.yul\":8742:8764   */\n      swap1\n      pop\n        /* \"#utility.yul\":8657:8770   */\n      swap2\n      swap1\n      pop\n      jump\t// out\n        /* \"#utility.yul\":8806:9518   */\n    tag_272:\n        /* \"#utility.yul\":8915:8918   */\n      0x00\n        /* \"#utility.yul\":8944:8998   */\n      tag_398\n        /* \"#utility.yul\":8992:8997   */\n      dup3\n        /* \"#utility.yul\":8944:8998   */\n      tag_266\n      jump\t// in\n    tag_398:\n        /* \"#utility.yul\":9014:9090   */\n      tag_399\n        /* \"#utility.yul\":9083:9089   */\n      dup2\n        /* \"#utility.yul\":9078:9081   */\n      dup6\n        /* \"#utility.yul\":9014:9090   */\n      tag_267\n      jump\t// in\n    tag_399:\n        /* \"#utility.yul\":9007:9090   */\n      swap4\n      pop\n        /* \"#utility.yul\":9114:9170   */\n      tag_400\n        /* \"#utility.yul\":9164:9169   */\n      dup4\n        /* \"#utility.yul\":9114:9170   */\n      tag_268\n      jump\t// in\n    tag_400:\n        /* \"#utility.yul\":9193:9200   */\n      dup1\n        /* \"#utility.yul\":9224:9225   */\n      0x00\n        /* \"#utility.yul\":9209:9493   */\n    tag_401:\n        /* \"#utility.yul\":9234:9240   */\n      dup4\n        /* \"#utility.yul\":9231:9232   */\n      dup2\n        /* \"#utility.yul\":9228:9241   */\n      lt\n        /* \"#utility.yul\":9209:9493   */\n      iszero\n      tag_403\n      jumpi\n        /* \"#utility.yul\":9310:9316   */\n      dup2\n        /* \"#utility.yul\":9304:9317   */\n      mload\n        /* \"#utility.yul\":9337:9400   */\n      tag_404\n        /* \"#utility.yul\":9396:9399   */\n      dup9\n        /* \"#utility.yul\":9381:9394   */\n      dup3\n        /* \"#utility.yul\":9337:9400   */\n      tag_270\n      jump\t// in\n    tag_404:\n        /* \"#utility.yul\":9330:9400   */\n      swap8\n      pop\n        /* \"#utility.yul\":9423:9483   */\n      tag_405\n        /* \"#utility.yul\":9476:9482   */\n      dup4\n        /* \"#utility.yul\":9423:9483   */\n      tag_271\n      jump\t// in\n    tag_405:\n        /* \"#utility.yul\":9413:9483   */\n      swap3\n      pop\n        /* \"#utility.yul\":9269:9493   */\n      pop\n        /* \"#utility.yul\":9256:9257   */\n      0x01\n        /* \"#utility.yul\":9253:9254   */\n      dup2\n        /* \"#utility.yul\":9249:9258   */\n      add\n        /* \"#utility.yul\":9244:9258   */\n      swap1\n      pop\n        /* \"#utility.yul\":9209:9493   */\n      jump(tag_401)\n    tag_403:\n        /* \"#utility.yul\":9213:9227   */\n      pop\n        /* \"#utility.yul\":9509:9512   */\n      dup6\n        /* \"#utility.yul\":9502:9512   */\n      swap4\n      pop\n        /* \"#utility.yul\":8920:9518   */\n      pop\n      pop\n      pop\n        /* \"#utility.yul\":8806:9518   */\n      swap3\n      swap2\n      pop\n      pop\n      jump\t// out\n        /* \"#utility.yul\":9524:9683   */\n    tag_273:\n        /* \"#utility.yul\":9598:9609   */\n      0x00\n        /* \"#utility.yul\":9632:9638   */\n      dup3\n        /* \"#utility.yul\":9627:9630   */\n      dup3\n        /* \"#utility.yul\":9620:9639   */\n      mstore\n        /* \"#utility.yul\":9672:9676   */\n      0x20\n        /* \"#utility.yul\":9667:9670   */\n      dup3\n        /* \"#utility.yul\":9663:9677   */\n      add\n        /* \"#utility.yul\":9648:9677   */\n      swap1\n      pop\n        /* \"#utility.yul\":9524:9683   */\n      swap3\n      swap2\n      pop\n      pop\n      jump\t// out\n        /* \"#utility.yul\":9689:10046   */\n    tag_274:\n        /* \"#utility.yul\":9767:9770   */\n      0x00\n        /* \"#utility.yul\":9795:9834   */\n      tag_408\n        /* \"#utility.yul\":9828:9833   */\n      dup3\n        /* \"#utility.yul\":9795:9834   */\n      tag_240\n      jump\t// in\n    tag_408:\n        /* \"#utility.yul\":9850:9911   */\n      tag_409\n        /* \"#utility.yul\":9904:9910   */\n      dup2\n        /* \"#utility.yul\":9899:9902   */\n      dup6\n        /* \"#utility.yul\":9850:9911   */\n      tag_273\n      jump\t// in\n    tag_409:\n        /* \"#utility.yul\":9843:9911   */\n      swap4\n      pop\n        /* \"#utility.yul\":9920:9985   */\n      tag_410\n        /* \"#utility.yul\":9978:9984   */\n      dup2\n        /* \"#utility.yul\":9973:9976   */\n      dup6\n        /* \"#utility.yul\":9966:9970   */\n      0x20\n        /* \"#utility.yul\":9959:9964   */\n      dup7\n        /* \"#utility.yul\":9955:9971   */\n      add\n        /* \"#utility.yul\":9920:9985   */\n      tag_242\n      jump\t// in\n    tag_410:\n        /* \"#utility.yul\":10010:10039   */\n      tag_411\n        /* \"#utility.yul\":10032:10038   */\n      dup2\n        /* \"#utility.yul\":10010:10039   */\n      tag_243\n      jump\t// in\n    tag_411:\n        /* \"#utility.yul\":10005:10008   */\n      dup5\n        /* \"#utility.yul\":10001:10040   */\n      add\n        /* \"#utility.yul\":9994:10040   */\n      swap2\n      pop\n        /* \"#utility.yul\":9771:10046   */\n      pop\n        /* \"#utility.yul\":9689:10046   */\n      swap3\n      swap2\n      pop\n      pop\n      jump\t// out\n        /* \"#utility.yul\":10052:10160   */\n    tag_275:\n        /* \"#utility.yul\":10129:10153   */\n      tag_413\n        /* \"#utility.yul\":10147:10152   */\n      dup2\n        /* \"#utility.yul\":10129:10153   */\n      tag_252\n      jump\t// in\n    tag_413:\n        /* \"#utility.yul\":10124:10127   */\n      dup3\n        /* \"#utility.yul\":10117:10154   */\n      mstore\n        /* \"#utility.yul\":10052:10160   */\n      pop\n      pop\n      jump\t// out\n        /* \"#utility.yul\":10166:10265   */\n    tag_276:\n        /* \"#utility.yul\":10237:10258   */\n      tag_415\n        /* \"#utility.yul\":10252:10257   */\n      dup2\n        /* \"#utility.yul\":10237:10258   */\n      tag_255\n      jump\t// in\n    tag_415:\n        /* \"#utility.yul\":10232:10235   */\n      dup3\n        /* \"#utility.yul\":10225:10259   */\n      mstore\n        /* \"#utility.yul\":10166:10265   */\n      pop\n      pop\n      jump\t// out\n        /* \"#utility.yul\":10357:12331   */\n    tag_277:\n        /* \"#utility.yul\":10492:10495   */\n      0x00\n        /* \"#utility.yul\":10528:10534   */\n      0x0120\n        /* \"#utility.yul\":10523:10526   */\n      dup4\n        /* \"#utility.yul\":10519:10535   */\n      add\n        /* \"#utility.yul\":10619:10623   */\n      0x00\n        /* \"#utility.yul\":10612:10617   */\n      dup4\n        /* \"#utility.yul\":10608:10624   */\n      add\n        /* \"#utility.yul\":10602:10625   */\n      mload\n        /* \"#utility.yul\":10672:10675   */\n      dup5\n        /* \"#utility.yul\":10666:10670   */\n      dup3\n        /* \"#utility.yul\":10662:10676   */\n      sub\n        /* \"#utility.yul\":10655:10659   */\n      0x00\n        /* \"#utility.yul\":10650:10653   */\n      dup7\n        /* \"#utility.yul\":10646:10660   */\n      add\n        /* \"#utility.yul\":10639:10677   */\n      mstore\n        /* \"#utility.yul\":10698:10801   */\n      tag_417\n        /* \"#utility.yul\":10796:10800   */\n      dup3\n        /* \"#utility.yul\":10782:10794   */\n      dup3\n        /* \"#utility.yul\":10698:10801   */\n      tag_272\n      jump\t// in\n    tag_417:\n        /* \"#utility.yul\":10690:10801   */\n      swap2\n      pop\n        /* \"#utility.yul\":10545:10812   */\n      pop\n        /* \"#utility.yul\":10899:10903   */\n      0x20\n        /* \"#utility.yul\":10892:10897   */\n      dup4\n        /* \"#utility.yul\":10888:10904   */\n      add\n        /* \"#utility.yul\":10882:10905   */\n      mload\n        /* \"#utility.yul\":10952:10955   */\n      dup5\n        /* \"#utility.yul\":10946:10950   */\n      dup3\n        /* \"#utility.yul\":10942:10956   */\n      sub\n        /* \"#utility.yul\":10935:10939   */\n      0x20\n        /* \"#utility.yul\":10930:10933   */\n      dup7\n        /* \"#utility.yul\":10926:10940   */\n      add\n        /* \"#utility.yul\":10919:10957   */\n      mstore\n        /* \"#utility.yul\":10978:11051   */\n      tag_418\n        /* \"#utility.yul\":11046:11050   */\n      dup3\n        /* \"#utility.yul\":11032:11044   */\n      dup3\n        /* \"#utility.yul\":10978:11051   */\n      tag_274\n      jump\t// in\n    tag_418:\n        /* \"#utility.yul\":10970:11051   */\n      swap2\n      pop\n        /* \"#utility.yul\":10822:11062   */\n      pop\n        /* \"#utility.yul\":11146:11150   */\n      0x40\n        /* \"#utility.yul\":11139:11144   */\n      dup4\n        /* \"#utility.yul\":11135:11151   */\n      add\n        /* \"#utility.yul\":11129:11152   */\n      mload\n        /* \"#utility.yul\":11165:11228   */\n      tag_419\n        /* \"#utility.yul\":11222:11226   */\n      0x40\n        /* \"#utility.yul\":11217:11220   */\n      dup7\n        /* \"#utility.yul\":11213:11227   */\n      add\n        /* \"#utility.yul\":11199:11211   */\n      dup3\n        /* \"#utility.yul\":11165:11228   */\n      tag_275\n      jump\t// in\n    tag_419:\n        /* \"#utility.yul\":11072:11238   */\n      pop\n        /* \"#utility.yul\":11326:11330   */\n      0x60\n        /* \"#utility.yul\":11319:11324   */\n      dup4\n        /* \"#utility.yul\":11315:11331   */\n      add\n        /* \"#utility.yul\":11309:11332   */\n      mload\n        /* \"#utility.yul\":11345:11408   */\n      tag_420\n        /* \"#utility.yul\":11402:11406   */\n      0x60\n        /* \"#utility.yul\":11397:11400   */\n      dup7\n        /* \"#utility.yul\":11393:11407   */\n      add\n        /* \"#utility.yul\":11379:11391   */\n      dup3\n        /* \"#utility.yul\":11345:11408   */\n      tag_275\n      jump\t// in\n    tag_420:\n        /* \"#utility.yul\":11248:11418   */\n      pop\n        /* \"#utility.yul\":11504:11508   */\n      0x80\n        /* \"#utility.yul\":11497:11502   */\n      dup4\n        /* \"#utility.yul\":11493:11509   */\n      add\n        /* \"#utility.yul\":11487:11510   */\n      mload\n        /* \"#utility.yul\":11523:11586   */\n      tag_421\n        /* \"#utility.yul\":11580:11584   */\n      0x80\n        /* \"#utility.yul\":11575:11578   */\n      dup7\n        /* \"#utility.yul\":11571:11585   */\n      add\n        /* \"#utility.yul\":11557:11569   */\n      dup3\n        /* \"#utility.yul\":11523:11586   */\n      tag_275\n      jump\t// in\n    tag_421:\n        /* \"#utility.yul\":11428:11596   */\n      pop\n        /* \"#utility.yul\":11686:11690   */\n      0xa0\n        /* \"#utility.yul\":11679:11684   */\n      dup4\n        /* \"#utility.yul\":11675:11691   */\n      add\n        /* \"#utility.yul\":11669:11692   */\n      mload\n        /* \"#utility.yul\":11705:11768   */\n      tag_422\n        /* \"#utility.yul\":11762:11766   */\n      0xa0\n        /* \"#utility.yul\":11757:11760   */\n      dup7\n        /* \"#utility.yul\":11753:11767   */\n      add\n        /* \"#utility.yul\":11739:11751   */\n      dup3\n        /* \"#utility.yul\":11705:11768   */\n      tag_275\n      jump\t// in\n    tag_422:\n        /* \"#utility.yul\":11606:11778   */\n      pop\n        /* \"#utility.yul\":11868:11872   */\n      0xc0\n        /* \"#utility.yul\":11861:11866   */\n      dup4\n        /* \"#utility.yul\":11857:11873   */\n      add\n        /* \"#utility.yul\":11851:11874   */\n      mload\n        /* \"#utility.yul\":11887:11950   */\n      tag_423\n        /* \"#utility.yul\":11944:11948   */\n      0xc0\n        /* \"#utility.yul\":11939:11942   */\n      dup7\n        /* \"#utility.yul\":11935:11949   */\n      add\n        /* \"#utility.yul\":11921:11933   */\n      dup3\n        /* \"#utility.yul\":11887:11950   */\n      tag_275\n      jump\t// in\n    tag_423:\n        /* \"#utility.yul\":11788:11960   */\n      pop\n        /* \"#utility.yul\":12044:12048   */\n      0xe0\n        /* \"#utility.yul\":12037:12042   */\n      dup4\n        /* \"#utility.yul\":12033:12049   */\n      add\n        /* \"#utility.yul\":12027:12050   */\n      mload\n        /* \"#utility.yul\":12063:12120   */\n      tag_424\n        /* \"#utility.yul\":12114:12118   */\n      0xe0\n        /* \"#utility.yul\":12109:12112   */\n      dup7\n        /* \"#utility.yul\":12105:12119   */\n      add\n        /* \"#utility.yul\":12091:12103   */\n      dup3\n        /* \"#utility.yul\":12063:12120   */\n      tag_276\n      jump\t// in\n    tag_424:\n        /* \"#utility.yul\":11970:12130   */\n      pop\n        /* \"#utility.yul\":12214:12220   */\n      0x0100\n        /* \"#utility.yul\":12207:12212   */\n      dup4\n        /* \"#utility.yul\":12203:12221   */\n      add\n        /* \"#utility.yul\":12197:12222   */\n      mload\n        /* \"#utility.yul\":12235:12294   */\n      tag_425\n        /* \"#utility.yul\":12286:12292   */\n      0x0100\n        /* \"#utility.yul\":12281:12284   */\n      dup7\n        /* \"#utility.yul\":12277:12293   */\n      add\n        /* \"#utility.yul\":12263:12275   */\n      dup3\n        /* \"#utility.yul\":12235:12294   */\n      tag_276\n      jump\t// in\n    tag_425:\n        /* \"#utility.yul\":12140:12304   */\n      pop\n        /* \"#utility.yul\":12321:12325   */\n      dup1\n        /* \"#utility.yul\":12314:12325   */\n      swap2\n      pop\n        /* \"#utility.yul\":10497:12331   */\n      pop\n        /* \"#utility.yul\":10357:12331   */\n      swap3\n      swap2\n      pop\n      pop\n      jump\t// out\n        /* \"#utility.yul\":12337:12742   */\n    tag_76:\n        /* \"#utility.yul\":12496:12500   */\n      0x00\n        /* \"#utility.yul\":12534:12536   */\n      0x20\n        /* \"#utility.yul\":12523:12532   */\n      dup3\n        /* \"#utility.yul\":12519:12537   */\n      add\n        /* \"#utility.yul\":12511:12537   */\n      swap1\n      pop\n        /* \"#utility.yul\":12583:12592   */\n      dup2\n        /* \"#utility.yul\":12577:12581   */\n      dup2\n        /* \"#utility.yul\":12573:12593   */\n      sub\n        /* \"#utility.yul\":12569:12570   */\n      0x00\n        /* \"#utility.yul\":12558:12567   */\n      dup4\n        /* \"#utility.yul\":12554:12571   */\n      add\n        /* \"#utility.yul\":12547:12594   */\n      mstore\n        /* \"#utility.yul\":12611:12735   */\n      tag_427\n        /* \"#utility.yul\":12730:12734   */\n      dup2\n        /* \"#utility.yul\":12721:12727   */\n      dup5\n        /* \"#utility.yul\":12611:12735   */\n      tag_277\n      jump\t// in\n    tag_427:\n        /* \"#utility.yul\":12603:12735   */\n      swap1\n      pop\n        /* \"#utility.yul\":12337:12742   */\n      swap3\n      swap2\n      pop\n      pop\n      jump\t// out\n        /* \"#utility.yul\":12748:13222   */\n    tag_86:\n        /* \"#utility.yul\":12816:12822   */\n      0x00\n        /* \"#utility.yul\":12824:12830   */\n      dup1\n        /* \"#utility.yul\":12873:12875   */\n      0x40\n        /* \"#utility.yul\":12861:12870   */\n      dup4\n        /* \"#utility.yul\":12852:12859   */\n      dup6\n        /* \"#utility.yul\":12848:12871   */\n      sub\n        /* \"#utility.yul\":12844:12876   */\n      slt\n        /* \"#utility.yul\":12841:12960   */\n      iszero\n      tag_429\n      jumpi\n        /* \"#utility.yul\":12879:12958   */\n      tag_430\n      tag_246\n      jump\t// in\n    tag_430:\n        /* \"#utility.yul\":12841:12960   */\n    tag_429:\n        /* \"#utility.yul\":12999:13000   */\n      0x00\n        /* \"#utility.yul\":13024:13077   */\n      tag_431\n        /* \"#utility.yul\":13069:13076   */\n      dup6\n        /* \"#utility.yul\":13060:13066   */\n      dup3\n        /* \"#utility.yul\":13049:13058   */\n      dup7\n        /* \"#utility.yul\":13045:13067   */\n      add\n        /* \"#utility.yul\":13024:13077   */\n      tag_251\n      jump\t// in\n    tag_431:\n        /* \"#utility.yul\":13014:13077   */\n      swap3\n      pop\n        /* \"#utility.yul\":12970:13087   */\n      pop\n        /* \"#utility.yul\":13126:13128   */\n      0x20\n        /* \"#utility.yul\":13152:13205   */\n      tag_432\n        /* \"#utility.yul\":13197:13204   */\n      dup6\n        /* \"#utility.yul\":13188:13194   */\n      dup3\n        /* \"#utility.yul\":13177:13186   */\n      dup7\n        /* \"#utility.yul\":13173:13195   */\n      add\n        /* \"#utility.yul\":13152:13205   */\n      tag_251\n      jump\t// in\n    tag_432:\n        /* \"#utility.yul\":13142:13205   */\n      swap2\n      pop\n        /* \"#utility.yul\":13097:13215   */\n      pop\n        /* \"#utility.yul\":12748:13222   */\n      swap3\n      pop\n      swap3\n      swap1\n      pop\n      jump\t// out\n        /* \"#utility.yul\":13228:13408   */\n    tag_278:\n        /* \"#utility.yul\":13276:13353   */\n      0x4e487b7100000000000000000000000000000000000000000000000000000000\n        /* \"#utility.yul\":13273:13274   */\n      0x00\n        /* \"#utility.yul\":13266:13354   */\n      mstore\n        /* \"#utility.yul\":13373:13377   */\n      0x22\n        /* \"#utility.yul\":13370:13371   */\n      0x04\n        /* \"#utility.yul\":13363:13378   */\n      mstore\n        /* \"#utility.yul\":13397:13401   */\n      0x24\n        /* \"#utility.yul\":13394:13395   */\n      0x00\n        /* \"#utility.yul\":13387:13402   */\n      revert\n        /* \"#utility.yul\":13414:13734   */\n    tag_91:\n        /* \"#utility.yul\":13458:13464   */\n      0x00\n        /* \"#utility.yul\":13495:13496   */\n      0x02\n        /* \"#utility.yul\":13489:13493   */\n      dup3\n        /* \"#utility.yul\":13485:13497   */\n      div\n        /* \"#utility.yul\":13475:13497   */\n      swap1\n      pop\n        /* \"#utility.yul\":13542:13543   */\n      0x01\n        /* \"#utility.yul\":13536:13540   */\n      dup3\n        /* \"#utility.yul\":13532:13544   */\n      and\n        /* \"#utility.yul\":13563:13581   */\n      dup1\n        /* \"#utility.yul\":13553:13634   */\n      tag_435\n      jumpi\n        /* \"#utility.yul\":13619:13623   */\n      0x7f\n        /* \"#utility.yul\":13611:13617   */\n      dup3\n        /* \"#utility.yul\":13607:13624   */\n      and\n        /* \"#utility.yul\":13597:13624   */\n      swap2\n      pop\n        /* \"#utility.yul\":13553:13634   */\n    tag_435:\n        /* \"#utility.yul\":13681:13683   */\n      0x20\n        /* \"#utility.yul\":13673:13679   */\n      dup3\n        /* \"#utility.yul\":13670:13684   */\n      lt\n        /* \"#utility.yul\":13650:13668   */\n      dup2\n        /* \"#utility.yul\":13647:13685   */\n      sub\n        /* \"#utility.yul\":13644:13728   */\n      tag_436\n      jumpi\n        /* \"#utility.yul\":13700:13718   */\n      tag_437\n      tag_278\n      jump\t// in\n    tag_437:\n        /* \"#utility.yul\":13644:13728   */\n    tag_436:\n        /* \"#utility.yul\":13465:13734   */\n      pop\n        /* \"#utility.yul\":13414:13734   */\n      swap2\n      swap1\n      pop\n      jump\t// out\n        /* \"#utility.yul\":13740:13920   */\n    tag_279:\n        /* \"#utility.yul\":13788:13865   */\n      0x4e487b7100000000000000000000000000000000000000000000000000000000\n        /* \"#utility.yul\":13785:13786   */\n      0x00\n        /* \"#utility.yul\":13778:13866   */\n      mstore\n        /* \"#utility.yul\":13885:13889   */\n      0x11\n        /* \"#utility.yul\":13882:13883   */\n      0x04\n        /* \"#utility.yul\":13875:13890   */\n      mstore\n        /* \"#utility.yul\":13909:13913   */\n      0x24\n        /* \"#utility.yul\":13906:13907   */\n      0x00\n        /* \"#utility.yul\":13899:13914   */\n      revert\n        /* \"#utility.yul\":13926:14117   */\n    tag_112:\n        /* \"#utility.yul\":13966:13969   */\n      0x00\n        /* \"#utility.yul\":13985:14005   */\n      tag_440\n        /* \"#utility.yul\":14003:14004   */\n      dup3\n        /* \"#utility.yul\":13985:14005   */\n      tag_252\n      jump\t// in\n    tag_440:\n        /* \"#utility.yul\":13980:14005   */\n      swap2\n      pop\n        /* \"#utility.yul\":14019:14039   */\n      tag_441\n        /* \"#utility.yul\":14037:14038   */\n      dup4\n        /* \"#utility.yul\":14019:14039   */\n      tag_252\n      jump\t// in\n    tag_441:\n        /* \"#utility.yul\":14014:14039   */\n      swap3\n      pop\n        /* \"#utility.yul\":14062:14063   */\n      dup3\n        /* \"#utility.yul\":14059:14060   */\n      dup3\n        /* \"#utility.yul\":14055:14064   */\n      add\n        /* \"#utility.yul\":14048:14064   */\n      swap1\n      pop\n        /* \"#utility.yul\":14083:14086   */\n      dup1\n        /* \"#utility.yul\":14080:14081   */\n      dup3\n        /* \"#utility.yul\":14077:14087   */\n      gt\n        /* \"#utility.yul\":14074:14110   */\n      iszero\n      tag_442\n      jumpi\n        /* \"#utility.yul\":14090:14108   */\n      tag_443\n      tag_279\n      jump\t// in\n    tag_443:\n        /* \"#utility.yul\":14074:14110   */\n    tag_442:\n        /* \"#utility.yul\":13926:14117   */\n      swap3\n      swap2\n      pop\n      pop\n      jump\t// out\n        /* \"#utility.yul\":14123:14220   */\n    tag_280:\n        /* \"#utility.yul\":14182:14188   */\n      0x00\n        /* \"#utility.yul\":14210:14213   */\n      dup3\n        /* \"#utility.yul\":14200:14213   */\n      swap1\n      pop\n        /* \"#utility.yul\":14123:14220   */\n      swap3\n      swap2\n      pop\n      pop\n      jump\t// out\n        /* \"#utility.yul\":14226:14406   */\n    tag_281:\n        /* \"#utility.yul\":14274:14351   */\n      0x4e487b7100000000000000000000000000000000000000000000000000000000\n        /* \"#utility.yul\":14271:14272   */\n      0x00\n        /* \"#utility.yul\":14264:14352   */\n      mstore\n        /* \"#utility.yul\":14371:14375   */\n      0x41\n        /* \"#utility.yul\":14368:14369   */\n      0x04\n        /* \"#utility.yul\":14361:14376   */\n      mstore\n        /* \"#utility.yul\":14395:14399   */\n      0x24\n        /* \"#utility.yul\":14392:14393   */\n      0x00\n        /* \"#utility.yul\":14385:14400   */\n      revert\n        /* \"#utility.yul\":14412:14553   */\n    tag_282:\n        /* \"#utility.yul\":14461:14465   */\n      0x00\n        /* \"#utility.yul\":14484:14487   */\n      dup2\n        /* \"#utility.yul\":14476:14487   */\n      swap1\n      pop\n        /* \"#utility.yul\":14507:14510   */\n      dup2\n        /* \"#utility.yul\":14504:14505   */\n      0x00\n        /* \"#utility.yul\":14497:14511   */\n      mstore\n        /* \"#utility.yul\":14541:14545   */\n      0x20\n        /* \"#utility.yul\":14538:14539   */\n      0x00\n        /* \"#utility.yul\":14528:14546   */\n      keccak256\n        /* \"#utility.yul\":14520:14546   */\n      swap1\n      pop\n        /* \"#utility.yul\":14412:14553   */\n      swap2\n      swap1\n      pop\n      jump\t// out\n        /* \"#utility.yul\":14559:14652   */\n    tag_283:\n        /* \"#utility.yul\":14596:14602   */\n      0x00\n        /* \"#utility.yul\":14643:14645   */\n      0x20\n        /* \"#utility.yul\":14638:14640   */\n      0x1f\n        /* \"#utility.yul\":14631:14636   */\n      dup4\n        /* \"#utility.yul\":14627:14641   */\n      add\n        /* \"#utility.yul\":14623:14646   */\n      div\n        /* \"#utility.yul\":14613:14646   */\n      swap1\n      pop\n        /* \"#utility.yul\":14559:14652   */\n      swap2\n      swap1\n      pop\n      jump\t// out\n        /* \"#utility.yul\":14658:14765   */\n    tag_284:\n        /* \"#utility.yul\":14702:14710   */\n      0x00\n        /* \"#utility.yul\":14752:14757   */\n      dup3\n        /* \"#utility.yul\":14746:14750   */\n      dup3\n        /* \"#utility.yul\":14742:14758   */\n      shl\n        /* \"#utility.yul\":14721:14758   */\n      swap1\n      pop\n        /* \"#utility.yul\":14658:14765   */\n      swap3\n      swap2\n      pop\n      pop\n      jump\t// out\n        /* \"#utility.yul\":14771:15164   */\n    tag_285:\n        /* \"#utility.yul\":14840:14846   */\n      0x00\n        /* \"#utility.yul\":14890:14891   */\n      0x08\n        /* \"#utility.yul\":14878:14888   */\n      dup4\n        /* \"#utility.yul\":14874:14892   */\n      mul\n        /* \"#utility.yul\":14913:15010   */\n      tag_450\n        /* \"#utility.yul\":14943:15009   */\n      0xffffffffffffffffffffffffffffffffffffffffffffffffffffffffffffffff\n        /* \"#utility.yul\":14932:14941   */\n      dup3\n        /* \"#utility.yul\":14913:15010   */\n      tag_284\n      jump\t// in\n    tag_450:\n        /* \"#utility.yul\":15031:15070   */\n      tag_451\n        /* \"#utility.yul\":15061:15069   */\n      dup7\n        /* \"#utility.yul\":15050:15059   */\n      dup4\n        /* \"#utility.yul\":15031:15070   */\n      tag_284\n      jump\t// in\n    tag_451:\n        /* \"#utility.yul\":15019:15070   */\n      swap6\n      pop\n        /* \"#utility.yul\":15103:15107   */\n      dup1\n        /* \"#utility.yul\":15099:15108   */\n      not\n        /* \"#utility.yul\":15092:15097   */\n      dup5\n        /* \"#utility.yul\":15088:15109   */\n      and\n        /* \"#utility.yul\":15079:15109   */\n      swap4\n      pop\n        /* \"#utility.yul\":15152:15156   */\n      dup1\n        /* \"#utility.yul\":15142:15150   */\n      dup7\n        /* \"#utility.yul\":15138:15157   */\n      and\n        /* \"#utility.yul\":15131:15136   */\n      dup5\n        /* \"#utility.yul\":15128:15158   */\n      or\n        /* \"#utility.yul\":15118:15158   */\n      swap3\n      pop\n        /* \"#utility.yul\":14847:15164   */\n      pop\n      pop\n        /* \"#utility.yul\":14771:15164   */\n      swap4\n      swap3\n      pop\n      pop\n      pop\n      jump\t// out\n        /* \"#utility.yul\":15170:15230   */\n    tag_286:\n        /* \"#utility.yul\":15198:15201   */\n      0x00\n        /* \"#utility.yul\":15219:15224   */\n      dup2\n        /* \"#utility.yul\":15212:15224   */\n      swap1\n      pop\n        /* \"#utility.yul\":15170:15230   */\n      swap2\n      swap1\n      pop\n      jump\t// out\n        /* \"#utility.yul\":15236:15378   */\n    tag_287:\n        /* \"#utility.yul\":15286:15295   */\n      0x00\n        /* \"#utility.yul\":15319:15372   */\n      tag_454\n        /* \"#utility.yul\":15337:15371   */\n      tag_455\n        /* \"#utility.yul\":15346:15370   */\n      tag_456\n        /* \"#utility.yul\":15364:15369   */\n      dup5\n        /* \"#utility.yul\":15346:15370   */\n      tag_252\n      jump\t// in\n    tag_456:\n        /* \"#utility.yul\":15337:15371   */\n      tag_286\n      jump\t// in\n    tag_455:\n        /* \"#utility.yul\":15319:15372   */\n      tag_252\n      jump\t// in\n    tag_454:\n        /* \"#utility.yul\":15306:15372   */\n      swap1\n      pop\n        /* \"#utility.yul\":15236:15378   */\n      swap2\n      swap1\n      pop\n      jump\t// out\n        /* \"#utility.yul\":15384:15459   */\n    tag_288:\n        /* \"#utility.yul\":15427:15430   */\n      0x00\n        /* \"#utility.yul\":15448:15453   */\n      dup2\n        /* \"#utility.yul\":15441:15453   */\n      swap1\n      pop\n        /* \"#utility.yul\":15384:15459   */\n      swap2\n      swap1\n      pop\n      jump\t// out\n        /* \"#utility.yul\":15465:15734   */\n    tag_289:\n        /* \"#utility.yul\":15575:15614   */\n      tag_459\n        /* \"#utility.yul\":15606:15613   */\n      dup4\n        /* \"#utility.yul\":15575:15614   */\n      tag_287\n      jump\t// in\n    tag_459:\n        /* \"#utility.yul\":15636:15727   */\n      tag_460\n        /* \"#utility.yul\":15685:15726   */\n      tag_461\n        /* \"#utility.yul\":15709:15725   */\n      dup3\n        /* \"#utility.yul\":15685:15726   */\n      tag_288\n      jump\t// in\n    tag_461:\n        /* \"#utility.yul\":15677:15683   */\n      dup5\n        /* \"#utility.yul\":15670:15674   */\n      dup5\n        /* \"#utility.yul\":15664:15675   */\n      sload\n        /* \"#utility.yul\":15636:15727   */\n      tag_285\n      jump\t// in\n    tag_460:\n        /* \"#utility.yul\":15630:15634   */\n      dup3\n        /* \"#utility.yul\":15623:15728   */\n      sstore\n        /* \"#utility.yul\":15541:15734   */\n      pop\n        /* \"#utility.yul\":15465:15734   */\n      pop\n      pop\n      pop\n      jump\t// out\n        /* \"#utility.yul\":15740:15813   */\n    tag_290:\n        /* \"#utility.yul\":15785:15788   */\n      0x00\n        /* \"#utility.yul\":15740:15813   */\n      swap1\n      jump\t// out\n        /* \"#utility.yul\":15819:16008   */\n    tag_291:\n        /* \"#utility.yul\":15896:15928   */\n      tag_464\n      tag_290\n      jump\t// in\n    tag_464:\n        /* \"#utility.yul\":15937:16002   */\n      tag_465\n        /* \"#utility.yul\":15995:16001   */\n      dup2\n        /* \"#utility.yul\":15987:15993   */\n      dup5\n        /* \"#utility.yul\":15981:15985   */\n      dup5\n        /* \"#utility.yul\":15937:16002   */\n      tag_289\n      jump\t// in\n    tag_465:\n        /* \"#utility.yul\":15872:16008   */\n      pop\n        /* \"#utility.yul\":15819:16008   */\n      pop\n      pop\n      jump\t// out\n        /* \"#utility.yul\":16014:16200   */\n    tag_292:\n        /* \"#utility.yul\":16074:16194   */\n    tag_467:\n        /* \"#utility.yul\":16091:16094   */\n      dup2\n        /* \"#utility.yul\":16084:16089   */\n      dup2\n        /* \"#utility.yul\":16081:16095   */\n      lt\n        /* \"#utility.yul\":16074:16194   */\n      iszero\n      tag_469\n      jumpi\n        /* \"#utility.yul\":16145:16184   */\n      tag_470\n        /* \"#utility.yul\":16182:16183   */\n      0x00\n        /* \"#utility.yul\":16175:16180   */\n      dup3\n        /* \"#utility.yul\":16145:16184   */\n      tag_291\n      jump\t// in\n    tag_470:\n        /* \"#utility.yul\":16118:16119   */\n      0x01\n        /* \"#utility.yul\":16111:16116   */\n      dup2\n        /* \"#utility.yul\":16107:16120   */\n      add\n        /* \"#utility.yul\":16098:16120   */\n      swap1\n      pop\n        /* \"#utility.yul\":16074:16194   */\n      jump(tag_467)\n    tag_469:\n        /* \"#utility.yul\":16014:16200   */\n      pop\n      pop\n      jump\t// out\n        /* \"#utility.yul\":16206:16749   */\n    tag_293:\n        /* \"#utility.yul\":16307:16309   */\n      0x1f\n        /* \"#utility.yul\":16302:16305   */\n      dup3\n        /* \"#utility.yul\":16299:16310   */\n      gt\n        /* \"#utility.yul\":16296:16742   */\n      iszero\n      tag_472\n      jumpi\n        /* \"#utility.yul\":16341:16379   */\n      tag_473\n        /* \"#utility.yul\":16373:16378   */\n      dup2\n        /* \"#utility.yul\":16341:16379   */\n      tag_282\n      jump\t// in\n    tag_473:\n        /* \"#utility.yul\":16425:16454   */\n      tag_474\n        /* \"#utility.yul\":16443:16453   */\n      dup5\n        /* \"#utility.yul\":16425:16454   */\n      tag_283\n      jump\t// in\n    tag_474:\n        /* \"#utility.yul\":16415:16423   */\n      dup2\n        /* \"#utility.yul\":16411:16455   */\n      add\n        /* \"#utility.yul\":16608:16610   */\n      0x20\n        /* \"#utility.yul\":16596:16606   */\n      dup6\n        /* \"#utility.yul\":16593:16611   */\n      lt\n        /* \"#utility.yul\":16590:16639   */\n      iszero\n      tag_475\n      jumpi\n        /* \"#utility.yul\":16629:16637   */\n      dup2\n        /* \"#utility.yul\":16614:16637   */\n      swap1\n      pop\n        /* \"#utility.yul\":16590:16639   */\n    tag_475:\n        /* \"#utility.yul\":16652:16732   */\n      tag_476\n        /* \"#utility.yul\":16708:16730   */\n      tag_477\n        /* \"#utility.yul\":16726:16729   */\n      dup6\n        /* \"#utility.yul\":16708:16730   */\n      tag_283\n      jump\t// in\n    tag_477:\n        /* \"#utility.yul\":16698:16706   */\n      dup4\n        /* \"#utility.yul\":16694:16731   */\n      add\n        /* \"#utility.yul\":16681:16692   */\n      dup3\n        /* \"#utility.yul\":16652:16732   */\n      tag_292\n      jump\t// in\n    tag_476:\n        /* \"#utility.yul\":16311:16742   */\n      pop\n      pop\n        /* \"#utility.yul\":16296:16742   */\n    tag_472:\n        /* \"#utility.yul\":16206:16749   */\n      pop\n      pop\n      pop\n      jump\t// out\n        /* \"#utility.yul\":16755:16872   */\n    tag_294:\n        /* \"#utility.yul\":16809:16817   */\n      0x00\n        /* \"#utility.yul\":16859:16864   */\n      dup3\n        /* \"#utility.yul\":16853:16857   */\n      dup3\n        /* \"#utility.yul\":16849:16865   */\n      shr\n        /* \"#utility.yul\":16828:16865   */\n      swap1\n      pop\n        /* \"#utility.yul\":16755:16872   */\n      swap3\n      swap2\n      pop\n      pop\n      jump\t// out\n        /* \"#utility.yul\":16878:17047   */\n    tag_295:\n        /* \"#utility.yul\":16922:16928   */\n      0x00\n        /* \"#utility.yul\":16955:17006   */\n      tag_480\n        /* \"#utility.yul\":17003:17004   */\n      0x00\n        /* \"#utility.yul\":16999:17005   */\n      not\n        /* \"#utility.yul\":16991:16996   */\n      dup5\n        /* \"#utility.yul\":16988:16989   */\n      0x08\n        /* \"#utility.yul\":16984:16997   */\n      mul\n        /* \"#utility.yul\":16955:17006   */\n      tag_294\n      jump\t// in\n    tag_480:\n        /* \"#utility.yul\":16951:17007   */\n      not\n        /* \"#utility.yul\":17036:17040   */\n      dup1\n        /* \"#utility.yul\":17030:17034   */\n      dup4\n        /* \"#utility.yul\":17026:17041   */\n      and\n        /* \"#utility.yul\":17016:17041   */\n      swap2\n      pop\n        /* \"#utility.yul\":16929:17047   */\n      pop\n        /* \"#utility.yul\":16878:17047   */\n      swap3\n      swap2\n      pop\n      pop\n      jump\t// out\n        /* \"#utility.yul\":17052:17347   */\n    tag_296:\n        /* \"#utility.yul\":17128:17132   */\n      0x00\n        /* \"#utility.yul\":17274:17303   */\n      tag_482\n        /* \"#utility.yul\":17299:17302   */\n      dup4\n        /* \"#utility.yul\":17293:17297   */\n      dup4\n        /* \"#utility.yul\":17274:17303   */\n      tag_295\n      jump\t// in\n    tag_482:\n        /* \"#utility.yul\":17266:17303   */\n      swap2\n      pop\n        /* \"#utility.yul\":17336:17339   */\n      dup3\n        /* \"#utility.yul\":17333:17334   */\n      0x02\n        /* \"#utility.yul\":17329:17340   */\n      mul\n        /* \"#utility.yul\":17323:17327   */\n      dup3\n        /* \"#utility.yul\":17320:17341   */\n      or\n        /* \"#utility.yul\":17312:17341   */\n      swap1\n      pop\n        /* \"#utility.yul\":17052:17347   */\n      swap3\n      swap2\n      pop\n      pop\n      jump\t// out\n        /* \"#utility.yul\":17352:18755   */\n    tag_125:\n        /* \"#utility.yul\":17476:17520   */\n      tag_484\n        /* \"#utility.yul\":17516:17519   */\n      dup4\n        /* \"#utility.yul\":17511:17514   */\n      dup4\n        /* \"#utility.yul\":17476:17520   */\n      tag_280\n      jump\t// in\n    tag_484:\n        /* \"#utility.yul\":17585:17603   */\n      0xffffffffffffffff\n        /* \"#utility.yul\":17577:17583   */\n      dup2\n        /* \"#utility.yul\":17574:17604   */\n      gt\n        /* \"#utility.yul\":17571:17627   */\n      iszero\n      tag_485\n      jumpi\n        /* \"#utility.yul\":17607:17625   */\n      tag_486\n      tag_281\n      jump\t// in\n    tag_486:\n        /* \"#utility.yul\":17571:17627   */\n    tag_485:\n        /* \"#utility.yul\":17651:17689   */\n      tag_487\n        /* \"#utility.yul\":17683:17687   */\n      dup3\n        /* \"#utility.yul\":17677:17688   */\n      sload\n        /* \"#utility.yul\":17651:17689   */\n      tag_91\n      jump\t// in\n    tag_487:\n        /* \"#utility.yul\":17736:17803   */\n      tag_488\n        /* \"#utility.yul\":17796:17802   */\n      dup3\n        /* \"#utility.yul\":17788:17794   */\n      dup3\n        /* \"#utility.yul\":17782:17786   */\n      dup6\n        /* \"#utility.yul\":17736:17803   */\n      tag_293\n      jump\t// in\n    tag_488:\n        /* \"#utility.yul\":17830:17831   */\n      0x00\n        /* \"#utility.yul\":17859:17861   */\n      0x1f\n        /* \"#utility.yul\":17851:17857   */\n      dup4\n        /* \"#utility.yul\":17848:17862   */\n      gt\n        /* \"#utility.yul\":17876:17877   */\n      0x01\n        /* \"#utility.yul\":17871:18503   */\n      dup2\n      eq\n      tag_490\n      jumpi\n        /* \"#utility.yul\":18547:18548   */\n      0x00\n        /* \"#utility.yul\":18564:18570   */\n      dup5\n        /* \"#utility.yul\":18561:18645   */\n      iszero\n      tag_491\n      jumpi\n        /* \"#utility.yul\":18620:18629   */\n      dup3\n        /* \"#utility.yul\":18615:18618   */\n      dup8\n        /* \"#utility.yul\":18611:18630   */\n      add\n        /* \"#utility.yul\":18598:18631   */\n      calldataload\n        /* \"#utility.yul\":18589:18631   */\n      swap1\n      pop\n        /* \"#utility.yul\":18561:18645   */\n    tag_491:\n        /* \"#utility.yul\":18671:18738   */\n      tag_492\n        /* \"#utility.yul\":18731:18737   */\n      dup6\n        /* \"#utility.yul\":18724:18729   */\n      dup3\n        /* \"#utility.yul\":18671:18738   */\n      tag_296\n      jump\t// in\n    tag_492:\n        /* \"#utility.yul\":18665:18669   */\n      dup7\n        /* \"#utility.yul\":18658:18739   */\n      sstore\n        /* \"#utility.yul\":18520:18749   */\n      pop\n        /* \"#utility.yul\":17841:18749   */\n      jump(tag_489)\n        /* \"#utility.yul\":17871:18503   */\n    tag_490:\n        /* \"#utility.yul\":17923:17927   */\n      0x1f\n        /* \"#utility.yul\":17919:17928   */\n      not\n        /* \"#utility.yul\":17911:17917   */\n      dup5\n        /* \"#utility.yul\":17907:17929   */\n      and\n        /* \"#utility.yul\":17957:17994   */\n      tag_493\n        /* \"#utility.yul\":17989:17993   */\n      dup7\n        /* \"#utility.yul\":17957:17994   */\n      tag_282\n      jump\t// in\n    tag_493:\n        /* \"#utility.yul\":18016:18017   */\n      0x00\n        /* \"#utility.yul\":18030:18245   */\n    tag_494:\n        /* \"#utility.yul\":18044:18051   */\n      dup3\n        /* \"#utility.yul\":18041:18042   */\n      dup2\n        /* \"#utility.yul\":18038:18052   */\n      lt\n        /* \"#utility.yul\":18030:18245   */\n      iszero\n      tag_496\n      jumpi\n        /* \"#utility.yul\":18130:18139   */\n      dup5\n        /* \"#utility.yul\":18125:18128   */\n      dup10\n        /* \"#utility.yul\":18121:18140   */\n      add\n        /* \"#utility.yul\":18108:18141   */\n      calldataload\n        /* \"#utility.yul\":18100:18106   */\n      dup3\n        /* \"#utility.yul\":18093:18142   */\n      sstore\n        /* \"#utility.yul\":18181:18182   */\n      0x01\n        /* \"#utility.yul\":18173:18179   */\n      dup3\n        /* \"#utility.yul\":18169:18183   */\n      add\n        /* \"#utility.yul\":18159:18183   */\n      swap2\n      pop\n        /* \"#utility.yul\":18228:18230   */\n      0x20\n        /* \"#utility.yul\":18217:18226   */\n      dup6\n        /* \"#utility.yul\":18213:18231   */\n      add\n        /* \"#utility.yul\":18200:18231   */\n      swap5\n      pop\n        /* \"#utility.yul\":18067:18071   */\n      0x20\n        /* \"#utility.yul\":18064:18065   */\n      dup2\n        /* \"#utility.yul\":18060:18072   */\n      add\n        /* \"#utility.yul\":18055:18072   */\n      swap1\n      pop\n        /* \"#utility.yul\":18030:18245   */\n      jump(tag_494)\n    tag_496:\n        /* \"#utility.yul\":18273:18279   */\n      dup7\n        /* \"#utility.yul\":18264:18271   */\n      dup4\n        /* \"#utility.yul\":18261:18280   */\n      lt\n        /* \"#utility.yul\":18258:18444   */\n      iszero\n      tag_497\n      jumpi\n        /* \"#utility.yul\":18338:18347   */\n      dup5\n        /* \"#utility.yul\":18333:18336   */\n      dup10\n        /* \"#utility.yul\":18329:18348   */\n      add\n        /* \"#utility.yul\":18316:18349   */\n      calldataload\n        /* \"#utility.yul\":18381:18429   */\n      tag_498\n        /* \"#utility.yul\":18423:18427   */\n      0x1f\n        /* \"#utility.yul\":18415:18421   */\n      dup10\n        /* \"#utility.yul\":18411:18428   */\n      and\n        /* \"#utility.yul\":18400:18409   */\n      dup3\n        /* \"#utility.yul\":18381:18429   */\n      tag_295\n      jump\t// in\n    tag_498:\n        /* \"#utility.yul\":18373:18379   */\n      dup4\n        /* \"#utility.yul\":18366:18430   */\n      sstore\n        /* \"#utility.yul\":18281:18444   */\n      pop\n        /* \"#utility.yul\":18258:18444   */\n    tag_497:\n        /* \"#utility.yul\":18490:18491   */\n      0x01\n        /* \"#utility.yul\":18486:18487   */\n      0x02\n        /* \"#utility.yul\":18478:18484   */\n      dup9\n        /* \"#utility.yul\":18474:18488   */\n      mul\n        /* \"#utility.yul\":18470:18492   */\n      add\n        /* \"#utility.yul\":18464:18468   */\n      dup9\n        /* \"#utility.yul\":18457:18493   */\n      sstore\n        /* \"#utility.yul\":17878:18503   */\n      pop\n      pop\n      pop\n        /* \"#utility.yul\":17841:18749   */\n    tag_489:\n      pop\n        /* \"#utility.yul\":17451:18755   */\n      pop\n      pop\n      pop\n        /* \"#utility.yul\":17352:18755   */\n      pop\n      pop\n      pop\n      jump\t// out\n        /* \"#utility.yul\":18761:18955   */\n    tag_127:\n        /* \"#utility.yul\":18801:18805   */\n      0x00\n        /* \"#utility.yul\":18821:18841   */\n      tag_500\n        /* \"#utility.yul\":18839:18840   */\n      dup3\n        /* \"#utility.yul\":18821:18841   */\n      tag_252\n      jump\t// in\n    tag_500:\n        /* \"#utility.yul\":18816:18841   */\n      swap2\n      pop\n        /* \"#utility.yul\":18855:18875   */\n      tag_501\n        /* \"#utility.yul\":18873:18874   */\n      dup4\n        /* \"#utility.yul\":18855:18875   */\n      tag_252\n      jump\t// in\n    tag_501:\n        /* \"#utility.yul\":18850:18875   */\n      swap3\n      pop\n        /* \"#utility.yul\":18899:18900   */\n      dup3\n        /* \"#utility.yul\":18896:18897   */\n      dup3\n        /* \"#utility.yul\":18892:18901   */\n      sub\n        /* \"#utility.yul\":18884:18901   */\n      swap1\n      pop\n        /* \"#utility.yul\":18923:18924   */\n      dup2\n        /* \"#utility.yul\":18917:18921   */\n      dup2\n        /* \"#utility.yul\":18914:18925   */\n      gt\n        /* \"#utility.yul\":18911:18948   */\n      iszero\n      tag_502\n      jumpi\n        /* \"#utility.yul\":18928:18946   */\n      tag_503\n      tag_279\n      jump\t// in\n    tag_503:\n        /* \"#utility.yul\":18911:18948   */\n    tag_502:\n        /* \"#utility.yul\":18761:18955   */\n      swap3\n      swap2\n      pop\n      pop\n      jump\t// out\n        /* \"#utility.yul\":18961:19141   */\n    tag_131:\n        /* \"#utility.yul\":19009:19086   */\n      0x4e487b7100000000000000000000000000000000000000000000000000000000\n        /* \"#utility.yul\":19006:19007   */\n      0x00\n        /* \"#utility.yul\":18999:19087   */\n      mstore\n        /* \"#utility.yul\":19106:19110   */\n      0x32\n        /* \"#utility.yul\":19103:19104   */\n      0x04\n        /* \"#utility.yul\":19096:19111   */\n      mstore\n        /* \"#utility.yul\":19130:19134   */\n      0x24\n        /* \"#utility.yul\":19127:19128   */\n      0x00\n        /* \"#utility.yul\":19120:19135   */\n      revert\n        /* \"#utility.yul\":19147:19327   */\n    tag_141:\n        /* \"#utility.yul\":19195:19272   */\n      0x4e487b7100000000000000000000000000000000000000000000000000000000\n        /* \"#utility.yul\":19192:19193   */\n      0x00\n        /* \"#utility.yul\":19185:19273   */\n      mstore\n        /* \"#utility.yul\":19292:19296   */\n      0x21\n        /* \"#utility.yul\":19289:19290   */\n      0x04\n        /* \"#utility.yul\":19282:19297   */\n      mstore\n        /* \"#utility.yul\":19316:19320   */\n      0x24\n        /* \"#utility.yul\":19313:19314   */\n      0x00\n        /* \"#utility.yul\":19306:19321   */\n      revert\n        /* \"#utility.yul\":19333:19451   */\n    tag_297:\n        /* \"#utility.yul\":19420:19444   */\n      tag_507\n        /* \"#utility.yul\":19438:19443   */\n      dup2\n        /* \"#utility.yul\":19420:19444   */\n      tag_249\n      jump\t// in\n    tag_507:\n        /* \"#utility.yul\":19415:19418   */\n      dup3\n        /* \"#utility.yul\":19408:19445   */\n      mstore\n        /* \"#utility.yul\":19333:19451   */\n      pop\n      pop\n      jump\t// out\n        /* \"#utility.yul\":19457:19899   */\n    tag_192:\n        /* \"#utility.yul\":19606:19610   */\n      0x00\n        /* \"#utility.yul\":19644:19646   */\n      0x60\n        /* \"#utility.yul\":19633:19642   */\n      dup3\n        /* \"#utility.yul\":19629:19647   */\n      add\n        /* \"#utility.yul\":19621:19647   */\n      swap1\n      pop\n        /* \"#utility.yul\":19657:19728   */\n      tag_509\n        /* \"#utility.yul\":19725:19726   */\n      0x00\n        /* \"#utility.yul\":19714:19723   */\n      dup4\n        /* \"#utility.yul\":19710:19727   */\n      add\n        /* \"#utility.yul\":19701:19707   */\n      dup7\n        /* \"#utility.yul\":19657:19728   */\n      tag_297\n      jump\t// in\n    tag_509:\n        /* \"#utility.yul\":19738:19810   */\n      tag_510\n        /* \"#utility.yul\":19806:19808   */\n      0x20\n        /* \"#utility.yul\":19795:19804   */\n      dup4\n        /* \"#utility.yul\":19791:19809   */\n      add\n        /* \"#utility.yul\":19782:19788   */\n      dup6\n        /* \"#utility.yul\":19738:19810   */\n      tag_257\n      jump\t// in\n    tag_510:\n        /* \"#utility.yul\":19820:19892   */\n      tag_511\n        /* \"#utility.yul\":19888:19890   */\n      0x40\n        /* \"#utility.yul\":19877:19886   */\n      dup4\n        /* \"#utility.yul\":19873:19891   */\n      add\n        /* \"#utility.yul\":19864:19870   */\n      dup5\n        /* \"#utility.yul\":19820:19892   */\n      tag_257\n      jump\t// in\n    tag_511:\n        /* \"#utility.yul\":19457:19899   */\n      swap5\n      swap4\n      pop\n      pop\n      pop\n      pop\n      jump\t// out\n        /* \"#utility.yul\":19905:20127   */\n    tag_197:\n        /* \"#utility.yul\":19998:20002   */\n      0x00\n        /* \"#utility.yul\":20036:20038   */\n      0x20\n        /* \"#utility.yul\":20025:20034   */\n      dup3\n        /* \"#utility.yul\":20021:20039   */\n      add\n        /* \"#utility.yul\":20013:20039   */\n      swap1\n      pop\n        /* \"#utility.yul\":20049:20120   */\n      tag_513\n        /* \"#utility.yul\":20117:20118   */\n      0x00\n        /* \"#utility.yul\":20106:20115   */\n      dup4\n        /* \"#utility.yul\":20102:20119   */\n      add\n        /* \"#utility.yul\":20093:20099   */\n      dup5\n        /* \"#utility.yul\":20049:20120   */\n      tag_297\n      jump\t// in\n    tag_513:\n        /* \"#utility.yul\":19905:20127   */\n      swap3\n      swap2\n      pop\n      pop\n      jump\t// out\n\n    auxdata: 0xa26469706673582212204ff4032149773a07e0b5de11c4aa3ac7872bf41f1d800565bd966143172700ef64736f6c63430008140033\n}\n",
				"bytecode": {
					"linkReferences": {},
					"object": "60806040526040518060400160405280600581526020017f4348415345000000000000000000000000000000000000000000000000000000815250600590816200004a919062000339565b50620f4240600855606460095534801562000063575f80fd5b50604051620023bb380380620023bb833981810160405281019062000089919062000575565b818181600390816200009c919062000339565b508060049081620000ae919062000339565b505050600660018160018154018082558091505003905f5260205f209050505050620005f8565b5f81519050919050565b7f4e487b71000000000000000000000000000000000000000000000000000000005f52604160045260245ffd5b7f4e487b71000000000000000000000000000000000000000000000000000000005f52602260045260245ffd5b5f60028204905060018216806200015157607f821691505b6020821081036200016757620001666200010c565b5b50919050565b5f819050815f5260205f209050919050565b5f6020601f8301049050919050565b5f82821b905092915050565b5f60088302620001cb7fffffffffffffffffffffffffffffffffffffffffffffffffffffffffffffffff826200018e565b620001d786836200018e565b95508019841693508086168417925050509392505050565b5f819050919050565b5f819050919050565b5f620002216200021b6200021584620001ef565b620001f8565b620001ef565b9050919050565b5f819050919050565b6200023c8362000201565b620002546200024b8262000228565b8484546200019a565b825550505050565b5f90565b6200026a6200025c565b6200027781848462000231565b505050565b5b818110156200029e57620002925f8262000260565b6001810190506200027d565b5050565b601f821115620002ed57620002b7816200016d565b620002c2846200017f565b81016020851015620002d2578190505b620002ea620002e1856200017f565b8301826200027c565b50505b505050565b5f82821c905092915050565b5f6200030f5f1984600802620002f2565b1980831691505092915050565b5f620003298383620002fe565b9150826002028217905092915050565b6200034482620000d5565b67ffffffffffffffff81111562000360576200035f620000df565b5b6200036c825462000139565b62000379828285620002a2565b5f60209050601f831160018114620003af575f84156200039a578287015190505b620003a685826200031c565b86555062000415565b601f198416620003bf866200016d565b5f5b82811015620003e857848901518255600182019150602085019450602081019050620003c1565b8683101562000408578489015162000404601f891682620002fe565b8355505b6001600288020188555050505b505050505050565b5f604051905090565b5f80fd5b5f80fd5b5f80fd5b5f80fd5b5f601f19601f8301169050919050565b620004518262000436565b810181811067ffffffffffffffff82111715620004735762000472620000df565b5b80604052505050565b5f620004876200041d565b905062000495828262000446565b919050565b5f67ffffffffffffffff821115620004b757620004b6620000df565b5b620004c28262000436565b9050602081019050919050565b5f5b83811015620004ee578082015181840152602081019050620004d1565b5f8484015250505050565b5f6200050f62000509846200049a565b6200047c565b9050828152602081018484840111156200052e576200052d62000432565b5b6200053b848285620004cf565b509392505050565b5f82601f8301126200055a57620005596200042e565b5b81516200056c848260208601620004f9565b91505092915050565b5f80604083850312156200058e576200058d62000426565b5b5f83015167ffffffffffffffff811115620005ae57620005ad6200042a565b5b620005bc8582860162000543565b925050602083015167ffffffffffffffff811115620005e057620005df6200042a565b5b620005ee8582860162000543565b9150509250929050565b611db580620006065f395ff3fe608060405234801561000f575f80fd5b50600436106100fe575f3560e01c8063830953ab11610095578063976b311311610064578063976b3113146102ae578063a9059cbb146102de578063d5abeb011461030e578063dd62ed3e1461032c576100fe565b8063830953ab146102265780638615d85514610244578063943e82161461027457806395d89b4114610290576100fe565b8063313ce567116100d1578063313ce5671461019e5780634e71d92d146101bc578063624601b6146101c657806370a08231146101f6576100fe565b806306fdde0314610102578063095ea7b31461012057806318160ddd1461015057806323b872dd1461016e575b5f80fd5b61010a61035c565b60405161011791906113ac565b60405180910390f35b61013a60048036038101906101359190611461565b6103ec565b60405161014791906114b9565b60405180910390f35b61015861040e565b60405161016591906114e1565b60405180910390f35b610188600480360381019061018391906114fa565b610417565b60405161019591906114b9565b60405180910390f35b6101a6610445565b6040516101b39190611565565b60405180910390f35b6101c461044d565b005b6101e060048036038101906101db919061157e565b610581565b6040516101ed91906114b9565b60405180910390f35b610210600480360381019061020b919061157e565b61059e565b60405161021d91906114e1565b60405180910390f35b61022e6105e3565b60405161023b91906114e1565b60405180910390f35b61025e6004803603810190610259919061160a565b6105e9565b60405161026b91906114e1565b60405180910390f35b61028e6004803603810190610289919061168a565b6106c6565b005b610298610904565b6040516102a591906113ac565b60405180910390f35b6102c860048036038101906102c391906116c8565b610994565b6040516102d591906118d9565b60405180910390f35b6102f860048036038101906102f39190611461565b610ad4565b60405161030591906114b9565b60405180910390f35b610316610af6565b60405161032391906114e1565b60405180910390f35b610346600480360381019061034191906118f9565b610afc565b60405161035391906114e1565b60405180910390f35b60606003805461036b90611964565b80601f016020809104026020016040519081016040528092919081815260200182805461039790611964565b80156103e25780601f106103b9576101008083540402835291602001916103e2565b820191905f5260205f20905b8154815290600101906020018083116103c557829003601f168201915b5050505050905090565b5f806103f6610b7e565b9050610403818585610b85565b600191505092915050565b5f600254905090565b5f80610421610b7e565b905061042e858285610b97565b610439858585610c29565b60019150509392505050565b5f6012905090565b60085460095461045b61040e565b61046591906119c1565b111561049d576040517fcbe2483100000000000000000000000000000000000000000000000000000000815260040160405180910390fd5b60075f3373ffffffffffffffffffffffffffffffffffffffff1673ffffffffffffffffffffffffffffffffffffffff1681526020019081526020015f205f9054906101000a900460ff161561051e576040517f0b1327a600000000000000000000000000000000000000000000000000000000815260040160405180910390fd5b61052a33600954610d19565b600160075f3373ffffffffffffffffffffffffffffffffffffffff1673ffffffffffffffffffffffffffffffffffffffff1681526020019081526020015f205f6101000a81548160ff021916908315150217905550565b6007602052805f5260405f205f915054906101000a900460ff1681565b5f805f8373ffffffffffffffffffffffffffffffffffffffff1673ffffffffffffffffffffffffffffffffffffffff1681526020019081526020015f20549050919050565b60095481565b5f806105f43361059e565b0361062b576040517f8439960d00000000000000000000000000000000000000000000000000000000815260040160405180910390fd5b61063361040e565b82111561066c576040517f0d92730000000000000000000000000000000000000000000000000000000000815260040160405180910390fd5b5f600660018160018154018082558091505003905f5260205f209060090201905084848260020191826106a0929190611bc8565b5082816003018190555060016006805490506106bc9190611c95565b9150509392505050565b5f600683815481106106db576106da611cc8565b5b905f5260205f20906009020190508060080160019054906101000a900460ff1615610732576040517f66b6cb4a00000000000000000000000000000000000000000000000000000000815260040160405180910390fd5b61074733825f01610d9890919063ffffffff16565b1561077e576040517f7c9a1cf900000000000000000000000000000000000000000000000000000000815260040160405180910390fd5b5f6107883361059e565b90505f81036107c3576040517f8439960d00000000000000000000000000000000000000000000000000000000815260040160405180910390fd5b5f60028111156107d6576107d5611cf5565b5b8360028111156107e9576107e8611cf5565b5b0361080d5780826006015f82825461080191906119c1565b92505081905550610874565b6001600281111561082157610820611cf5565b5b83600281111561083457610833611cf5565b5b036108585780826005015f82825461084c91906119c1565b92505081905550610873565b80826007015f82825461086b91906119c1565b925050819055505b5b61088933835f01610dc590919063ffffffff16565b5080826004015f82825461089d91906119c1565b9250508190555081600301548260040154106108fe5760018260080160016101000a81548160ff0219169083151502179055508160060154826005015411156108fd576001826008015f6101000a81548160ff0219169083151502179055505b5b50505050565b60606004805461091390611964565b80601f016020809104026020016040519081016040528092919081815260200182805461093f90611964565b801561098a5780601f106109615761010080835404028352916020019161098a565b820191905f5260205f20905b81548152906001019060200180831161096d57829003601f168201915b5050505050905090565b61099c6112d9565b5f600683815481106109b1576109b0611cc8565b5b905f5260205f20906009020190506040518061012001604052806109d6835f01610df2565b81526020018260020180546109ea90611964565b80601f0160208091040260200160405190810160405280929190818152602001828054610a1690611964565b8015610a615780601f10610a3857610100808354040283529160200191610a61565b820191905f5260205f20905b815481529060010190602001808311610a4457829003601f168201915b505050505081526020018260030154815260200182600401548152602001826005015481526020018260060154815260200182600701548152602001826008015f9054906101000a900460ff16151581526020018260080160019054906101000a900460ff161515815250915050919050565b5f80610ade610b7e565b9050610aeb818585610c29565b600191505092915050565b60085481565b5f60015f8473ffffffffffffffffffffffffffffffffffffffff1673ffffffffffffffffffffffffffffffffffffffff1681526020019081526020015f205f8373ffffffffffffffffffffffffffffffffffffffff1673ffffffffffffffffffffffffffffffffffffffff1681526020019081526020015f2054905092915050565b5f33905090565b610b928383836001610e11565b505050565b5f610ba28484610afc565b90507fffffffffffffffffffffffffffffffffffffffffffffffffffffffffffffffff8114610c235781811015610c14578281836040517ffb8f41b2000000000000000000000000000000000000000000000000000000008152600401610c0b93929190611d31565b60405180910390fd5b610c2284848484035f610e11565b5b50505050565b5f73ffffffffffffffffffffffffffffffffffffffff168373ffffffffffffffffffffffffffffffffffffffff1603610c99575f6040517f96c6fd1e000000000000000000000000000000000000000000000000000000008152600401610c909190611d66565b60405180910390fd5b5f73ffffffffffffffffffffffffffffffffffffffff168273ffffffffffffffffffffffffffffffffffffffff1603610d09575f6040517fec442f05000000000000000000000000000000000000000000000000000000008152600401610d009190611d66565b60405180910390fd5b610d14838383610fe0565b505050565b5f73ffffffffffffffffffffffffffffffffffffffff168273ffffffffffffffffffffffffffffffffffffffff1603610d89575f6040517fec442f05000000000000000000000000000000000000000000000000000000008152600401610d809190611d66565b60405180910390fd5b610d945f8383610fe0565b5050565b5f610dbd835f018373ffffffffffffffffffffffffffffffffffffffff165f1b6111f9565b905092915050565b5f610dea835f018373ffffffffffffffffffffffffffffffffffffffff165f1b611219565b905092915050565b60605f610e00835f01611280565b905060608190508092505050919050565b5f73ffffffffffffffffffffffffffffffffffffffff168473ffffffffffffffffffffffffffffffffffffffff1603610e81575f6040517fe602df05000000000000000000000000000000000000000000000000000000008152600401610e789190611d66565b60405180910390fd5b5f73ffffffffffffffffffffffffffffffffffffffff168373ffffffffffffffffffffffffffffffffffffffff1603610ef1575f6040517f94280d62000000000000000000000000000000000000000000000000000000008152600401610ee89190611d66565b60405180910390fd5b8160015f8673ffffffffffffffffffffffffffffffffffffffff1673ffffffffffffffffffffffffffffffffffffffff1681526020019081526020015f205f8573ffffffffffffffffffffffffffffffffffffffff1673ffffffffffffffffffffffffffffffffffffffff1681526020019081526020015f20819055508015610fda578273ffffffffffffffffffffffffffffffffffffffff168473ffffffffffffffffffffffffffffffffffffffff167f8c5be1e5ebec7d5bd14f71427d1e84f3dd0314c0f7b2291e5b200ac8c7c3b92584604051610fd191906114e1565b60405180910390a35b50505050565b5f73ffffffffffffffffffffffffffffffffffffffff168373ffffffffffffffffffffffffffffffffffffffff1603611030578060025f82825461102491906119c1565b925050819055506110fe565b5f805f8573ffffffffffffffffffffffffffffffffffffffff1673ffffffffffffffffffffffffffffffffffffffff1681526020019081526020015f20549050818110156110b9578381836040517fe450d38c0000000000000000000000000000000000000000000000000000000081526004016110b093929190611d31565b60405180910390fd5b8181035f808673ffffffffffffffffffffffffffffffffffffffff1673ffffffffffffffffffffffffffffffffffffffff1681526020019081526020015f2081905550505b5f73ffffffffffffffffffffffffffffffffffffffff168273ffffffffffffffffffffffffffffffffffffffff1603611145578060025f828254039250508190555061118f565b805f808473ffffffffffffffffffffffffffffffffffffffff1673ffffffffffffffffffffffffffffffffffffffff1681526020019081526020015f205f82825401925050819055505b8173ffffffffffffffffffffffffffffffffffffffff168373ffffffffffffffffffffffffffffffffffffffff167fddf252ad1be2c89b69c2b068fc378daa952ba7f163c4a11628f55a4df523b3ef836040516111ec91906114e1565b60405180910390a3505050565b5f80836001015f8481526020019081526020015f20541415905092915050565b5f61122483836111f9565b61127657825f0182908060018154018082558091505060019003905f5260205f20015f9091909190915055825f0180549050836001015f8481526020019081526020015f20819055506001905061127a565b5f90505b92915050565b6060815f018054806020026020016040519081016040528092919081815260200182805480156112cd57602002820191905f5260205f20905b8154815260200190600101908083116112b9575b50505050509050919050565b60405180610120016040528060608152602001606081526020015f81526020015f81526020015f81526020015f81526020015f81526020015f151581526020015f151581525090565b5f81519050919050565b5f82825260208201905092915050565b5f5b8381101561135957808201518184015260208101905061133e565b5f8484015250505050565b5f601f19601f8301169050919050565b5f61137e82611322565b611388818561132c565b935061139881856020860161133c565b6113a181611364565b840191505092915050565b5f6020820190508181035f8301526113c48184611374565b905092915050565b5f80fd5b5f80fd5b5f73ffffffffffffffffffffffffffffffffffffffff82169050919050565b5f6113fd826113d4565b9050919050565b61140d816113f3565b8114611417575f80fd5b50565b5f8135905061142881611404565b92915050565b5f819050919050565b6114408161142e565b811461144a575f80fd5b50565b5f8135905061145b81611437565b92915050565b5f8060408385031215611477576114766113cc565b5b5f6114848582860161141a565b92505060206114958582860161144d565b9150509250929050565b5f8115159050919050565b6114b38161149f565b82525050565b5f6020820190506114cc5f8301846114aa565b92915050565b6114db8161142e565b82525050565b5f6020820190506114f45f8301846114d2565b92915050565b5f805f60608486031215611511576115106113cc565b5b5f61151e8682870161141a565b935050602061152f8682870161141a565b92505060406115408682870161144d565b9150509250925092565b5f60ff82169050919050565b61155f8161154a565b82525050565b5f6020820190506115785f830184611556565b92915050565b5f60208284031215611593576115926113cc565b5b5f6115a08482850161141a565b91505092915050565b5f80fd5b5f80fd5b5f80fd5b5f8083601f8401126115ca576115c96115a9565b5b8235905067ffffffffffffffff8111156115e7576115e66115ad565b5b602083019150836001820283011115611603576116026115b1565b5b9250929050565b5f805f60408486031215611621576116206113cc565b5b5f84013567ffffffffffffffff81111561163e5761163d6113d0565b5b61164a868287016115b5565b9350935050602061165d8682870161144d565b9150509250925092565b60038110611673575f80fd5b50565b5f8135905061168481611667565b92915050565b5f80604083850312156116a05761169f6113cc565b5b5f6116ad8582860161144d565b92505060206116be85828601611676565b9150509250929050565b5f602082840312156116dd576116dc6113cc565b5b5f6116ea8482850161144d565b91505092915050565b5f81519050919050565b5f82825260208201905092915050565b5f819050602082019050919050565b611725816113f3565b82525050565b5f611736838361171c565b60208301905092915050565b5f602082019050919050565b5f611758826116f3565b61176281856116fd565b935061176d8361170d565b805f5b8381101561179d578151611784888261172b565b975061178f83611742565b925050600181019050611770565b5085935050505092915050565b5f82825260208201905092915050565b5f6117c482611322565b6117ce81856117aa565b93506117de81856020860161133c565b6117e781611364565b840191505092915050565b6117fb8161142e565b82525050565b61180a8161149f565b82525050565b5f61012083015f8301518482035f86015261182b828261174e565b9150506020830151848203602086015261184582826117ba565b915050604083015161185a60408601826117f2565b50606083015161186d60608601826117f2565b50608083015161188060808601826117f2565b5060a083015161189360a08601826117f2565b5060c08301516118a660c08601826117f2565b5060e08301516118b960e0860182611801565b506101008301516118ce610100860182611801565b508091505092915050565b5f6020820190508181035f8301526118f18184611810565b905092915050565b5f806040838503121561190f5761190e6113cc565b5b5f61191c8582860161141a565b925050602061192d8582860161141a565b9150509250929050565b7f4e487b71000000000000000000000000000000000000000000000000000000005f52602260045260245ffd5b5f600282049050600182168061197b57607f821691505b60208210810361198e5761198d611937565b5b50919050565b7f4e487b71000000000000000000000000000000000000000000000000000000005f52601160045260245ffd5b5f6119cb8261142e565b91506119d68361142e565b92508282019050808211156119ee576119ed611994565b5b92915050565b5f82905092915050565b7f4e487b71000000000000000000000000000000000000000000000000000000005f52604160045260245ffd5b5f819050815f5260205f209050919050565b5f6020601f8301049050919050565b5f82821b905092915050565b5f60088302611a877fffffffffffffffffffffffffffffffffffffffffffffffffffffffffffffffff82611a4c565b611a918683611a4c565b95508019841693508086168417925050509392505050565b5f819050919050565b5f611acc611ac7611ac28461142e565b611aa9565b61142e565b9050919050565b5f819050919050565b611ae583611ab2565b611af9611af182611ad3565b848454611a58565b825550505050565b5f90565b611b0d611b01565b611b18818484611adc565b505050565b5b81811015611b3b57611b305f82611b05565b600181019050611b1e565b5050565b601f821115611b8057611b5181611a2b565b611b5a84611a3d565b81016020851015611b69578190505b611b7d611b7585611a3d565b830182611b1d565b50505b505050565b5f82821c905092915050565b5f611ba05f1984600802611b85565b1980831691505092915050565b5f611bb88383611b91565b9150826002028217905092915050565b611bd283836119f4565b67ffffffffffffffff811115611beb57611bea6119fe565b5b611bf58254611964565b611c00828285611b3f565b5f601f831160018114611c2d575f8415611c1b578287013590505b611c258582611bad565b865550611c8c565b601f198416611c3b86611a2b565b5f5b82811015611c6257848901358255600182019150602085019450602081019050611c3d565b86831015611c7f5784890135611c7b601f891682611b91565b8355505b6001600288020188555050505b50505050505050565b5f611c9f8261142e565b9150611caa8361142e565b9250828203905081811115611cc257611cc1611994565b5b92915050565b7f4e487b71000000000000000000000000000000000000000000000000000000005f52603260045260245ffd5b7f4e487b71000000000000000000000000000000000000000000000000000000005f52602160045260245ffd5b611d2b816113f3565b82525050565b5f606082019050611d445f830186611d22565b611d5160208301856114d2565b611d5e60408301846114d2565b949350505050565b5f602082019050611d795f830184611d22565b9291505056fea26469706673582212204ff4032149773a07e0b5de11c4aa3ac7872bf41f1d800565bd966143172700ef64736f6c63430008140033",
					"opcodes": "PUSH1 0x80 PUSH1 0x40 MSTORE PUSH1 0x40 MLOAD DUP1 PUSH1 0x40 ADD PUSH1 0x40 MSTORE DUP1 PUSH1 0x5 DUP2 MSTORE PUSH1 0x20 ADD PUSH32 0x4348415345000000000000000000000000000000000000000000000000000000 DUP2 MSTORE POP PUSH1 0x5 SWAP1 DUP2 PUSH3 0x4A SWAP2 SWAP1 PUSH3 0x339 JUMP JUMPDEST POP PUSH3 0xF4240 PUSH1 0x8 SSTORE PUSH1 0x64 PUSH1 0x9 SSTORE CALLVALUE DUP1 ISZERO PUSH3 0x63 JUMPI PUSH0 DUP1 REVERT JUMPDEST POP PUSH1 0x40 MLOAD PUSH3 0x23BB CODESIZE SUB DUP1 PUSH3 0x23BB DUP4 CODECOPY DUP2 DUP2 ADD PUSH1 0x40 MSTORE DUP2 ADD SWAP1 PUSH3 0x89 SWAP2 SWAP1 PUSH3 0x575 JUMP JUMPDEST DUP2 DUP2 DUP2 PUSH1 0x3 SWAP1 DUP2 PUSH3 0x9C SWAP2 SWAP1 PUSH3 0x339 JUMP JUMPDEST POP DUP1 PUSH1 0x4 SWAP1 DUP2 PUSH3 0xAE SWAP2 SWAP1 PUSH3 0x339 JUMP JUMPDEST POP POP POP PUSH1 0x6 PUSH1 0x1 DUP2 PUSH1 0x1 DUP2 SLOAD ADD DUP1 DUP3 SSTORE DUP1 SWAP2 POP POP SUB SWAP1 PUSH0 MSTORE PUSH1 0x20 PUSH0 KECCAK256 SWAP1 POP POP POP POP PUSH3 0x5F8 JUMP JUMPDEST PUSH0 DUP2 MLOAD SWAP1 POP SWAP2 SWAP1 POP JUMP JUMPDEST PUSH32 0x4E487B7100000000000000000000000000000000000000000000000000000000 PUSH0 MSTORE PUSH1 0x41 PUSH1 0x4 MSTORE PUSH1 0x24 PUSH0 REVERT JUMPDEST PUSH32 0x4E487B7100000000000000000000000000000000000000000000000000000000 PUSH0 MSTORE PUSH1 0x22 PUSH1 0x4 MSTORE PUSH1 0x24 PUSH0 REVERT JUMPDEST PUSH0 PUSH1 0x2 DUP3 DIV SWAP1 POP PUSH1 0x1 DUP3 AND DUP1 PUSH3 0x151 JUMPI PUSH1 0x7F DUP3 AND SWAP2 POP JUMPDEST PUSH1 0x20 DUP3 LT DUP2 SUB PUSH3 0x167 JUMPI PUSH3 0x166 PUSH3 0x10C JUMP JUMPDEST JUMPDEST POP SWAP2 SWAP1 POP JUMP JUMPDEST PUSH0 DUP2 SWAP1 POP DUP2 PUSH0 MSTORE PUSH1 0x20 PUSH0 KECCAK256 SWAP1 POP SWAP2 SWAP1 POP JUMP JUMPDEST PUSH0 PUSH1 0x20 PUSH1 0x1F DUP4 ADD DIV SWAP1 POP SWAP2 SWAP1 POP JUMP JUMPDEST PUSH0 DUP3 DUP3 SHL SWAP1 POP SWAP3 SWAP2 POP POP JUMP JUMPDEST PUSH0 PUSH1 0x8 DUP4 MUL PUSH3 0x1CB PUSH32 0xFFFFFFFFFFFFFFFFFFFFFFFFFFFFFFFFFFFFFFFFFFFFFFFFFFFFFFFFFFFFFFFF DUP3 PUSH3 0x18E JUMP JUMPDEST PUSH3 0x1D7 DUP7 DUP4 PUSH3 0x18E JUMP JUMPDEST SWAP6 POP DUP1 NOT DUP5 AND SWAP4 POP DUP1 DUP7 AND DUP5 OR SWAP3 POP POP POP SWAP4 SWAP3 POP POP POP JUMP JUMPDEST PUSH0 DUP2 SWAP1 POP SWAP2 SWAP1 POP JUMP JUMPDEST PUSH0 DUP2 SWAP1 POP SWAP2 SWAP1 POP JUMP JUMPDEST PUSH0 PUSH3 0x221 PUSH3 0x21B PUSH3 0x215 DUP5 PUSH3 0x1EF JUMP JUMPDEST PUSH3 0x1F8 JUMP JUMPDEST PUSH3 0x1EF JUMP JUMPDEST SWAP1 POP SWAP2 SWAP1 POP JUMP JUMPDEST PUSH0 DUP2 SWAP1 POP SWAP2 SWAP1 POP JUMP JUMPDEST PUSH3 0x23C DUP4 PUSH3 0x201 JUMP JUMPDEST PUSH3 0x254 PUSH3 0x24B DUP3 PUSH3 0x228 JUMP JUMPDEST DUP5 DUP5 SLOAD PUSH3 0x19A JUMP JUMPDEST DUP3 SSTORE POP POP POP POP JUMP JUMPDEST PUSH0 SWAP1 JUMP JUMPDEST PUSH3 0x26A PUSH3 0x25C JUMP JUMPDEST PUSH3 0x277 DUP2 DUP5 DUP5 PUSH3 0x231 JUMP JUMPDEST POP POP POP JUMP JUMPDEST JUMPDEST DUP2 DUP2 LT ISZERO PUSH3 0x29E JUMPI PUSH3 0x292 PUSH0 DUP3 PUSH3 0x260 JUMP JUMPDEST PUSH1 0x1 DUP2 ADD SWAP1 POP PUSH3 0x27D JUMP JUMPDEST POP POP JUMP JUMPDEST PUSH1 0x1F DUP3 GT ISZERO PUSH3 0x2ED JUMPI PUSH3 0x2B7 DUP2 PUSH3 0x16D JUMP JUMPDEST PUSH3 0x2C2 DUP5 PUSH3 0x17F JUMP JUMPDEST DUP2 ADD PUSH1 0x20 DUP6 LT ISZERO PUSH3 0x2D2 JUMPI DUP2 SWAP1 POP JUMPDEST PUSH3 0x2EA PUSH3 0x2E1 DUP6 PUSH3 0x17F JUMP JUMPDEST DUP4 ADD DUP3 PUSH3 0x27C JUMP JUMPDEST POP POP JUMPDEST POP POP POP JUMP JUMPDEST PUSH0 DUP3 DUP3 SHR SWAP1 POP SWAP3 SWAP2 POP POP JUMP JUMPDEST PUSH0 PUSH3 0x30F PUSH0 NOT DUP5 PUSH1 0x8 MUL PUSH3 0x2F2 JUMP JUMPDEST NOT DUP1 DUP4 AND SWAP2 POP POP SWAP3 SWAP2 POP POP JUMP JUMPDEST PUSH0 PUSH3 0x329 DUP4 DUP4 PUSH3 0x2FE JUMP JUMPDEST SWAP2 POP DUP3 PUSH1 0x2 MUL DUP3 OR SWAP1 POP SWAP3 SWAP2 POP POP JUMP JUMPDEST PUSH3 0x344 DUP3 PUSH3 0xD5 JUMP JUMPDEST PUSH8 0xFFFFFFFFFFFFFFFF DUP2 GT ISZERO PUSH3 0x360 JUMPI PUSH3 0x35F PUSH3 0xDF JUMP JUMPDEST JUMPDEST PUSH3 0x36C DUP3 SLOAD PUSH3 0x139 JUMP JUMPDEST PUSH3 0x379 DUP3 DUP3 DUP6 PUSH3 0x2A2 JUMP JUMPDEST PUSH0 PUSH1 0x20 SWAP1 POP PUSH1 0x1F DUP4 GT PUSH1 0x1 DUP2 EQ PUSH3 0x3AF JUMPI PUSH0 DUP5 ISZERO PUSH3 0x39A JUMPI DUP3 DUP8 ADD MLOAD SWAP1 POP JUMPDEST PUSH3 0x3A6 DUP6 DUP3 PUSH3 0x31C JUMP JUMPDEST DUP7 SSTORE POP PUSH3 0x415 JUMP JUMPDEST PUSH1 0x1F NOT DUP5 AND PUSH3 0x3BF DUP7 PUSH3 0x16D JUMP JUMPDEST PUSH0 JUMPDEST DUP3 DUP2 LT ISZERO PUSH3 0x3E8 JUMPI DUP5 DUP10 ADD MLOAD DUP3 SSTORE PUSH1 0x1 DUP3 ADD SWAP2 POP PUSH1 0x20 DUP6 ADD SWAP5 POP PUSH1 0x20 DUP2 ADD SWAP1 POP PUSH3 0x3C1 JUMP JUMPDEST DUP7 DUP4 LT ISZERO PUSH3 0x408 JUMPI DUP5 DUP10 ADD MLOAD PUSH3 0x404 PUSH1 0x1F DUP10 AND DUP3 PUSH3 0x2FE JUMP JUMPDEST DUP4 SSTORE POP JUMPDEST PUSH1 0x1 PUSH1 0x2 DUP9 MUL ADD DUP9 SSTORE POP POP POP JUMPDEST POP POP POP POP POP POP JUMP JUMPDEST PUSH0 PUSH1 0x40 MLOAD SWAP1 POP SWAP1 JUMP JUMPDEST PUSH0 DUP1 REVERT JUMPDEST PUSH0 DUP1 REVERT JUMPDEST PUSH0 DUP1 REVERT JUMPDEST PUSH0 DUP1 REVERT JUMPDEST PUSH0 PUSH1 0x1F NOT PUSH1 0x1F DUP4 ADD AND SWAP1 POP SWAP2 SWAP1 POP JUMP JUMPDEST PUSH3 0x451 DUP3 PUSH3 0x436 JUMP JUMPDEST DUP2 ADD DUP2 DUP2 LT PUSH8 0xFFFFFFFFFFFFFFFF DUP3 GT OR ISZERO PUSH3 0x473 JUMPI PUSH3 0x472 PUSH3 0xDF JUMP JUMPDEST JUMPDEST DUP1 PUSH1 0x40 MSTORE POP POP POP JUMP JUMPDEST PUSH0 PUSH3 0x487 PUSH3 0x41D JUMP JUMPDEST SWAP1 POP PUSH3 0x495 DUP3 DUP3 PUSH3 0x446 JUMP JUMPDEST SWAP2 SWAP1 POP JUMP JUMPDEST PUSH0 PUSH8 0xFFFFFFFFFFFFFFFF DUP3 GT ISZERO PUSH3 0x4B7 JUMPI PUSH3 0x4B6 PUSH3 0xDF JUMP JUMPDEST JUMPDEST PUSH3 0x4C2 DUP3 PUSH3 0x436 JUMP JUMPDEST SWAP1 POP PUSH1 0x20 DUP2 ADD SWAP1 POP SWAP2 SWAP1 POP JUMP JUMPDEST PUSH0 JUMPDEST DUP4 DUP2 LT ISZERO PUSH3 0x4EE JUMPI DUP1 DUP3 ADD MLOAD DUP2 DUP5 ADD MSTORE PUSH1 0x20 DUP2 ADD SWAP1 POP PUSH3 0x4D1 JUMP JUMPDEST PUSH0 DUP5 DUP5 ADD MSTORE POP POP POP POP JUMP JUMPDEST PUSH0 PUSH3 0x50F PUSH3 0x509 DUP5 PUSH3 0x49A JUMP JUMPDEST PUSH3 0x47C JUMP JUMPDEST SWAP1 POP DUP3 DUP2 MSTORE PUSH1 0x20 DUP2 ADD DUP5 DUP5 DUP5 ADD GT ISZERO PUSH3 0x52E JUMPI PUSH3 0x52D PUSH3 0x432 JUMP JUMPDEST JUMPDEST PUSH3 0x53B DUP5 DUP3 DUP6 PUSH3 0x4CF JUMP JUMPDEST POP SWAP4 SWAP3 POP POP POP JUMP JUMPDEST PUSH0 DUP3 PUSH1 0x1F DUP4 ADD SLT PUSH3 0x55A JUMPI PUSH3 0x559 PUSH3 0x42E JUMP JUMPDEST JUMPDEST DUP2 MLOAD PUSH3 0x56C DUP5 DUP3 PUSH1 0x20 DUP7 ADD PUSH3 0x4F9 JUMP JUMPDEST SWAP2 POP POP SWAP3 SWAP2 POP POP JUMP JUMPDEST PUSH0 DUP1 PUSH1 0x40 DUP4 DUP6 SUB SLT ISZERO PUSH3 0x58E JUMPI PUSH3 0x58D PUSH3 0x426 JUMP JUMPDEST JUMPDEST PUSH0 DUP4 ADD MLOAD PUSH8 0xFFFFFFFFFFFFFFFF DUP2 GT ISZERO PUSH3 0x5AE JUMPI PUSH3 0x5AD PUSH3 0x42A JUMP JUMPDEST JUMPDEST PUSH3 0x5BC DUP6 DUP3 DUP7 ADD PUSH3 0x543 JUMP JUMPDEST SWAP3 POP POP PUSH1 0x20 DUP4 ADD MLOAD PUSH8 0xFFFFFFFFFFFFFFFF DUP2 GT ISZERO PUSH3 0x5E0 JUMPI PUSH3 0x5DF PUSH3 0x42A JUMP JUMPDEST JUMPDEST PUSH3 0x5EE DUP6 DUP3 DUP7 ADD PUSH3 0x543 JUMP JUMPDEST SWAP2 POP POP SWAP3 POP SWAP3 SWAP1 POP JUMP JUMPDEST PUSH2 0x1DB5 DUP1 PUSH3 0x606 PUSH0 CODECOPY PUSH0 RETURN INVALID PUSH1 0x80 PUSH1 0x40 MSTORE CALLVALUE DUP1 ISZERO PUSH2 0xF JUMPI PUSH0 DUP1 REVERT JUMPDEST POP PUSH1 0x4 CALLDATASIZE LT PUSH2 0xFE JUMPI PUSH0 CALLDATALOAD PUSH1 0xE0 SHR DUP1 PUSH4 0x830953AB GT PUSH2 0x95 JUMPI DUP1 PUSH4 0x976B3113 GT PUSH2 0x64 JUMPI DUP1 PUSH4 0x976B3113 EQ PUSH2 0x2AE JUMPI DUP1 PUSH4 0xA9059CBB EQ PUSH2 0x2DE JUMPI DUP1 PUSH4 0xD5ABEB01 EQ PUSH2 0x30E JUMPI DUP1 PUSH4 0xDD62ED3E EQ PUSH2 0x32C JUMPI PUSH2 0xFE JUMP JUMPDEST DUP1 PUSH4 0x830953AB EQ PUSH2 0x226 JUMPI DUP1 PUSH4 0x8615D855 EQ PUSH2 0x244 JUMPI DUP1 PUSH4 0x943E8216 EQ PUSH2 0x274 JUMPI DUP1 PUSH4 0x95D89B41 EQ PUSH2 0x290 JUMPI PUSH2 0xFE JUMP JUMPDEST DUP1 PUSH4 0x313CE567 GT PUSH2 0xD1 JUMPI DUP1 PUSH4 0x313CE567 EQ PUSH2 0x19E JUMPI DUP1 PUSH4 0x4E71D92D EQ PUSH2 0x1BC JUMPI DUP1 PUSH4 0x624601B6 EQ PUSH2 0x1C6 JUMPI DUP1 PUSH4 0x70A08231 EQ PUSH2 0x1F6 JUMPI PUSH2 0xFE JUMP JUMPDEST DUP1 PUSH4 0x6FDDE03 EQ PUSH2 0x102 JUMPI DUP1 PUSH4 0x95EA7B3 EQ PUSH2 0x120 JUMPI DUP1 PUSH4 0x18160DDD EQ PUSH2 0x150 JUMPI DUP1 PUSH4 0x23B872DD EQ PUSH2 0x16E JUMPI JUMPDEST PUSH0 DUP1 REVERT JUMPDEST PUSH2 0x10A PUSH2 0x35C JUMP JUMPDEST PUSH1 0x40 MLOAD PUSH2 0x117 SWAP2 SWAP1 PUSH2 0x13AC JUMP JUMPDEST PUSH1 0x40 MLOAD DUP1 SWAP2 SUB SWAP1 RETURN JUMPDEST PUSH2 0x13A PUSH1 0x4 DUP1 CALLDATASIZE SUB DUP2 ADD SWAP1 PUSH2 0x135 SWAP2 SWAP1 PUSH2 0x1461 JUMP JUMPDEST PUSH2 0x3EC JUMP JUMPDEST PUSH1 0x40 MLOAD PUSH2 0x147 SWAP2 SWAP1 PUSH2 0x14B9 JUMP JUMPDEST PUSH1 0x40 MLOAD DUP1 SWAP2 SUB SWAP1 RETURN JUMPDEST PUSH2 0x158 PUSH2 0x40E JUMP JUMPDEST PUSH1 0x40 MLOAD PUSH2 0x165 SWAP2 SWAP1 PUSH2 0x14E1 JUMP JUMPDEST PUSH1 0x40 MLOAD DUP1 SWAP2 SUB SWAP1 RETURN JUMPDEST PUSH2 0x188 PUSH1 0x4 DUP1 CALLDATASIZE SUB DUP2 ADD SWAP1 PUSH2 0x183 SWAP2 SWAP1 PUSH2 0x14FA JUMP JUMPDEST PUSH2 0x417 JUMP JUMPDEST PUSH1 0x40 MLOAD PUSH2 0x195 SWAP2 SWAP1 PUSH2 0x14B9 JUMP JUMPDEST PUSH1 0x40 MLOAD DUP1 SWAP2 SUB SWAP1 RETURN JUMPDEST PUSH2 0x1A6 PUSH2 0x445 JUMP JUMPDEST PUSH1 0x40 MLOAD PUSH2 0x1B3 SWAP2 SWAP1 PUSH2 0x1565 JUMP JUMPDEST PUSH1 0x40 MLOAD DUP1 SWAP2 SUB SWAP1 RETURN JUMPDEST PUSH2 0x1C4 PUSH2 0x44D JUMP JUMPDEST STOP JUMPDEST PUSH2 0x1E0 PUSH1 0x4 DUP1 CALLDATASIZE SUB DUP2 ADD SWAP1 PUSH2 0x1DB SWAP2 SWAP1 PUSH2 0x157E JUMP JUMPDEST PUSH2 0x581 JUMP JUMPDEST PUSH1 0x40 MLOAD PUSH2 0x1ED SWAP2 SWAP1 PUSH2 0x14B9 JUMP JUMPDEST PUSH1 0x40 MLOAD DUP1 SWAP2 SUB SWAP1 RETURN JUMPDEST PUSH2 0x210 PUSH1 0x4 DUP1 CALLDATASIZE SUB DUP2 ADD SWAP1 PUSH2 0x20B SWAP2 SWAP1 PUSH2 0x157E JUMP JUMPDEST PUSH2 0x59E JUMP JUMPDEST PUSH1 0x40 MLOAD PUSH2 0x21D SWAP2 SWAP1 PUSH2 0x14E1 JUMP JUMPDEST PUSH1 0x40 MLOAD DUP1 SWAP2 SUB SWAP1 RETURN JUMPDEST PUSH2 0x22E PUSH2 0x5E3 JUMP JUMPDEST PUSH1 0x40 MLOAD PUSH2 0x23B SWAP2 SWAP1 PUSH2 0x14E1 JUMP JUMPDEST PUSH1 0x40 MLOAD DUP1 SWAP2 SUB SWAP1 RETURN JUMPDEST PUSH2 0x25E PUSH1 0x4 DUP1 CALLDATASIZE SUB DUP2 ADD SWAP1 PUSH2 0x259 SWAP2 SWAP1 PUSH2 0x160A JUMP JUMPDEST PUSH2 0x5E9 JUMP JUMPDEST PUSH1 0x40 MLOAD PUSH2 0x26B SWAP2 SWAP1 PUSH2 0x14E1 JUMP JUMPDEST PUSH1 0x40 MLOAD DUP1 SWAP2 SUB SWAP1 RETURN JUMPDEST PUSH2 0x28E PUSH1 0x4 DUP1 CALLDATASIZE SUB DUP2 ADD SWAP1 PUSH2 0x289 SWAP2 SWAP1 PUSH2 0x168A JUMP JUMPDEST PUSH2 0x6C6 JUMP JUMPDEST STOP JUMPDEST PUSH2 0x298 PUSH2 0x904 JUMP JUMPDEST PUSH1 0x40 MLOAD PUSH2 0x2A5 SWAP2 SWAP1 PUSH2 0x13AC JUMP JUMPDEST PUSH1 0x40 MLOAD DUP1 SWAP2 SUB SWAP1 RETURN JUMPDEST PUSH2 0x2C8 PUSH1 0x4 DUP1 CALLDATASIZE SUB DUP2 ADD SWAP1 PUSH2 0x2C3 SWAP2 SWAP1 PUSH2 0x16C8 JUMP JUMPDEST PUSH2 0x994 JUMP JUMPDEST PUSH1 0x40 MLOAD PUSH2 0x2D5 SWAP2 SWAP1 PUSH2 0x18D9 JUMP JUMPDEST PUSH1 0x40 MLOAD DUP1 SWAP2 SUB SWAP1 RETURN JUMPDEST PUSH2 0x2F8 PUSH1 0x4 DUP1 CALLDATASIZE SUB DUP2 ADD SWAP1 PUSH2 0x2F3 SWAP2 SWAP1 PUSH2 0x1461 JUMP JUMPDEST PUSH2 0xAD4 JUMP JUMPDEST PUSH1 0x40 MLOAD PUSH2 0x305 SWAP2 SWAP1 PUSH2 0x14B9 JUMP JUMPDEST PUSH1 0x40 MLOAD DUP1 SWAP2 SUB SWAP1 RETURN JUMPDEST PUSH2 0x316 PUSH2 0xAF6 JUMP JUMPDEST PUSH1 0x40 MLOAD PUSH2 0x323 SWAP2 SWAP1 PUSH2 0x14E1 JUMP JUMPDEST PUSH1 0x40 MLOAD DUP1 SWAP2 SUB SWAP1 RETURN JUMPDEST PUSH2 0x346 PUSH1 0x4 DUP1 CALLDATASIZE SUB DUP2 ADD SWAP1 PUSH2 0x341 SWAP2 SWAP1 PUSH2 0x18F9 JUMP JUMPDEST PUSH2 0xAFC JUMP JUMPDEST PUSH1 0x40 MLOAD PUSH2 0x353 SWAP2 SWAP1 PUSH2 0x14E1 JUMP JUMPDEST PUSH1 0x40 MLOAD DUP1 SWAP2 SUB SWAP1 RETURN JUMPDEST PUSH1 0x60 PUSH1 0x3 DUP1 SLOAD PUSH2 0x36B SWAP1 PUSH2 0x1964 JUMP JUMPDEST DUP1 PUSH1 0x1F ADD PUSH1 0x20 DUP1 SWAP2 DIV MUL PUSH1 0x20 ADD PUSH1 0x40 MLOAD SWAP1 DUP2 ADD PUSH1 0x40 MSTORE DUP1 SWAP3 SWAP2 SWAP1 DUP2 DUP2 MSTORE PUSH1 0x20 ADD DUP3 DUP1 SLOAD PUSH2 0x397 SWAP1 PUSH2 0x1964 JUMP JUMPDEST DUP1 ISZERO PUSH2 0x3E2 JUMPI DUP1 PUSH1 0x1F LT PUSH2 0x3B9 JUMPI PUSH2 0x100 DUP1 DUP4 SLOAD DIV MUL DUP4 MSTORE SWAP2 PUSH1 0x20 ADD SWAP2 PUSH2 0x3E2 JUMP JUMPDEST DUP3 ADD SWAP2 SWAP1 PUSH0 MSTORE PUSH1 0x20 PUSH0 KECCAK256 SWAP1 JUMPDEST DUP2 SLOAD DUP2 MSTORE SWAP1 PUSH1 0x1 ADD SWAP1 PUSH1 0x20 ADD DUP1 DUP4 GT PUSH2 0x3C5 JUMPI DUP3 SWAP1 SUB PUSH1 0x1F AND DUP3 ADD SWAP2 JUMPDEST POP POP POP POP POP SWAP1 POP SWAP1 JUMP JUMPDEST PUSH0 DUP1 PUSH2 0x3F6 PUSH2 0xB7E JUMP JUMPDEST SWAP1 POP PUSH2 0x403 DUP2 DUP6 DUP6 PUSH2 0xB85 JUMP JUMPDEST PUSH1 0x1 SWAP2 POP POP SWAP3 SWAP2 POP POP JUMP JUMPDEST PUSH0 PUSH1 0x2 SLOAD SWAP1 POP SWAP1 JUMP JUMPDEST PUSH0 DUP1 PUSH2 0x421 PUSH2 0xB7E JUMP JUMPDEST SWAP1 POP PUSH2 0x42E DUP6 DUP3 DUP6 PUSH2 0xB97 JUMP JUMPDEST PUSH2 0x439 DUP6 DUP6 DUP6 PUSH2 0xC29 JUMP JUMPDEST PUSH1 0x1 SWAP2 POP POP SWAP4 SWAP3 POP POP POP JUMP JUMPDEST PUSH0 PUSH1 0x12 SWAP1 POP SWAP1 JUMP JUMPDEST PUSH1 0x8 SLOAD PUSH1 0x9 SLOAD PUSH2 0x45B PUSH2 0x40E JUMP JUMPDEST PUSH2 0x465 SWAP2 SWAP1 PUSH2 0x19C1 JUMP JUMPDEST GT ISZERO PUSH2 0x49D JUMPI PUSH1 0x40 MLOAD PUSH32 0xCBE2483100000000000000000000000000000000000000000000000000000000 DUP2 MSTORE PUSH1 0x4 ADD PUSH1 0x40 MLOAD DUP1 SWAP2 SUB SWAP1 REVERT JUMPDEST PUSH1 0x7 PUSH0 CALLER PUSH20 0xFFFFFFFFFFFFFFFFFFFFFFFFFFFFFFFFFFFFFFFF AND PUSH20 0xFFFFFFFFFFFFFFFFFFFFFFFFFFFFFFFFFFFFFFFF AND DUP2 MSTORE PUSH1 0x20 ADD SWAP1 DUP2 MSTORE PUSH1 0x20 ADD PUSH0 KECCAK256 PUSH0 SWAP1 SLOAD SWAP1 PUSH2 0x100 EXP SWAP1 DIV PUSH1 0xFF AND ISZERO PUSH2 0x51E JUMPI PUSH1 0x40 MLOAD PUSH32 0xB1327A600000000000000000000000000000000000000000000000000000000 DUP2 MSTORE PUSH1 0x4 ADD PUSH1 0x40 MLOAD DUP1 SWAP2 SUB SWAP1 REVERT JUMPDEST PUSH2 0x52A CALLER PUSH1 0x9 SLOAD PUSH2 0xD19 JUMP JUMPDEST PUSH1 0x1 PUSH1 0x7 PUSH0 CALLER PUSH20 0xFFFFFFFFFFFFFFFFFFFFFFFFFFFFFFFFFFFFFFFF AND PUSH20 0xFFFFFFFFFFFFFFFFFFFFFFFFFFFFFFFFFFFFFFFF AND DUP2 MSTORE PUSH1 0x20 ADD SWAP1 DUP2 MSTORE PUSH1 0x20 ADD PUSH0 KECCAK256 PUSH0 PUSH2 0x100 EXP DUP2 SLOAD DUP2 PUSH1 0xFF MUL NOT AND SWAP1 DUP4 ISZERO ISZERO MUL OR SWAP1 SSTORE POP JUMP JUMPDEST PUSH1 0x7 PUSH1 0x20 MSTORE DUP1 PUSH0 MSTORE PUSH1 0x40 PUSH0 KECCAK256 PUSH0 SWAP2 POP SLOAD SWAP1 PUSH2 0x100 EXP SWAP1 DIV PUSH1 0xFF AND DUP2 JUMP JUMPDEST PUSH0 DUP1 PUSH0 DUP4 PUSH20 0xFFFFFFFFFFFFFFFFFFFFFFFFFFFFFFFFFFFFFFFF AND PUSH20 0xFFFFFFFFFFFFFFFFFFFFFFFFFFFFFFFFFFFFFFFF AND DUP2 MSTORE PUSH1 0x20 ADD SWAP1 DUP2 MSTORE PUSH1 0x20 ADD PUSH0 KECCAK256 SLOAD SWAP1 POP SWAP2 SWAP1 POP JUMP JUMPDEST PUSH1 0x9 SLOAD DUP2 JUMP JUMPDEST PUSH0 DUP1 PUSH2 0x5F4 CALLER PUSH2 0x59E JUMP JUMPDEST SUB PUSH2 0x62B JUMPI PUSH1 0x40 MLOAD PUSH32 0x8439960D00000000000000000000000000000000000000000000000000000000 DUP2 MSTORE PUSH1 0x4 ADD PUSH1 0x40 MLOAD DUP1 SWAP2 SUB SWAP1 REVERT JUMPDEST PUSH2 0x633 PUSH2 0x40E JUMP JUMPDEST DUP3 GT ISZERO PUSH2 0x66C JUMPI PUSH1 0x40 MLOAD PUSH32 0xD92730000000000000000000000000000000000000000000000000000000000 DUP2 MSTORE PUSH1 0x4 ADD PUSH1 0x40 MLOAD DUP1 SWAP2 SUB SWAP1 REVERT JUMPDEST PUSH0 PUSH1 0x6 PUSH1 0x1 DUP2 PUSH1 0x1 DUP2 SLOAD ADD DUP1 DUP3 SSTORE DUP1 SWAP2 POP POP SUB SWAP1 PUSH0 MSTORE PUSH1 0x20 PUSH0 KECCAK256 SWAP1 PUSH1 0x9 MUL ADD SWAP1 POP DUP5 DUP5 DUP3 PUSH1 0x2 ADD SWAP2 DUP3 PUSH2 0x6A0 SWAP3 SWAP2 SWAP1 PUSH2 0x1BC8 JUMP JUMPDEST POP DUP3 DUP2 PUSH1 0x3 ADD DUP2 SWAP1 SSTORE POP PUSH1 0x1 PUSH1 0x6 DUP1 SLOAD SWAP1 POP PUSH2 0x6BC SWAP2 SWAP1 PUSH2 0x1C95 JUMP JUMPDEST SWAP2 POP POP SWAP4 SWAP3 POP POP POP JUMP JUMPDEST PUSH0 PUSH1 0x6 DUP4 DUP2 SLOAD DUP2 LT PUSH2 0x6DB JUMPI PUSH2 0x6DA PUSH2 0x1CC8 JUMP JUMPDEST JUMPDEST SWAP1 PUSH0 MSTORE PUSH1 0x20 PUSH0 KECCAK256 SWAP1 PUSH1 0x9 MUL ADD SWAP1 POP DUP1 PUSH1 0x8 ADD PUSH1 0x1 SWAP1 SLOAD SWAP1 PUSH2 0x100 EXP SWAP1 DIV PUSH1 0xFF AND ISZERO PUSH2 0x732 JUMPI PUSH1 0x40 MLOAD PUSH32 0x66B6CB4A00000000000000000000000000000000000000000000000000000000 DUP2 MSTORE PUSH1 0x4 ADD PUSH1 0x40 MLOAD DUP1 SWAP2 SUB SWAP1 REVERT JUMPDEST PUSH2 0x747 CALLER DUP3 PUSH0 ADD PUSH2 0xD98 SWAP1 SWAP2 SWAP1 PUSH4 0xFFFFFFFF AND JUMP JUMPDEST ISZERO PUSH2 0x77E JUMPI PUSH1 0x40 MLOAD PUSH32 0x7C9A1CF900000000000000000000000000000000000000000000000000000000 DUP2 MSTORE PUSH1 0x4 ADD PUSH1 0x40 MLOAD DUP1 SWAP2 SUB SWAP1 REVERT JUMPDEST PUSH0 PUSH2 0x788 CALLER PUSH2 0x59E JUMP JUMPDEST SWAP1 POP PUSH0 DUP2 SUB PUSH2 0x7C3 JUMPI PUSH1 0x40 MLOAD PUSH32 0x8439960D00000000000000000000000000000000000000000000000000000000 DUP2 MSTORE PUSH1 0x4 ADD PUSH1 0x40 MLOAD DUP1 SWAP2 SUB SWAP1 REVERT JUMPDEST PUSH0 PUSH1 0x2 DUP2 GT ISZERO PUSH2 0x7D6 JUMPI PUSH2 0x7D5 PUSH2 0x1CF5 JUMP JUMPDEST JUMPDEST DUP4 PUSH1 0x2 DUP2 GT ISZERO PUSH2 0x7E9 JUMPI PUSH2 0x7E8 PUSH2 0x1CF5 JUMP JUMPDEST JUMPDEST SUB PUSH2 0x80D JUMPI DUP1 DUP3 PUSH1 0x6 ADD PUSH0 DUP3 DUP3 SLOAD PUSH2 0x801 SWAP2 SWAP1 PUSH2 0x19C1 JUMP JUMPDEST SWAP3 POP POP DUP2 SWAP1 SSTORE POP PUSH2 0x874 JUMP JUMPDEST PUSH1 0x1 PUSH1 0x2 DUP2 GT ISZERO PUSH2 0x821 JUMPI PUSH2 0x820 PUSH2 0x1CF5 JUMP JUMPDEST JUMPDEST DUP4 PUSH1 0x2 DUP2 GT ISZERO PUSH2 0x834 JUMPI PUSH2 0x833 PUSH2 0x1CF5 JUMP JUMPDEST JUMPDEST SUB PUSH2 0x858 JUMPI DUP1 DUP3 PUSH1 0x5 ADD PUSH0 DUP3 DUP3 SLOAD PUSH2 0x84C SWAP2 SWAP1 PUSH2 0x19C1 JUMP JUMPDEST SWAP3 POP POP DUP2 SWAP1 SSTORE POP PUSH2 0x873 JUMP JUMPDEST DUP1 DUP3 PUSH1 0x7 ADD PUSH0 DUP3 DUP3 SLOAD PUSH2 0x86B SWAP2 SWAP1 PUSH2 0x19C1 JUMP JUMPDEST SWAP3 POP POP DUP2 SWAP1 SSTORE POP JUMPDEST JUMPDEST PUSH2 0x889 CALLER DUP4 PUSH0 ADD PUSH2 0xDC5 SWAP1 SWAP2 SWAP1 PUSH4 0xFFFFFFFF AND JUMP JUMPDEST POP DUP1 DUP3 PUSH1 0x4 ADD PUSH0 DUP3 DUP3 SLOAD PUSH2 0x89D SWAP2 SWAP1 PUSH2 0x19C1 JUMP JUMPDEST SWAP3 POP POP DUP2 SWAP1 SSTORE POP DUP2 PUSH1 0x3 ADD SLOAD DUP3 PUSH1 0x4 ADD SLOAD LT PUSH2 0x8FE JUMPI PUSH1 0x1 DUP3 PUSH1 0x8 ADD PUSH1 0x1 PUSH2 0x100 EXP DUP2 SLOAD DUP2 PUSH1 0xFF MUL NOT AND SWAP1 DUP4 ISZERO ISZERO MUL OR SWAP1 SSTORE POP DUP2 PUSH1 0x6 ADD SLOAD DUP3 PUSH1 0x5 ADD SLOAD GT ISZERO PUSH2 0x8FD JUMPI PUSH1 0x1 DUP3 PUSH1 0x8 ADD PUSH0 PUSH2 0x100 EXP DUP2 SLOAD DUP2 PUSH1 0xFF MUL NOT AND SWAP1 DUP4 ISZERO ISZERO MUL OR SWAP1 SSTORE POP JUMPDEST JUMPDEST POP POP POP POP JUMP JUMPDEST PUSH1 0x60 PUSH1 0x4 DUP1 SLOAD PUSH2 0x913 SWAP1 PUSH2 0x1964 JUMP JUMPDEST DUP1 PUSH1 0x1F ADD PUSH1 0x20 DUP1 SWAP2 DIV MUL PUSH1 0x20 ADD PUSH1 0x40 MLOAD SWAP1 DUP2 ADD PUSH1 0x40 MSTORE DUP1 SWAP3 SWAP2 SWAP1 DUP2 DUP2 MSTORE PUSH1 0x20 ADD DUP3 DUP1 SLOAD PUSH2 0x93F SWAP1 PUSH2 0x1964 JUMP JUMPDEST DUP1 ISZERO PUSH2 0x98A JUMPI DUP1 PUSH1 0x1F LT PUSH2 0x961 JUMPI PUSH2 0x100 DUP1 DUP4 SLOAD DIV MUL DUP4 MSTORE SWAP2 PUSH1 0x20 ADD SWAP2 PUSH2 0x98A JUMP JUMPDEST DUP3 ADD SWAP2 SWAP1 PUSH0 MSTORE PUSH1 0x20 PUSH0 KECCAK256 SWAP1 JUMPDEST DUP2 SLOAD DUP2 MSTORE SWAP1 PUSH1 0x1 ADD SWAP1 PUSH1 0x20 ADD DUP1 DUP4 GT PUSH2 0x96D JUMPI DUP3 SWAP1 SUB PUSH1 0x1F AND DUP3 ADD SWAP2 JUMPDEST POP POP POP POP POP SWAP1 POP SWAP1 JUMP JUMPDEST PUSH2 0x99C PUSH2 0x12D9 JUMP JUMPDEST PUSH0 PUSH1 0x6 DUP4 DUP2 SLOAD DUP2 LT PUSH2 0x9B1 JUMPI PUSH2 0x9B0 PUSH2 0x1CC8 JUMP JUMPDEST JUMPDEST SWAP1 PUSH0 MSTORE PUSH1 0x20 PUSH0 KECCAK256 SWAP1 PUSH1 0x9 MUL ADD SWAP1 POP PUSH1 0x40 MLOAD DUP1 PUSH2 0x120 ADD PUSH1 0x40 MSTORE DUP1 PUSH2 0x9D6 DUP4 PUSH0 ADD PUSH2 0xDF2 JUMP JUMPDEST DUP2 MSTORE PUSH1 0x20 ADD DUP3 PUSH1 0x2 ADD DUP1 SLOAD PUSH2 0x9EA SWAP1 PUSH2 0x1964 JUMP JUMPDEST DUP1 PUSH1 0x1F ADD PUSH1 0x20 DUP1 SWAP2 DIV MUL PUSH1 0x20 ADD PUSH1 0x40 MLOAD SWAP1 DUP2 ADD PUSH1 0x40 MSTORE DUP1 SWAP3 SWAP2 SWAP1 DUP2 DUP2 MSTORE PUSH1 0x20 ADD DUP3 DUP1 SLOAD PUSH2 0xA16 SWAP1 PUSH2 0x1964 JUMP JUMPDEST DUP1 ISZERO PUSH2 0xA61 JUMPI DUP1 PUSH1 0x1F LT PUSH2 0xA38 JUMPI PUSH2 0x100 DUP1 DUP4 SLOAD DIV MUL DUP4 MSTORE SWAP2 PUSH1 0x20 ADD SWAP2 PUSH2 0xA61 JUMP JUMPDEST DUP3 ADD SWAP2 SWAP1 PUSH0 MSTORE PUSH1 0x20 PUSH0 KECCAK256 SWAP1 JUMPDEST DUP2 SLOAD DUP2 MSTORE SWAP1 PUSH1 0x1 ADD SWAP1 PUSH1 0x20 ADD DUP1 DUP4 GT PUSH2 0xA44 JUMPI DUP3 SWAP1 SUB PUSH1 0x1F AND DUP3 ADD SWAP2 JUMPDEST POP POP POP POP POP DUP2 MSTORE PUSH1 0x20 ADD DUP3 PUSH1 0x3 ADD SLOAD DUP2 MSTORE PUSH1 0x20 ADD DUP3 PUSH1 0x4 ADD SLOAD DUP2 MSTORE PUSH1 0x20 ADD DUP3 PUSH1 0x5 ADD SLOAD DUP2 MSTORE PUSH1 0x20 ADD DUP3 PUSH1 0x6 ADD SLOAD DUP2 MSTORE PUSH1 0x20 ADD DUP3 PUSH1 0x7 ADD SLOAD DUP2 MSTORE PUSH1 0x20 ADD DUP3 PUSH1 0x8 ADD PUSH0 SWAP1 SLOAD SWAP1 PUSH2 0x100 EXP SWAP1 DIV PUSH1 0xFF AND ISZERO ISZERO DUP2 MSTORE PUSH1 0x20 ADD DUP3 PUSH1 0x8 ADD PUSH1 0x1 SWAP1 SLOAD SWAP1 PUSH2 0x100 EXP SWAP1 DIV PUSH1 0xFF AND ISZERO ISZERO DUP2 MSTORE POP SWAP2 POP POP SWAP2 SWAP1 POP JUMP JUMPDEST PUSH0 DUP1 PUSH2 0xADE PUSH2 0xB7E JUMP JUMPDEST SWAP1 POP PUSH2 0xAEB DUP2 DUP6 DUP6 PUSH2 0xC29 JUMP JUMPDEST PUSH1 0x1 SWAP2 POP POP SWAP3 SWAP2 POP POP JUMP JUMPDEST PUSH1 0x8 SLOAD DUP2 JUMP JUMPDEST PUSH0 PUSH1 0x1 PUSH0 DUP5 PUSH20 0xFFFFFFFFFFFFFFFFFFFFFFFFFFFFFFFFFFFFFFFF AND PUSH20 0xFFFFFFFFFFFFFFFFFFFFFFFFFFFFFFFFFFFFFFFF AND DUP2 MSTORE PUSH1 0x20 ADD SWAP1 DUP2 MSTORE PUSH1 0x20 ADD PUSH0 KECCAK256 PUSH0 DUP4 PUSH20 0xFFFFFFFFFFFFFFFFFFFFFFFFFFFFFFFFFFFFFFFF AND PUSH20 0xFFFFFFFFFFFFFFFFFFFFFFFFFFFFFFFFFFFFFFFF AND DUP2 MSTORE PUSH1 0x20 ADD SWAP1 DUP2 MSTORE PUSH1 0x20 ADD PUSH0 KECCAK256 SLOAD SWAP1 POP SWAP3 SWAP2 POP POP JUMP JUMPDEST PUSH0 CALLER SWAP1 POP SWAP1 JUMP JUMPDEST PUSH2 0xB92 DUP4 DUP4 DUP4 PUSH1 0x1 PUSH2 0xE11 JUMP JUMPDEST POP POP POP JUMP JUMPDEST PUSH0 PUSH2 0xBA2 DUP5 DUP5 PUSH2 0xAFC JUMP JUMPDEST SWAP1 POP PUSH32 0xFFFFFFFFFFFFFFFFFFFFFFFFFFFFFFFFFFFFFFFFFFFFFFFFFFFFFFFFFFFFFFFF DUP2 EQ PUSH2 0xC23 JUMPI DUP2 DUP2 LT ISZERO PUSH2 0xC14 JUMPI DUP3 DUP2 DUP4 PUSH1 0x40 MLOAD PUSH32 0xFB8F41B200000000000000000000000000000000000000000000000000000000 DUP2 MSTORE PUSH1 0x4 ADD PUSH2 0xC0B SWAP4 SWAP3 SWAP2 SWAP1 PUSH2 0x1D31 JUMP JUMPDEST PUSH1 0x40 MLOAD DUP1 SWAP2 SUB SWAP1 REVERT JUMPDEST PUSH2 0xC22 DUP5 DUP5 DUP5 DUP5 SUB PUSH0 PUSH2 0xE11 JUMP JUMPDEST JUMPDEST POP POP POP POP JUMP JUMPDEST PUSH0 PUSH20 0xFFFFFFFFFFFFFFFFFFFFFFFFFFFFFFFFFFFFFFFF AND DUP4 PUSH20 0xFFFFFFFFFFFFFFFFFFFFFFFFFFFFFFFFFFFFFFFF AND SUB PUSH2 0xC99 JUMPI PUSH0 PUSH1 0x40 MLOAD PUSH32 0x96C6FD1E00000000000000000000000000000000000000000000000000000000 DUP2 MSTORE PUSH1 0x4 ADD PUSH2 0xC90 SWAP2 SWAP1 PUSH2 0x1D66 JUMP JUMPDEST PUSH1 0x40 MLOAD DUP1 SWAP2 SUB SWAP1 REVERT JUMPDEST PUSH0 PUSH20 0xFFFFFFFFFFFFFFFFFFFFFFFFFFFFFFFFFFFFFFFF AND DUP3 PUSH20 0xFFFFFFFFFFFFFFFFFFFFFFFFFFFFFFFFFFFFFFFF AND SUB PUSH2 0xD09 JUMPI PUSH0 PUSH1 0x40 MLOAD PUSH32 0xEC442F0500000000000000000000000000000000000000000000000000000000 DUP2 MSTORE PUSH1 0x4 ADD PUSH2 0xD00 SWAP2 SWAP1 PUSH2 0x1D66 JUMP JUMPDEST PUSH1 0x40 MLOAD DUP1 SWAP2 SUB SWAP1 REVERT JUMPDEST PUSH2 0xD14 DUP4 DUP4 DUP4 PUSH2 0xFE0 JUMP JUMPDEST POP POP POP JUMP JUMPDEST PUSH0 PUSH20 0xFFFFFFFFFFFFFFFFFFFFFFFFFFFFFFFFFFFFFFFF AND DUP3 PUSH20 0xFFFFFFFFFFFFFFFFFFFFFFFFFFFFFFFFFFFFFFFF AND SUB PUSH2 0xD89 JUMPI PUSH0 PUSH1 0x40 MLOAD PUSH32 0xEC442F0500000000000000000000000000000000000000000000000000000000 DUP2 MSTORE PUSH1 0x4 ADD PUSH2 0xD80 SWAP2 SWAP1 PUSH2 0x1D66 JUMP JUMPDEST PUSH1 0x40 MLOAD DUP1 SWAP2 SUB SWAP1 REVERT JUMPDEST PUSH2 0xD94 PUSH0 DUP4 DUP4 PUSH2 0xFE0 JUMP JUMPDEST POP POP JUMP JUMPDEST PUSH0 PUSH2 0xDBD DUP4 PUSH0 ADD DUP4 PUSH20 0xFFFFFFFFFFFFFFFFFFFFFFFFFFFFFFFFFFFFFFFF AND PUSH0 SHL PUSH2 0x11F9 JUMP JUMPDEST SWAP1 POP SWAP3 SWAP2 POP POP JUMP JUMPDEST PUSH0 PUSH2 0xDEA DUP4 PUSH0 ADD DUP4 PUSH20 0xFFFFFFFFFFFFFFFFFFFFFFFFFFFFFFFFFFFFFFFF AND PUSH0 SHL PUSH2 0x1219 JUMP JUMPDEST SWAP1 POP SWAP3 SWAP2 POP POP JUMP JUMPDEST PUSH1 0x60 PUSH0 PUSH2 0xE00 DUP4 PUSH0 ADD PUSH2 0x1280 JUMP JUMPDEST SWAP1 POP PUSH1 0x60 DUP2 SWAP1 POP DUP1 SWAP3 POP POP POP SWAP2 SWAP1 POP JUMP JUMPDEST PUSH0 PUSH20 0xFFFFFFFFFFFFFFFFFFFFFFFFFFFFFFFFFFFFFFFF AND DUP5 PUSH20 0xFFFFFFFFFFFFFFFFFFFFFFFFFFFFFFFFFFFFFFFF AND SUB PUSH2 0xE81 JUMPI PUSH0 PUSH1 0x40 MLOAD PUSH32 0xE602DF0500000000000000000000000000000000000000000000000000000000 DUP2 MSTORE PUSH1 0x4 ADD PUSH2 0xE78 SWAP2 SWAP1 PUSH2 0x1D66 JUMP JUMPDEST PUSH1 0x40 MLOAD DUP1 SWAP2 SUB SWAP1 REVERT JUMPDEST PUSH0 PUSH20 0xFFFFFFFFFFFFFFFFFFFFFFFFFFFFFFFFFFFFFFFF AND DUP4 PUSH20 0xFFFFFFFFFFFFFFFFFFFFFFFFFFFFFFFFFFFFFFFF AND SUB PUSH2 0xEF1 JUMPI PUSH0 PUSH1 0x40 MLOAD PUSH32 0x94280D6200000000000000000000000000000000000000000000000000000000 DUP2 MSTORE PUSH1 0x4 ADD PUSH2 0xEE8 SWAP2 SWAP1 PUSH2 0x1D66 JUMP JUMPDEST PUSH1 0x40 MLOAD DUP1 SWAP2 SUB SWAP1 REVERT JUMPDEST DUP2 PUSH1 0x1 PUSH0 DUP7 PUSH20 0xFFFFFFFFFFFFFFFFFFFFFFFFFFFFFFFFFFFFFFFF AND PUSH20 0xFFFFFFFFFFFFFFFFFFFFFFFFFFFFFFFFFFFFFFFF AND DUP2 MSTORE PUSH1 0x20 ADD SWAP1 DUP2 MSTORE PUSH1 0x20 ADD PUSH0 KECCAK256 PUSH0 DUP6 PUSH20 0xFFFFFFFFFFFFFFFFFFFFFFFFFFFFFFFFFFFFFFFF AND PUSH20 0xFFFFFFFFFFFFFFFFFFFFFFFFFFFFFFFFFFFFFFFF AND DUP2 MSTORE PUSH1 0x20 ADD SWAP1 DUP2 MSTORE PUSH1 0x20 ADD PUSH0 KECCAK256 DUP2 SWAP1 SSTORE POP DUP1 ISZERO PUSH2 0xFDA JUMPI DUP3 PUSH20 0xFFFFFFFFFFFFFFFFFFFFFFFFFFFFFFFFFFFFFFFF AND DUP5 PUSH20 0xFFFFFFFFFFFFFFFFFFFFFFFFFFFFFFFFFFFFFFFF AND PUSH32 0x8C5BE1E5EBEC7D5BD14F71427D1E84F3DD0314C0F7B2291E5B200AC8C7C3B925 DUP5 PUSH1 0x40 MLOAD PUSH2 0xFD1 SWAP2 SWAP1 PUSH2 0x14E1 JUMP JUMPDEST PUSH1 0x40 MLOAD DUP1 SWAP2 SUB SWAP1 LOG3 JUMPDEST POP POP POP POP JUMP JUMPDEST PUSH0 PUSH20 0xFFFFFFFFFFFFFFFFFFFFFFFFFFFFFFFFFFFFFFFF AND DUP4 PUSH20 0xFFFFFFFFFFFFFFFFFFFFFFFFFFFFFFFFFFFFFFFF AND SUB PUSH2 0x1030 JUMPI DUP1 PUSH1 0x2 PUSH0 DUP3 DUP3 SLOAD PUSH2 0x1024 SWAP2 SWAP1 PUSH2 0x19C1 JUMP JUMPDEST SWAP3 POP POP DUP2 SWAP1 SSTORE POP PUSH2 0x10FE JUMP JUMPDEST PUSH0 DUP1 PUSH0 DUP6 PUSH20 0xFFFFFFFFFFFFFFFFFFFFFFFFFFFFFFFFFFFFFFFF AND PUSH20 0xFFFFFFFFFFFFFFFFFFFFFFFFFFFFFFFFFFFFFFFF AND DUP2 MSTORE PUSH1 0x20 ADD SWAP1 DUP2 MSTORE PUSH1 0x20 ADD PUSH0 KECCAK256 SLOAD SWAP1 POP DUP2 DUP2 LT ISZERO PUSH2 0x10B9 JUMPI DUP4 DUP2 DUP4 PUSH1 0x40 MLOAD PUSH32 0xE450D38C00000000000000000000000000000000000000000000000000000000 DUP2 MSTORE PUSH1 0x4 ADD PUSH2 0x10B0 SWAP4 SWAP3 SWAP2 SWAP1 PUSH2 0x1D31 JUMP JUMPDEST PUSH1 0x40 MLOAD DUP1 SWAP2 SUB SWAP1 REVERT JUMPDEST DUP2 DUP2 SUB PUSH0 DUP1 DUP7 PUSH20 0xFFFFFFFFFFFFFFFFFFFFFFFFFFFFFFFFFFFFFFFF AND PUSH20 0xFFFFFFFFFFFFFFFFFFFFFFFFFFFFFFFFFFFFFFFF AND DUP2 MSTORE PUSH1 0x20 ADD SWAP1 DUP2 MSTORE PUSH1 0x20 ADD PUSH0 KECCAK256 DUP2 SWAP1 SSTORE POP POP JUMPDEST PUSH0 PUSH20 0xFFFFFFFFFFFFFFFFFFFFFFFFFFFFFFFFFFFFFFFF AND DUP3 PUSH20 0xFFFFFFFFFFFFFFFFFFFFFFFFFFFFFFFFFFFFFFFF AND SUB PUSH2 0x1145 JUMPI DUP1 PUSH1 0x2 PUSH0 DUP3 DUP3 SLOAD SUB SWAP3 POP POP DUP2 SWAP1 SSTORE POP PUSH2 0x118F JUMP JUMPDEST DUP1 PUSH0 DUP1 DUP5 PUSH20 0xFFFFFFFFFFFFFFFFFFFFFFFFFFFFFFFFFFFFFFFF AND PUSH20 0xFFFFFFFFFFFFFFFFFFFFFFFFFFFFFFFFFFFFFFFF AND DUP2 MSTORE PUSH1 0x20 ADD SWAP1 DUP2 MSTORE PUSH1 0x20 ADD PUSH0 KECCAK256 PUSH0 DUP3 DUP3 SLOAD ADD SWAP3 POP POP DUP2 SWAP1 SSTORE POP JUMPDEST DUP2 PUSH20 0xFFFFFFFFFFFFFFFFFFFFFFFFFFFFFFFFFFFFFFFF AND DUP4 PUSH20 0xFFFFFFFFFFFFFFFFFFFFFFFFFFFFFFFFFFFFFFFF AND PUSH32 0xDDF252AD1BE2C89B69C2B068FC378DAA952BA7F163C4A11628F55A4DF523B3EF DUP4 PUSH1 0x40 MLOAD PUSH2 0x11EC SWAP2 SWAP1 PUSH2 0x14E1 JUMP JUMPDEST PUSH1 0x40 MLOAD DUP1 SWAP2 SUB SWAP1 LOG3 POP POP POP JUMP JUMPDEST PUSH0 DUP1 DUP4 PUSH1 0x1 ADD PUSH0 DUP5 DUP2 MSTORE PUSH1 0x20 ADD SWAP1 DUP2 MSTORE PUSH1 0x20 ADD PUSH0 KECCAK256 SLOAD EQ ISZERO SWAP1 POP SWAP3 SWAP2 POP POP JUMP JUMPDEST PUSH0 PUSH2 0x1224 DUP4 DUP4 PUSH2 0x11F9 JUMP JUMPDEST PUSH2 0x1276 JUMPI DUP3 PUSH0 ADD DUP3 SWAP1 DUP1 PUSH1 0x1 DUP2 SLOAD ADD DUP1 DUP3 SSTORE DUP1 SWAP2 POP POP PUSH1 0x1 SWAP1 SUB SWAP1 PUSH0 MSTORE PUSH1 0x20 PUSH0 KECCAK256 ADD PUSH0 SWAP1 SWAP2 SWAP1 SWAP2 SWAP1 SWAP2 POP SSTORE DUP3 PUSH0 ADD DUP1 SLOAD SWAP1 POP DUP4 PUSH1 0x1 ADD PUSH0 DUP5 DUP2 MSTORE PUSH1 0x20 ADD SWAP1 DUP2 MSTORE PUSH1 0x20 ADD PUSH0 KECCAK256 DUP2 SWAP1 SSTORE POP PUSH1 0x1 SWAP1 POP PUSH2 0x127A JUMP JUMPDEST PUSH0 SWAP1 POP JUMPDEST SWAP3 SWAP2 POP POP JUMP JUMPDEST PUSH1 0x60 DUP2 PUSH0 ADD DUP1 SLOAD DUP1 PUSH1 0x20 MUL PUSH1 0x20 ADD PUSH1 0x40 MLOAD SWAP1 DUP2 ADD PUSH1 0x40 MSTORE DUP1 SWAP3 SWAP2 SWAP1 DUP2 DUP2 MSTORE PUSH1 0x20 ADD DUP3 DUP1 SLOAD DUP1 ISZERO PUSH2 0x12CD JUMPI PUSH1 0x20 MUL DUP3 ADD SWAP2 SWAP1 PUSH0 MSTORE PUSH1 0x20 PUSH0 KECCAK256 SWAP1 JUMPDEST DUP2 SLOAD DUP2 MSTORE PUSH1 0x20 ADD SWAP1 PUSH1 0x1 ADD SWAP1 DUP1 DUP4 GT PUSH2 0x12B9 JUMPI JUMPDEST POP POP POP POP POP SWAP1 POP SWAP2 SWAP1 POP JUMP JUMPDEST PUSH1 0x40 MLOAD DUP1 PUSH2 0x120 ADD PUSH1 0x40 MSTORE DUP1 PUSH1 0x60 DUP2 MSTORE PUSH1 0x20 ADD PUSH1 0x60 DUP2 MSTORE PUSH1 0x20 ADD PUSH0 DUP2 MSTORE PUSH1 0x20 ADD PUSH0 DUP2 MSTORE PUSH1 0x20 ADD PUSH0 DUP2 MSTORE PUSH1 0x20 ADD PUSH0 DUP2 MSTORE PUSH1 0x20 ADD PUSH0 DUP2 MSTORE PUSH1 0x20 ADD PUSH0 ISZERO ISZERO DUP2 MSTORE PUSH1 0x20 ADD PUSH0 ISZERO ISZERO DUP2 MSTORE POP SWAP1 JUMP JUMPDEST PUSH0 DUP2 MLOAD SWAP1 POP SWAP2 SWAP1 POP JUMP JUMPDEST PUSH0 DUP3 DUP3 MSTORE PUSH1 0x20 DUP3 ADD SWAP1 POP SWAP3 SWAP2 POP POP JUMP JUMPDEST PUSH0 JUMPDEST DUP4 DUP2 LT ISZERO PUSH2 0x1359 JUMPI DUP1 DUP3 ADD MLOAD DUP2 DUP5 ADD MSTORE PUSH1 0x20 DUP2 ADD SWAP1 POP PUSH2 0x133E JUMP JUMPDEST PUSH0 DUP5 DUP5 ADD MSTORE POP POP POP POP JUMP JUMPDEST PUSH0 PUSH1 0x1F NOT PUSH1 0x1F DUP4 ADD AND SWAP1 POP SWAP2 SWAP1 POP JUMP JUMPDEST PUSH0 PUSH2 0x137E DUP3 PUSH2 0x1322 JUMP JUMPDEST PUSH2 0x1388 DUP2 DUP6 PUSH2 0x132C JUMP JUMPDEST SWAP4 POP PUSH2 0x1398 DUP2 DUP6 PUSH1 0x20 DUP7 ADD PUSH2 0x133C JUMP JUMPDEST PUSH2 0x13A1 DUP2 PUSH2 0x1364 JUMP JUMPDEST DUP5 ADD SWAP2 POP POP SWAP3 SWAP2 POP POP JUMP JUMPDEST PUSH0 PUSH1 0x20 DUP3 ADD SWAP1 POP DUP2 DUP2 SUB PUSH0 DUP4 ADD MSTORE PUSH2 0x13C4 DUP2 DUP5 PUSH2 0x1374 JUMP JUMPDEST SWAP1 POP SWAP3 SWAP2 POP POP JUMP JUMPDEST PUSH0 DUP1 REVERT JUMPDEST PUSH0 DUP1 REVERT JUMPDEST PUSH0 PUSH20 0xFFFFFFFFFFFFFFFFFFFFFFFFFFFFFFFFFFFFFFFF DUP3 AND SWAP1 POP SWAP2 SWAP1 POP JUMP JUMPDEST PUSH0 PUSH2 0x13FD DUP3 PUSH2 0x13D4 JUMP JUMPDEST SWAP1 POP SWAP2 SWAP1 POP JUMP JUMPDEST PUSH2 0x140D DUP2 PUSH2 0x13F3 JUMP JUMPDEST DUP2 EQ PUSH2 0x1417 JUMPI PUSH0 DUP1 REVERT JUMPDEST POP JUMP JUMPDEST PUSH0 DUP2 CALLDATALOAD SWAP1 POP PUSH2 0x1428 DUP2 PUSH2 0x1404 JUMP JUMPDEST SWAP3 SWAP2 POP POP JUMP JUMPDEST PUSH0 DUP2 SWAP1 POP SWAP2 SWAP1 POP JUMP JUMPDEST PUSH2 0x1440 DUP2 PUSH2 0x142E JUMP JUMPDEST DUP2 EQ PUSH2 0x144A JUMPI PUSH0 DUP1 REVERT JUMPDEST POP JUMP JUMPDEST PUSH0 DUP2 CALLDATALOAD SWAP1 POP PUSH2 0x145B DUP2 PUSH2 0x1437 JUMP JUMPDEST SWAP3 SWAP2 POP POP JUMP JUMPDEST PUSH0 DUP1 PUSH1 0x40 DUP4 DUP6 SUB SLT ISZERO PUSH2 0x1477 JUMPI PUSH2 0x1476 PUSH2 0x13CC JUMP JUMPDEST JUMPDEST PUSH0 PUSH2 0x1484 DUP6 DUP3 DUP7 ADD PUSH2 0x141A JUMP JUMPDEST SWAP3 POP POP PUSH1 0x20 PUSH2 0x1495 DUP6 DUP3 DUP7 ADD PUSH2 0x144D JUMP JUMPDEST SWAP2 POP POP SWAP3 POP SWAP3 SWAP1 POP JUMP JUMPDEST PUSH0 DUP2 ISZERO ISZERO SWAP1 POP SWAP2 SWAP1 POP JUMP JUMPDEST PUSH2 0x14B3 DUP2 PUSH2 0x149F JUMP JUMPDEST DUP3 MSTORE POP POP JUMP JUMPDEST PUSH0 PUSH1 0x20 DUP3 ADD SWAP1 POP PUSH2 0x14CC PUSH0 DUP4 ADD DUP5 PUSH2 0x14AA JUMP JUMPDEST SWAP3 SWAP2 POP POP JUMP JUMPDEST PUSH2 0x14DB DUP2 PUSH2 0x142E JUMP JUMPDEST DUP3 MSTORE POP POP JUMP JUMPDEST PUSH0 PUSH1 0x20 DUP3 ADD SWAP1 POP PUSH2 0x14F4 PUSH0 DUP4 ADD DUP5 PUSH2 0x14D2 JUMP JUMPDEST SWAP3 SWAP2 POP POP JUMP JUMPDEST PUSH0 DUP1 PUSH0 PUSH1 0x60 DUP5 DUP7 SUB SLT ISZERO PUSH2 0x1511 JUMPI PUSH2 0x1510 PUSH2 0x13CC JUMP JUMPDEST JUMPDEST PUSH0 PUSH2 0x151E DUP7 DUP3 DUP8 ADD PUSH2 0x141A JUMP JUMPDEST SWAP4 POP POP PUSH1 0x20 PUSH2 0x152F DUP7 DUP3 DUP8 ADD PUSH2 0x141A JUMP JUMPDEST SWAP3 POP POP PUSH1 0x40 PUSH2 0x1540 DUP7 DUP3 DUP8 ADD PUSH2 0x144D JUMP JUMPDEST SWAP2 POP POP SWAP3 POP SWAP3 POP SWAP3 JUMP JUMPDEST PUSH0 PUSH1 0xFF DUP3 AND SWAP1 POP SWAP2 SWAP1 POP JUMP JUMPDEST PUSH2 0x155F DUP2 PUSH2 0x154A JUMP JUMPDEST DUP3 MSTORE POP POP JUMP JUMPDEST PUSH0 PUSH1 0x20 DUP3 ADD SWAP1 POP PUSH2 0x1578 PUSH0 DUP4 ADD DUP5 PUSH2 0x1556 JUMP JUMPDEST SWAP3 SWAP2 POP POP JUMP JUMPDEST PUSH0 PUSH1 0x20 DUP3 DUP5 SUB SLT ISZERO PUSH2 0x1593 JUMPI PUSH2 0x1592 PUSH2 0x13CC JUMP JUMPDEST JUMPDEST PUSH0 PUSH2 0x15A0 DUP5 DUP3 DUP6 ADD PUSH2 0x141A JUMP JUMPDEST SWAP2 POP POP SWAP3 SWAP2 POP POP JUMP JUMPDEST PUSH0 DUP1 REVERT JUMPDEST PUSH0 DUP1 REVERT JUMPDEST PUSH0 DUP1 REVERT JUMPDEST PUSH0 DUP1 DUP4 PUSH1 0x1F DUP5 ADD SLT PUSH2 0x15CA JUMPI PUSH2 0x15C9 PUSH2 0x15A9 JUMP JUMPDEST JUMPDEST DUP3 CALLDATALOAD SWAP1 POP PUSH8 0xFFFFFFFFFFFFFFFF DUP2 GT ISZERO PUSH2 0x15E7 JUMPI PUSH2 0x15E6 PUSH2 0x15AD JUMP JUMPDEST JUMPDEST PUSH1 0x20 DUP4 ADD SWAP2 POP DUP4 PUSH1 0x1 DUP3 MUL DUP4 ADD GT ISZERO PUSH2 0x1603 JUMPI PUSH2 0x1602 PUSH2 0x15B1 JUMP JUMPDEST JUMPDEST SWAP3 POP SWAP3 SWAP1 POP JUMP JUMPDEST PUSH0 DUP1 PUSH0 PUSH1 0x40 DUP5 DUP7 SUB SLT ISZERO PUSH2 0x1621 JUMPI PUSH2 0x1620 PUSH2 0x13CC JUMP JUMPDEST JUMPDEST PUSH0 DUP5 ADD CALLDATALOAD PUSH8 0xFFFFFFFFFFFFFFFF DUP2 GT ISZERO PUSH2 0x163E JUMPI PUSH2 0x163D PUSH2 0x13D0 JUMP JUMPDEST JUMPDEST PUSH2 0x164A DUP7 DUP3 DUP8 ADD PUSH2 0x15B5 JUMP JUMPDEST SWAP4 POP SWAP4 POP POP PUSH1 0x20 PUSH2 0x165D DUP7 DUP3 DUP8 ADD PUSH2 0x144D JUMP JUMPDEST SWAP2 POP POP SWAP3 POP SWAP3 POP SWAP3 JUMP JUMPDEST PUSH1 0x3 DUP2 LT PUSH2 0x1673 JUMPI PUSH0 DUP1 REVERT JUMPDEST POP JUMP JUMPDEST PUSH0 DUP2 CALLDATALOAD SWAP1 POP PUSH2 0x1684 DUP2 PUSH2 0x1667 JUMP JUMPDEST SWAP3 SWAP2 POP POP JUMP JUMPDEST PUSH0 DUP1 PUSH1 0x40 DUP4 DUP6 SUB SLT ISZERO PUSH2 0x16A0 JUMPI PUSH2 0x169F PUSH2 0x13CC JUMP JUMPDEST JUMPDEST PUSH0 PUSH2 0x16AD DUP6 DUP3 DUP7 ADD PUSH2 0x144D JUMP JUMPDEST SWAP3 POP POP PUSH1 0x20 PUSH2 0x16BE DUP6 DUP3 DUP7 ADD PUSH2 0x1676 JUMP JUMPDEST SWAP2 POP POP SWAP3 POP SWAP3 SWAP1 POP JUMP JUMPDEST PUSH0 PUSH1 0x20 DUP3 DUP5 SUB SLT ISZERO PUSH2 0x16DD JUMPI PUSH2 0x16DC PUSH2 0x13CC JUMP JUMPDEST JUMPDEST PUSH0 PUSH2 0x16EA DUP5 DUP3 DUP6 ADD PUSH2 0x144D JUMP JUMPDEST SWAP2 POP POP SWAP3 SWAP2 POP POP JUMP JUMPDEST PUSH0 DUP2 MLOAD SWAP1 POP SWAP2 SWAP1 POP JUMP JUMPDEST PUSH0 DUP3 DUP3 MSTORE PUSH1 0x20 DUP3 ADD SWAP1 POP SWAP3 SWAP2 POP POP JUMP JUMPDEST PUSH0 DUP2 SWAP1 POP PUSH1 0x20 DUP3 ADD SWAP1 POP SWAP2 SWAP1 POP JUMP JUMPDEST PUSH2 0x1725 DUP2 PUSH2 0x13F3 JUMP JUMPDEST DUP3 MSTORE POP POP JUMP JUMPDEST PUSH0 PUSH2 0x1736 DUP4 DUP4 PUSH2 0x171C JUMP JUMPDEST PUSH1 0x20 DUP4 ADD SWAP1 POP SWAP3 SWAP2 POP POP JUMP JUMPDEST PUSH0 PUSH1 0x20 DUP3 ADD SWAP1 POP SWAP2 SWAP1 POP JUMP JUMPDEST PUSH0 PUSH2 0x1758 DUP3 PUSH2 0x16F3 JUMP JUMPDEST PUSH2 0x1762 DUP2 DUP6 PUSH2 0x16FD JUMP JUMPDEST SWAP4 POP PUSH2 0x176D DUP4 PUSH2 0x170D JUMP JUMPDEST DUP1 PUSH0 JUMPDEST DUP4 DUP2 LT ISZERO PUSH2 0x179D JUMPI DUP2 MLOAD PUSH2 0x1784 DUP9 DUP3 PUSH2 0x172B JUMP JUMPDEST SWAP8 POP PUSH2 0x178F DUP4 PUSH2 0x1742 JUMP JUMPDEST SWAP3 POP POP PUSH1 0x1 DUP2 ADD SWAP1 POP PUSH2 0x1770 JUMP JUMPDEST POP DUP6 SWAP4 POP POP POP POP SWAP3 SWAP2 POP POP JUMP JUMPDEST PUSH0 DUP3 DUP3 MSTORE PUSH1 0x20 DUP3 ADD SWAP1 POP SWAP3 SWAP2 POP POP JUMP JUMPDEST PUSH0 PUSH2 0x17C4 DUP3 PUSH2 0x1322 JUMP JUMPDEST PUSH2 0x17CE DUP2 DUP6 PUSH2 0x17AA JUMP JUMPDEST SWAP4 POP PUSH2 0x17DE DUP2 DUP6 PUSH1 0x20 DUP7 ADD PUSH2 0x133C JUMP JUMPDEST PUSH2 0x17E7 DUP2 PUSH2 0x1364 JUMP JUMPDEST DUP5 ADD SWAP2 POP POP SWAP3 SWAP2 POP POP JUMP JUMPDEST PUSH2 0x17FB DUP2 PUSH2 0x142E JUMP JUMPDEST DUP3 MSTORE POP POP JUMP JUMPDEST PUSH2 0x180A DUP2 PUSH2 0x149F JUMP JUMPDEST DUP3 MSTORE POP POP JUMP JUMPDEST PUSH0 PUSH2 0x120 DUP4 ADD PUSH0 DUP4 ADD MLOAD DUP5 DUP3 SUB PUSH0 DUP7 ADD MSTORE PUSH2 0x182B DUP3 DUP3 PUSH2 0x174E JUMP JUMPDEST SWAP2 POP POP PUSH1 0x20 DUP4 ADD MLOAD DUP5 DUP3 SUB PUSH1 0x20 DUP7 ADD MSTORE PUSH2 0x1845 DUP3 DUP3 PUSH2 0x17BA JUMP JUMPDEST SWAP2 POP POP PUSH1 0x40 DUP4 ADD MLOAD PUSH2 0x185A PUSH1 0x40 DUP7 ADD DUP3 PUSH2 0x17F2 JUMP JUMPDEST POP PUSH1 0x60 DUP4 ADD MLOAD PUSH2 0x186D PUSH1 0x60 DUP7 ADD DUP3 PUSH2 0x17F2 JUMP JUMPDEST POP PUSH1 0x80 DUP4 ADD MLOAD PUSH2 0x1880 PUSH1 0x80 DUP7 ADD DUP3 PUSH2 0x17F2 JUMP JUMPDEST POP PUSH1 0xA0 DUP4 ADD MLOAD PUSH2 0x1893 PUSH1 0xA0 DUP7 ADD DUP3 PUSH2 0x17F2 JUMP JUMPDEST POP PUSH1 0xC0 DUP4 ADD MLOAD PUSH2 0x18A6 PUSH1 0xC0 DUP7 ADD DUP3 PUSH2 0x17F2 JUMP JUMPDEST POP PUSH1 0xE0 DUP4 ADD MLOAD PUSH2 0x18B9 PUSH1 0xE0 DUP7 ADD DUP3 PUSH2 0x1801 JUMP JUMPDEST POP PUSH2 0x100 DUP4 ADD MLOAD PUSH2 0x18CE PUSH2 0x100 DUP7 ADD DUP3 PUSH2 0x1801 JUMP JUMPDEST POP DUP1 SWAP2 POP POP SWAP3 SWAP2 POP POP JUMP JUMPDEST PUSH0 PUSH1 0x20 DUP3 ADD SWAP1 POP DUP2 DUP2 SUB PUSH0 DUP4 ADD MSTORE PUSH2 0x18F1 DUP2 DUP5 PUSH2 0x1810 JUMP JUMPDEST SWAP1 POP SWAP3 SWAP2 POP POP JUMP JUMPDEST PUSH0 DUP1 PUSH1 0x40 DUP4 DUP6 SUB SLT ISZERO PUSH2 0x190F JUMPI PUSH2 0x190E PUSH2 0x13CC JUMP JUMPDEST JUMPDEST PUSH0 PUSH2 0x191C DUP6 DUP3 DUP7 ADD PUSH2 0x141A JUMP JUMPDEST SWAP3 POP POP PUSH1 0x20 PUSH2 0x192D DUP6 DUP3 DUP7 ADD PUSH2 0x141A JUMP JUMPDEST SWAP2 POP POP SWAP3 POP SWAP3 SWAP1 POP JUMP JUMPDEST PUSH32 0x4E487B7100000000000000000000000000000000000000000000000000000000 PUSH0 MSTORE PUSH1 0x22 PUSH1 0x4 MSTORE PUSH1 0x24 PUSH0 REVERT JUMPDEST PUSH0 PUSH1 0x2 DUP3 DIV SWAP1 POP PUSH1 0x1 DUP3 AND DUP1 PUSH2 0x197B JUMPI PUSH1 0x7F DUP3 AND SWAP2 POP JUMPDEST PUSH1 0x20 DUP3 LT DUP2 SUB PUSH2 0x198E JUMPI PUSH2 0x198D PUSH2 0x1937 JUMP JUMPDEST JUMPDEST POP SWAP2 SWAP1 POP JUMP JUMPDEST PUSH32 0x4E487B7100000000000000000000000000000000000000000000000000000000 PUSH0 MSTORE PUSH1 0x11 PUSH1 0x4 MSTORE PUSH1 0x24 PUSH0 REVERT JUMPDEST PUSH0 PUSH2 0x19CB DUP3 PUSH2 0x142E JUMP JUMPDEST SWAP2 POP PUSH2 0x19D6 DUP4 PUSH2 0x142E JUMP JUMPDEST SWAP3 POP DUP3 DUP3 ADD SWAP1 POP DUP1 DUP3 GT ISZERO PUSH2 0x19EE JUMPI PUSH2 0x19ED PUSH2 0x1994 JUMP JUMPDEST JUMPDEST SWAP3 SWAP2 POP POP JUMP JUMPDEST PUSH0 DUP3 SWAP1 POP SWAP3 SWAP2 POP POP JUMP JUMPDEST PUSH32 0x4E487B7100000000000000000000000000000000000000000000000000000000 PUSH0 MSTORE PUSH1 0x41 PUSH1 0x4 MSTORE PUSH1 0x24 PUSH0 REVERT JUMPDEST PUSH0 DUP2 SWAP1 POP DUP2 PUSH0 MSTORE PUSH1 0x20 PUSH0 KECCAK256 SWAP1 POP SWAP2 SWAP1 POP JUMP JUMPDEST PUSH0 PUSH1 0x20 PUSH1 0x1F DUP4 ADD DIV SWAP1 POP SWAP2 SWAP1 POP JUMP JUMPDEST PUSH0 DUP3 DUP3 SHL SWAP1 POP SWAP3 SWAP2 POP POP JUMP JUMPDEST PUSH0 PUSH1 0x8 DUP4 MUL PUSH2 0x1A87 PUSH32 0xFFFFFFFFFFFFFFFFFFFFFFFFFFFFFFFFFFFFFFFFFFFFFFFFFFFFFFFFFFFFFFFF DUP3 PUSH2 0x1A4C JUMP JUMPDEST PUSH2 0x1A91 DUP7 DUP4 PUSH2 0x1A4C JUMP JUMPDEST SWAP6 POP DUP1 NOT DUP5 AND SWAP4 POP DUP1 DUP7 AND DUP5 OR SWAP3 POP POP POP SWAP4 SWAP3 POP POP POP JUMP JUMPDEST PUSH0 DUP2 SWAP1 POP SWAP2 SWAP1 POP JUMP JUMPDEST PUSH0 PUSH2 0x1ACC PUSH2 0x1AC7 PUSH2 0x1AC2 DUP5 PUSH2 0x142E JUMP JUMPDEST PUSH2 0x1AA9 JUMP JUMPDEST PUSH2 0x142E JUMP JUMPDEST SWAP1 POP SWAP2 SWAP1 POP JUMP JUMPDEST PUSH0 DUP2 SWAP1 POP SWAP2 SWAP1 POP JUMP JUMPDEST PUSH2 0x1AE5 DUP4 PUSH2 0x1AB2 JUMP JUMPDEST PUSH2 0x1AF9 PUSH2 0x1AF1 DUP3 PUSH2 0x1AD3 JUMP JUMPDEST DUP5 DUP5 SLOAD PUSH2 0x1A58 JUMP JUMPDEST DUP3 SSTORE POP POP POP POP JUMP JUMPDEST PUSH0 SWAP1 JUMP JUMPDEST PUSH2 0x1B0D PUSH2 0x1B01 JUMP JUMPDEST PUSH2 0x1B18 DUP2 DUP5 DUP5 PUSH2 0x1ADC JUMP JUMPDEST POP POP POP JUMP JUMPDEST JUMPDEST DUP2 DUP2 LT ISZERO PUSH2 0x1B3B JUMPI PUSH2 0x1B30 PUSH0 DUP3 PUSH2 0x1B05 JUMP JUMPDEST PUSH1 0x1 DUP2 ADD SWAP1 POP PUSH2 0x1B1E JUMP JUMPDEST POP POP JUMP JUMPDEST PUSH1 0x1F DUP3 GT ISZERO PUSH2 0x1B80 JUMPI PUSH2 0x1B51 DUP2 PUSH2 0x1A2B JUMP JUMPDEST PUSH2 0x1B5A DUP5 PUSH2 0x1A3D JUMP JUMPDEST DUP2 ADD PUSH1 0x20 DUP6 LT ISZERO PUSH2 0x1B69 JUMPI DUP2 SWAP1 POP JUMPDEST PUSH2 0x1B7D PUSH2 0x1B75 DUP6 PUSH2 0x1A3D JUMP JUMPDEST DUP4 ADD DUP3 PUSH2 0x1B1D JUMP JUMPDEST POP POP JUMPDEST POP POP POP JUMP JUMPDEST PUSH0 DUP3 DUP3 SHR SWAP1 POP SWAP3 SWAP2 POP POP JUMP JUMPDEST PUSH0 PUSH2 0x1BA0 PUSH0 NOT DUP5 PUSH1 0x8 MUL PUSH2 0x1B85 JUMP JUMPDEST NOT DUP1 DUP4 AND SWAP2 POP POP SWAP3 SWAP2 POP POP JUMP JUMPDEST PUSH0 PUSH2 0x1BB8 DUP4 DUP4 PUSH2 0x1B91 JUMP JUMPDEST SWAP2 POP DUP3 PUSH1 0x2 MUL DUP3 OR SWAP1 POP SWAP3 SWAP2 POP POP JUMP JUMPDEST PUSH2 0x1BD2 DUP4 DUP4 PUSH2 0x19F4 JUMP JUMPDEST PUSH8 0xFFFFFFFFFFFFFFFF DUP2 GT ISZERO PUSH2 0x1BEB JUMPI PUSH2 0x1BEA PUSH2 0x19FE JUMP JUMPDEST JUMPDEST PUSH2 0x1BF5 DUP3 SLOAD PUSH2 0x1964 JUMP JUMPDEST PUSH2 0x1C00 DUP3 DUP3 DUP6 PUSH2 0x1B3F JUMP JUMPDEST PUSH0 PUSH1 0x1F DUP4 GT PUSH1 0x1 DUP2 EQ PUSH2 0x1C2D JUMPI PUSH0 DUP5 ISZERO PUSH2 0x1C1B JUMPI DUP3 DUP8 ADD CALLDATALOAD SWAP1 POP JUMPDEST PUSH2 0x1C25 DUP6 DUP3 PUSH2 0x1BAD JUMP JUMPDEST DUP7 SSTORE POP PUSH2 0x1C8C JUMP JUMPDEST PUSH1 0x1F NOT DUP5 AND PUSH2 0x1C3B DUP7 PUSH2 0x1A2B JUMP JUMPDEST PUSH0 JUMPDEST DUP3 DUP2 LT ISZERO PUSH2 0x1C62 JUMPI DUP5 DUP10 ADD CALLDATALOAD DUP3 SSTORE PUSH1 0x1 DUP3 ADD SWAP2 POP PUSH1 0x20 DUP6 ADD SWAP5 POP PUSH1 0x20 DUP2 ADD SWAP1 POP PUSH2 0x1C3D JUMP JUMPDEST DUP7 DUP4 LT ISZERO PUSH2 0x1C7F JUMPI DUP5 DUP10 ADD CALLDATALOAD PUSH2 0x1C7B PUSH1 0x1F DUP10 AND DUP3 PUSH2 0x1B91 JUMP JUMPDEST DUP4 SSTORE POP JUMPDEST PUSH1 0x1 PUSH1 0x2 DUP9 MUL ADD DUP9 SSTORE POP POP POP JUMPDEST POP POP POP POP POP POP POP JUMP JUMPDEST PUSH0 PUSH2 0x1C9F DUP3 PUSH2 0x142E JUMP JUMPDEST SWAP2 POP PUSH2 0x1CAA DUP4 PUSH2 0x142E JUMP JUMPDEST SWAP3 POP DUP3 DUP3 SUB SWAP1 POP DUP2 DUP2 GT ISZERO PUSH2 0x1CC2 JUMPI PUSH2 0x1CC1 PUSH2 0x1994 JUMP JUMPDEST JUMPDEST SWAP3 SWAP2 POP POP JUMP JUMPDEST PUSH32 0x4E487B7100000000000000000000000000000000000000000000000000000000 PUSH0 MSTORE PUSH1 0x32 PUSH1 0x4 MSTORE PUSH1 0x24 PUSH0 REVERT JUMPDEST PUSH32 0x4E487B7100000000000000000000000000000000000000000000000000000000 PUSH0 MSTORE PUSH1 0x21 PUSH1 0x4 MSTORE PUSH1 0x24 PUSH0 REVERT JUMPDEST PUSH2 0x1D2B DUP2 PUSH2 0x13F3 JUMP JUMPDEST DUP3 MSTORE POP POP JUMP JUMPDEST PUSH0 PUSH1 0x60 DUP3 ADD SWAP1 POP PUSH2 0x1D44 PUSH0 DUP4 ADD DUP7 PUSH2 0x1D22 JUMP JUMPDEST PUSH2 0x1D51 PUSH1 0x20 DUP4 ADD DUP6 PUSH2 0x14D2 JUMP JUMPDEST PUSH2 0x1D5E PUSH1 0x40 DUP4 ADD DUP5 PUSH2 0x14D2 JUMP JUMPDEST SWAP5 SWAP4 POP POP POP POP JUMP JUMPDEST PUSH0 PUSH1 0x20 DUP3 ADD SWAP1 POP PUSH2 0x1D79 PUSH0 DUP4 ADD DUP5 PUSH2 0x1D22 JUMP JUMPDEST SWAP3 SWAP2 POP POP JUMP INVALID LOG2 PUSH5 0x6970667358 0x22 SLT KECCAK256 0x4F DELEGATECALL SUB 0x21 0x49 PUSH24 0x3A07E0B5DE11C4AA3AC7872BF41F1D800565BD9661431727 STOP 0xEF PUSH5 0x736F6C6343 STOP ADDMOD EQ STOP CALLER "
				},
				"gasEstimates": {
					"creation": {
						"codeDepositCost": "1521000",
						"executionCost": "infinite",
						"totalCost": "infinite"
					},
					"external": {
						"allowance(address,address)": "infinite",
						"approve(address,uint256)": "infinite",
						"balanceOf(address)": "2918",
						"claim()": "infinite",
						"claimAmount()": "2448",
						"createIssue(string,uint256)": "infinite",
						"decimals()": "361",
						"getIssue(uint256)": "infinite",
						"maxSupply()": "2491",
						"name()": "infinite",
						"symbol()": "infinite",
						"tokensClaimed(address)": "2900",
						"totalSupply()": "2500",
						"transfer(address,uint256)": "infinite",
						"transferFrom(address,address,uint256)": "infinite",
						"vote(uint256,uint8)": "infinite"
					}
				},
				"methodIdentifiers": {
					"allowance(address,address)": "dd62ed3e",
					"approve(address,uint256)": "095ea7b3",
					"balanceOf(address)": "70a08231",
					"claim()": "4e71d92d",
					"claimAmount()": "830953ab",
					"createIssue(string,uint256)": "8615d855",
					"decimals()": "313ce567",
					"getIssue(uint256)": "976b3113",
					"maxSupply()": "d5abeb01",
					"name()": "06fdde03",
					"symbol()": "95d89b41",
					"tokensClaimed(address)": "624601b6",
					"totalSupply()": "18160ddd",
					"transfer(address,uint256)": "a9059cbb",
					"transferFrom(address,address,uint256)": "23b872dd",
					"vote(uint256,uint8)": "943e8216"
				}
			},
			"storageLayout": {
				"storage": [
					{
						"astId": 159,
						"contract": "contracts/17_ERC20.sol:WeightedVoting",
						"label": "_balances",
						"offset": 0,
						"slot": "0",
						"type": "t_mapping(t_address,t_uint256)"
					},
					{
						"astId": 165,
						"contract": "contracts/17_ERC20.sol:WeightedVoting",
						"label": "_allowances",
						"offset": 0,
						"slot": "1",
						"type": "t_mapping(t_address,t_mapping(t_address,t_uint256))"
					},
					{
						"astId": 167,
						"contract": "contracts/17_ERC20.sol:WeightedVoting",
						"label": "_totalSupply",
						"offset": 0,
						"slot": "2",
						"type": "t_uint256"
					},
					{
						"astId": 169,
						"contract": "contracts/17_ERC20.sol:WeightedVoting",
						"label": "_name",
						"offset": 0,
						"slot": "3",
						"type": "t_string_storage"
					},
					{
						"astId": 171,
						"contract": "contracts/17_ERC20.sol:WeightedVoting",
						"label": "_symbol",
						"offset": 0,
						"slot": "4",
						"type": "t_string_storage"
					},
					{
						"astId": 1407,
						"contract": "contracts/17_ERC20.sol:WeightedVoting",
						"label": "salt",
						"offset": 0,
						"slot": "5",
						"type": "t_string_storage"
					},
					{
						"astId": 1471,
						"contract": "contracts/17_ERC20.sol:WeightedVoting",
						"label": "issues",
						"offset": 0,
						"slot": "6",
						"type": "t_array(t_struct(Issue)1443_storage)dyn_storage"
					},
					{
						"astId": 1475,
						"contract": "contracts/17_ERC20.sol:WeightedVoting",
						"label": "tokensClaimed",
						"offset": 0,
						"slot": "7",
						"type": "t_mapping(t_address,t_bool)"
					},
					{
						"astId": 1478,
						"contract": "contracts/17_ERC20.sol:WeightedVoting",
						"label": "maxSupply",
						"offset": 0,
						"slot": "8",
						"type": "t_uint256"
					},
					{
						"astId": 1481,
						"contract": "contracts/17_ERC20.sol:WeightedVoting",
						"label": "claimAmount",
						"offset": 0,
						"slot": "9",
						"type": "t_uint256"
					}
				],
				"types": {
					"t_address": {
						"encoding": "inplace",
						"label": "address",
						"numberOfBytes": "20"
					},
					"t_array(t_bytes32)dyn_storage": {
						"base": "t_bytes32",
						"encoding": "dynamic_array",
						"label": "bytes32[]",
						"numberOfBytes": "32"
					},
					"t_array(t_struct(Issue)1443_storage)dyn_storage": {
						"base": "t_struct(Issue)1443_storage",
						"encoding": "dynamic_array",
						"label": "struct WeightedVoting.Issue[]",
						"numberOfBytes": "32"
					},
					"t_bool": {
						"encoding": "inplace",
						"label": "bool",
						"numberOfBytes": "1"
					},
					"t_bytes32": {
						"encoding": "inplace",
						"label": "bytes32",
						"numberOfBytes": "32"
					},
					"t_mapping(t_address,t_bool)": {
						"encoding": "mapping",
						"key": "t_address",
						"label": "mapping(address => bool)",
						"numberOfBytes": "32",
						"value": "t_bool"
					},
					"t_mapping(t_address,t_mapping(t_address,t_uint256))": {
						"encoding": "mapping",
						"key": "t_address",
						"label": "mapping(address => mapping(address => uint256))",
						"numberOfBytes": "32",
						"value": "t_mapping(t_address,t_uint256)"
					},
					"t_mapping(t_address,t_uint256)": {
						"encoding": "mapping",
						"key": "t_address",
						"label": "mapping(address => uint256)",
						"numberOfBytes": "32",
						"value": "t_uint256"
					},
					"t_mapping(t_bytes32,t_uint256)": {
						"encoding": "mapping",
						"key": "t_bytes32",
						"label": "mapping(bytes32 => uint256)",
						"numberOfBytes": "32",
						"value": "t_uint256"
					},
					"t_string_storage": {
						"encoding": "bytes",
						"label": "string",
						"numberOfBytes": "32"
					},
					"t_struct(AddressSet)1111_storage": {
						"encoding": "inplace",
						"label": "struct EnumerableSet.AddressSet",
						"members": [
							{
								"astId": 1110,
								"contract": "contracts/17_ERC20.sol:WeightedVoting",
								"label": "_inner",
								"offset": 0,
								"slot": "0",
								"type": "t_struct(Set)796_storage"
							}
						],
						"numberOfBytes": "64"
					},
					"t_struct(Issue)1443_storage": {
						"encoding": "inplace",
						"label": "struct WeightedVoting.Issue",
						"members": [
							{
								"astId": 1426,
								"contract": "contracts/17_ERC20.sol:WeightedVoting",
								"label": "voters",
								"offset": 0,
								"slot": "0",
								"type": "t_struct(AddressSet)1111_storage"
							},
							{
								"astId": 1428,
								"contract": "contracts/17_ERC20.sol:WeightedVoting",
								"label": "issueDesc",
								"offset": 0,
								"slot": "2",
								"type": "t_string_storage"
							},
							{
								"astId": 1430,
								"contract": "contracts/17_ERC20.sol:WeightedVoting",
								"label": "quorum",
								"offset": 0,
								"slot": "3",
								"type": "t_uint256"
							},
							{
								"astId": 1432,
								"contract": "contracts/17_ERC20.sol:WeightedVoting",
								"label": "totalVotes",
								"offset": 0,
								"slot": "4",
								"type": "t_uint256"
							},
							{
								"astId": 1434,
								"contract": "contracts/17_ERC20.sol:WeightedVoting",
								"label": "votesFor",
								"offset": 0,
								"slot": "5",
								"type": "t_uint256"
							},
							{
								"astId": 1436,
								"contract": "contracts/17_ERC20.sol:WeightedVoting",
								"label": "votesAgainst",
								"offset": 0,
								"slot": "6",
								"type": "t_uint256"
							},
							{
								"astId": 1438,
								"contract": "contracts/17_ERC20.sol:WeightedVoting",
								"label": "votesAbstain",
								"offset": 0,
								"slot": "7",
								"type": "t_uint256"
							},
							{
								"astId": 1440,
								"contract": "contracts/17_ERC20.sol:WeightedVoting",
								"label": "passed",
								"offset": 0,
								"slot": "8",
								"type": "t_bool"
							},
							{
								"astId": 1442,
								"contract": "contracts/17_ERC20.sol:WeightedVoting",
								"label": "closed",
								"offset": 1,
								"slot": "8",
								"type": "t_bool"
							}
						],
						"numberOfBytes": "288"
					},
					"t_struct(Set)796_storage": {
						"encoding": "inplace",
						"label": "struct EnumerableSet.Set",
						"members": [
							{
								"astId": 791,
								"contract": "contracts/17_ERC20.sol:WeightedVoting",
								"label": "_values",
								"offset": 0,
								"slot": "0",
								"type": "t_array(t_bytes32)dyn_storage"
							},
							{
								"astId": 795,
								"contract": "contracts/17_ERC20.sol:WeightedVoting",
								"label": "_positions",
								"offset": 0,
								"slot": "1",
								"type": "t_mapping(t_bytes32,t_uint256)"
							}
						],
						"numberOfBytes": "64"
					},
					"t_uint256": {
						"encoding": "inplace",
						"label": "uint256",
						"numberOfBytes": "32"
					}
				}
			},
			"userdoc": {
				"kind": "user",
				"methods": {},
				"version": 1
			}
		}
	}
}